:020000040800F2
:100000000050002041470008751F0008771F0008B6
:10001000791F00087B1F00087D1F000800000000FA
:100020000000000000000000000000007F1F00082A
:10003000811F000800000000831F0008851F0008C2
:100040008947000889470008894700088947000850
:100050008947000889470008894700088947000840
:100060008947000889470008894700088947000830
:10007000894700088947000889470008D51F0008FC
:100080008947000889470008894700088947000810
:100090008947000889470008894700088947000800
:1000A00089470008894700088947000889470008F0
:1000B00089470008894700088947000889470008E0
:1000C00089470008894700088947000889470008D0
:1000D000E51F00088947000889470008894700088C
:1000E0008947000889470008894700080000000088
:1000F0000000000000000000000000000000000000
:0C01000000000000000000005FF808F1A3
:1001100081F0004102E000BF83F0004330B54FEAB8
:1001200041044FEA430594EA050F08BF90EA020F25
:100130001FBF54EA000C55EA020C7FEA645C7FEAB8
:10014000655C00F0E2804FEA5454D4EB5555B8BFDB
:100150006D420CDD2C4480EA020281EA030382EA4C
:10016000000083EA010180EA020281EA0303362DDE
:1001700088BF30BD11F0004F4FEA01314FF4801CB1
:100180004CEA113102D0404261EB410113F0004FC3
:100190004FEA03334CEA133302D0524263EB43037A
:1001A00094EA050F00F0A780A4F10104D5F1200E18
:1001B0000DDB02FA0EFC22FA05F2801841F1000173
:1001C00003FA0EF2801843FA05F359410EE0A5F147
:1001D00020050EF1200E012A03FA0EFC28BF4CF078
:1001E000020C43FA05F3C01851EBE37101F000452E
:1001F00007D54FF0000EDCF1000C7EEB00006EEB3B
:100200000101B1F5801F1BD3B1F5001F0CD34908C4
:100210005FEA30004FEA3C0C04F101044FEA44521B
:1002200012F5800F80F09A80BCF1004F08BF5FEAA2
:10023000500C50F1000041EB045141EA050130BD82
:100240005FEA4C0C404141EB0101013C28BFB1F594
:10025000801FE9D291F0000F04BF01460020B1FADF
:1002600081F308BF2033A3F10B03B3F120020CDAB2
:100270000C3208DD02F1140CC2F10C0201FA0CF090
:1002800021FA02F10CE002F11402D8BFC2F1200CF5
:1002900001FA02F120FA0CFCDCBF41EA0C019040AB
:1002A000E41AA2BF01EB0451294330BD6FEA0404F4
:1002B0001F3C1CDA0C340EDC04F11404C4F12002DF
:1002C00020FA04F001FA02F340EA030021FA04F3F1
:1002D00045EA030130BDC4F10C04C4F1200220FA48
:1002E00002F001FA04F340EA0300294630BD21FA86
:1002F00004F0294630BD94F0000F83F4801306BF4C
:1003000081F480110134013D4EE77FEA645C18BF3F
:100310007FEA655C29D094EA050F08BF90EA020FD6
:1003200005D054EA000C04BF1946104630BD91EACE
:10033000030F1EBF0021002030BD5FEA545C05D1D1
:100340004000494128BF41F0004130BD14F5800410
:100350003CBF01F5801130BD01F0004545F0FE4184
:1003600041F470014FF0000030BD7FEA645C1ABFB9
:10037000194610467FEA655C1CBF0B46024650EAF0
:10038000013406BF52EA033591EA030F41F400211C
:1003900030BD00BF90F0000F04BF0021704730B5A2
:1003A0004FF4806404F132044FF000054FF0000177
:1003B00050E700BF90F0000F04BF0021704730B538
:1003C0004FF4806404F1320410F0004548BF40420D
:1003D0004FF000013EE700BF42004FEAE2014FEA62
:1003E00031014FEA02701FBF12F07F4393F07F4F3D
:1003F00081F06051704732F07F4208BF704793F040
:100400007F4F04BF41F40021704730B54FF4607452
:1004100001F0004521F000411CE700BF50EA010255
:1004200008BF704730B54FF000050AE050EA0102FE
:1004300008BF704730B511F0004502D5404261EB6E
:1004400041014FF4806404F132045FEA915C3FF4AF
:10045000D8AE4FF003025FEADC0C18BF03325FEA4C
:10046000DC0C18BF033202EBDC02C2F1200300FAFD
:1004700003FC20FA02F001FA03FE40EA0E0021FA22
:1004800002F11444BDE600BF70B54FF0FF0C4CF410
:10049000E06C1CEA11541DBF1CEA135594EA0C0FC2
:1004A00095EA0C0F00F0DEF82C4481EA030621EAFD
:1004B0004C5123EA4C5350EA013518BF52EA033538
:1004C00041F4801143F4801338D0A0FB02CE4FF0EA
:1004D0000005E1FB02E506F00042E0FB03E54FF01A
:1004E0000006E1FB03569CF0000F18BF4EF0010E12
:1004F000A4F1FF04B6F5007F64F5407404D25FEA0E
:100500004E0E6D4146EB060642EAC62141EA5551C0
:100510004FEAC52040EA5E504FEACE2EB4F1FD0C02
:1005200088BFBCF5E06F1ED8BEF1004F08BF5FEA80
:10053000500E50F1000041EB045170BD06F0004632
:1005400046EA010140EA020081EA0301B4EB5C04DF
:10055000C2BFD4EB0C0541EA045170BD41F48011D7
:100560004FF0000E013C00F3AB8014F1360FDEBFFC
:10057000002001F0004170BDC4F10004203C35DAD8
:100580000C341BDC04F11404C4F1200500FA05F35B
:1005900020FA04F001FA05F240EA020001F00042FC
:1005A00021F0004110EBD37021FA04F642EB060172
:1005B0005EEA430E08BF20EAD37070BDC4F10C049C
:1005C000C4F1200500FA04F320FA05F001FA04F260
:1005D00040EA020001F0004110EBD37041F100014C
:1005E0005EEA430E08BF20EAD37070BDC4F1200557
:1005F00000FA05F24EEA020E20FA04F301FA05F2BF
:1006000043EA020321FA04F001F0004121FA04F266
:1006100020EA020000EBD3705EEA430E08BF20EA36
:10062000D37070BD94F0000F0FD101F00046400070
:1006300041EB010111F4801F08BF013CF7D041EAF2
:10064000060195F0000F18BF704703F000465200F6
:1006500043EB030313F4801F08BF013DF7D043EAC7
:100660000603704794EA0C0F0CEA135518BF95EA7D
:100670000C0F0CD050EA410618BF52EA4306D1D104
:1006800081EA030101F000414FF0000070BD50EA23
:10069000410606BF1046194652EA430619D094EAAD
:1006A0000C0F02D150EA013613D195EA0C0F05D197
:1006B00052EA03361CBF104619460AD181EA0301EB
:1006C00001F0004141F0FE4141F470014FF00000A3
:1006D00070BD41F0FE4141F4780170BD70B54FF03E
:1006E000FF0C4CF4E06C1CEA11541DBF1CEA1355BE
:1006F00094EA0C0F95EA0C0F00F0A7F8A4EB0504A0
:1007000081EA030E52EA03354FEA013100F0888096
:100710004FEA03334FF0805545EA131343EA12635F
:100720004FEA022245EA111545EA10654FEA002614
:100730000EF000419D4208BF964244F1FD0404F5CD
:10074000407402D25B084FEA3202B61A65EB030529
:100750005B084FEA32024FF480104FF4002CB6EBE6
:10076000020E75EB030E22BFB61A754640EA0C0066
:100770005B084FEA3202B6EB020E75EB030E22BFA6
:10078000B61A754640EA5C005B084FEA3202B6EBE7
:10079000020E75EB030E22BFB61A754640EA9C00A6
:1007A0005B084FEA3202B6EB020E75EB030E22BF76
:1007B000B61A754640EADC0055EA060E18D04FEA34
:1007C000051545EA16754FEA06164FEAC30343EAD4
:1007D00052734FEAC2025FEA1C1CC0D111F4801FA1
:1007E0000BD141EA00014FF000004FF0004CB6E79A
:1007F00011F4801F04BF01430020B4F1FD0C88BF39
:10080000BCF5E06F3FF6AFAEB5EB030C04BFB6EB43
:10081000020C5FEA500C50F1000041EB045170BD36
:100820000EF0004E4EEA113114EB5C04C2BFD4EB63
:100830000C0541EA045170BD41F480114FF0000EE7
:10084000013C90E645EA060E8DE60CEA135594EA63
:100850000C0F08BF95EA0C0F3FF43BAF94EA0C0F66
:100860000AD150EA01347FF434AF95EA0C0F7FF4DB
:1008700025AF104619462CE795EA0C0F06D152EA2F
:1008800003353FF4FDAE1046194622E750EA410613
:1008900018BF52EA43067FF4C5AE50EA41047FF424
:1008A0000DAF52EA43057FF4EBAE12E74FF0FF3C89
:1008B00006E000BF4FF0010C02E000BF4FF0010C5A
:1008C0004DF804CD4FEA410C7FEA6C5C4FEA430CD3
:1008D00018BF7FEA6C5C1BD001B050EA410C0CBF22
:1008E00052EA430C91EA030F02BF90EA020F002084
:1008F000704710F1000F91EA030F58BF994208BFEB
:1009000090422CBFD8176FEAE37040F001007047A7
:100910004FEA410C7FEA6C5C02D150EA013C07D1FE
:100920004FEA430C7FEA6C5CD6D152EA033CD3D049
:100930005DF8040B704700BF8446104662468C4643
:100940001946634600E000BF01B5FFF7B7FF002876
:1009500048BF10F1000F01BD4DF808EDFFF7F4FF9F
:100960000CBF012000205DF808FB00BF4DF808ED2A
:10097000FFF7EAFF34BF012000205DF808FB00BF4D
:100980004DF808EDFFF7E0FF94BF012000205DF86F
:1009900008FB00BF4DF808EDFFF7CEFF94BF012024
:1009A00000205DF808FB00BF4DF808EDFFF7C4FF1D
:1009B00034BF012000205DF808FB00BF4FEA410270
:1009C00012F5001215D211D56FF47873B3EB6252A1
:1009D00012D94FEAC12343F0004343EA505311F0C8
:1009E000004F23FA02F018BF404270474FF000005A
:1009F000704750EA013005D111F0004008BF6FF098
:100A0000004070474FF00000704700BF00F1340114
:100A100091E838009C46A6464CF8045D90E8FF0F2C
:100A2000E54600BD90EC210B704700BF80EC210B28
:100A3000704700BF90EC200B704700BF80EC200B8C
:100A4000704700BFD0EC200B704700BFC0EC200BFC
:100A5000704700BFF0EC0201F0EC0211F0EC022153
:100A6000F0EC0231F0EC0241F0EC0251F0EC0261EA
:100A7000F0EC0271F0EC0281F0EC0291F0EC02A1DA
:100A8000F0EC02B1F0EC02C1F0EC02D1F0EC02E1CA
:100A9000F0EC02F1704700BFE0EC0201E0EC021163
:100AA000E0EC0221E0EC0231E0EC0241E0EC02512A
:100AB000E0EC0261E0EC0271E0EC0281E0EC02911A
:100AC000E0EC02A1E0EC02B1E0EC02C1E0EC02D10A
:100AD000E0EC02E1E0EC02F1704700BFB0FC018104
:100AE000B0FC0191B0FC01A1B0FC01B1704700BFA6
:100AF000A0FC0181A0FC0191A0FC01A1A0FC01B11E
:100B0000704700BFEC4600B52DE900502DE9FF1FEE
:100B10004FF000032DE90C0001A90BF01FF8DDF8E0
:100B200040E012B0704700BFEC4600B52DE9005020
:100B30002DE9FF1F4FF000032DE90C0001A90BF078
:100B40004DF8DDF840E012B0704700BFEC4600B54C
:100B50002DE900502DE9FF1F4FF000032DE90C0097
:100B600001A90BF05BF8DDF840E012B0704700BF60
:100B7000EC4600B52DE900502DE9FF1F4FF00003B2
:100B80002DE90C0001AB0BF01DF8DDF840E012B0D0
:100B9000704700BFEC4600B52DE900502DE9FF1F5E
:100BA0004FF000032DE90C0001AA0BF095F8DDF8D9
:100BB00040E012B0704700BF80EA010C1CF0030F48
:100BC00037D110F0030C20F0030021F0030150F89E
:100BD000042B08BF51F8043B0ED08CF0030C6FF0CF
:100BE0007F434FEACC0C23FA0CFC51F8043B42EA59
:100BF0000C0243EA0C0300BFA2F1013C9A4201BF80
:100C00002CEA020C1CF0803F50F8042B51F8043BF6
:100C1000F2D04FEA02604FEA1222012828BFB0EB5F
:100C2000036F08BF1B0AF4D003F0FF03000EC01AC5
:100C3000704710F0030F0AD010F8012B11F8013B98
:100C4000012A28BF9A42F4D0A2EB030070474DF866
:100C5000045D50F8042B01F0030521F0030151F865
:100C6000043B022D26D04DD822F07F45B5EB132F43
:100C7000A2F1013C2CEA020C0DD11CF0803C08BF13
:100C800051F8043B0AD185EA0205B5EB036F0CD19C
:100C900050F8042BE8E74FEA13235BE03CF07F4C6D
:100CA00054D10B784FEA126554E04FEA126503F015
:100CB000FF034FE04FEA0245A2F1013C4FEA154520
:100CC0002CEA020CB5EB134F18D11CF0803C08BF86
:100CD00051F8043B07D185EA0205B5EB034F09D172
:100CE00050F8042BE6E75FEA0C4C2FD10B884FEA53
:100CF00012452FE04FEA03434FEA12454FEA1343F0
:100D000028E000BF02F0FF05B5EB136FA2F1013C34
:100D10002CEA020C0DD11CF0803C08BF51F8043BBA
:100D20000AD185EA0205B5EB032F0AD150F8042B4E
:100D3000E8E74FEA13630DE012F0FF0F06D051F819
:100D4000043B4FEA122523F07F4303E04FF00000FD
:100D500020BC704705F0FF0203F0FF00012828BF08
:100D6000904204BF2D0A1B0AF4D0A2EB000020BC65
:100D7000704700BF844641EA000313F0030349D1E2
:100D8000403A23D30B6803604B6843608B688360F1
:100D9000CB68C3600B6903614B6943618B698361F5
:100DA000CB69C3610B6A03624B6A43628B6A8362DD
:100DB000CB6AC3620B6B03634B6B43638B6B8363C5
:100DC000CB6BC36340304031403ADBD230320BD37F
:100DD0000B6803604B6843608B688360CB68C360BB
:100DE00010301031103AF3D20C3205D351F8043BD5
:100DF00040F8043B043AF9D2043208D0D2071CBFB1
:100E000011F8013B00F8013B01D30B8803806046D9
:100E1000704700BF082A13D38B07B1D010F003032B
:100E2000AED0C3F10403D21ADB071CBF11F8013B9B
:100E300000F8013BA4D331F8023B20F8023B9FE7C6
:100E4000043AD9D3013A11F8013B00F8013BF9D239
:100E50000B7803704B7843708B78837060467047D3
:100E60004FEA410C7FEA6C5C02D150EA013C0AD1A6
:100E70004FEA430C7FEA6C5C02D152EA033C02D198
:100E80004FF0000070474FF0010070470348044BDB
:100E9000834202D0034B03B118477047700700200C
:100EA00070070020000000000548064B1B1AD90FF0
:100EB00001EBA301491002D0034B03B1184770475F
:100EC00070070020700700200000000010B5064CDD
:100ED000237843B9FFF7DAFF044B13B10448AFF3AB
:100EE00000800123237010BD700700200000000067
:100EF000142F010808B5054B1BB105490548AFF390
:100F00000080BDE80840FFF7CFBF00BF0000000031
:100F100074070020142F010808B50821014803F0C8
:100F200029FB08BD7C09002008B50821014803F011
:100F30008FFB08BD7C090020042803D93C2802D976
:100F40003C2000E00520642303FB00F0024BD86244
:100F5000DA6A5208DA6370470008004038B5154B6A
:100F60001B782BB105460C46134B5B68012B00D058
:100F700038BD114B1B785BB1012B13D0022BF7D17D
:100F8000FFF7CAFF6808FFF7D7FF0C4B1C60EFE7BD
:100F9000FFF7C2FF680000F0FE00FFF7CDFF074B30
:100FA0001C60E5E7FFF7B8FF2846FFF7C5FF034BD6
:100FB0001C60DDE7A8000020A40700208C070020AB
:100FC00038B50446012101F0EEFB0021204601F076
:100FD000B1FC284D2946204601F08EFC264B1422F8
:100FE0000021204601F048FC0121204601F0A2FC2E
:100FF0002946204601F080FC204B0822152120467E
:1010000001F03AFC0021204601F094FC29462046DC
:1010100001F072FC1A4B1E223321204601F02CFCF9
:10102000184B1E224321204601F026FC2F232322A9
:101030000221204601F018FD2F23242203212046FF
:1010400001F012FD0C2320222D21204601F014FD79
:101050000C2321222E21204601F00EFD2946204698
:1010600001F04AFC084B36220121204601F004FC25
:1010700038BD00BF50310108302F0108804A0108F7
:101080001C460108342F0108382F010810B5B4B0F0
:1010900000F024FE00F013FE00F0DAFD254800F019
:1010A000B5FE4FF48061244802F0A0FB002835D142
:1010B0002249204801F02EFC00F10A035B001BB21C
:1010C0001F4A13801F4A1380012200211E4802F08C
:1010D00094FB1E49174801F00FFC00F08BFB002029
:1010E00000F0AEF933A800F0A9F9072218496846C4
:1010F00000F02EF900F05CFB00F0DCF900F0C0FA23
:101100002D210A20FFF72AFF00F078FE094C204627
:10111000FFF756FF204601F07EF8EBE70D49054842
:1011200001F0F8FBC31C5B001BB2054A1380054AA3
:101130001380C9E744080020000C0140542F010827
:10114000D0070020CE0700200008014050310108E0
:10115000040000205C2F010800B583B00A4B5A69D7
:1011600042F001025A615B6903F001030193019BA4
:10117000002211460F2002F085F80F2002F092F8AD
:1011800003B05DF804FB00BF001002402DE9F04100
:1011900088B000240494059406940794454B9A69FA
:1011A00042F010029A619A6902F010020092009ACD
:1011B0009A6942F020029A619A6902F02002019233
:1011C000019A9A6942F004029A619A6902F0040253
:1011D0000292029A9A6942F008029A619B6903F0AE
:1011E00008030393039BDFF8D08022464FF400519D
:1011F000404602F002FB314E224648F204313046AE
:1012000002F0FBFA01221821304602F0F6FA4FF400
:10121000005304930125059506940227079704A916
:10122000404602F0D5F904230493059506970797E5
:1012300004A9304602F0CCF91823049305950695CD
:101240000323079304A9304602F0C2F9E023049374
:101250000594069504A9304602F0BAF94FF44063AC
:10126000049305940694A8F5806804A9404602F00A
:10127000AFF94FF44073049305950694079504A9BC
:10128000304602F0A5F94FF4004304930595069407
:10129000079704A9304602F09BF94FF400730493BA
:1012A0000594069504A9404602F092F908B0BDE8FD
:1012B000F08100BF00100240001001400008014012
:1012C00072B6FEE700B591B02822002106A80CF006
:1012D0008BFB002301930293039304930593012254
:1012E00006924FF4803307934FF4003108910A922D
:1012F00002220D920E934FF4E0130F9306A802F012
:1013000099FA80B90F2301930221029100230393DC
:101310004FF480620492059301A802F0D1FC20B939
:1013200011B05DF804FBFFF7CBFFFFF7C9FF08B56D
:1013300001F02AFFFFF7C6FFFFF728FFFFF70CFFBA
:1013400000F080FD00F0EEFEFFF7A0FEFEE70000DB
:10135000F8B504460D46164628273A4600211430B3
:101360000CF042FB3A46002104F13C000CF03CFB3F
:1013700084F8C160B00003F009FA2060002305E0A2
:10138000226855F8230042F82300013394F8C12065
:101390009A42F5DC002384F8C0303F2191FBF2F142
:1013A00084F8641001FB02F2D2B2013284F86520A5
:1013B000042222712381E3800122A281628163825F
:1013C0002382236819681C4801F0ACFA237900EBEA
:1013D0004300C0B2E073A07300220023C4E91A23C3
:1013E000C4E92023C4E91E23C4E91C23C4E9222341
:1013F000C4E92423C4E92623C4E92823C4E92A2311
:1014000004F1140304F13C0102E00C2223F8022B46
:101410009942FAD104F13C0304F1640102E00C2288
:1014200023F8022B9942FAD100220023C4E92C238D
:10143000C4E92E232046F8BD440800207047000070
:1014400038B500BB124B00221A70124C40212046C6
:1014500002F0CCF9104D28704021204602F0C6F968
:1014600028708021204602F0C1F90C4B187000232F
:101470000B4A13600B4A13600B4A13700B4A13702C
:101480000B4A137038BD024B01221A70DDE700BF12
:101490002000002000080140A1070020A007002034
:1014A0009C07002098070020940700209307002045
:1014B0009207002038B56D4B93F90040002C39D1CC
:1014C00040216B4802F092F96A4B93F90030984240
:1014D00008D12021664802F089F9002800F0C38075
:1014E000204638BD4021624802F080F968B1604D65
:1014F0004021284602F07AF95E4B18708021284678
:1015000002F074F95C4B1870E3E7802100F1804031
:1015100000F5843002F06AF9012806D0574B00220A
:101520001A7001225A600424E1E7544B01241C7014
:101530005C60DCE740214E4802F058F94D4B93F9CE
:101540000030984201D10024C3E74021484802F00E
:101550004DF901282AD0484B93F90030012B61D076
:101560000024454B93F90030002B64D0424B93F993
:10157000005080213E4802F039F9854263D03E4B4D
:1015800093F9005080213A4802F030F9854262D048
:10159000374D4021284602F029F9364B187080213A
:1015A000284602F023F9344B187092E7324B93F936
:1015B0000040012C1ED000242F4B93F900300BB3B8
:1015C0002D4B93F900508021294802F00FF98542F4
:1015D00020D0294B93F900508021254802F006F9CC
:1015E0008542D5D18021224802F000F90128CFD1CF
:1015F0000424CDE780211E4802F0F8F80028DBD053
:101600000024D9E780211A4802F0F0F80128D7D148
:101610000424D5E78021164802F0E8F80028D8D144
:101620000124D6E78021124802F0E0F808B1002436
:1016300097E7042495E780210D4802F0D7F80128A8
:1016400094D1012492E78021094802F0CFF80028C4
:1016500095D1042493E78021054802F0C7F80128BA
:1016600096D1012494E702243AE700BF200000202D
:10167000000801409107002090070020A4070020E7
:10168000012814D0042817D002281BD0324B1B6825
:10169000952B3ADC0023304A1360304A1370304AED
:1016A0001370304A1370304A1360002070472F4B7C
:1016B00001221A705A60E5E72C4B00221A700122B1
:1016C0005A60E1E7244B1B6842F20F72934202DC3E
:1016D0000133214A1360204B1A68962A11D0224BFD
:1016E0001B68013B952B02D81E4B01211970B2F5E6
:1016F000167FDAD11A4B01221A70184B00221A7089
:10170000D3E7164B01211970E9E7144B93F9003028
:10171000012BCAD1134B93F9003033B9124A126826
:10172000002A02DB013210490A60012B0CD00D4B5C
:1017300093F90030002BB8D10B4B1B68962BB4DD0E
:10174000064B00221A70B0E7074B1B68962BEEDCA5
:10175000044B02221A70EAE79C070020940700203D
:10176000930700209207002098070020A40700207C
:1017700008B5032807D8DFE800F002070C11402164
:10178000094802F033F808BD8021074802F02EF81E
:10179000F9E72021044802F029F8F4E74FF400713A
:1017A000024802F023F8EEE700080140000C014077
:1017B00010B5022401E00134E4B2032C15D8204610
:1017C000FFF7D6FF094B43F8340003EBC4035B6813
:1017D0009842F0D0054B03EBC40358600028EAD1CF
:1017E000034B1C7001225A60E5E710BDAC070020D6
:1017F000A40700202DE9F84F0922824B1A70072117
:10180000814B197040238148037003248048047081
:101810001520804D2870804D2B70804D2C70804C91
:101820002070804803708048017080490A70804AA7
:10183000137005217F4B19700C227F4B1A703D23CA
:101840007E4803707E4801707E490A707E4A13709C
:101850007E4D6A6B7E4B1A6095F838302A68127C90
:1018600002FB03F3DB007B4A138004237A4A1370E4
:101870007A4A13707A4A13707A4A13707A4E337028
:1018800000247A4B1C807A4B1C807A4B1C807A4B4C
:101890001C807A4B1C807A4B1C807A4B1C807A4BC4
:1018A0001C807A4B1C807A4B1C807A4B1C807A4BB4
:1018B0001C807223794A1380794A1380794A1380F5
:1018C000794A1380794A1380794A1380794A1380C0
:1018D000794A1380794A1380794A1380794B1C70B6
:1018E000794B1C700123794A1370794A1370794A35
:1018F0001370794A1370794A1370794A1370794AD0
:101900001370794A1370794A1370794A1370794ABF
:101910001370794A1370DFF8E48188F80040784F3B
:101920003C70DFF8E09189F80040DFF8DCA18AF82C
:101930000040DFF8D8B18BF80040754B1C70754B38
:101940001968284600F0EEFF337800EB4300C0B280
:10195000714B1870714B18709BF90020704B53F845
:101960002210284600F0DEFF337800EB4300C0B2BF
:101970006C4B18706C4B18709AF900206B4B53F835
:101980002210284600F0CEFF337800EB4300C0B2AF
:10199000674B1870674B187099F90020664B53F825
:1019A0002210284600F0BEFF337800EB4300C0B29F
:1019B000624B1870624B187098F90020614B53F815
:1019C0002210284600F0AEFF337800EB4300C0B28F
:1019D0005D4B18705D4B187097F900205C4B53F805
:1019E0002210284600F09EFF337800EB4300C0B27F
:1019F000584B1870584B1870584B1C70584B1C7033
:101A0000BDE8F88F240000201608002015080020EB
:101A100023000020050800200408002022000020E8
:101A2000F8070020F7070020CC0700203808002026
:101A30003708002021000020E6070020E5070020ED
:101A40002500002029080020280800204408002044
:101A5000240800202008002000080020EE070020B5
:101A60000C0800201E080020420800203E0800202C
:101A700040080020080800200A0800201A0800205A
:101A80001C080020EA070020EC0700202A0800209C
:101A90002C080020FC070020FE0700200E08002074
:101AA00010080020DE070020E0070020DA070020F1
:101AB000DC0700202E08002030080020F00700205E
:101AC000F2070020D3070020D20700203C080020A6
:101AD0003D080020170800201808002006080020F4
:101AE00007080020E7070020E8070020F90700208A
:101AF000FA0700203508002036080020F6070020ED
:101B0000E407002003080020140800203208002009
:101B100039080020780000203A0800203B08002007
:101B200094000020330800203408002054000020D6
:101B300012080020130800203400002001080020B3
:101B40000208002028000020F4070020F5070020EC
:101B500040000020E2070020E3070020D907002012
:101B6000D807002008B5292903D0492905D001202C
:101B700008BD104601F02CFBF9E70421014801F0F3
:101B80003CFEF4E70008014038B50446A1F1140C0E
:101B9000BCF10C0F08D8DFE80CF0360707091A284B
:101BA0000707070707071400002038BD1946174824
:101BB00002F00EFA154BDB8E9BB2002BFAD10120FE
:101BC000F3E71021124801F018FE0120EDE7036849
:101BD0001A78492101F086FA656922680023927813
:101BE0002C212046A8470120DFE702680023D27895
:101BF0002C214569A84723685A784921204601F0DD
:101C000071FA0120D1E70120CFE700BF1C090020B5
:101C10000008014000B583B08DF8070001290DD000
:101C200000221021084801F0E8FD01220DF1070112
:101C3000064802F0CDF903B05DF804FB0122102143
:101C4000014801F0DAFDF0E7000801401C0900201E
:101C500038B500250AE001210020FFF7DBFF013441
:101C6000E4B214F0800FF6D00135EDB2072D0FD895
:101C7000A5F150000021C0B2FFF7CCFF00210220E7
:101C8000FFF7C8FF00211020FFF7C4FF0024E8E79A
:101C900038BD10B50446A1F150000021C0B2FFF7D5
:101CA000B9FF0234C4F30310002140F01000FFF725
:101CB000B1FF002104F00F00FFF7ACFF10BD08B525
:101CC00000218D20FFF7A6FF00211420FFF7A2FFBF
:101CD0000021AF20FFF79EFF08BD000010B5464C65
:101CE00001220821204601F088FD642001F070FAED
:101CF00000220821204601F080FD642001F068FAEE
:101D000001220821204601F078FD0021AE20FFF7D6
:101D100081FF00212020FFF77DFF00211020FFF729
:101D200079FF0021B020FFF775FF0021C820FFF7E1
:101D300071FF00210846FFF76DFF00211020FFF71B
:101D400069FF00214020FFF765FFCF218120FFF7C9
:101D500061FF00217F20FFF75DFF0021A120FFF739
:101D600059FF0021A620FFF755FF0021A820FFF70B
:101D700051FF00213F20FFF74DFF0021A420FFF776
:101D800049FF0021D320FFF745FF00210846FFF758
:101D900041FF0021D520FFF73DFF0021F020FFF794
:101DA00039FF0021D920FFF735FF00212220FFF75E
:101DB00031FF0021DA20FFF72DFF00211220FFF76D
:101DC00029FF0021DB20FFF725FF00212020FFF75E
:101DD00021FF00218D20FFF71DFF00211420FFF7B8
:101DE00019FF0021AF20FFF715FFFFF731FF00219A
:101DF0000846FFF74EFF10BD0008014008B5024835
:101E000000F0FCF908BD00BF4408002000B583B015
:101E10000190094B094A0A4900F00CFA01A801F0A7
:101E200045F9002101A801F048F901A800F0E6F900
:101E300003B05DF804FB00BF651B0008891B0008A8
:101E4000783F010808B50E480E4B03604FF48273CB
:101E5000436000238360C360022202610122426169
:101E60004FF400728261C3610362436283620A239A
:101E7000C36202F051F800B908BDFFF721FAFBE791
:101E80001C0900200038004010B586B000230293E2
:101E90000393049305930268214B9A4201D006B044
:101EA00010BD044603F5EC33DA6942F48042DA618E
:101EB000DA6902F480420092009A9A6942F00802BC
:101EC0009A619B6903F008030193019B4FF420433F
:101ED0000293022303930323059302A9114801F0FF
:101EE00077FB1148114B036010234360002383608C
:101EF0008022C260036143618361C36101F00AFA19
:101F000058B9094BA3645C6200221146242001F0F9
:101F1000B9F9242001F0C6F9C1E7FFF7D1F9F0E7DC
:101F200000380040000C0140D80800205800024052
:101F300082B00E4B9A6942F001029A619A6902F0EE
:101F400001020092009ADA6942F08052DA61DB699C
:101F500003F080530193019B054A536823F0E0632B
:101F600043F00073536002B0704700BF001002409E
:101F700000000140FEE7FEE7FEE7FEE7FEE77047F0
:101F80007047704708B50F4B1B68ABB1013B0D4A5A
:101F900013600D4A138801339BB21380B3F57A7F27
:101FA00007D30022084B1A80084B1888084908807C
:101FB0001A8001F0FBF808BD012BEAD8FEF7B4FF48
:101FC000E7E700BF8C07002074090020D607002037
:101FD000D407002008B5024801F058FA08BD00BF38
:101FE000D808002008B5024802F0B4F808BD00BFC8
:101FF0001C0900200120704708B50BF02FFE1623A6
:1020000003604FF0FF3008BD08B54FF0FF31FFF718
:10201000F3FFFEE770B50C461646002506E0AFF369
:102020000080214601F8010B01350C46B542F6DB74
:10203000304670BD70B50C461646002504E014F815
:10204000010BAFF300800135B542F8DB304670BDBF
:1020500008B503460B4A126842B10A4A10680344A5
:102060006A46934206D8074A136008BD054A0649E6
:102070001160F2E70BF0F2FD0C2303604FF0FF302C
:10208000F3E700BF78090020001100204FF0FF3077
:1020900070474FF400534B60002070470120704799
:1020A00000207047704700000268094B9A4200D038
:1020B000704782B003F50233DA6942F00402DA6154
:1020C000DB6903F004030193019B02B0704700BF7A
:1020D0000008004000B587B00023029303930493E7
:1020E000059302680D4B9A4202D007B05DF804FBDD
:1020F00003F502339A6942F008029A619B6903F082
:1021000008030193019B4FF480730293022303930E
:10211000059302A9024801F05BFAE6E700080040D7
:10212000000C014000B58BB0002308930993019384
:102130000293039304930593069307931848194A4F
:10214000026047224260836040F2F312C260036182
:10215000836102F03DF9C8B900230893099308A9E7
:102160000F4802F0B7FAA0B960230193002302934D
:1021700003930593082201A9094802F083F958B98D
:102180000748FFF7A7FF0BB05DF804FBFFF798F8CF
:10219000E2E7FFF795F8E7E7FFF792F8F0E700BF0F
:1021A0007C0900200008004010B582B003681B7C49
:1021B000446B03FB01F1C90089B20C440094002177
:1021C00000F05CFF02B010BD2DE9F041064690F82A
:1021D000387090F83950036893F8118000242A462B
:1021E00021463046FFF7E0FF0134E4B20135EDB29D
:1021F000A74201D9A845F2D8BDE8F08108B5036827
:102200001B7C90F8382003FB02F2D2000021406BC7
:102210000BF0EAFB08BD10B50446FFF7D5FF2046DA
:1022200000F052FF10BD0000082303700048704703
:10223000C409002030B585B004460D46009313460E
:10224000084A094900F06AFF0DF10F00FFF7ECFFA3
:1022500001460095054B9DF80F20204600F022FD19
:1022600005B030BD8D2E0008D12F0008E12A0008EE
:10227000405C70474218435C507800EB032080B20A
:1022800070470020704738B504460D4600212846A7
:10229000FFF7EEFF207001212846FFF7E9FF60708D
:1022A00002212846FFF7E4FFA07003212846FFF72C
:1022B000DFFFE07004212846FFF7DAFF20710521D7
:1022C0002846FFF7D5FF607106212846FFF7D0FFAB
:1022D000A07107212846FFF7CBFFE07108212846AF
:1022E000FFF7C6FF207209212846FFF7C1FF607281
:1022F0000A212846FFF7BCFFA0720B212846FFF7F2
:10230000B7FFE0720C212846FFF7B2FF20730D21C2
:102310002846FFF7ADFF60730E212846FFF7A8FFA0
:10232000A0730F212846FFF7A3FFE0731021284672
:10233000FFF79EFF207411212846FFF79BFF608264
:1023400013212846FFF796FFA08215212846FFF7A4
:1023500091FFE08238BD30B5024690F80CE0046889
:10236000207840FA0EF05FFA80FC0EEB0103DBB23E
:10237000072B0FD9CEF1080E5FFA8EFE651C156093
:1023800094F801C00CFA0EFC4CEA000C5FFA8CFCCD
:10239000083BDBB24FF0FF30884013732CEA00009B
:1023A00030BD38B5044600F160050166002380F8B1
:1023B0006C3090F878102846FFF7CDFF84F86A005B
:1023C00094F879102846FFF7C6FF84F86B0094F85C
:1023D000923084F86E30B3FA83F35B0984F86F307F
:1023E00038BD10B50C46FFF7B6FF013CE4B201233F
:1023F000A340C01A40B210BD012B08D0022B09D057
:1024000013B1401A80B27047104480B2704708443C
:1024100080B27047801A80B27047012B08D0022B1F
:1024200009D013B1104480B27047084480B270479D
:10243000801A80B27047401A80B270472DE9F04F81
:1024400089B005468A46079290F968305FFA83FBA7
:1024500090F96920D3B2039319E0CDF814A01FE0DE
:1024600095F86E3085F892300097059B06992846BE
:1024700000F095FAB2453CD3ABEB040454445FFA48
:1024800084FA039B0133DBB203934FF0000B95F901
:102490006A40E4B2A4EB0B06F6B2B245DDD3059672
:1024A000B5F866904FFA8BF19DF90C8095F8707035
:1024B0003B4642460491B5F86400FFF7AEFF069034
:1024C0003B46424604994846FFF796FF0246079B63
:1024D000002BC5D195F86D30002BCBD195F86F301E
:1024E00085F892300097059B0699284600F057FA28
:1024F000C0E70AEB0B0385F8683085F8698009B0FE
:10250000BDE8F08F2DE9F04F85B0044600F160057D
:10251000FFF747FF94F96B7094F87A102846FFF79D
:1025200060FF804694F87B102846FFF75AFF064666
:1025300094F87C102846FFF754FF039094F96A90B2
:10254000B9F1000F55DD3E44F6B2764276B294F80A
:1025500070B05B4632464146B4F86400FFF75DFF59
:102560008246A4F864005B4632464146B4F86600F1
:10257000FFF742FF0246A4F86600BBF1030F68D8DC
:10258000DFE80BF0023B495B1FFA89F353449BB22F
:10259000384480B200905146204600F08BFA40B398
:1025A000002384F8683084F8693094F8761028465F
:1025B000FFF7D1FE804694F877102846FFF7CBFE50
:1025C0000646002241462046FFF738FF01223146E9
:1025D0002046FFF733FF01212846FFF7BCFE002805
:1025E000EFD194F96930BB42DFDB94F86E3084F8A8
:1025F0009230039805B0BDE8F08FAAEB070189B2CD
:1026000001310AF101039BB21FFA89F0104480B234
:102610001FFA81FABEE71FFA89F1AAEB010189B21C
:1026200001310AF101039BB2C61BB6B2013601307B
:1026300080B2B2B21FFA81FAACE70AEB07039BB291
:102640001FFA89F1411A89B20131013080B28AB290
:10265000A0E753469EE770B50E46846D1734FF29F8
:1026600013D8602903D9B0F888301C4406E040290B
:1026700004D9B0F886301C4400E01C44637803B3EE
:102680002278B242F9D1A01C1CE0B0F88A301C4478
:10269000254600212846FFF7EDFD04440221284687
:1026A000FFF7E8FD04358642F3D801E0A3781C4427
:1026B0002278637853EA022305D09E42F6D1E01CCB
:1026C00000E0002070BD0020FCE710B50446A0F833
:1026D0006410A0F866201946FFF7BDFF28B1014637
:1026E0002046FFF70FFF80B210BD0020FCE738B591
:1026F0000446FFF7B0FFB8B101462046FFF751FE90
:1027000004F1600594F87A102846FFF76AFE84F811
:10271000900094F87B102846FFF763FE94F87C1035
:102720002846FFF75EFE38BD0020FCE72DE9F041AA
:1027300004460D46002680F86A6000F02DFB6FF01D
:102740003F08374601E03E44B6B263682978204628
:1027500098474FF6FF7398420FD001354FF6FE733E
:102760009842F2D001462046FFF7C1FF87B218F128
:10277000400FE8D194F99080E5E794F96A307BB195
:10278000F71BBFB29BB23B449BB294F99060B6B2C8
:102790001E44B6B2B8F1000F02DDB0441FFA88F64D
:1027A0003046BDE8F08180F86D107047F8B50446FA
:1027B0000D4616461F4690F87030032B07D8DFE809
:1027C00003F0020D1217C36D9847304486B23B46A2
:1027D000324629462046FFF778FFF8BDC36D98477B
:1027E000281A85B2F3E7C36D9847301A86B2EEE730
:1027F000C36D9847284485B2E9E700002DE9F04110
:1028000004460F4616461D4600F0C6FA4FF0000873
:1028100004E00744BFB240441FFA80F86368297897
:10282000204698474FF6FF72904222D001354FF66E
:10283000FE729042F2D00346324639462046FFF7F8
:10284000B5FF94F87030032BE5D801A252F823F0BD
:102850001328000861280008672800086D28000870
:102860000644B6B2D7E73F1ABFB2D4E7361AB6B2BB
:10287000D1E74046BDE8F08110B5024C4460FFF757
:10288000BDFF10BDE92C0008836D73B390F9812062
:1028900080F88E2090F9823080F88F3090F88D107B
:1028A00019B3012914D000B590F97E1090F980C0B9
:1028B00001EB0C0E724505DAC9B25FFA8CF21144D5
:1028C00080F88E10634501DD80F88FC05DF804FB51
:1028D00090F983108A4201DA80F88E1090F98420F2
:1028E000934202DD80F88F2070477047014BC3652B
:1028F000704700BF83220008836D8B4209D010B55A
:10290000044681657430FFF7BEFC2046FFF7BCFF2C
:1029100010BD704708B5024B4360FFF707FF08BDC5
:10292000E92C000808B5024B4360FFF7FFFE08BD25
:10293000FF2C000880F87010704700B5B0F800E078
:10294000B1F800C0F4441FFA8CFCE64505D99E4559
:1029500013D203F1FF3C1FFA8CFC9E450FD2944525
:102960000FD9964500D372469C4500D86346028035
:102970009B1A0B8001205DF804FB9646EDE70020D2
:10298000F9E70020F7E730B583B0C48F121BC46AA3
:102990009DF81850009592B2A04703B030BD70B5B5
:1029A00084B004469DF82000ADF80E10ADF80C2060
:1029B000ADF80A3094F88C305BB3BDF80A3043B3FD
:1029C000012B03D9022826D003282DD010F00105B1
:1029D00034D1B4F84C20BDF80C309A4219D8B4F870
:1029E0004E20934215D2B4F84A30B4F848200DF185
:1029F0000A010DF10E00FFF7A0FF50B1236B9E6896
:102A00000095BDF80A30BDF80C20BDF80E10204628
:102A1000B04704B070BD8AB2D31A9BB2ADF80E3085
:102A20000133ADF80E30D1E7BDF80C20D31A9BB2BC
:102A3000ADF80C300133ADF80C30C7E7B4F84820DE
:102A4000BDF80E309A42E4D8B4F84A209342E0D25E
:102A5000B4F84E30B4F84C200DF10A0103A8FFF78A
:102A60006CFF0028CAD1D4E710B582B000240094CE
:102A7000FFF795FF02B010BD10B582B0012400949D
:102A8000FFF78DFF02B010BD8A4205D2834209D8FC
:102A90009A4209D901207047834207D99A4207D93F
:102AA00001207047012070470020704700207047C8
:102AB0000020704770B504460D461E46BDF8103024
:102AC000B0F84E10B0F84C00FFF7DEFF38B13346D7
:102AD0002A46B4F84A10B4F84800FFF7D5FF70BD95
:102AE00070B59DF8105002F0070E4FF0010C0CFA73
:102AF0000EFC5FFA8CFC90F89260012E1AD900242B
:102B0000012E19D022F007060268127C06FB02F2A1
:102B100092B20A44416B1144DDB90A782243D2B221
:102B20000A7082EA0C0201F8012B013B9BB2002BD8
:102B3000F3D170BD6446E3E74FF0000CE2E70124F7
:102B40001BE06400E4B24FEA4C0C5FFA8CFC002BF3
:102B5000EFD00A782243D2B20A7082EA0C020A70DD
:102B60000EF10102013B9BB212F0070EE9D1428F38
:102B7000114490F89220012AE1D9012AE7D04FF0C0
:102B8000010CE4E710B5016890F83830DA0082876C
:102B90000A7CD200428790F839E04FEACE02C28721
:102BA00003EB0E0491F811C0644503DDACEB0E0C91
:102BB0001FFA8CF3DB009BB2A0F84020A0F8422063
:102BC0001A44A0F842208B8AA0F84430CB8AA0F89F
:102BD000463010BD08B5FFF7D5FF08BD10B582B06F
:102BE0000446B0F856300093B0F85230B0F8542094
:102BF000B0F85010FFF75EFF20B9002384F88C3046
:102C000002B010BD012384F88C30B4F84820B4F829
:102C100050309A4201D2A4F84830B4F84A20B4F8AF
:102C200052309A4201D9A4F84A30B4F84C20B4F892
:102C300054309A4201D2A4F84C30B4F84E20B4F883
:102C400056309A42DCD9A4F84E30D9E708B50022B4
:102C5000A0F84820B0F84420A0F84A20B0F840205E
:102C6000A0F84C20B0F84220A0F84E20FFF7B6FFA5
:102C700008BD10B582B09DF810400094FFF783FEA8
:102C800002B010BD08B50022A0F85020A0F85420D2
:102C90004FF6FF72A0F85220A0F85620036B5B6835
:102CA000984708BD70B50446049E00258565C3623B
:102CB000416380F8382080F8395080F86D5080F8F2
:102CC000915080F88D50012380F8923080F8933035
:102CD0000663336898472046FFF7D4FF2046FFF786
:102CE00005FE84F8705070BD084611B10A2903D062
:102CF00070474FF6FF7070474FF6FF7070470246FF
:102D00000B4600293FD00A2940D090F8261061BB1D
:102D1000FB2B09D8F72B10D8EF2B14D8DF2B18D8A2
:102D2000BF2B1CD818467047052180F8261003F0E9
:102D3000010313844FF6FE707047042180F82610BB
:102D400003F00303F5E7032180F8261003F00703DF
:102D5000EFE7022180F8261003F00F03E9E70121D5
:102D600080F8261003F01F03E3E70139C9B280F8A9
:102D70002610008C800180B2108403F03F031843BA
:102D8000108431B970474FF6FF7070474FF6FF70EF
:102D900070474FF6FE70F5E7002380F82630704745
:102DA00010B50A46046900232021A04710BD10B5C4
:102DB000134604690A461721A04710BD00B583B029
:102DC0008DF807100DF107020121FFF7F0FF03B0A6
:102DD0005DF804FB10B50A46C46800231521A0471E
:102DE00010BD10B50A46C46800231621A04710BDC7
:102DF00010B51346C4680A461721A04710BD10B588
:102E0000C46800231A461821A04710BD10B5C46835
:102E100000231A461921A04710BD70B582B006469E
:102E20000D4616E015290CD202B070BDFE29FBD16B
:102E300022788DF807202921304600F053F9023519
:102E400007E022788DF80720F46800233046A04779
:102E500002352C4614F8011B1929E7D818290ED27F
:102E60001629DFD91729DFD123788DF807300DF126
:102E7000070201213046FFF7BBFF0235E9E7F5689D
:102E800000231A463046A8472546E2E72DE9F041DF
:102E900004460D4616461F46A1F11403052B22D801
:102EA000DFE803F018030C1518180021FFF778FF6E
:102EB00031462046FFF782FF012012E00021FFF794
:102EC0006FFF31462046FFF779FF012009E001211D
:102ED000FFF766FFD4F810803B463246294620466D
:102EE000C047BDE8F0810020FBE70000F8B50646CA
:102EF00015461C460B39042960D8DFE801F0035F52
:102F00000E21300022B92E49FFF787FF012025E06E
:102F10002C49FFF782FF012020E042B92A49FFF740
:102F20007CFF33689B7C86F82230012016E027491D
:102F3000FFF773FF3368DB7C86F8223001200DE059
:102F4000FFF75DFF81213046FFF744FF29463046F9
:102F5000FFF747FF3046FFF759FF0120F8BDFFF7A5
:102F60004EFF6379DB00DBB296F822701F44FFB29C
:102F700040213046FFF72EFF390941F0100130465D
:102F8000FFF728FF07F00F013046FFF72AFFA1796E
:102F900041F0B0013046FFF724FF2179C9002268D3
:102FA00001F0F8013046FFF723FF6A1E12F0FF051B
:102FB000F3D13046FFF72AFF0120CFE70020CDE70D
:102FC000B43F0108AC3F0108A43F01089C3F010841
:102FD00038B505460C46FFF789FF90B9092C0AD091
:102FE0000A2C0FD1284600F018F807492846FFF7A9
:102FF00014FF012006E00549284600F009F80120E9
:1030000000E0012038BD00BFBC3F0108843F01083B
:1030100001608B7C80F82230704710B50446002395
:103020001A462821D0F814C0E04700231A4614217C
:103030002046D4F80CC0E04701224B21204600F086
:1030400051F823681A792921204600F04BF8002214
:103050004B21204600F046F823681A7929212046A2
:1030600000F040F801224B21204600F03BF8236895
:103070005A792921204600F035F810BD10B582B0EC
:103080008DF805108DF806208DF80430049B009310
:1030900084686B4601220F21A04702B010BD10B515
:1030A000846800231A460921A04710BD10B5846822
:1030B00000231A460A21A04710BD10B50A468468AD
:1030C00000230B21A04710BD10B5846800231A46C9
:1030D0001021A047024A13880133138010BD00BF9E
:1030E000D607002010B544690023A04710BD00207A
:1030F0007047000000230360074A8260C2600261DB
:10310000426180F8233080F826308361FF2380F805
:10311000243080F828307047EF300008F8B50446B6
:103120000F4616461D46FFF7E5FFA760E6602561DE
:10313000069B63612046FFF7B2FFF8BD10B5044659
:103140000E4B1A784FF47A73B3FBF2F30C4A106803
:10315000B0FBF3F000F0B4F868B90F2C01D90120EE
:103160000AE0002221464FF0FF3000F08BF8054BBB
:103170001C60002000E0012010BD00BFB000002056
:10318000AC000020B400002008B5074A136843F0E3
:1031900010031360032000F063F80F20FFF7CEFF49
:1031A000FEF7C6FE002008BD00200240034A116859
:1031B000034B1B780B441360704700BFC40D002005
:1031C000B0000020014B1868704700BFC40D0020FC
:1031D00038B50446FFF7F6FF0546B4F1FF3F02D0CD
:1031E000044B1B781C44FFF7EDFF401BA042FAD3B1
:1031F00038BD00BFB0000020002808DB0901C9B2BB
:1032000000F1604000F5614080F80013704700F065
:103210000F000901C9B2014B1954704714ED00E0C9
:1032200000B500F00700C0F1070CBCF1040F28BF87
:103230004FF0040C031D062B0FD9C31E4FF0FF3EA9
:103240000EFA0CF021EA000199400EFA03FE22EA80
:103250000E0241EA02005DF804FB0023EEE70000E5
:10326000074AD36823F4E0631B041B0C000200F43C
:10327000E060034343F0BF6343F40033D36070471F
:1032800000ED00E010B50446054BD868C0F30220FD
:10329000FFF7C6FF01462046FFF7AEFF10BD00BF97
:1032A00000ED00E0002807DB00F01F0240090123C9
:1032B0009340024A42F82030704700BF00E100E02E
:1032C0000138B0F1807F0BD24FF0E0235861054AFE
:1032D000F02182F823100020986107221A617047BC
:1032E0000120704700ED00E030B40124056CAC40D3
:1032F000C56B6C60046863604368102B05D003687D
:1033000099600368DA6030BC704703689A600368AC
:10331000D960F8E760B310B402460168154B0B445E
:103320001548A0FB03031B099B001364134BD363D5
:10333000022382F82130086820F47F5020F030000A
:10334000536894682343D46823431469234354691E
:10335000234394692343D469234303430B60002030
:103360009063012382F8213082F8200010BC70475E
:1033700001207047F8FFFDBFCDCCCCCC000002404F
:1033800038B5044690F82000012831D0012084F897
:10339000200094F82100012804D0002384F8203074
:1033A000022038BD022084F821000020A063256897
:1033B000286820F0010028602046FFF795FFE36AA7
:1033C0005BB12268136843F00E0313602268136830
:1033D00043F0010313600020E3E72268136823F041
:1033E000040313602268136843F00A031360EDE7D7
:1033F0000220D6E708B590F82130022B03D0042331
:103400008363012008BD0268136823F00E03136074
:103410000268136823F0010313600368194A93429A
:1034200014D0143293421FD0143293421ED014325F
:1034300093421ED0143293421ED01432934202D0D3
:103440004FF0807203E04FF4801200E001220E4B37
:103450005A60012380F82130002380F82030436B2C
:103460006BB198470020CDE71022F0E74FF480724F
:10347000EDE74FF48052EAE74FF48032E7E70020AF
:10348000C0E700BF080002400000024038B5C36B2F
:103490001A6804682568016C04238B40134235D0F8
:1034A00015F0040F32D0236813F0200F03D12368E6
:1034B00023F0040323600368434A934214D0143278
:1034C000934218D01432934217D01432934217D03B
:1034D0001432934217D01432934202D04FF08062DC
:1034E00003E04FF4800200E00422384B5A60C36AC4
:1034F00003B1984738BD4022F7E74FF48062F4E704
:103500004FF48042F1E74FF48022EEE702238B4034
:1035100013423CD015F0020F39D0236813F0200F6E
:1035200006D1236823F00A032360012380F82130A9
:103530000368254A934214D0143293421CD01432AB
:1035400093421BD0143293421BD0143293421BD0AF
:103550001432934202D04FF0007203E04FF4001295
:1035600000E00222194B5A60002380F82030836A61
:10357000002BBFD09847BDE72022F3E74FF400723D
:10358000F0E74FF40052EDE74FF40032EAE708238A
:103590008B401342AED015F0080FABD0236823F058
:1035A0000E032360026CC16B012303FA02F24A602E
:1035B000836380F82130002380F82030036B002BD8
:1035C00098D0984796E700BF0800024000000240EC
:1035D00070B582B00024A446A2E07E4DAB4210D06C
:1035E00007D97D4DAB420CD005F58035AB4208D0F4
:1035F00013E0A5F58015AB4203D005F57025AB426D
:1036000007D18B68002B55D0012B4ED04261082486
:1036100003E0A5F58015AB42F3D0BEF1FF0F4BD808
:1036200006464FEA8C0233680F25954023EA0503CE
:1036300004FA02F2134333604B6813F0805F6DD0DD
:10364000664B9A6942F001029A619B6903F001039B
:103650000193019B4FEA9C02951C614B53F8256036
:103660000CF00305AD000F23AB4026EA03065D4BCB
:10367000984228D003F58063984200F08D8003F5CE
:103680008063984200F08A8003F58063984218D0E6
:10369000042319E0CC68C0E7CC680434BDE7CC68EB
:1036A0000834BAE7CC680C34B7E702610824B4E701
:1036B0000024B2E70424B0E7061DACF10802920032
:1036C000B1E7032300E00023AB4033430232444D13
:1036D00045F822304B6813F4803F61D0424A1368AA
:1036E00043EA0E0313604B6813F4003F5ED03E4A7A
:1036F000536843EA0E0353604B6813F4801F5BD09A
:10370000394A936843EA0E0393604B6813F4001F31
:1037100058D0354AD36843EA0E03D3600CF1010C4C
:103720000B6833FA0CF253D0012202FA0CF203EACE
:10373000020E32EA0303F1D14B68122B3FF64DAF74
:10374000122B3FF66AAF01A555F823F003360008A7
:10375000953600089F360008B13600081B36000871
:103760001B3600081B3600081B3600081B360008F5
:103770001B3600081B3600081B3600081B360008E5
:103780001B3600081B3600081B3600081B360008D5
:1037900099360008A5360008012395E7022393E730
:1037A000114A136823EA0E0313609CE70E4A53681C
:1037B00023EA0E0353609FE70B4A936823EA0E0344
:1037C0009360A2E7084AD36823EA0E03D360A5E713
:1037D00002B070BD00002210000031100010024045
:1037E00000000140000801400004014083681942C4
:1037F00001D001207047002070470AB10161704775
:10380000090401617047000082B0084B1B68084A38
:10381000A2FB03235B0A00FB03F3019300BF019BA0
:103820005A1E0192002BF9D102B07047AC00002063
:10383000D34D6210002800F0F18170B582B00446CB
:10384000036813F0010F2CD0994B5B6803F00C0355
:10385000042B1DD0964B5B6803F00C03082B12D091
:103860006368B3F5803F41D0002B55D103F180430D
:1038700003F504331A6822F480321A601A6822F4BD
:1038800080221A6037E08A4B5B6813F4803FE7D0F0
:10389000874B1B6813F4003F03D06368002B00F0D4
:1038A000BF81236813F0020F75D0814B5B6813F062
:1038B0000C0F5FD07E4B5B6803F00C03082B54D0D9
:1038C0002369002B00F08A807A4B01221A60FFF7EF
:1038D00079FC0546764B1B6813F0020F75D1FFF794
:1038E00071FC401B0228F5D903209EE1704A136841
:1038F00043F480331360636843B3FFF763FC05460A
:103900006B4B1B6813F4003FCBD1FFF75BFC401BF4
:103910006428F5D9032088E1B3F5A02F09D0644BC2
:103920001A6822F480321A601A6822F480221A601F
:10393000E1E703F18043A3F53C331A6842F48022A7
:103940001A601A6842F480321A60D4E7FFF73AFC32
:103950000546574B1B6813F4003FA2D0FFF732FC1B
:10396000401B6428F5D903205FE1514B5B6813F4D9
:10397000803FA5D14E4B1B6813F0020F03D0236983
:10398000012B40F04F814A4A136823F0F803616924
:1039900043EAC1031360236813F0080F33D0A3690F
:1039A000002B5CD0434B0122C3F88024FFF70AFCB4
:1039B00005463F4B5B6A13F0020F21D1FFF702FC73
:1039C000401B0228F5D903202FE1394A136823F060
:1039D000F803616943EAC1031360DCE7354B002259
:1039E0001A60FFF7EFFB0546314B1B6813F0020F1F
:1039F000D1D0FFF7E7FB401B0228F5D9032014E1E3
:103A00000120FFF701FF236813F0040F00F09680F8
:103A1000274BDB6913F0805F34D1254BDA6942F024
:103A20008052DA61DB6903F080530193019B012529
:103A3000214B1B6813F4807F26D0E368012B3DD017
:103A4000002B53D103F1804303F504331A6A22F0AB
:103A500001021A621A6A22F004021A6233E0154B5C
:103A60000022C3F88024FFF7ADFB0546104B5B6ACC
:103A700013F0020FC7D0FFF7A5FB401B0228F5D9B2
:103A80000320D2E00025D3E70B4A136843F4807388
:103A90001360FFF797FB0646074B1B6813F4807F04
:103AA000CBD1FFF78FFB801B6428F5D90320BCE046
:103AB0000010024000004242007000405F4A136A5A
:103AC00043F001031362E36833B3FFF77BFB064661
:103AD0005A4B1B6A13F0020F2FD1FFF773FB801BA9
:103AE00041F288339842F3D903209EE0052B09D098
:103AF000524B1A6A22F001021A621A6A22F0040278
:103B00001A62E0E74D4B1A6A42F004021A621A6A1E
:103B100042F001021A62D6E7FFF754FB0646474B14
:103B20001B6A13F0020F08D0FFF74CFB801B41F219
:103B300088339842F3D9032077E0E5B9E369002B95
:103B400072D03E4A526802F00C02082A56D0022B6C
:103B500017D03B4B00221A66FFF734FB0446374B65
:103B60001B6813F0007F47D0FFF72CFB001B0228D7
:103B7000F5D9032059E0314AD36923F08053D3614A
:103B8000DCE72F4B00221A66FFF71CFB05462B4B88
:103B90001B6813F0007F06D0FFF714FB401B0228C0
:103BA000F5D9032041E0236AB3F5803F1AD02349B9
:103BB0004B6823F47413226A606A024313434B6018
:103BC0001F4B01221A66FFF7FDFA04461B4B1B68C8
:103BD00013F0007F0ED1FFF7F5FA001B0228F5D98C
:103BE000032022E0154A536823F40033A1680B43F5
:103BF0005360DCE7002018E0002016E0012B16D00F
:103C00000E4B5B6803F48031226A914211D103F4B8
:103C10007013626A93420ED1002006E001207047C3
:103C2000012002E0012000E0002002B070BD012070
:103C3000FBE70120F9E70120F7E700BF0010024091
:103C40000000424286B0194B0FCB0DF1180C0CE965
:103C50000F0040F20123ADF80430154B5A6802F012
:103C60000C03042B1CD0082B1CD1C2F38343183344
:103C70006B4413F8100C12F4803F0DD00C4B5B68B2
:103C8000C3F3404318336B4413F8143C094A02FB56
:103C900000F0B0FBF3F006E0074B03FB00F002E09E
:103CA000044800E0054806B0704700BFF43F010833
:103CB000001002400024F40000093D0000127A00C8
:103CC000002800F0A08070B50D460446524B1B68DA
:103CD00003F007038B420BD24F4A136823F007030C
:103CE0000B431360136803F007038B4240F08D8091
:103CF000236813F0020F17D013F0040F04D0474AC3
:103D0000536843F4E0635360236813F0080F04D052
:103D1000424A536843F460535360404A536823F067
:103D2000F003A1680B435360236813F0010F31D0F7
:103D30006368012B20D0022B25D0384A126812F07C
:103D4000020F64D035494A6822F0030213434B60E6
:103D5000FFF738FA0646314B5B6803F00C036268E4
:103D6000B3EB820F16D0FFF72DFA801B41F2883398
:103D70009842F0D9032045E0284A126812F4003F27
:103D8000E0D101203EE0254A126812F0007FD9D12F
:103D9000012037E0204B1B6803F00703AB420AD930
:103DA0001D4A136823F007032B431360136803F0C5
:103DB0000703AB422DD1236813F0040F06D0174A36
:103DC000536823F4E063E1680B435360236813F006
:103DD000080F07D0114A536823F46053216943EA5E
:103DE000C1035360FFF72EFF0C4B5B68C3F3031353
:103DF0000B4AD35CD8400B4B18600B4B1868FFF78D
:103E00009DF9002070BD012070470120FAE70120D4
:103E1000F8E70120F6E700BF002002400010024052
:103E200040310108AC000020B40000202DE9F0472B
:103E300082B00546884617461E46FFF7C3F90A9B1F
:103E40001B1A03EB0609FFF7BDF98246284B1B68D6
:103E5000C3F3CB3309FB03F301932B689C6838EA67
:103E600004040CBF01230023BB423DD0B6F1FF3F49
:103E7000F3D0FFF7A7F9A0EB0A00484507D2019A53
:103E800002B14A46019B013B01939146E5E72A684E
:103E9000536823F0E00353606B68B3F5827F0BD067
:103EA000AB6AB3F5005F14D0012385F851300023CD
:103EB00085F85030032018E0AB68B3F5004F02D00E
:103EC000B3F5806FECD12A68136823F040031360C8
:103ED000E6E72A68136823F4005313602A6813681E
:103EE00043F400531360DFE7002002B0BDE8F08721
:103EF000AC00002010B582B004460B4600920022B0
:103F00008021FFF793FF08B902B010BD636D43F045
:103F1000200363650320F7E7002856D010B5044658
:103F2000436A33B94368B3F5827F05D00023C36188
:103F300002E00023036143610023A36294F851303F
:103F4000002B3CD0022384F851302268136823F000
:103F500040031360636803F48273A26802F40442AE
:103F60001343E26802F400621343226902F0020282
:103F70001343626902F001021343A26902F4007262
:103F80001343E26902F038021343226A02F080020E
:103F90001343A26A02F40052216813430B60638B3F
:103FA000226803F0040353602268D36923F400639A
:103FB000D36100206065012384F8513010BD84F87E
:103FC00050302046FDF760FFBCE70120704700003D
:103FD00038B590F85030012B61D00446012380F8A9
:103FE000503090F85150EDB29D4252D1002951D03D
:103FF000002A4FD0032380F851300023436501632A
:104000008286C2868363436403648387C38783682D
:10401000B3F5004F2AD0A36C224ADA62A36C224A7D
:104020009A62A36C214A1A63A36C00225A63226825
:10403000E38E9BB20C32216BA06CFFF7A1F9014615
:10404000F8B923681A6812F0400F03D11A6842F0D9
:1040500040021A602268536843F0200353602268CC
:10406000536843F0020353600D4613E0026813687F
:1040700023F0400313600268136843F48043136025
:10408000C9E7636D43F010036365012384F8513081
:1040900000E00225002384F85030284638BD022570
:1040A000FBE700BFB5400008E3400008C14000083E
:1040B0007047704708B5406AFFF7FBFF08BD7047BF
:1040C00008B5406A0268536823F003035360436DE8
:1040D00043F010034365012380F85130FFF7EFFFF1
:1040E00008BD30B583B00546446AFFF76BF82B680E
:1040F0001B6813F0200F23D1024621684B6823F080
:1041000020034B6021684B6823F002034B6064215D
:104110002046FFF7EFFE18B1636D43F0200363659F
:10412000A36833B901932368DA6801929B6801930D
:10413000019B0023E386012384F85130636D23B98A
:104140002046FFF7B5FF03B030BD2046FFF7B7FFAD
:10415000F9E7000010B584B004460268516893681E
:1041600003F0410001285AD013F0020F02D011F0E1
:10417000800F5BD113F0600F5BD011F0200F58D08F
:1041800013F0400F0FD094F85100C0B2032852D062
:10419000606D40F00400606500200190D0680190DF
:1041A00090680190019813F0200F0CD0636D43F0DC
:1041B000010363650023039393680393136823F05B
:1041C00040031360039B636D002B32D02268536859
:1041D00023F0E0035360012384F8513011F0030F02
:1041E00031D02268536823F003035360E36C4BB172
:1041F000174A5A63E06CFFF7FDF818B1636D43F09E
:1042000040036365A36CA3B1114A5A63A06CFFF726
:10421000F1F870B1636D43F04003636509E011F09C
:10422000400FA1D0236C2046984702E0636C2046E3
:10423000984704B010BD00230293D368029393689B
:104240000293029BF5E72046FFF739FFF1E700BF35
:104250005542000808B5406A0023C387C386FFF7AC
:104260002EFF08BD30B4036A23F001030362026A23
:104270004568836923F073030C681C4322F0020233
:104280008B6813430B4A904206D0456084614A68AC
:104290004263036230BC704723F00803CA681A43C4
:1042A00022F0040325F440754A692A438D691543B9
:1042B000EBE700BF002C014030B4036A23F48073A5
:1042C0000362036A4468C26922F073020D681543F1
:1042D00023F400738A6843EA02230D4A904206D011
:1042E0004460C5614A68C263036230BC704723F40E
:1042F0000063CA6843EA022323F4806324F4405431
:104300004A6944EA02148A6944EA0214E8E700BFF1
:10431000002C014030B4036A23F480530362036A23
:104320004468C26922F4E6420D6842EA052223F499
:1043300000538D6843EA0533074DA84206D0446018
:10434000C2614A680264036230BC704724F480444E
:104350004D6944EA8514F2E7002C014003681B4ACA
:1043600090420AD0B0F1804F07D0A2F5943290422B
:1043700003D002F58062904203D123F070034A68B3
:104380001343124A90420AD0B0F1804F07D0A2F5F1
:104390009432904203D002F58062904203D123F41C
:1043A0004073CA68134323F080034A6913430360D0
:1043B0008B68C3620B688362044B984202D001236E
:1043C000436170470B690363F9E700BF002C0140AC
:1043D00040B310B5044690F83D30F3B1022384F8A1
:1043E0003D30214651F8040BFFF7B8FF012384F854
:1043F000463084F83E3084F83F3084F8403084F80A
:10440000413084F8423084F8433084F8443084F8F2
:10441000453084F83D30002010BD80F83C30FDF779
:1044200043FEDBE70120704730B4036A23F010033A
:104430000362036A4468826922F4E6420D6842EA34
:10444000052223F020038D6843EA05130C4DA84292
:1044500006D0446082614A688263036230BC704760
:1044600023F08003CD6843EA051323F0400324F4CE
:1044700040644D6944EA85048D6944EA8504E8E7AF
:10448000002C014038B590F83C30012B60D0044638
:104490000D46012380F83C300C2A1AD8DFE802F0E0
:1044A000071919191D19191931191919440000682A
:1044B000FFF7D8FE2268936943F0080393612268EE
:1044C000936923F0040393612268936929690B437C
:1044D0009361002084F83C0038BD0068FFF7A4FF1A
:1044E0002268936943F4006393612268936923F41B
:1044F0008063936122689369296943EA0123936188
:10450000E7E70068FFF7D8FE2268D36943F00803A5
:10451000D3612268D36923F00403D3612268D3698D
:1045200029690B43D361D4E70068FFF7F3FE2268E3
:10453000D36943F40063D3612268D36923F48063B1
:10454000D3612268D369296943EA0123D361C0E7B3
:104550000220C1E701F01F014FF0010C0CFA01FC31
:10456000036A23EA0C030362036A8A40134303626B
:104570007047000010B50446084651BB94F83E3021
:10458000DBB2013B18BF0123002B5BD1002839D1DE
:10459000022384F83E30012201462068FFF7DAFF4B
:1045A00023682A4A93423DD02368284A93423ED04A
:1045B000B3F1804F3BD0A2F59432934237D002F54D
:1045C0008062934233D01A6842F001021A600020E0
:1045D00039E0042908D008290DD094F84130DBB225
:1045E000013B18BF0123CFE794F83F30DBB2013B1A
:1045F00018BF0123C8E794F84030DBB2013B18BF75
:104600000123C1E7042805D0082807D0022384F835
:104610004130C0E7022384F83F30BCE7022384F82E
:104620004030B8E75A6C42F400425A64BCE79A68DA
:1046300002F00702062A07D01A6842F001021A6047
:10464000002000E0012010BD0020FCE7002C01400C
:1046500038B504460D4600220068FFF77BFF23684B
:104660001B4A934214D02368196A41F21112114275
:1046700008D1196A40F24442114203D11A6822F06B
:1046800001021A609DB9012384F83E30002038BD34
:10469000196A41F211121142E5D1196A40F24442FD
:1046A0001142E0D15A6C22F400425A64DBE7042D37
:1046B00005D0082D07D0012384F84130E6E7012317
:1046C00084F83F30E2E7012384F84030DEE700BFA2
:1046D000002C014090F83C20012A2CD010B4034655
:1046E000012280F83C20022280F83D2002685068B8
:1046F000946820F0700C086840EA0C0050601A685A
:104700000E4882420AD0B2F1804F07D0A0F5943013
:10471000824203D000F58060824204D124F08004FC
:10472000496821439160012283F83D20002083F8ED
:104730003C0010BC70470220704700BF002C0140B5
:104740000C480D490D4A002302E0D458C4500433EC
:10475000C4188C42F9D30A4A0A4C002301E01360C2
:104760000432A242FBD3FDF79DFC09F07DFAFCF771
:10477000DEFD70470000002070070020A0590108EE
:104780007007002000110020FEE7000000F000B8D4
:10479000012838BF012010B50446204607F050FF1D
:1047A00000B110BD00F0AAF908B18047F5E7042078
:1047B00000F090F8024B034A0349036000F04AF905
:1047C0003C400108D54700082840010800487047D0
:1047D0000840010810B50446024B036000F0B6F82B
:1047E000204610BD3C40010810B50446044B036050
:1047F00000F0ACF82046042100F004F8204610BD7B
:104800003C40010806F046BB1B4930B54B6850F8E8
:10481000084CA0F1080543B305EB040E734524D8FA
:104820001ED05A6801F1040C32B90EE0516803F150
:10483000040C134639B10A469645F7D302BFDEE9A8
:1048400000215960A418DCF800301A6899188D42CC
:104850000FD05B6840E90243DCF800305D6030BD9A
:104860001A685B68224440F8082C40F8043C4D600C
:1048700030BD22441A6030BDC80D002014490830F4
:104880004B68082838BF0820CBB1073020F007025A
:10489000081D02E0181D5B688BB119688A42F9D8BF
:1048A00030B48C1A072C0CD959689D1869609C503B
:1048B00003681A6008330560184630BC7047184614
:1048C00070475D68196008330560184630BC704752
:1048D000C80D002010B500F18004204607F0B0FE9E
:1048E000034630B180220021184609F07DF880305F
:1048F00010BD2046FFF7C2FF03460028F2D100F0AA
:104900003DF800BF064A80389368984205D9D268BE
:104910001344984201D2FFF777BF07F099BE00BF5A
:10492000C80D002038B54FF41E65074C2846E560D9
:1049300007F086FEA06020B10023C0E9005360604C
:1049400038BDE060FBE700BFC80D0020704700BF26
:10495000704700BF004870474840010810B5044642
:104960000421FFF74FFF204610BD00BF08B5804768
:1049700007F05EFE06F056FB07F05AFE08B5034B43
:104980001868BFF35B8FFFF7F1FF00BFBC0000208A
:1049900008B58047FFF7F2FF08B5034B1868BFF36F
:1049A0005B8FFFF7F5FF00BFB8000020024B1868CF
:1049B000BFF35B8F704700BFBC000020024B18683C
:1049C000BFF35B8F704700BFB8000020012810B50F
:1049D0001AD8BFF35B8FA1F1280353E8002F013AE7
:1049E00043E800200028F8D1BFF35B8F5AB951F893
:1049F0001C3C01F158040BB1204698472046BDE805
:104A00001040FFF77FBF10BD51F8140CFFF7AEFF49
:104A1000002310B540E91E1240F8803C0446FFF721
:104A2000CDFF44F8700CFFF7C1FF03460649074865
:104A3000074A44F8580C44F8541C44F8502CA4F18C
:104A4000800044F86C3C10BD432B2B00474E55436F
:104A5000CD49000870B504460E46154606F06CFBBD
:104A6000034620465C68314601342A465C60FFF705
:104A7000CFFF0123044644F8283B2046FCF742F8C8
:104A8000204606F0CFFAFFF779FF00BF10B506F019
:104A900053FBD0E900420132426064B194F8202017
:104AA000472A0AD00022026020342046FCF74EF844
:104AB000204606F0B7FAFFF761FF94F821204E2A4E
:104AC000F0D194F82220552AECD194F82320432ADF
:104AD000E8D194F82420432AE4D194F825202B2A05
:104AE000E0D194F826202B2ADCD194F82720012A43
:104AF000D8D8626952426261D6E700BF024B18689B
:104B0000BFF35B8F704700BFD80D002010B504467F
:104B1000024B036000F048F9204610BD38410108FF
:104B200010B50446044B036000F03EF920460C210A
:104B3000FFF768FE204610BD3841010870B582B00D
:104B4000069E044696420D4609D0A0682946046890
:104B50000696246AA44602B0BDE870406047194634
:104B60000192009300F064F8DDE900320028ECD0F7
:104B7000062002B070BD00BF2DE9F04F0D4681B098
:104B80001946DDE90A8BDDE90CA91C4607461646E5
:104B900000F04EF880B9D04527D0B86823460468A5
:104BA000CDE90CA9CDE90A8BE46932462946A44631
:104BB00001B0BDE8F04F6047002DC9F8008089F8CA
:104BC00004600CDBA844C24514BF4FF001084FF04D
:104BD000060889F80680002001B0BDE8F08F023594
:104BE000F9D1012389F80630F5E75946384600F037
:104BF0001FF80028D1D089F80560ECE72DE9F041D5
:104C000006460F4614461D4600F008F948B9B0683C
:104C10002B4605682246AC693946A446BDE8F041FA
:104C20006047BDE8F08100BF704700BF00207047BB
:104C3000814211D008B5406803782A2B0AD0496810
:104C40000B782A2B08BF0131FBF7B6FFB0FA80F0D2
:104C5000400908BD002008BD0120704770B53B4BDE
:104C600082B01A78002A41D101241C7006F070FD30
:104C7000002831D000224FF0FF36446811462378D7
:104C800001962A2B08BF013401AB204606F0A4F898
:104C90002F4D06462B683022DB6801212D4808F095
:104CA00087FC019B93B12B682046D96808F096FADF
:104CB0002B680222DB680121274808F079FC019B60
:104CC00013B9304607F0C4FCFFF7E0FE2B6830460E
:104CD000D96808F083FAEBE71D4B2D221B682146AB
:104CE000DB681E4808F064FC07F0A2FC184B1D228C
:104CF0001B680121DB681A4808F05AFC07F098FC91
:104D000001290C4619D106F08DF903689B68984774
:104D10002B6806460B222146DB68124808F048FC47
:104D20002B683046D96808F059FA2B680A20D968F0
:104D300008F0E6F906F0B6F9D6E706F073F906F0E2
:104D4000B1F9D1E706F0AEF906F0A6F8DC0D0020C7
:104D5000DC04002094410108C8410108CC4101084D
:104D600074410108FC410108102370B5002484B08F
:104D70000293036815469E6912686B46009401947D
:104D80000394B0479DF8043003F00603062B09BFD7
:104D900001202046009B2B6004B070BD009890421B
:104DA0000CBF06200120704710B50446024B03607B
:104DB000FFF73AFF204610BD4042010810B50446F7
:104DC000044B0360FFF730FF20460821FFF71AFD70
:104DD000204610BD404201082DE9F041069FDDE963
:104DE00008158F42044690461E460CD03146204698
:104DF000FFF71EFF20B101232F6085F80480AB71FF
:104E00000020BDE8F0810799FFF712FF0028EDD0E0
:104E1000002085F80580BDE8F08100BF38B5154653
:104E20001C46FFF705FF00B938BD082206232560A0
:104E3000E260237138BD00BF2DE9F04106461746F8
:104E40001D460C46FFF7F4FE48B9032D07D823682A
:104E50003A4631462046BDE8F0415B691847BDE857
:104E6000F08100BF312970B5864643D8282928D85B
:104E70000A291ED90120A1F10B04E4B2A040304C54
:104E80000440002C4DD0D2B1DEE90540844216DA50
:104E90000026DEF8105004EB840C05EB8C00013486
:104EA00046608660CEF8144005F82C10C0E9032354
:104EB00070BD042930D9A1F109000128E3D90020EF
:104EC00070BDA1F129000828F9D801A454F820F0F8
:104ED000894E00081D4F0008194F0008BF4E0008FA
:104EE000194F0008894E0008894E0008874E0008B7
:104EF0001D4F0008A1F13400C0B21D28DFD84FF0CB
:104F0000010C0CFA00FC0F480CEA00000028BAD192
:104F10000D480CEA000070B1002AD0D0002BB3D1AC
:104F2000CDE710F47F1FAFD1084C0440002CC6D051
:104F3000002AF3D1C3E71CF0505CC0D0A4E700BF47
:104F4000FE1F802F0711C701F82E000A0100400044
:104F500070B5C268864611786E2924D03039CBB23C
:104F6000092B2AD8002600206FF00045144C06E0DB
:104F70001946EB1AA4FB03C3B0EBD30F10DC0132CC
:104F8000CEF80C20137800EB8000303B5FFA83FCF6
:104F9000BCF1090F01EB4000EAD906B1404270BDF7
:104FA0004FF0FF3070BD531CC36051783039CAB226
:104FB000092A02D81A460126D5E7002070BD00BF95
:104FC000CDCCCCCC10B5044629B9C3681A786AB1E7
:104FD0005A1CC2601978682917D0762906D1204654
:104FE000FFF7B6FFE3681A785F2A01D0002010BDF2
:104FF00001332046E360FFF7ABFFE3681A785F2ACE
:10500000F4D101200344E36010BD2046FFF7A0FF68
:10501000F3E700BFC3681A785F2A01D00120704708
:1050200010B55A1CC2605A7804465F2A04D0FFF7B4
:105030008FFFC043C00F10BD0233C360FFF788FF6E
:10504000002807DB092801DC012010BDE3681A787D
:105050005F2A01D0002010BD0133E360F4E700BFF8
:10506000002966D038B505460C46A368012B03F12C
:10507000010337DCD5F81C01B0F5806F32DC2278F3
:10508000A360531E502B2DD8DFE803F03131314C93
:105090002C2C2D2D31313131313131313131313112
:1050A0003131312C313131313131313131314242D3
:1050B00031312C313131312931313131312C2D31F6
:1050C000313131313131313131313131312C2C31DA
:1050D000292929292C313131313131313100E4682C
:1050E000002CC2D138BD2469002CBED1FAE7E1689A
:1050F000431CC5F81C312846FFF7B2FF284621693A
:10510000FFF7AEFFD5F81C31013BC5F81C3138BDA7
:10511000E1680B78052BEBD1D5F838310133C5F8B0
:105120003831E5E7D5F84431E1680133C5F8443159
:10513000DEE77047034600202BB909E0DA682AB1A0
:105140001B6901301BB11A782F2AF7D070477047BE
:105150001846704720B909E039B10069013930B10A
:1051600003782F2BF8D000207047C0687047704735
:10517000F0B514465268A5684B1C1344AB420E466A
:10518000074683B011D8E5686DB963682068324678
:1051900018443946FBF7EEFDD4E9003233449D5400
:1051A00063683344636003B0F0BDE268002AFAD15B
:1051B00055B16D00AB42FCD82946206807F010FDC0
:1051C00038B12060A560DEE7022B4FF00205F0D871
:1051D000F2E70190206807F03BFA0122019BE260B0
:1051E00023606360A360DEE70378722B07D0562B41
:1051F00005D04B2B03D0442B03D000207047012057
:1052000070474078A0F17703012BF8D900F0DF0058
:10521000A0F14F00B0FA80F04009704770B50D461C
:10522000D0F800110446FF2906D04B1CC4F8003109
:10523000655484F8045170BD0026D0E9423280F8EC
:10524000FF60984701233146D4F82821C4F8003183
:105250001A44C4F82821655484F8045170BD00BF75
:10526000D0F810318BB15A68CB681069002B0BDB7A
:1052700020B906E03BB10069013B10B102782F2A4A
:10528000F8D000207047C06870470123C0F818317B
:10529000F7E700BF00293FD02DE9F04105460C4655
:1052A0004FF001081D4F1E4E2378082B08D8082BFD
:1052B00012D8DFE803F01911111111261916160082
:1052C0002C2B14D9323BDBB21B2B05D808FA03F286
:1052D0003A4209D1012B04D02846E168FFF7DAFFF2
:1052E00018B92469002CDFD10020BDE8F081172B0C
:1052F000F2D9183BDBB226FA03F3DB07ECD500202A
:10530000F3E721462846FFF7ABFF0028ECD00378EF
:105310002F2BEAD00020E8E7002070470100E30CC3
:10532000018010002DE9F041044608460D4608F0C2
:1053300025FD40B3013D4FF00008D4F800112F18AF
:1053400009E00B46BD4201F10101C4F80011E65429
:1053500084F8046117D0FF2915F8016FF1D1D4E961
:105360004232204684F8FF80984701210023D4F878
:105370002821BD420A44C4F82821C4F80011E6548B
:1053800084F80461E7D1BDE8F08100BF38B5C26898
:105390001378542B27D1531CC360527804465F2ADC
:1053A00023D06E2A1FD0FFF7D3FD411C1BD4E36826
:1053B0001A785F2A17D1D4E9052001338242E360CD
:1053C00011DA4FF0000E0525236902EB820C03EB86
:1053D0008C000132C0F804E0C0F808E0626103F814
:1053E0002C50C16038BD002038BD0021E3E700BF6C
:1053F0002DE9F04188B00A4604461A4901A808F090
:1054000025F901A808F0BAFC40B301AD4FF000083F
:10541000D4F800112F1809E00B46AF4201F1010149
:10542000C4F80011E65484F8046117D0FF2915F878
:10543000016BF1D1D4E94232204684F8FF809847CD
:1054400001210023D4F82821AF420A44C4F82821BE
:10545000C4F80011E65484F80461E7D108B0BDE84F
:10546000F08100BF6442010870B50446FFF770FD8B
:10547000051E46DDE66863689B1B9D423EDCA26814
:1054800073195207E36004D5725D242A04BF013307
:10549000E360092D22DD08223046294908F0F6F99B
:1054A00030B9337A2E2B2ED05F2B2CD0242B2AD040
:1054B000D4E905329A4221DD0022206903EB830101
:1054C00000EB81000133426082606361002303705E
:1054D000C0E9036543608360A06270BDD4E9053212
:1054E00093420BDA0022206903EB830100EB810079
:1054F0000133426082606361002EE7D10020A06228
:1055000070BD002070BD737A4E2BD1D1E26A636901
:10551000A1691632521B8B42E262EFDA03EB830081
:1055200001336361152100232269064D860002EBD9
:105530008000436083609355C0E90351DFE700BFFB
:1055400068420108744201082DE9F843C3681A78DB
:10555000532A26D15A1CC2605A7804464AB39A1C70
:10556000C2605A785F2A49D0A2F13000C3B2092B39
:105570001BD8002106E0E06012785F2A34D019467B
:10558000A2F13000C0B201EBC103092802EB830392
:1055900020D8303B994204D8E2681178501C002989
:1055A000E9D100252846BDE8F883A2F14103192B73
:1055B000DFD9A36813F0080322D0191E18BF0121F8
:1055C000454B03F1C4051878904221D01C33AB42FF
:1055D000F9D1E6E7A2F14103192BE2D801EBC103AF
:1055E00002EB8303373BD5E70133226A9A42D8D9CD
:1055F000E26952F823502846BDE8F8830023F4E717
:105600000029DAD0E068007843380128D5D8D7E7F8
:105610005E69002E59D0D4E90525AA42D3F8188036
:1056200058DA4FF0000E4FF01809276902EB820C90
:1056300007EB8C000132C0F804E0C0F808E06261BA
:1056400007F82C90C0E90368A06200293AD0D3E99A
:105650000371E36AAA420B44E36239DA00264FF091
:10566000180C236902EB820003EB800501326E60A7
:10567000AE60626103F820C0C5E90371E3681A787F
:10568000422A8FD1A66A0133E3602046FFF7ECFE81
:105690002A4603464D212046FFF7E4FBE368054612
:1056A0001A78422AEFD0A66200283FF47AAFD4E9F4
:1056B00008329342BFF675AFE1695A1C41F82300E6
:1056C00022626FE7D3E90171C3E7D4E90525BCE79E
:1056D0000025D3E70020B7E7184B01082DE9F04378
:1056E000C268044683B01046FFF77EFD002862D1F1
:1056F00013785A2B33D82F2B40F28D80303B2A2B36
:1057000000F28980DFE813F08900890089008900B0
:105710008900890089008900890089008700870045
:1057200087008700870087008700C2018700490142
:10573000B2008700AC009E008700870087008700CA
:105740008700040289009701890187007B015701C6
:105750002201AA0187008700870087008900613B3A
:105760005FFA83FCBCF1190F55D80121B94D01FA3C
:105770000CF10D40002D4AD0B74903EB830301EB38
:105780008301D4E90535AB4280F2A9834FF0270E9F
:10579000266903EB830C06EB8C0501336860A86077
:1057A000636106F82CE0E36AE960496801320B4462
:1057B000E260E36224E00022204601A901F0C2FA7F
:1057C000054640B3E36820461B78462B1CD0FFF704
:1057D00085FF2860F8B103781F3B012B05D8019A9B
:1057E000C368C2602A6801922B60019D9DB1D4E913
:1057F000083293420FDAE1695A1C41F823502262C1
:10580000284603B0BDE8F08300F0E6FBE1E7BCF119
:10581000140F00F0F6820025F2E7204601F0D2FDD9
:1058200005460190002DF6D0D4E908329342F2DA11
:10583000E1695A1C41F82350019D2262284603B0B9
:10584000BDE8F0830132E2602046FFF747FF002306
:10585000024626212046FFF705FB05460190E1E7B9
:10586000204600F0B9FB05460190DBE7531CE360DE
:105870005378002BCFD0931CE3605378463B302BFA
:10588000C9D801A151F823F07D5B00081758000822
:10589000175800081758000817580008175800082C
:1058A000175800081758000817580008175800081C
:1058B000175800081758000817580008175800080C
:1058C000415B0008175800081758000817580008CF
:1058D00017580008175800081758000817580008EC
:1058E00017580008175800081758000817580008DC
:1058F00017580008155C000817580008E95B0008F5
:10590000C75C0008975C0008675C0008175800082F
:10591000375C0008E75D00081758000817580008B2
:105920001758000817580008B75D000817580008F6
:105930009F5D000817580008175800086F5D0008A1
:10594000415B00083F5D0008E55C00082046FFF76A
:105950001DFDE668054633780190492B7FF462AF60
:10596000636B002B40F0858200283FF454AFD4E9EC
:1059700008218A42BFF64FAFE16941F822000132A7
:1059800022623278493A012A05D801362046E6607B
:1059900000F04AFE03462A462AE00132E260204631
:1059A000FFF79CFE0023024625212046FFF75AFA06
:1059B0000546019036E75378A3F13002092A05D94C
:1059C0005F2B03D0413B192B00F246820021204679
:1059D000FFF7BAFDE36805461A780190492A7FF47B
:1059E0000FAF0133E360204600F01EFE2A46034657
:1059F00004212046FFF736FA0546019012E70132EE
:105A0000E2602046FFF76AFE00230246232120467B
:105A1000FFF728FA0546019004E70132E2602046CC
:105A2000FFF75CFE0023024622212046FFF71AFA08
:105A300005460190F6E60132E2602046FFF74EFE91
:105A40000023024624212046FFF70CFA0546019068
:105A5000E8E600BFFF7BEC036C5001080132E26016
:105A60002046FFF701FDE36805461A780190492AB0
:105A700000F0D7812046FFF731FE2B460246212158
:105A80002046FFF7EFF905460190CBE6551CE5608F
:105A900053785F2B00F0C381303B092B00F2CE819D
:105AA0002B469C460133E360197830390929F8D92F
:105AB000D4E905108142ACEB0202BFF6ACAE002087
:105AC000276901EB810E07EB8E060131824270607F
:105AD000B0604FEA8E0E61617FF79DAE7060B0607E
