:020000040800F2
:10000000005000207D6700084D4C00084F4C000850
:10001000514C0008534C0008554C000800000000EB
:10002000000000000000000000000000574C000825
:10003000594C0008000000005B4C00085D4C0008B3
:10004000C5670008C5670008C5670008C5670008E0
:10005000C5670008C5670008C5670008C5670008D0
:10006000C5670008C5670008C5670008C5670008C0
:10007000C5670008C5670008C56700089D4C0008F3
:10008000C5670008C5670008C5670008C5670008A0
:10009000C5670008C5670008C5670008C567000890
:1000A000C5670008C5670008C5670008C567000880
:1000B000C5670008C5670008AD4C0008C5670008A3
:1000C000C5670008C5670008C5670008C567000860
:1000D000BD4C0008C5670008C5670008C567000873
:1000E000C5670008C5670008C56700080000000074
:1000F0000000000000000000000000000000000000
:0C01000000000000000000005FF808F1A3
:1001100081F0004102E000BF83F0004330B54FEAB8
:1001200041044FEA430594EA050F08BF90EA020F25
:100130001FBF54EA000C55EA020C7FEA645C7FEAB8
:10014000655C00F0E2804FEA5454D4EB5555B8BFDB
:100150006D420CDD2C4480EA020281EA030382EA4C
:10016000000083EA010180EA020281EA0303362DDE
:1001700088BF30BD11F0004F4FEA01314FF4801CB1
:100180004CEA113102D0404261EB410113F0004FC3
:100190004FEA03334CEA133302D0524263EB43037A
:1001A00094EA050F00F0A780A4F10104D5F1200E18
:1001B0000DDB02FA0EFC22FA05F2801841F1000173
:1001C00003FA0EF2801843FA05F359410EE0A5F147
:1001D00020050EF1200E012A03FA0EFC28BF4CF078
:1001E000020C43FA05F3C01851EBE37101F000452E
:1001F00007D54FF0000EDCF1000C7EEB00006EEB3B
:100200000101B1F5801F1BD3B1F5001F0CD34908C4
:100210005FEA30004FEA3C0C04F101044FEA44521B
:1002200012F5800F80F09A80BCF1004F08BF5FEAA2
:10023000500C50F1000041EB045141EA050130BD82
:100240005FEA4C0C404141EB0101013C28BFB1F594
:10025000801FE9D291F0000F04BF01460020B1FADF
:1002600081F308BF2033A3F10B03B3F120020CDAB2
:100270000C3208DD02F1140CC2F10C0201FA0CF090
:1002800021FA02F10CE002F11402D8BFC2F1200CF5
:1002900001FA02F120FA0CFCDCBF41EA0C019040AB
:1002A000E41AA2BF01EB0451294330BD6FEA0404F4
:1002B0001F3C1CDA0C340EDC04F11404C4F12002DF
:1002C00020FA04F001FA02F340EA030021FA04F3F1
:1002D00045EA030130BDC4F10C04C4F1200220FA48
:1002E00002F001FA04F340EA0300294630BD21FA86
:1002F00004F0294630BD94F0000F83F4801306BF4C
:1003000081F480110134013D4EE77FEA645C18BF3F
:100310007FEA655C29D094EA050F08BF90EA020FD6
:1003200005D054EA000C04BF1946104630BD91EACE
:10033000030F1EBF0021002030BD5FEA545C05D1D1
:100340004000494128BF41F0004130BD14F5800410
:100350003CBF01F5801130BD01F0004545F0FE4184
:1003600041F470014FF0000030BD7FEA645C1ABFB9
:10037000194610467FEA655C1CBF0B46024650EAF0
:10038000013406BF52EA033591EA030F41F400211C
:1003900030BD00BF90F0000F04BF0021704730B5A2
:1003A0004FF4806404F132044FF000054FF0000177
:1003B00050E700BF90F0000F04BF0021704730B538
:1003C0004FF4806404F1320410F0004548BF40420D
:1003D0004FF000013EE700BF42004FEAE2014FEA62
:1003E00031014FEA02701FBF12F07F4393F07F4F3D
:1003F00081F06051704732F07F4208BF704793F040
:100400007F4F04BF41F40021704730B54FF4607452
:1004100001F0004521F000411CE700BF50EA010255
:1004200008BF704730B54FF000050AE050EA0102FE
:1004300008BF704730B511F0004502D5404261EB6E
:1004400041014FF4806404F132045FEA915C3FF4AF
:10045000D8AE4FF003025FEADC0C18BF03325FEA4C
:10046000DC0C18BF033202EBDC02C2F1200300FAFD
:1004700003FC20FA02F001FA03FE40EA0E0021FA22
:1004800002F11444BDE600BF4FF0FF3C06E000BFA0
:100490004FF0010C02E000BF4FF0010C4DF804CD0D
:1004A0004FEA410C7FEA6C5C4FEA430C18BF7FEACD
:1004B0006C5C1BD001B050EA410C0CBF52EA430CFB
:1004C00091EA030F02BF90EA020F0020704710F17B
:1004D000000F91EA030F58BF994208BF90422CBF0A
:1004E000D8176FEAE37040F0010070474FEA410C03
:1004F0007FEA6C5C02D150EA013C07D14FEA430C21
:100500007FEA6C5CD6D152EA033CD3D05DF8040B91
:10051000704700BF8446104662468C4619466346C3
:1005200000E000BF01B5FFF7B7FF002848BF10F19A
:10053000000F01BD4DF808EDFFF7F4FF0CBF0120DF
:1005400000205DF808FB00BF4DF808EDFFF7EAFF5B
:1005500034BF012000205DF808FB00BF4DF808ED16
:10056000FFF7E0FF94BF012000205DF808FB00BF0B
:100570004DF808EDFFF7CEFF94BF012000205DF895
:1005800008FB00BF4DF808EDFFF7C4FF34BF0120A2
:1005900000205DF808FB00BF4FEA4102B2F1E043E2
:1005A00024BFB3F5001CDCF1FE5C0DD901F0004C5A
:1005B0004FEAC0024CEA5070B2F1004F40EB8300AA
:1005C00008BF20F00100704711F0804F21D113F1D6
:1005D0003872BCBF01F00040704741F480114FEA0F
:1005E0005252C2F11802C2F1200C10FA0CF320FA98
:1005F00002F018BF40F001004FEAC1234FEAD323B5
:1006000003FA0CFC40EA0C0023FA02F34FEA43031E
:10061000CCE77FEA625307D150EA01331EBF4FF0A7
:10062000FE4040F44000704701F0004040F0FE40C2
:1006300040F40000704700BF80F0004002E000BFBF
:1006400081F0004142001FBF5FEA410392EA030FBD
:100650007FEA226C7FEA236C6AD04FEA1262D2EB07
:100660001363C1BFD218414048404140B8BF5B420C
:10067000192B88BF704710F0004F40F4000020F0A5
:100680007F4018BF404211F0004F41F4000121F0BB
:100690007F4118BF494292EA030F3FD0A2F1010205
:1006A00041FA03FC10EB0C00C3F1200301FA03F143
:1006B00000F0004302D5494260EB4000B0F5000F66
:1006C00013D3B0F1807F06D340084FEA310102F125
:1006D0000102FE2A51D2B1F1004F40EBC25008BFD7
:1006E00020F0010040EA03007047490040EB0000A1
:1006F000013A28BFB0F5000FEDD2B0FA80FCACF1A2
:10070000080CB2EB0C0200FA0CF0AABF00EBC250CE
:1007100052421843BCBFD0401843704792F0000FBC
:1007200081F4000106BF80F400000132013BB5E70F
:100730004FEA41037FEA226C18BF7FEA236C21D085
:1007400092EA030F04D092F0000F08BF08467047EA
:1007500090EA010F1CBF0020704712F07F4F04D1B8
:10076000400028BF40F00040704712F100723CBFCB
:1007700000F50000704700F0004343F0FE4040F4F5
:10078000000070477FEA226216BF08467FEA2363B3
:100790000146420206BF5FEA412390EA010F40F49E
:1007A000800070474FF0000304E000BF10F00043EA
:1007B00048BF40425FEA000C08BF704743F09643D1
:1007C00001464FF000001CE050EA010208BF7047EC
:1007D0004FF000030AE000BF50EA010208BF704773
:1007E00011F0004302D5404261EB41015FEA010C88
:1007F00002BF84460146002043F0B64308BFA3F180
:100800008053A3F50003BCFA8CF2083AA3EBC25361
:1008100010DB01FA02FC634400FA02FCC2F1200280
:10082000BCF1004F20FA02F243EB020008BF20F0B7
:100830000100704702F1200201FA02FCC2F120021D
:1008400050EA4C0021FA02F243EB020008BF20EA12
:10085000DC7070474FF0FF0C1CEAD0521EBF1CEA40
:10086000D15392EA0C0F93EA0C0F6FD01A4480EA2E
:10087000010C400218BF5FEA41211ED04FF0006317
:1008800043EA501043EA5111A0FB01310CF0004043
:10089000B1F5000F3EBF490041EAD3715B0040EA69
:1008A000010062F17F02FD2A1DD8B3F1004F40EB39
:1008B000C25008BF20F00100704790F0000F0CF00C
:1008C000004C08BF49024CEA502040EA51207F3AD0
:1008D000C2BFD2F1FF0340EAC250704740F40000AB
:1008E0004FF00003013A5DDC12F1190FDCBF00F09C
:1008F00000407047C2F10002410021FA02F1C2F14A
:10090000200200FA02FC5FEA310040F1000053EAE5
:100910004C0308BF20EADC70704792F0000F00F033
:10092000004C02BF400010F4000F013AF9D040EA39
:100930000C0093F0000F01F0004C02BF490011F4CD
:10094000000F013BF9D041EA0C018FE70CEAD153CB
:1009500092EA0C0F18BF93EA0C0F0AD030F0004C4B
:1009600018BF31F0004CD8D180EA010000F00040FF
:10097000704790F0000F17BF90F0004F084691F0BD
:10098000000F91F0004F14D092EA0C0F01D14202F7
:100990000FD193EA0C0F03D14B0218BF084608D1C0
:1009A00080EA010000F0004040F0FE4040F400000A
:1009B000704740F0FE4040F4400070474FF0FF0C9D
:1009C0001CEAD0521EBF1CEAD15392EA0C0F93EAE4
:1009D0000C0F69D0A2EB030280EA010C49024FEA36
:1009E000402037D04FF0805343EA111143EA1013EF
:1009F0000CF000408B4238BF5B0042F17D024FF4A7
:100A0000000C8B4224BF5B1A40EA0C00B3EB510F81
:100A100024BFA3EB510340EA5C00B3EB910F24BF6A
:100A2000A3EB910340EA9C00B3EBD10F24BFA3EBEF
:100A3000D10340EADC001B0118BF5FEA1C1CE0D1B7
:100A4000FD2A3FF650AF8B4240EBC25008BF20F06A
:100A5000010070470CF0004C4CEA50207F32C2BFBE
:100A6000D2F1FF0340EAC250704740F400004FF05B
:100A70000003013A37E792F0000F00F0004C02BF8C
:100A8000400010F4000F013AF9D040EA0C0093F056
:100A9000000F01F0004C02BF490011F4000F013BB0
:100AA000F9D041EA0C0195E70CEAD15392EA0C0F18
:100AB00008D142027FF47DAF93EA0C0F7FF470AF50
:100AC000084676E793EA0C0F04D14B023FF44CAF93
:100AD00008466EE730F0004C18BF31F0004CCAD128
:100AE00030F000427FF45CAF31F000437FF43CAF64
:100AF0005FE700BF4FF0FF3C06E000BF4FF0010C86
:100B000002E000BF4FF0010C4DF804CD4FEA400267
:100B10004FEA41037FEA226C18BF7FEA236C11D0B1
:100B200001B052EA530C18BF90EA010F58BFB2EB64
:100B3000030088BFC81738BF6FEAE17018BF40F0E4
:100B4000010070477FEA226C02D15FEA402C05D198
:100B50007FEA236CE4D15FEA412CE1D05DF8040B1D
:100B6000704700BF844608466146FFE70FB5FFF7B0
:100B7000C9FF002848BF10F1000F0FBD4DF808ED68
:100B8000FFF7F4FF0CBF012000205DF808FB00BF59
:100B90004DF808EDFFF7EAFF34BF012000205DF8B3
:100BA00008FB00BF4DF808EDFFF7E0FF94BF012000
:100BB00000205DF808FB00BF4DF808EDFFF7D2FFFD
:100BC00094BF012000205DF808FB00BF4DF808ED40
:100BD000FFF7C8FF34BF012000205DF808FB00BF0D
:100BE0004FEA4002B2F1FE4F0FD34FF09E03B3EB3A
:100BF00012620DD94FEA002343F0004310F0004F7A
:100C000023FA02F018BF404270474FF000007047CF
:100C100012F1610F01D1420205D110F0004008BF6E
:100C20006FF0004070474FF00000704742000ED256
:100C3000B2F1FE4F0BD34FF09E03B3EB126209D417
:100C40004FEA002343F0004323FA02F070474FF0CD
:100C50000000704712F1610F01D1420202D14FF042
:100C6000FF3070474FF00000704700BF00F13401C3
:100C700091E838009C46A6464CF8045D90E8FF0FCA
:100C8000E54600BD90EC210B704700BF80EC210BC6
:100C9000704700BF90EC200B704700BF80EC200B2A
:100CA000704700BFD0EC200B704700BFC0EC200B9A
:100CB000704700BFF0EC0201F0EC0211F0EC0221F1
:100CC000F0EC0231F0EC0241F0EC0251F0EC026188
:100CD000F0EC0271F0EC0281F0EC0291F0EC02A178
:100CE000F0EC02B1F0EC02C1F0EC02D1F0EC02E168
:100CF000F0EC02F1704700BFE0EC0201E0EC021101
:100D0000E0EC0221E0EC0231E0EC0241E0EC0251C7
:100D1000E0EC0261E0EC0271E0EC0281E0EC0291B7
:100D2000E0EC02A1E0EC02B1E0EC02C1E0EC02D1A7
:100D3000E0EC02E1E0EC02F1704700BFB0FC0181A1
:100D4000B0FC0191B0FC01A1B0FC01B1704700BF43
:100D5000A0FC0181A0FC0191A0FC01A1A0FC01B1BB
:100D6000704700BFEC4600B52DE900502DE9FF1F8C
:100D70004FF000032DE90C0001A90DF019F9DDF881
:100D800040E012B0704700BFEC4600B52DE90050BE
:100D90002DE9FF1F4FF000032DE90C0001A90DF014
:100DA00047F9DDF840E012B0704700BFEC4600B5EF
:100DB0002DE900502DE9FF1F4FF000032DE90C0035
:100DC00001A90DF055F9DDF840E012B0704700BF01
:100DD000EC4600B52DE900502DE9FF1F4FF0000350
:100DE0002DE90C0001AB0DF017F9DDF840E012B071
:100DF000704700BFEC4600B52DE900502DE9FF1FFC
:100E00004FF000032DE90C0001AA0DF08FF9DDF879
:100E100040E012B0704700BF80EA010C1CF0030FE5
:100E200037D110F0030C20F0030021F0030150F83B
:100E3000042B08BF51F8043B0ED08CF0030C6FF06C
:100E40007F434FEACC0C23FA0CFC51F8043B42EAF6
:100E50000C0243EA0C0300BFA2F1013C9A4201BF1D
:100E60002CEA020C1CF0803F50F8042B51F8043B94
:100E7000F2D04FEA02604FEA1222012828BFB0EBFD
:100E8000036F08BF1B0AF4D003F0FF03000EC01A63
:100E9000704710F0030F0AD010F8012B11F8013B36
:100EA000012A28BF9A42F4D0A2EB030070474DF804
:100EB000045D50F8042B01F0030521F0030151F803
:100EC000043B022D26D04DD822F07F45B5EB132FE1
:100ED000A2F1013C2CEA020C0DD11CF0803C08BFB1
:100EE00051F8043B0AD185EA0205B5EB036F0CD13A
:100EF00050F8042BE8E74FEA13235BE03CF07F4C0B
:100F000054D10B784FEA126554E04FEA126503F0B2
:100F1000FF034FE04FEA0245A2F1013C4FEA1545BD
:100F20002CEA020CB5EB134F18D11CF0803C08BF23
:100F300051F8043B07D185EA0205B5EB034F09D10F
:100F400050F8042BE6E75FEA0C4C2FD10B884FEAF0
:100F500012452FE04FEA03434FEA12454FEA13438D
:100F600028E000BF02F0FF05B5EB136FA2F1013CD2
:100F70002CEA020C0DD11CF0803C08BF51F8043B58
:100F80000AD185EA0205B5EB032F0AD150F8042BEC
:100F9000E8E74FEA13630DE012F0FF0F06D051F8B7
:100FA000043B4FEA122523F07F4303E04FF000009B
:100FB00020BC704705F0FF0203F0FF00012828BFA6
:100FC000904204BF2D0A1B0AF4D0A2EB000020BC03
:100FD000704700BF844641EA000313F0030349D180
:100FE000403A23D30B6803604B6843608B6883608F
:100FF000CB68C3600B6903614B6943618B69836193
:10100000CB69C3610B6A03624B6A43628B6A83627A
:10101000CB6AC3620B6B03634B6B43638B6B836362
:10102000CB6BC36340304031403ADBD230320BD31C
:101030000B6803604B6843608B688360CB68C36058
:1010400010301031103AF3D20C3205D351F8043B72
:1010500040F8043B043AF9D2043208D0D2071CBF4E
:1010600011F8013B00F8013B01D30B880380604677
:10107000704700BF082A13D38B07B1D010F00303C9
:10108000AED0C3F10403D21ADB071CBF11F8013B39
:1010900000F8013BA4D331F8023B20F8023B9FE764
:1010A000043AD9D3013A11F8013B00F8013BF9D2D7
:1010B0000B7803704B7843708B7883706046704771
:1010C00070B54FF0FF0C4CF4E06C1CEA11541DBFDE
:1010D0001CEA135594EA0C0F95EA0C0F00F0DEF8A9
:1010E0002C4481EA030621EA4C5123EA4C5350EA8E
:1010F000013518BF52EA033541F4801143F48013DF
:1011000038D0A0FB02CE4FF00005E1FB02E506F06F
:101110000042E0FB03E54FF00006E1FB03569CF0C4
:10112000000F18BF4EF0010EA4F1FF04B6F5007FCA
:1011300064F5407404D25FEA4E0E6D4146EB06063C
:1011400042EAC62141EA55514FEAC52040EA5E50C5
:101150004FEACE2EB4F1FD0C88BFBCF5E06F1ED86F
:10116000BEF1004F08BF5FEA500E50F1000041EBA6
:10117000045170BD06F0004646EA010140EA020053
:1011800081EA0301B4EB5C04C2BFD4EB0C0541EA75
:10119000045170BD41F480114FF0000E013C00F38A
:1011A000AB8014F1360FDEBF002001F0004170BDAE
:1011B000C4F10004203C35DA0C341BDC04F11404C7
:1011C000C4F1200500FA05F320FA04F001FA05F253
:1011D00040EA020001F0004221F0004110EBD37020
:1011E00021FA04F642EB06015EEA430E08BF20EA4C
:1011F000D37070BDC4F10C04C4F1200500FA04F3EF
:1012000020FA05F001FA04F240EA020001F0004180
:1012100010EBD37041F100015EEA430E08BF20EAF3
:10122000D37070BDC4F1200500FA05F24EEA020E3B
:1012300020FA04F301FA05F243EA020321FA04F06A
:1012400001F0004121FA04F220EA020000EBD37021
:101250005EEA430E08BF20EAD37070BD94F0000F21
:101260000FD101F00046400041EB010111F4801F55
:1012700008BF013CF7D041EA060195F0000F18BF06
:10128000704703F00046520043EB030313F4801F42
:1012900008BF013DF7D043EA0603704794EA0C0FFC
:1012A0000CEA135518BF95EA0C0F0CD050EA410612
:1012B00018BF52EA4306D1D181EA030101F000418F
:1012C0004FF0000070BD50EA410606BF10461946B7
:1012D00052EA430619D094EA0C0F02D150EA0136C3
:1012E00013D195EA0C0F05D152EA03361CBF104604
:1012F00019460AD181EA030101F0004141F0FE41A3
:1013000041F470014FF0000070BD41F0FE4141F426
:10131000780170BD70B54FF0FF0C4CF4E06C1CEA26
:1013200011541DBF1CEA135594EA0C0F95EA0C0FDB
:1013300000F0A7F8A4EB050481EA030E52EA033596
:101340004FEA013100F088804FEA03334FF08055B7
:1013500045EA131343EA12634FEA022245EA1115E4
:1013600045EA10654FEA00260EF000419D4208BF95
:10137000964244F1FD0404F5407402D25B084FEA42
:101380003202B61A65EB03055B084FEA32024FF4EE
:1013900080104FF4002CB6EB020E75EB030E22BF4B
:1013A000B61A754640EA0C005B084FEA3202B6EB0B
:1013B000020E75EB030E22BFB61A754640EA5C00BA
:1013C0005B084FEA3202B6EB020E75EB030E22BF4A
:1013D000B61A754640EA9C005B084FEA3202B6EB4B
:1013E000020E75EB030E22BFB61A754640EADC000A
:1013F00055EA060E18D04FEA051545EA16754FEA6C
:1014000006164FEAC30343EA52734FEAC2025FEA89
:101410001C1CC0D111F4801F0BD141EA00014FF018
:1014200000004FF0004CB6E711F4801F04BF0143E9
:101430000020B4F1FD0C88BFBCF5E06F3FF6AFAE05
:10144000B5EB030C04BFB6EB020C5FEA500C50F195
:10145000000041EB045170BD0EF0004E4EEA113118
:1014600014EB5C04C2BFD4EB0C0541EA045170BD1F
:1014700041F480114FF0000E013C90E645EA060E63
:101480008DE60CEA135594EA0C0F08BF95EA0C0F91
:101490003FF43BAF94EA0C0F0AD150EA01347FF4D9
:1014A00034AF95EA0C0F7FF425AF104619462CE7B0
:1014B00095EA0C0F06D152EA03353FF4FDAE104613
:1014C000194622E750EA410618BF52EA43067FF464
:1014D000C5AE50EA41047FF40DAF52EA43057FF4F4
:1014E000EBAE12E74FEA410C7FEA6C5C02D150EAA6
:1014F000013C0AD14FEA430C7FEA6C5C02D152EA0C
:10150000033C02D14FF0000070474FF001007047DC
:101510004FEA410212F5001215D211D56FF478731B
:10152000B3EB625212D94FEAC12343F0004343EABE
:10153000505311F0004F23FA02F018BF4042704799
:101540004FF00000704750EA013005D111F0004023
:1015500008BF6FF0004070474FF00000704700BFB9
:101560000348044B834202D0034B03B11847704732
:101570006807002068070020000000000548064BAF
:101580001B1AD90F01EBA301491002D0034B03B181
:101590001847704768070020680700200000000017
:1015A00010B5064C237843B9FFF7DAFF044B13B1AB
:1015B0000448AFF300800123237010BD68070020AA
:1015C000000000002454010808B5054B1BB1054973
:1015D0000548AFF30080BDE80840FFF7CFBF00BF6C
:1015E000000000006C070020245401082DE9F04F92
:1015F00083B007460E4691461D46DDF8308090F8D0
:1016000092A0CB18541CA4B200949BB200F0B5FF7A
:1016100078B3BAFA8AFB4FEA5B1B012414E087F81F
:1016200092A00023009301234A463146384600F039
:10163000F6FE0136B6B2640014F0FF0402D108F1E0
:1016400001080124013DADB28DB198F8003023426C
:10165000E5D197F89130002BEBD187F892B0009349
:1016600001234A463146384600F0D9FEE1E787F8C3
:1016700092A003B0BDE8F08F2DE9F04782B082461A
:10168000884614461F46BDF828500B9E03F10709F3
:10169000C9F3CC0903EB010C53199BB200931FFA59
:1016A0008CF300F06AFF60B90DE000963B462246DD
:1016B00041465046FFF79AFF4E440134A4B2013D23
:1016C000ADB2002DF1D102B0BDE8F0872DE9F041B7
:1016D00082B080460F4614461E46BDF8205001EBEE
:1016E000030C53199BB200931FFA8CF300F045FFD3
:1016F00060B90DE00022009233462246394640464A
:1017000000F08DFE0134A4B2013DADB2002DF1D147
:1017100002B0BDE8F0812DE9F04F87B080460C465D
:101720009246BDF84060BDF84470039104931C4498
:10173000A4B29519ADB20095234600F01EFF10B972
:1017400007B0BDE8F08F039A02EB07091FFA89F989
:101750000AEB070B1FFA8BFBE41BA4B2013CA4B2FB
:10176000ED1BADB2013DADB2022300933B465A469C
:101770004946404600F074FA012300933B465A461E
:101780002146404600F06CFA042300933B462A466B
:101790004946404600F064FA082300933B462A4637
:1017A0002146404600F05CFA049BDB1B9BB2DB1B2E
:1017B0009BB209F101091FFA89F90BF1010B1FFA1C
:1017C0008BFB022B0FD8F61BB6B2F61BB6B2022E5D
:1017D000B6D9023EB6B20096049B5A4603994046DB
:1017E000FFF774FFACE7023B9BB27C1CA4B20094F1
:1017F0000593524649464046FFF768FF0094059B13
:101800002A4649464046FFF761FFDCE72DE9F04FE5
:1018100085B007460C469046BDF838B0BDF83C6030
:10182000029103931C44A4B202EB0B05ADB20095E8
:10183000234600F0A2FE10B905B0BDE8F08F029A71
:1018400002EB060A1FFA8AFA08EB06091FFA89F961
:10185000A41BA4B2013CA4B2AD1BADB2013DADB21C
:101860000223009333464A465146384600F0D4F9E5
:101870000123009333464A462146384600F0CCF90E
:101880000423009333462A465146384600F0C4F9F3
:101890000823009333462A462146384600F0BCF917
:1018A000039B9B1B9BB29B1B9BB2ABEB0604A4B29E
:1018B000A41BA4B20AF1010A1FFA8AFA09F101096C
:1018C0001FFA89F9022B16D8022CB5D9023CA4B212
:1018D000039B5D1EADB223464A46029E3146384602
:1018E00000F00AFE3146294423464A4689B238466A
:1018F00000F002FEA0E7023B9DB20BF1FF3B1FFA96
:101900008BFB2B4642465146384600F0EDFD08EB76
:101910000B022B4692B25146384600F0E5FDD3E764
:1019200010B582B003681B7C446B03FB01F1C90056
:1019300089B20C440094002101F002F902B010BDFC
:101940002DE9F041064690F8387090F83950036858
:1019500093F8118000242A4621463046FFF7E0FF25
:101960000134E4B20135EDB2A74201D9A845F2D85D
:10197000BDE8F08108B503681B7C90F8382003FBB4
:1019800002F2D2000021406B0EF058FA08BD10B5EB
:101990000446FFF7D5FF204601F0FFF810BD2DE902
:1019A000F84380460F4691461C46BDF820609DF8DE
:1019B000245015F0010F0AD115F0020F16D115F0C1
:1019C000080F24D115F0040F32D1BDE8F883B21A04
:1019D000591892B289B200F097FDF21B04EB09018D
:1019E00092B289B2404600F08FFDE5E7A6EB09020E
:1019F000E11B92B289B2404600F086FDF21BA4EBD7
:101A0000090192B289B2404600F07EFDD7E706EBAD
:101A10000902E11992B289B2404600F075FDBA1987
:101A200004EB090192B289B2404600F06DFDC9E7AE
:101A300006EB0902E11B92B289B2404600F064FD58
:101A4000BA19A4EB090192B289B2404600F05CFDDC
:101A5000BBE72DE9F04F85B00390894692461E46BC
:101A60009DF838B0C3F1010424B2C3EBC3384FEA88
:101A700048080FFA88F8CDF804B000920B463246B9
:101A80000021FFF78CFF002501271AE0013EB6B2C6
:101A900008F102081FFA88F30FFA88F823441CB2F1
:101AA0000135ADB20237BBB23FB223441CB2CDF810
:101AB00004B0CDF800A04B46324629460398FFF704
:101AC0006EFFB54202D2002CE0DAE9E705B0BDE8CE
:101AD000F08F2DE9F84380460C4617461D46BDF8A9
:101AE00020909DF8246016F0010F0AD116F0020F25
:101AF0001BD116F0080F2DD116F0040F3BD1BDE815
:101B0000F883531CA9EB020269189BB292B289B206
:101B100000F0F2FC631CA9EB0402E9199BB292B23B
:101B200089B2404600F0E8FCE0E77B1CA9EB070225
:101B3000291B9BB292B289B2404600F0DDFC631CC7
:101B4000A9EB0402E91B9BB292B289B2404600F0B5
:101B5000D3FCCEE77B1C29199BB24A4689B240468A
:101B600000F0CAFC631CE9199BB24A4689B24046A0
:101B700000F0C2FCC0E77B1C291B9BB24A4689B21D
:101B8000404600F0B9FC631CE91B9BB24A4689B28F
:101B9000404600F0B1FCB2E72DE9F04F85B003906C
:101BA000894692461E469DF838B0C3F1010424B21E
:101BB000C3EBC3384FEA48080FFA88F8CDF804B0F1
:101BC00000920B4632460021FFF783FF00250127D4
:101BD0001AE0013EB6B208F102081FFA88F30FFAC4
:101BE00088F823441CB20135ADB20237BBB23FB214
:101BF00023441CB2CDF804B0CDF800A04B463246C9
:101C000029460398FFF765FFB54202D2002CE0DABF
:101C1000E9E705B0BDE8F08F2DE9F04182B08046DC
:101C20000E4617461D46CB189BB2AC18A4B2013322
:101C3000521B491B0134A4B200949BB292B289B2E8
:101C400000F09BFC10B902B0BDE8F0819DF8203097
:101C500000932B463A4631464046FFF7FAFEF2E73C
:101C60002DE9F04182B080460E4617461D46CB183E
:101C70009BB2AC18A4B20133521B491B0134A4B26D
:101C800000949BB292B289B200F077FC10B902B016
:101C9000BDE8F0819DF8203000932B463A4631464E
:101CA0004046FFF779FFF2E70823037000487047CA
:101CB0008407002030B585B004460D4600931346D6
:101CC000084A094900F08CFF0DF10F00FFF7ECFF07
:101CD00001460095054B9DF80F20204600F045FD7C
:101CE00005B030BD53290008952A0008A725000833
:101CF000405C70474218435C507800EB032080B290
:101D000070470020704738B504460D46002128462C
:101D1000FFF7EEFF207001212846FFF7E9FF607012
:101D200002212846FFF7E4FFA07003212846FFF7B1
:101D3000DFFFE07004212846FFF7DAFF207105215C
:101D40002846FFF7D5FF607106212846FFF7D0FF30
:101D5000A07107212846FFF7CBFFE0710821284634
:101D6000FFF7C6FF207209212846FFF7C1FF607206
:101D70000A212846FFF7BCFFA0720B212846FFF777
:101D8000B7FFE0720C212846FFF7B2FF20730D2148
:101D90002846FFF7ADFF60730E212846FFF7A8FF26
:101DA000A0730F212846FFF7A3FFE07310212846F8
:101DB000FFF79EFF207411212846FFF79BFF6082EA
:101DC00013212846FFF796FFA08215212846FFF72A
:101DD00091FFE08238BD30B5024690F80CE004680F
:101DE000207840FA0EF05FFA80FC0EEB0103DBB2C4
:101DF000072B0FD9CEF1080E5FFA8EFE651C156019
:101E000094F801C00CFA0EFC4CEA000C5FFA8CFC52
:101E1000083BDBB24FF0FF30884013732CEA000020
:101E200030BD38B5044600F160050166002380F836
:101E30006C3090F878102846FFF7CDFF84F86A00E0
:101E400094F879102846FFF7C6FF84F86B0094F8E1
:101E5000923084F86E30B3FA83F35B0984F86F3004
:101E600038BD10B50C46FFF7B6FF013CE4B20123C4
:101E7000A340C01A40B210BD012B08D0022B09D0DC
:101E800013B1401A80B27047104480B270470844C2
:101E900080B27047801A80B27047012B08D0022BA5
:101EA00009D013B1104480B27047084480B2704723
:101EB000801A80B27047401A80B270472DE9F04F07
:101EC00089B005468A46079290F968305FFA83FB2D
:101ED00090F96920D3B2039319E0CDF814A01FE064
:101EE00095F86E3085F892300097059B0699284644
:101EF00000F095FAB2453CD3ABEB040454445FFACE
:101F000084FA039B0133DBB203934FF0000B95F986
:101F10006A40E4B2A4EB0B06F6B2B245DDD30596F7
:101F2000B5F866904FFA8BF19DF90C8095F87070BA
:101F30003B4642460491B5F86400FFF7AEFF0690B9
:101F40003B46424604994846FFF796FF0246079BE8
:101F5000002BC5D195F86D30002BCBD195F86F30A3
:101F600085F892300097059B0699284600F057FAAD
:101F7000C0E70AEB0B0385F8683085F8698009B083
:101F8000BDE8F08F2DE9F04F85B0044600F1600503
:101F9000FFF747FF94F96B7094F87A102846FFF723
:101FA00060FF804694F87B102846FFF75AFF0646EC
:101FB00094F87C102846FFF754FF039094F96A9038
:101FC000B9F1000F55DD3E44F6B2764276B294F890
:101FD00070B05B4632464146B4F86400FFF75DFFDF
:101FE0008246A4F864005B4632464146B4F8660077
:101FF000FFF742FF0246A4F86600BBF1030F68D862
:10200000DFE80BF0023B495B1FFA89F353449BB2B4
:10201000384480B200905146204600F0AEFA40B3FA
:10202000002384F8683084F8693094F876102846E4
:10203000FFF7D1FE804694F877102846FFF7CBFED5
:102040000646002241462046FFF738FF012231466E
:102050002046FFF733FF01212846FFF7BCFE00288A
:10206000EFD194F96930BB42DFDB94F86E3084F82D
:102070009230039805B0BDE8F08FAAEB070189B252
:1020800001310AF101039BB21FFA89F0104480B2BA
:102090001FFA81FABEE71FFA89F1AAEB010189B2A2
:1020A00001310AF101039BB2C61BB6B20136013001
:1020B00080B2B2B21FFA81FAACE70AEB07039BB217
:1020C0001FFA89F1411A89B20131013080B28AB216
:1020D000A0E753469EE770B50E46846D1734FF297E
:1020E00013D8602903D9B0F888301C4406E0402991
:1020F00004D9B0F886301C4400E01C44637803B374
:102100002278B242F9D1A01C1CE0B0F88A301C44FD
:10211000254600212846FFF7EDFD0444022128460C
:10212000FFF7E8FD04358642F3D801E0A3781C44AC
:102130002278637853EA022305D09E42F6D1E01C50
:1021400000E0002070BD0020FCE710B50446A0F8B8
:102150006410A0F866201946FFF7BDFF28B10146BC
:102160002046FFF70FFF80B210BD0020FCE738B516
:102170000446FFF7B0FFB8B101462046FFF751FE15
:1021800004F1600594F87A102846FFF76AFE84F897
:10219000900094F87B102846FFF763FE94F87C10BB
:1021A0002846FFF75EFE38BD0020FCE72DE9F04130
:1021B00004460D46002680F86A6000F050FB6FF080
:1021C0003F08374601E03E44B6B2636829782046AE
:1021D00098474FF6FF7398420FD001354FF6FE73C4
:1021E0009842F2D001462046FFF7C1FF87B218F1AE
:1021F000400FE8D194F99080E5E794F96A307BB11B
:10220000F71BBFB29BB23B449BB294F99060B6B24D
:102210001E44B6B2B8F1000F02DDB0441FFA88F6D2
:102220003046BDE8F08180F86D107047F8B504467F
:102230000D4616461F4690F87030032B07D8DFE88E
:1022400003F0020D1217C36D9847304486B23B4627
:10225000324629462046FFF778FFF8BDC36D984700
:10226000281A85B2F3E7C36D9847301A86B2EEE7B5
:10227000C36D9847284485B2E9E700002DE9F04195
:1022800004460F4616461D4600F0E9FA4FF00008D6
:1022900004E00744BFB240441FFA80F8636829781D
:1022A000204698474FF6FF72904222D001354FF6F4
:1022B000FE729042F2D00346324639462046FFF77E
:1022C000B5FF94F87030032BE5D801A252F823F043
:1022D00093220008E1220008E7220008ED2200080E
:1022E0000644B6B2D7E73F1ABFB2D4E7361AB6B241
:1022F000D1E74046BDE8F08110B5024C4460FFF7DD
:10230000BDFF10BDAF27000810B5024C4460FFF7B9
:10231000B5FF10BDC5270008836D73B390F9812008
:1023200080F88E2090F9823080F88F3090F88D10F0
:1023300019B3012914D000B590F97E1090F980C02E
:1023400001EB0C0E724505DAC9B25FFA8CF211444A
:1023500080F88E10634501DD80F88FC05DF804FBC6
:1023600090F983108A4201DA80F88E1090F9842067
:10237000934202DD80F88F2070477047014BC365A0
:10238000704700BF031D0008836D8B4209D010B554
:10239000044681657430FFF7B6FC2046FFF7BCFFAA
:1023A00010BD704708B5024B4360FFF7FFFE08BD44
:1023B000C527000880F87010704700B5B0F800E03D
:1023C000B1F800C0F4441FFA8CFCE64505D99E45DF
:1023D00013D203F1FF3C1FFA8CFC9E450FD29445AB
:1023E0000FD9964500D372469C4500D863460280BB
:1023F0009B1A0B8001205DF804FB9646EDE7002058
:10240000F9E70020F7E730B583B0C48F121BC46A28
:102410009DF81850009592B2A04703B030BD70B53A
:1024200084B004469DF82000ADF80E10ADF80C20E5
:10243000ADF80A3094F88C305BB3BDF80A3043B382
:10244000012B03D9022826D003282DD010F0010536
:1024500034D1B4F84C20BDF80C309A4219D8B4F8F5
:102460004E20934215D2B4F84A30B4F848200DF10A
:102470000A010DF10E00FFF7A0FF50B1236B9E681B
:102480000095BDF80A30BDF80C20BDF80E102046AE
:10249000B04704B070BD8AB2D31A9BB2ADF80E300B
:1024A0000133ADF80E30D1E7BDF80C20D31A9BB242
:1024B000ADF80C300133ADF80C30C7E7B4F8482064
:1024C000BDF80E309A42E4D8B4F84A209342E0D2E4
:1024D000B4F84E30B4F84C200DF10A0103A8FFF710
:1024E0006CFF0028CAD1D4E710B582B00024009454
:1024F000FFF795FF02B010BD10B582B00124009423
:10250000FFF78DFF02B010BDB0F84C3093420BD8EE
:10251000B0F84E30934207D9B0F848308B4203D818
:10252000B0F84A308B4200D8704700B583B0002322
:1025300000930123FFF773FF03B05DF804FB80F8FD
:102540009210022902D9012380F8923070478A4202
:1025500005D2834209D89A4209D9012070478342A3
:1025600007D99A4207D901207047012070470020FF
:102570007047002070470020704770B504460D4634
:102580001E46BDF81030B0F84E10B0F84C00FFF702
:10259000DEFF38B133462A46B4F84A10B4F8480092
:1025A000FFF7D5FF70BD70B59DF8105002F0070E13
:1025B0004FF0010C0CFA0EFC5FFA8CFC90F8926064
:1025C000012E1AD90024012E19D022F00706026824
:1025D000127C06FB02F292B20A44416B1144DDB94F
:1025E0000A782243D2B20A7082EA0C0201F8012B67
:1025F000013B9BB2002BF3D170BD6446E3E74FF083
:10260000000CE2E701241BE06400E4B24FEA4C0C4A
:102610005FFA8CFC002BEFD00A782243D2B20A700A
:1026200082EA0C020A700EF10102013B9BB212F029
:10263000070EE9D1428F114490F89220012AE1D986
:10264000012AE7D04FF0010CE4E710B5016890F8DB
:102650003830DA0082870A7CD200428790F839E06D
:102660004FEACE02C28703EB0E0491F811C0644515
:1026700003DDACEB0E0C1FFA8CF3DB009BB2A0F871
:102680004020A0F842201A44A0F842208B8AA0F8EB
:102690004430CB8AA0F8463010BD08B5FFF7D5FF0F
:1026A00008BD10B582B00446B0F856300093B0F8BB
:1026B0005230B0F85420B0F85010FFF75EFF20B948
:1026C000002384F88C3002B010BD012384F88C30D4
:1026D000B4F84820B4F850309A4201D2A4F84830F7
:1026E000B4F84A20B4F852309A4201D9A4F84A30DA
:1026F000B4F84C20B4F854309A4201D2A4F84C30CB
:10270000B4F84E20B4F856309A42DCD9A4F84E30D2
:10271000D9E708B50022A0F84820B0F84420A0F876
:102720004A20B0F84020A0F84C20B0F84220A0F891
:102730004E20FFF7B6FF08BD10B582B09DF81040DF
:102740000094FFF760FE02B010BD08B50022A0F8AB
:102750005020A0F854204FF6FF72A0F85220A0F8A5
:102760005620036B5B68984708BD70B50446049E0D
:1027700000258565C362416380F8382080F83950B0
:1027800080F86D5080F8915080F88D50012380F8CA
:10279000923080F893300663336898472046FFF7FD
:1027A000D4FF2046FFF7EAFD84F8705070BD08465C
:1027B00011B10A2903D070474FF6FF7070474FF6EA
:1027C000FF70704702460B4600293FD00A2940D0CF
:1027D00090F8261061BBFB2B09D8F72B10D8EF2BF4
:1027E00014D8DF2B18D8BF2B1CD8184670470521EA
:1027F00080F8261003F0010313844FF6FE70704733
:10280000042180F8261003F00303F5E7032180F884
:10281000261003F00703EFE7022180F8261003F0EB
:102820000F03E9E7012180F8261003F01F03E3E717
:102830000139C9B280F82610008C800180B2108462
:1028400003F03F031843108431B970474FF6FF700F
:1028500070474FF6FF7070474FF6FE70F5E70023A4
:1028600080F82630704710B50A46046900232021FD
:10287000A04710BD10B5134604690A461721A047AA
:1028800010BD00B583B08DF807100DF107020121CE
:10289000FFF7F0FF03B05DF804FB10B50A46C4680B
:1028A00000231521A04710BD10B50A46C4680023B7
:1028B0001621A04710BD10B51346C4680A4617215B
:1028C000A04710BD10B5C46800231A461821A047C0
:1028D00010BD10B5C46800231A461921A04710BDC9
:1028E00070B582B006460D4616E015290CD202B02E
:1028F00070BDFE29FBD122788DF8072029213046B2
:1029000000F052F9023507E022788DF80720F468CC
:1029100000233046A04702352C4614F8011B192924
:10292000E7D818290ED21629DFD91729DFD1237845
:102930008DF807300DF1070201213046FFF7BBFF8C
:102940000235E9E7F56800231A463046A8472546D0
:10295000E2E72DE9F04104460D4616461F46A1F177
:102960001403052B22D8DFE803F018030C15181800
:102970000021FFF778FF31462046FFF782FF012054
:1029800012E00021FFF76FFF31462046FFF779FF85
:10299000012009E00121FFF766FFD4F810803B46D3
:1029A000324629462046C047BDE8F0810020FBE7BB
:1029B000F8B5064615461C460B39042960D8DFE8F1
:1029C00001F0035F0E21300022B92E49FFF788FF86
:1029D000012025E02C49FFF783FF012020E042B9C8
:1029E0002A49FFF77DFF33689B7C86F8223001205F
:1029F00016E02749FFF774FF3368DB7C86F8223046
:102A000001200DE0FFF75EFF81213046FFF745FF13
:102A100029463046FFF748FF3046FFF75AFF0120AE
:102A2000F8BDFFF74FFF6379DB00DBB296F8227049
:102A30001F44FFB240213046FFF72FFF390941F014
:102A400010013046FFF729FF07F00F013046FFF76E
:102A50002BFFA17941F0B0013046FFF725FF217926
:102A6000C900226801F0F8013046FFF724FF6A1E12
:102A700012F0FF05F3D13046FFF72BFF0120CFE71F
:102A80000020CDE77C540108745401086C540108FF
:102A90006454010838B505460C46FFF789FF90B924
:102AA000092C0AD00A2C0FD1284600F018F8074943
:102AB0002846FFF715FF012006E00549284600F0EB
:102AC00009F8012000E0012038BD00BF845401084E
:102AD0004C54010801608B7C80F82230704710B59F
:102AE000044600231A462821D0F814C0E0470023EA
:102AF0001A4614212046D4F80CC0E04701224B218D
:102B0000204600F051F823681A792921204600F068
:102B10004BF800224B21204600F046F823681A7932
:102B20002921204600F040F801224B21204600F0E8
:102B30003BF823685A792921204600F035F810BD6A
:102B400010B582B08DF805108DF806208DF8043090
:102B5000049B009384686B4601220F21A04702B0BA
:102B600010BD10B5846800231A460921A04710BD86
:102B700010B5846800231A460A21A04710BD10B57D
:102B80000A46846800230B21A04710BD10B50A46F1
:102B9000846800230E21A04710BD10B5846800236F
:102BA0001A461021A04710BD10B544690023A04764
:102BB00010BD00207047000000230360074A8260B8
:102BC000C2600261426180F8233080F82630836160
:102BD000FF2380F8243080F828307047B32B00089A
:102BE000F8B504460F4616461D46FFF7E5FFA760F9
:102BF000E6602561069B63612046FFF7B2FFF8BDE2
:102C000008B50821014803F03FFD08BD082D00204C
:102C100008B501F0C9FE01F0B8FE01F07FFE0648DC
:102C200001F052FF00F01AFA00F04EFA01F0C4F879
:102C300001F09CFDFCE700BFD02B002000B583B065
:102C40000A4B5A6942F001025A615B6903F00103C1
:102C50000193019B002211460F2002F009FA0F2078
:102C600002F016FA03B05DF804FB00BF001002404A
:102C70002DE9F04389B00024049405940694079448
:102C80004D4B9A6942F010029A619A6902F0100263
:102C90000092009A9A6942F020029A619A6902F0C1
:102CA00020020192019A9A6942F004029A619A699B
:102CB00002F004020292029A9A6942F008029A61B2
:102CC0009B6903F008030393039BDFF8F09022460F
:102CD0004FF40051484602F086FC394E224648F235
:102CE0000431304602F07FFC01221821304602F008
:102CF0007AFCDFF8D08022464FF48051404602F043
:102D000072FC4FF4005304930125059506940227A5
:102D1000079704A9484602F051FB04230493059544
:102D20000697079704A9304602F048FB182304933E
:102D3000059506950323079304A9304602F03EFB50
:102D4000C02304930594069404A9304602F036FB90
:102D50004FF4406304930594069404A9404602F09E
:102D60002DFB4FF48053049305950695079704A90E
:102D7000404602F023FB4FF44073049305950694FC
:102D8000079504A9304602F019FB4FF40043049361
:102D900005950694079704A9304602F00FFB4FF4FF
:102DA000007304930594069504A9404602F006FBBF
:102DB00009B0BDE8F08300BF0010024000100140E0
:102DC00000080140000C014008B5484B1B78022B5D
:102DD0001FD85AB2002A36D1D3B94021444802F054
:102DE000FBFB20B18021424802F0F6FB58B940219C
:102DF0003F4802F0F1FB01281DD080213C4802F041
:102E0000EBFB01281BD000233A4A13703A4A137097
:102E100008BD032BFCD14021354802F0DDFB002822
:102E2000F6D08021324802F0D7FB0028F0D02F4B9B
:102E300000221A70ECE72D4B01221A70DDE72B4BB4
:102E400002221A70DFE74021294802F0C5FB40BB8F
:102E5000294B1B7813B9284B01221A70254A137885
:102E60000133DBB21370642BD2D9244B01221A70C8
:102E700040211F4802F0B0FB10B9214B02221A700A
:102E800080211B4802F0A8FB10B91D4B04221A70C8
:102E90000023184A1370184A1370144B03221A7037
:102EA000B6E78021124802F097FB0028D0D0124BE1
:102EB0001B78012B05D000230C4A1370104A1370A5
:102EC000A6E70A4B1B78012B08D0022B0AD00B4B2C
:102ED00001221A70054B03221A7099E7084A012152
:102EE0001170F2E7064B03221A70F0E78C0B0020FA
:102EF00000080140890B0020880B00208B0B00206C
:102F00008A0B002072B6FEE700B591B0282200219E
:102F100006A80CF093FF00230193029303930493FC
:102F20000593012206924FF4803307934FF400314A
:102F300008910A9202220D920E934FF4E0130F9320
:102F400006A802F06DFB80B90F23019302210291C4
:102F5000002303934FF480620492059301A802F0CA
:102F6000A5FD20B911B05DF804FBFFF7CBFFFFF71B
:102F7000C9FF08B501F0FEFFFFF7C6FFFFF778FEB7
:102F8000FFF75CFE01F0CAFD01F08CFF01F0F8FED6
:102F9000FFF73EFEFEE70000012800D070474FF625
:102FA000FF739942FAD10A4B012283F87A20042157
:102FB00083F87B1083F87C2083F87D20054B197003
:102FC000054B0D2283F82220102283F82320E5E709
:102FD0002C2B0020B82A0020900B0020014B1860F9
:102FE000704700BFC40B0020014B5860704700BF02
:102FF000C40B0020034B5A68135CB3FA83F35B09DC
:1030000013547047C40B0020F8B50F4616461C46F3
:10301000104D014628460DF08FF82F7545F80D6CC0
:1030200005F8094C9DF8183005F8083C9DF81C304F
:1030300005F8073C089B45F8053C9DF8243005F849
:10304000013C054B002283F87A20012283F87B2083
:10305000F8BD00BF9D0B00202C2B0020194BFF2238
:1030600083F87E20322083F87F003C2183F8801093
:10307000192283F8812083F8820083F883101E21AF
:1030800083F8841083F88520962283F88620012215
:1030900083F8872083F8882083F8892083F88A20A2
:1030A00083F88B20002183F88C1083F88D20142066
:1030B00083F88E0083F88F2083F8902083F8911096
:1030C000704700BF2C2B0020054B0422DA7005222C
:1030D0005A710A229A710622DA7108221A7270470E
:1030E0002C2B00200C4B00221A700C4B0022DA61B2
:1030F0000B4A1A620B4ADA600B4A1A610B4A5A6190
:103100000B4A9A610B4A5A620B4A9A621A68DA624F
:103110005A681A63704700BF2C2B0020040000205F
:103120000000184200009842000060420000824205
:1031300000003842000070C20000E04010B582B0CC
:103140000C4C00212046FFF7FAF94023009380231E
:10315000002211462046FEF7B9FA01212046FFF76A
:103160000EFD054B042283F87B20012283F87C208E
:1031700002B010BDD02B00202C2B0020034B0022CE
:10318000C3F8DC2E024AC3F8E02E7047D41B00209F
:103190000000BC4210B5044C2046FFF71FFF20463C
:1031A000FFF722FF10BD00BF8C00002010B5044CBB
:1031B0002046FFF713FF2046FFF716FF10BD00BFA4
:1031C0007000002010B5074C00236362064BE362D9
:1031D00094F82300FDF7E6FA2063044B042283F8F9
:1031E0007B2010BD900B0020000008C22C2B00207B
:1031F00008B5154B93F87920013283F87920002027
:103200001870124A002191604FF0834CC2F80CC034
:1032100011619161D16683F87B0093F87A30023BAB
:10322000042B06D8DFE803F0030509060C00FFF7BE
:1032300059FF08BDFFF7A2FFFBE7FFF7ABFFF8E779
:10324000FFF7B4FFF5E700BF2C2B0020B82A0020C1
:1032500008B5154B93F879209918002081F865007E
:10326000124902F1060E01EB8E0E4FF0000CCEF863
:1032700004C0013A83F879201870C1F808C04FF0F3
:103280008342CA60C1F86CC083F87B0093F87A303F
:10329000012B02D0022B03D008BDFFF74FFFFBE745
:1032A000FFF720FFF8E700BF2C2B0020B82A0020F2
:1032B000F8B50446174605680E6831462846FDF7FE
:1032C0005DFC50B931462846FDF7BAF920F00040C0
:1032D0000E49FDF75DFC08B12660F8BD2946304671
:1032E000FDF7AEF906460A4B3B4493F87E00FDF726
:1032F0005DFA0849FDF762FB01463046FDF75EFBCB
:1033000001462846FDF79EF92060E6E79A99193EA6
:103310002C2B00200000204110B5564C94F884005E
:1033200001F04CFE94F88D30002B54D094F87D3091
:10333000013B032B47D8DFE803F01222344401336A
:103340009BB24D4A12889A4267D913F0010FF6D00A
:103350004A4A1168CA5C02F0AA02CA54EFE7002385
:10336000EFE701339BB2444A12889A4255D913F0D1
:10337000010FF6D0414A12680021D154F1E7002331
:10338000F1E701339BB23C4A12889A4245D913F0C7
:10339000010FF6D1394A1168CA5C02F05502CA54CD
:1033A000EFE70023EFE701339BB2334A12889A42DA
:1033B00033D913F0010FF6D1304A12680021D154ED
:1033C000F1E70023F1E72B4B042283F87B20002256
:1033D00083F87D2021E0274B93F87D30013B032BC0
:1033E0003FD8DFE803F01221333C01339BB2224A7D
:1033F00012889A4211D913F0010FF6D01F4A1168B2
:10340000CA5C42F0AA02CA54EFE70023EFE7013397
:103410009BB2194A12889A42F9D8164A92F87D301E
:10342000013382F87D3010BD0023F2E701339BB2F7
:10343000114A12889A42F0D913F0010FF6D10F4ABF
:103440001168CA5C42F05502CA54EFE70023EFE767
:1034500001339BB2084A12889A42F9D8DDE700236B
:10346000F8E7044B042283F87B20002283F87D20B8
:10347000D3E700BF2C2B0020C82B0020CC2B002032
:103480002DE9F04383B081460D46CA4C0122214606
:10349000201FFFF70DFF012204F10801201DFFF797
:1034A00007FF012204F1100104F10C00FFF700FFF7
:1034B0000122A4F10801A4F10C00FFF7F9FE01229A
:1034C000A4F11001A4F11400FFF7F2FEDFF8E88286
:1034D00001214046FFF733F8B8494046FEF754FF54
:1034E000B74F97F879303B4493F8653059F823107B
:1034F0004046FEF757FFC0F1800303EBD3735E1025
:1035000097F879303B4493F8653059F82390E06898
:10351000FDF78CFB4B4682B2B1B24046FEF7F4FE9B
:103520003B78002B40F05281A4F12006F068FDF7B3
:103530007DFB062382B204214046FEF7D5FF4FF003
:103540007E51F068FDF77EF8FDF770FB82B2052131
:103550004046FEF7D9FF4FF08041F068FDF772F862
:10356000FDF764FB82B206214046FEF7CDFF4FF027
:103570007E51F068FDF764F8FDF758FB82B2052133
:103580004046FEF7C1FF4FF08041F068FDF758F864
:10359000FDF74CFB82B206214046FEF7B5FFF0680E
:1035A000FDF744FB062382B276214046FEF79CFFDE
:1035B0004FF07E51F068FDF745F8FDF737FB82B21A
:1035C0007A214046FEF7A0FF4FF08041F068FDF7FA
:1035D00039F8FDF72BFB82B279214046FEF794FFC4
:1035E0004FF07E51F068FDF72BF8FDF71FFB82B21C
:1035F0007A214046FEF788FF4FF08041F068FDF7E2
:103600001FF8FDF713FB82B279214046FEF77CFFDD
:103610004FF08041F068FDF715F8FDF707FB09232F
:1036200082B210214046FEF75FFF4FF08041F06804
:10363000FDF708F84FF08141FDF702F8FDF7F6FAC3
:1036400004270097052382B212214046FEF73EF878
:103650004FF08041F068FCF7F5FFFDF7E7FA09232A
:1036600082B267214046FEF73FFF4FF08041F0688D
:10367000FCF7E8FF4FF08141FCF7E2FFFDF7D6FAD7
:103680000097052382B269214046FEF71FF8002407
:1036900009E04C4B5869FDF7A3FA82B2A1B2464843
:1036A000FEF732FF0134802C15DC621E14F0070F88
:1036B0000CBF0123002312F0070F08BF43F00103E2
:1036C000A21E12F0070F0CBF01220022002BE9D12D
:1036D000002ADED0E6E7002427E0394B93F8792072
:1036E000134493F86500374EF769201AFDF75EF82A
:1036F0003946FDF7AFF83449FCF7A4FFFDF770FA3F
:103700003081304BB3F90860586AFDF769FAC4EBB1
:10371000041305EBC30301931E23009382B2B1B2DD
:103720002548FDF7A9FF0134E4B2254B93F87A2030
:1037300013445B78A34223D9214B93F88730002BA5
:10374000CBD0204FFE692046FDF730F83146FDF71B
:1037500081F81D49FCF776FF0646194B93F879204E
:10376000134493F86530262003FB00F0FDF71EF8A4
:1037700001463046FCF764FFFDF732FA3881C0E7B6
:10378000104B196AD869FDF7F9F9002800F0B280EA
:103790000B4B01221A7093F87920134493F865308B
:1037A0006FF0250003FB00F0FDF700F8054B1862F1
:1037B000D8619FE024000020D02B0020185C010875
:1037C0002C2B00200400002000004442534C062310
:1037D000382204212046FEF787FE392205212046A3
:1037E000FEF792FE3A2206212046FEF78DFE372292
:1037F00005212046FEF788FE362206212046FEF7E8
:1038000083FE0623382276212046FEF76DFE3922FC
:103810007A212046FEF778FE3A2279212046FEF7EB
:1038200073FE37227A212046FEF76EFE362279217A
:103830002046FEF769FE09233A2210212046FEF7B2
:1038400053FE042600960523362212212046FDF75A
:103850003DFF09233A2267212046FEF745FE0096E8
:103860000523362269212046FDF730FF002405E0BC
:103870002E22A1B22948FEF747FE0134802C15DC28
:10388000621E14F0070F0CBF0123002312F0070F74
:1038900008BF43F00103A21E12F0070F0CBF012264
:1038A0000022002BE9D1002AE2D0E6E700241AE04A
:1038B0001B4BD869FDF794F981B204EBC40304EB08
:1038C000430301EB430189B2C4EB041305EBC303CB
:1038D000313101931E230093072289B20F48FDF76F
:1038E000CBFE0134E4B20F4B93F87A2013445B789B
:1038F000A342DDD802210948FEF721FE094B93F8C7
:103900008D3013B103B0BDE8F083402300938023D2
:10391000002211460148FDF7D9FEF3E7D02B002025
:10392000040000202C2B002000B583B0074B5A88E0
:103930000232012301930C23009392B25F210448C9
:10394000FDF764FF03B05DF804FB00BFB82A002058
:10395000D02B002000B583B0064B5A8805320623D1
:10396000009392B262210448FDF7B0FE03B05DF807
:1039700004FB00BFB82A0020D02B002008B5184B4C
:103980001B681B5C012B16D0022B1ED04BB1154BB4
:103990005A880C32144B92B25F211448FEF7B4FCE3
:1039A00008E0104B5A880C32114B92B25F210F483D
:1039B000FEF7AAFC08BD0B4B5A880C320D4B92B295
:1039C0005F210A48FEF7A0FCF4E7064B5A880C3248
:1039D000094B92B25F210548FEF796FCEAE700BF6B
:1039E000C40B0020B82A0020C8540108D02B0020A6
:1039F000BC540108C0540108C454010810B53A4B26
:103A00001B78012B39D0032B1CD101224FF480519C
:103A1000364801F0E8FD364B1B789BB1344B93F8E8
:103A20007920134493F865306BB131490A44013B66
:103A300082F865302F4C3049206AFCF703FE206283
:103A40000023A37210BD2A4B93F889308BB1284B09
:103A500093F87A10194449780139134483F86510B2
:103A60006FF0250001FB00F0FCF7A0FE214B18626F
:103A7000E8E7204B01229A72E4E700224FF48051DC
:103A80001A4801F0B0FD1A4B1B78002BDAD0184B06
:103A900093F879105A1892F8652093F87A00034445
:103AA0005B78013B9A420DDA114B0B44013283F8EB
:103AB0006520104C1049206AFCF7C2FD20620023EB
:103AC000A372BFE70A4B93F8893043B1084B0B440C
:103AD000002283F86520074B00221A62B2E7054BEB
:103AE00001229A72AEE700BF8A0B0020000C014051
:103AF0002C2B00200400002000001842664B1B798C
:103B0000002B40F0C8802DE9F041644B1B78012B5D
:103B100066D0032B40F09A80614B93F879402344A0
:103B200093F8653083BB5E4B93F88A30002B00F02E
:103B30008D805B4B1B78002B00F088805649012359
:103B40000B71574A92F87A3013445B78581E22441E
:103B500082F865000A7893420CD90D46A21D01EB4C
:103B6000820250495160C3F104031801FCF71EFEA4
:103B7000E8606BE0013B0634474A02EB840418011D
:103B8000FCF714FE606061E0454A127842B3013BE5
:103B9000D8B2434B234483F86500FCF707FE054683
:103BA0003D4BDE684FF076513046FCF753FE00F196
:103BB00000412846FCF7ECFF38B14FF08341304616
:103BC000FCF740FD344BD86040E00634324B03EB49
:103BD00084044FF083416068FCF732FD606035E09B
:103BE0002F4B93F879401A1992F8650093F87A20D0
:103BF00013445B78013B98422AD0294B1B782BB3A6
:103C00000130C0B2264B234483F865000130FCF735
:103C1000CDFD0546204B93F80080DF684FF07651CC
:103C20003846FCF717FE06464046FCF7BFFD314616
:103C3000FCF706FD01462846FCF7C8FF00B34FF02D
:103C400083413846FCF7FCFC134BD860BDE8F0819B
:103C5000134B93F88A30002BF8D0114B1B78002BB4
:103C6000F4D00D4B01221A710D4A2244002182F832
:103C700065100022DA60063403EB84035A60E5E73E
:103C80000634054B03EB84044FF083416068FCF776
:103C9000D9FC6060DAE77047B82A00208A0B002060
:103CA0002C2B002000004042124B93F87C30FBB1DB
:103CB00010B5FFF789F8104B1B78012B05D00D4B81
:103CC00093F87C30002BF4D111E000240A4B1C70D7
:103CD00021460A48FEF753FF322001F06FF9054BE9
:103CE00083F87C40022283F87A2083F87B2010BD81
:103CF000704700BF2C2B00208B0B0020D02B002006
:103D000008B527492748FFF7BBFB274B1B78012B3A
:103D100000D008BD244B00221A70244B1B78032BC3
:103D20000FD0042B10D0012B0BD0214B9B7A002BF2
:103D3000EFD1204B1B78002BEBD01D4B1A68DA62B9
:103D4000E7E7FFF75BFEF0E71A4B93F8792013449F
:103D500093F86530032BE8D8DFE803F0020A121A63
:103D6000144B012283F87A20032283F87B20DCE7BE
:103D7000104B032283F87A20022283F87B20D4E7B9
:103D80000C4B042283F87A20022283F87B20CCE7B4
:103D9000084B062283F87A20022283F87B20C4E7AE
:103DA000BC550108940000208B0B00208A0B0020DA
:103DB000040000202C2B002010B50A4C0A4B93F86D
:103DC0007E102046FEF7E2FE626B084B1A6094F804
:103DD00038302268127C02FB03F3DB00044A1380B4
:103DE00010BD00BFD02B00202C2B0020CC2B00209E
:103DF000C82B002000B5034601FB01FC0CFB01FEB3
:103E00000EFB01F2012099420AD8634507D373459E
:103E100008D3934208D3B3FBF2F30430F3E7013045
:103E20005DF804FB0230FBE70330F9E710B5013918
:103E300019E0154BA3FB023C4FEA5C13642404FB1E
:103E400013234FEA430E4FEA5C120EF1010C0F4CA4
:103E500014F80CC000F801C001F1FF3C14F8133055
:103E600000F80C300239632AE3D8092A08D9530034
:103E700001330649CB5C437011F81230037010BD5A
:103E800030320270FBE700BF1F85EB51F054010890
:103E9000F8B50546CF0F002915DB0C460A21204650
:103EA000FFF7A8FF064605F108032B602D223918FD
:103EB000284603F0FFF92868224631463844FFF7C8
:103EC000B5FF2846F8BD4C42E8E7000000B587B0D2
:103ED0000C4B1B68195C6846FFF7DAFF0A4B5A88DF
:103EE0000C32009B92B25F210848FEF705FA684643
:103EF00003F0D8F907B05DF804FB684603F0D2F987
:103F000002F061FCC40B0020B82A0020D02B002056
:103F100000B587B0184B1B68195C71B15A291CD8C1
:103F20006846FFF7B5FF154B5A880C32009B92B2DA
:103F30005F211348FEF7E8F909E0104B5A880C326C
:103F4000104B92B25F210E48FEF7DEF902E06846A0
:103F500003F0A8F907B05DF804FB084B5A880C324F
:103F6000094B92B25F210648FEF7CEF9F2E76846A8
:103F700003F098F902F027FCC40B0020B82A0020B7
:103F8000D02B0020BC540108CC54010838B505469C
:103F90000C46234B5A880C3250F8213092B204213F
:103FA0002048FEF7B1F955F824301B783D2B14D882
:103FB000232B17D3233B1A2B14D8DFE803F0282C2C
:103FC00013131313131314131313131313131313C0
:103FD00013131313131313131E007E2B02D1204649
:103FE000FFF774FF38BDFFF79FFC0F4B5B681B5D4D
:103FF000012BF7D1FFF7AEFCF4E7FFF795FC0A4B76
:10400000DB681B78A342EDD1FFF7A4FCEAE720466A
:10401000FFF7B4FCE6E72046FFF77AFFE2E700BFD0
:10402000B82A0020D02B0020C40B00202DE9F0433B
:1040300083B006460D46A04CA0492046FEF7A4F9E1
:104040009F4F97F879303B4493F8653056F823102A
:104050002046FEF7A7F99B4C0830FCF7A7FB6061F0
:1040600097F879303B4493F865907B19587801387C
:10407000FCF79CFB01464FF08540FCF79FFC804617
:104080004846FCF793FB4146FCF7E4FBFCF7A4F938
:1040900009F0B2FDFCF780FA2067022204F10C015E
:1040A00004F10800FFF704F9022204F1140104F1FD
:1040B0001000FFF7FDF897F87910063104EB810145
:1040C0000222043104F11800FFF7F2F8022204F191
:1040D000700104F16C00FFF7EBF823795BB197F8FE
:1040E0007930063304EB83035968A069FCF746FD79
:1040F00008B100222271704C01212046FEF71FFA00
:10410000052300227B212046FEF7EEF905233F22FE
:104110007B212046FEF7E8F9402300227D2120463E
:10412000FEF7EAF9674BD86EFCF780FD80B200908D
:10413000052300227B212046FDF7C8FA604B1B783F
:10414000002B40F0A08000241EE05D4B93F87970B6
:104150003B4493F86500DFF86C81D8F80890201A8A
:10416000FCF724FB4946FCF775FB063708EB87078D
:104170007968FCF767FAFCF733FDA8F802002146DE
:104180003046FFF703FF01344D4B2B445B78A342CD
:1041900027DD4B4B93F88830002BD6D0DFF82481F5
:1041A000D8F808702046FCF701FB3946FCF752FBB3
:1041B0008146434B93F879703B4493F865000001C6
:1041C000FCF7F4FA01464846FCF73AFA063708EBE2
:1041D00087077968FCF736FAFCF702FDA8F80200B9
:1041E000CDE7384BD9689868FCF7C8FC68B3344A07
:1041F0000123137092F879301A4492F86500C0EBED
:104200000070304C063304EB83035D680001FCF75B
:10421000CDFA2946FCF716FAE060A06015E0294FB8
:10422000D7F808802001FCF7C1FA4146FCF70AFAEA
:10423000FCF7D6FC788021463046FFF7A7FE013414
:104240001F4B2B445B78A342E9DC1B4D022128461F
:10425000FEF775F91B4B9E691869FCF7E7FC84B201
:104260003046FCF7E3FC0021019110230093234624
:1042700082B22846FDF74FFA114B93F88D3023B1E7
:1042800003B0BDE8F0830024DAE7402300938023E5
:10429000002211462846FDF719FA094B93F87A30A7
:1042A0000BB1052BECD14023009380230022114653
:1042B0000148FDF70BFAE3E7D02B0020185C01085A
:1042C0002C2B0020B82A002000B585B02E48827D16
:1042D0002E4B83F88F20027E83F891200421FFF774
:1042E000A5FE2B4B1B78012B02D005B05DF804FB1B
:1042F000274B00221A70274B1B78013B032BF4D865
:10430000DFE803F00205020CFFF7F8FBEDE71F4BB7
:1043100093F879201344002283F865201B4B93F80F
:104320007920134493F86530042BDED801A252F8AB
:1043300023F000BF494300085943000877430008B1
:10434000EB4200087F430008104B022283F87A20DA
:10435000032283F87B20C8E70F4A04230393A2F1CA
:10436000150302930A2301930093642310210B4841
:10437000FEF74AFEB9E70220FEF73CFEB5E704204F
:10438000FEF738FEB1E700BF780000202C2B00209C
:104390008B0B00208A0B00208D000020D0540108D8
:1043A00000B585B03048C27E304B83F88D200621A1
:1043B000FFF73CFE2E4B1B78012B02D005B05DF8B9
:1043C00004FB2B4B00221A702A4B1B78013B032B5A
:1043D000F4D8DFE803F00205020CFFF78FFBEDE7EE
:1043E000224B93F879201344002283F865201F4B59
:1043F00093F87920134493F86530052BDED8DFE875
:1044000003F0030B1A1E222A184B022283F87A208B
:10441000032283F87B20D1E7174A06230393A2F1F6
:10442000190302930F23019300210091FF231348E6
:10443000FEF7EAFDC2E70320FEF7DCFDBEE703203E
:10444000FEF7D8FDBAE7094B072283F87A2002224B
:1044500083F87B20B2E7054B072283F87A200222FB
:1044600083F87B20AAE700BF580000202C2B0020F7
:104470008B0B00208A0B002071000020E054010803
:1044800008B507211648FFF7D1FD164B1B78012B05
:1044900000D008BD134B00221A70134B1B78013B50
:1044A000032BF6D8DFE803F00205020CFFF726FB2A
:1044B000EFE70E4B93F879201344002283F8652030
:1044C0000A4B93F87920134493F86530002BE0D120
:1044D000064B062283F87A20032283F87B20D8E754
:1044E000380000208B0B00208A0B00202C2B002092
:1044F0002DE9F04188B06C4B197B9868FFF796FD69
:104500006A4B93F88B30002B40F0A580684D6949C9
:104510002846FDF739FF644C236818786779C01B7B
:10452000FCF744F906462079C01BFCF73FF9014629
:104530003046FCF743FA6049FCF78CF9214641F814
:10454000280F032204F12400FEF7B2FE032204F137
:10455000300104F12C00FEF7ABFE00212846FDF7E8
:10456000EEFF94F82280E06AFCF73AFB02270197FD
:1045700020260096662382B241462846FDF7CBF8F6
:1045800001212846FDF7DBFF94F82280E06AFCF762
:1045900027FB01970096662382B241462846FDF725
:1045A00035F994F82260E06AFCF71AFB82B2143203
:1045B00001230193072300935C2392B2711D2846C7
:1045C000FDF724F994F82270E06AFCF709FB86B243
:1045D000606AFCF72BFB06F116020323009383B2FB
:1045E00092B2F91D2846FDF771F894F82260E06A4E
:1045F000FCF7F6FA82B20E3204F10D0392B2711D8D
:104600002846FDF781FE2368197802A8FFF740FCD1
:1046100094F82260E06AFCF7E3FA82B20E32029B61
:1046200092B206F14E012846FDF76EFE15E06FF0DE
:10463000550002400A7001339BB2204A12889A4208
:104640007FF664AF1E4A1268D118D25C13F0010FD6
:10465000EDD15520EDE70023EFE71A4904F10D00F5
:10466000FCF7DAFB28B9114B93F87E102846FEF7C9
:104670008DFA02210E48FDF762FF0C4B93F88D3046
:104680003BB9402300938023002211460848FDF7E0
:104690001DF802A802F006FE08B0BDE8F08102A8ED
:1046A00002F000FE02F08FF8900B00202C2B00206F
:1046B000D02B0020185C01080000B042C82B00205D
:1046C000CC2B0020E054010810B5FFF711FF224B5E
:1046D000DC6A22492046FCF751FA20B11E4B1A7BB6
:1046E0001F4B83F87A201F4B1B78012B00D010BD85
:1046F000194B196B2046FCF741FA0028F7D01749EF
:104700002046FCF73BFA0028F1D1164B00221A7024
:10471000154B1B78013B032BE9D8DFE803F00218A7
:104720000D180D4A11680B7812799342DFD20A4AAC
:10473000927913440B70DAE7074A11680B785279C3
:104740009342D4D9044A92799B1A0B70CFE7024B5B
:10475000024A1A63CBE700BF900B0020000008C29A
:104760002C2B00208B0B00208A0B002008B528483A
:10477000FDF70DF9274B93F87B30042B06D8DFE8C3
:1047800003F00306090C0F00FEF7C6FD08BDFEF797
:1047900019FDFBE7FEF72CFDF8E7FEF759FDF5E7FD
:1047A0001B48FDF7E7F81B4B93F87A30072BEDD841
:1047B00001A252F823F000BFD9470008F1470008D2
:1047C000F74700088D470008FD4700088D4700089F
:1047D0000348000809480008FFF776FF0E4B5A7E91
:1047E0000C4B83F87E200D4A527D83F88E20CDE756
:1047F000FFF75AFACAE7FFF783FAC7E7FFF764FD46
:10480000C4E7FFF7CDFDC1E7FFF73AFEBEE700BF03
:10481000D02B00202C2B00205800002078000020F6
:1048200008B54FF6FF710120FEF7B6FB08BD00008A
:1048300008B5292903D0492905D0012008BD104613
:1048400000F0BCFBF9E70421014800F0CCFEF4E7DE
:104850000008014038B50446A1F1140CBCF10C0F5E
:1048600008D8DFE80CF0360707091A2807070707FA
:1048700007071400002038BD1946174801F09EFABA
:10488000154BDB8E9BB2002BFAD10120F3E71021F0
:10489000124800F0A8FE0120EDE703681A784921CC
:1048A000FEF782F965692268002392782C21204660
:1048B000A8470120DFE702680023D2782C21456950
:1048C000A84723685A7849212046FEF76DF9012050
:1048D000D1E70120CFE700BFA82C0020000801404D
:1048E00000B583B08DF8070001290DD000221021FA
:1048F000084800F078FE01220DF10701064801F09A
:104900005DFA03B05DF804FB01221021014800F0BC
:104910006AFEF0E700080140A82C002038B5002509
:104920000AE001210020FFF7DBFF0134E4B214F0BC
:10493000800FF6D00135EDB2072D0FD8A5F150004C
:104940000021C0B2FFF7CCFF00210220FFF7C8FF13
:1049500000211020FFF7C4FF0024E8E738BD10B5A0
:104960000446A1F150000021C0B2FFF7B9FF0234A4
:10497000C4F30310002140F01000FFF7B1FF002145
:1049800004F00F00FFF7ACFF10BD08B500218D202B
:10499000FFF7A6FF00211420FFF7A2FF0021AF20A0
:1049A000FFF79EFF08BD000010B5464C012208210C
:1049B000204600F018FE642000F000FB00220821D1
:1049C000204600F010FE642000F0F8FA01220821D1
:1049D000204600F008FE0021AE20FFF781FF0021F5
:1049E0002020FFF77DFF00211020FFF779FF002135
:1049F000B020FFF775FF0021C820FFF771FF0021ED
:104A00000846FFF76DFF00211020FFF769FF002126
:104A10004020FFF765FFCF218120FFF761FF0021D4
:104A20007F20FFF75DFF0021A120FFF759FF002144
:104A3000A620FFF755FF0021A820FFF751FF002116
:104A40003F20FFF74DFF0021A420FFF749FF002181
:104A5000D320FFF745FF00210846FFF741FF002163
:104A6000D520FFF73DFF0021F020FFF739FF00219F
:104A7000D920FFF735FF00212220FFF731FF002169
:104A8000DA20FFF72DFF00211220FFF729FF002178
:104A9000DB20FFF725FF00212020FFF721FF002169
:104AA0008D20FFF71DFF00211420FFF719FF0021C3
:104AB000AF20FFF715FFFFF731FF00210846FFF792
:104AC0004EFF10BD0008014000B583B001900F4BB0
:104AD0000F4A1049FDF7EEF801A8FEF749F800214A
:104AE00001A8FEF74CF801210198FDF79CFB00217D
:104AF0000198FDF75FFC08490198FDF745FC01A806
:104B0000FCF738FF03B05DF804FB00BF3148000834
:104B10005548000840540108185C010808B50E48C3
:104B20000E4B03604FF48273436000238360C360C5
:104B300002220261012242614FF400728261C3616C
:104B40000362436283620A23C36201F0DBF800B9A7
:104B500008BDFEF7D7F9FBE7A82C0020003800407D
:104B600010B586B000230293039304930593026863
:104B7000214B9A4201D006B010BD044603F5EC3338
:104B8000DA6942F48042DA61DA6902F48042009222
:104B9000009A9A6942F008029A619B6903F008033F
:104BA0000193019B4FF420430293022303930323B9
:104BB000059302A9114800F001FC1148114B036054
:104BC00010234360002383608022C260036143613D
:104BD0008361C36100F094FA58B9094BA3645C6225
:104BE00000221146242000F043FA242000F050FA5D
:104BF000C1E7FEF787F9F0E700380040000C0140FC
:104C0000642C00205800024082B00E4B9A6942F09A
:104C100001029A619A6902F001020092009ADA692F
:104C200042F08052DA61DB6903F080530193019B0B
:104C3000054A536823F0E06343F00073536002B009
:104C4000704700BF0010024000000140FEE7FEE791
:104C5000FEE7FEE7FEE770477047704708B50D4A6C
:104C600013780133DBB21370052B08D80A4B1B688D
:104C70005BB1013B084A136000F08EF908BDFEF7F6
:104C8000A3F8044B00221A70F0E7012BF4D8FDF7CB
:104C9000B7FFF1E7002D0020840B002008B5024883
:104CA00000F0EAFA08BD00BF642C002008B50248F5
:104CB00001F07CFA08BD00BF082D002008B50248AD
:104CC00001F03EF908BD00BFA82C0020012070476C
:104CD00008B50BF0EDF9162303604FF0FF3008BD67
:104CE00008B54FF0FF31FFF7F3FFFEE770B50C4654
:104CF0001646002506E0AFF30080214601F8010BBF
:104D000001350C46B542F6DB304670BD70B50C4639
:104D10001646002504E014F8010BAFF300800135BE
:104D2000B542F8DB304670BD08B503460B4A126841
:104D300042B10A4A106803446A46934206D8074AB9
:104D4000136008BD054A06491160F2E70BF0B0F99F
:104D50000C2303604FF0FF30F3E700BF042D002069
:104D6000E83000204FF0FF3070474FF400534B60A5
:104D700000207047012070470020704770470000F6
:104D800000B587B000230293039304930593009327
:104D9000019315484FF080420260472242608360D1
:104DA00042F20F72C2600361836101F0F7FA90B9B9
:104DB0004FF48053029302A90B4801F0E9FB68B954
:104DC0000023009301936946074801F09FFC40B916
:104DD00007B05DF804FBFEF795F8E9E7FEF792F8F7
:104DE000EEE7FEF78FF8F3E7502D00200368B3F1EC
:104DF000804F00D0704782B003F50433DA6942F087
:104E00000102DA61DB6903F001030193019B02B047
:104E10007047000002680E4B9A4200D0704700B500
:104E200083B003F50233DA6942F00402DA61DB6928
:104E300003F004030193019B002201211E2000F0D6
:104E400017F91E2000F024F903B05DF804FB00BF41
:104E50000008004000B587B0002302930393049339
:104E6000059302680D4B9A4202D007B05DF804FB2F
:104E700003F502339A6942F008029A619B6903F0D4
:104E800008030193019B4FF4807302930223039361
:104E9000059302A9024800F091FAE6E700080040F5
:104EA000000C014000B58BB00023089309930193D7
:104EB0000293039304930593069307931848194AA2
:104EC000026047224260836040F2F312C2600361D5
:104ED000836101F08FFAC8B900230893099308A9E8
:104EE0000F4801F013FCA0B9602301930023029343
:104EF00003930593082201A9094801F0D5FA58B98E
:104F00000748FFF7A7FF0BB05DF804FBFDF7FAFFBA
:104F1000E2E7FDF7F7FFE7E7FDF7F4FFF0E700BF93
:104F2000082D00200008004010B504460E4B1A78EA
:104F30004FF47A73B3FBF2F30C4A1068B0FBF3F052
:104F400000F0B4F868B90F2C01D901200AE0002262
:104F500021464FF0FF3000F08BF8054B1C6000201D
:104F600000E0012010BD00BFA8000020A400002028
:104F7000AC00002008B5074A136843F01003136023
:104F8000032000F063F80F20FFF7CEFFFFF73CFE91
:104F9000002008BD00200240034A1168034B1B7823
:104FA0000B441360704700BF982D0020A80000201C
:104FB000014B1868704700BF982D002038B5044693
:104FC000FFF7F6FF0546B4F1FF3F02D0044B1B7814
:104FD0001C44FFF7EDFF401BA042FAD338BD00BFD1
:104FE000A8000020002808DB0901C9B200F16040D8
:104FF00000F5614080F80013704700F00F000901D0
:10500000C9B2014B1954704714ED00E000B500F02F
:105010000700C0F1070CBCF1040F28BF4FF0040CCF
:10502000031D062B0FD9C31E4FF0FF3E0EFA0CF0E6
:1050300021EA000199400EFA03FE22EA0E0241EA3B
:1050400002005DF804FB0023EEE70000074AD36886
:1050500023F4E0631B041B0C000200F4E060034334
:1050600043F0BF6343F40033D360704700ED00E0CA
:1050700010B50446054BD868C0F30220FFF7C6FF01
:1050800001462046FFF7AEFF10BD00BF00ED00E077
:10509000002807DB00F01F02400901239340024A69
:1050A00042F82030704700BF00E100E00138B0F165
:1050B000807F0BD24FF0E0235861054AF02182F83F
:1050C00023100020986107221A6170470120704761
:1050D00000ED00E030B40124056CAC40C56B6C60A1
:1050E000046863604368102B05D003689960036807
:1050F000DA6030BC704703689A600368D960F8E7EB
:1051000060B310B402460168154B0B441548A0FB70
:1051100003031B099B001364134BD363022382F820
:105120002130086820F47F5020F0300053689468E4
:105130002343D46823431469234354692343946964
:105140002343D469234303430B600020906301236E
:1051500082F8213082F8200010BC7047012070478F
:10516000F8FFFDBFCDCCCCCC0000024038B50446E2
:1051700090F82000012831D0012084F8200094F814
:105180002100012804D0002384F82030022038BDFB
:10519000022084F821000020A0632568286820F000
:1051A000010028602046FFF795FFE36A5BB12268A3
:1051B000136843F00E0313602268136843F0010381
:1051C00013600020E3E72268136823F004031360F0
:1051D0002268136843F00A031360EDE70220D6E764
:1051E00008B590F82130022B03D0042383630120FB
:1051F00008BD0268136823F00E0313600268136889
:1052000023F0010313600368194A934214D0143247
:1052100093421FD0143293421ED0143293421ED0B8
:10522000143293421ED01432934202D04FF0807257
:1052300003E04FF4801200E001220E4B5A6001237C
:1052400080F82130002380F82030436B6BB1984701
:105250000020CDE71022F0E74FF48072EDE74FF425
:105260008052EAE74FF48032E7E70020C0E700BF52
:10527000080002400000024038B5C36B1A68046899
:105280002568016C04238B40134235D015F0040FC0
:1052900032D0236813F0200F03D1236823F00403D6
:1052A00023600368434A934214D01432934218D0C7
:1052B0001432934217D01432934217D014329342CF
:1052C00017D01432934202D04FF0806203E04FF4C3
:1052D000800200E00422384B5A60C36A03B1984749
:1052E00038BD4022F7E74FF48062F4E74FF4804284
:1052F000F1E74FF48022EEE702238B4013423CD0CB
:1053000015F0020F39D0236813F0200F06D123685F
:1053100023F00A032360012380F821300368254A23
:10532000934214D0143293421CD0143293421BD0B7
:10533000143293421BD0143293421BD01432934246
:1053400002D04FF0007203E04FF4001200E002229E
:10535000194B5A60002380F82030836A002BBFD09D
:105360009847BDE72022F3E74FF40072F0E74FF4CF
:105370000052EDE74FF40032EAE708238B40134276
:10538000AED015F0080FABD0236823F00E032360D6
:10539000026CC16B012303FA02F24A60836380F856
:1053A0002130002380F82030036B002B98D09847E1
:1053B00096E700BF080002400000024070B582B0CE
:1053C0000024A446A2E07E4DAB4210D007D97D4D0B
:1053D000AB420CD005F58035AB4208D013E0A5F503
:1053E0008015AB4203D005F57025AB4207D18B6821
:1053F000002B55D0012B4ED04261082403E0A5F5C7
:105400008015AB42F3D0BEF1FF0F4BD806464FEAF2
:105410008C0233680F25954023EA050304FA02F253
:10542000134333604B6813F0805F6DD0664B9A690D
:1054300042F001029A619B6903F001030193019B11
:105440004FEA9C02951C614B53F825600CF0030554
:10545000AD000F23AB4026EA03065D4B984228D0EF
:1054600003F58063984200F08D8003F580639842D5
:1054700000F08A8003F58063984218D0042319E075
:10548000CC68C0E7CC680434BDE7CC680834BAE720
:10549000CC680C34B7E702610824B4E70024B2E713
:1054A0000424B0E7061DACF108029200B1E7032323
:1054B00000E00023AB4033430232444D45F8223034
:1054C0004B6813F4803F61D0424A136843EA0E03ED
:1054D00013604B6813F4003F5ED03E4A536843EAC2
:1054E0000E0353604B6813F4801F5BD0394A9368F6
:1054F00043EA0E0393604B6813F4001F58D0354AFB
:10550000D36843EA0E03D3600CF1010C0B6833FA45
:105510000CF253D0012202FA0CF203EA020E32EA34
:105520000303F1D14B68122B3FF64DAF122B3FF620
:105530006AAF01A555F823F0EF5300088154000825
:105540008B5400089D5400080754000807540008B5
:1055500007540008075400080754000807540008BF
:1055600007540008075400080754000807540008AF
:105570000754000807540008075400088554000821
:1055800091540008012395E7022393E7114A136819
:1055900023EA0E0313609CE70E4A536823EA0E03C6
:1055A00053609FE70B4A936823EA0E039360A2E7D8
:1055B000084AD36823EA0E03D360A5E702B070BDA2
:1055C00000002210000031100010024000000140D5
:1055D00000080140000401408368194201D0012005
:1055E0007047002070470AB10161704709040161EA
:1055F0007047000082B0084B1B68084AA2FB0323D7
:105600005B0A00FB03F3019300BF019B5A1E01924A
:10561000002BF9D102B07047A4000020D34D6210D6
:10562000002800F0F18170B582B00446036813F0E1
:10563000010F2CD0994B5B6803F00C03042B1DD099
:10564000964B5B6803F00C03082B12D06368B3F52C
:10565000803F41D0002B55D103F1804303F5043343
:105660001A6822F480321A601A6822F480221A60C2
:1056700037E08A4B5B6813F4803FE7D0874B1B68A9
:1056800013F4003F03D06368002B00F0BF81236850
:1056900013F0020F75D0814B5B6813F00C0F5FD0D5
:1056A0007E4B5B6803F00C03082B54D02369002B5E
:1056B00000F08A807A4B01221A60FFF779FC0546D8
:1056C000764B1B6813F0020F75D1FFF771FC401B7E
:1056D0000228F5D903209EE1704A136843F4803311
:1056E0001360636843B3FFF763FC05466B4B1B68AD
:1056F00013F4003FCBD1FFF75BFC401B6428F5D9C6
:10570000032088E1B3F5A02F09D0644B1A6822F476
:1057100080321A601A6822F480221A60E1E703F1ED
:105720008043A3F53C331A6842F480221A601A6859
:1057300042F480321A60D4E7FFF73AFC0546574B33
:105740001B6813F4003FA2D0FFF732FC401B642813
:10575000F5D903205FE1514B5B6813F4803FA5D17D
:105760004E4B1B6813F0020F03D02369012B40F04E
:105770004F814A4A136823F0F803616943EAC10381
:105780001360236813F0080F33D0A369002B5CD09B
:10579000434B0122C3F88024FFF70AFC05463F4B28
:1057A0005B6A13F0020F21D1FFF702FC401B0228B5
:1057B000F5D903202FE1394A136823F0F803616912
:1057C00043EAC1031360DCE7354B00221A60FFF7A0
:1057D000EFFB0546314B1B6813F0020FD1D0FFF7EA
:1057E000E7FB401B0228F5D9032014E10120FFF755
:1057F00001FF236813F0040F00F09680274BDB694C
:1058000013F0805F34D1254BDA6942F08052DA61BF
:10581000DB6903F080530193019B0125214B1B6839
:1058200013F4807F26D0E368012B3DD0002B53D1A9
:1058300003F1804303F504331A6A22F001021A626D
:105840001A6A22F004021A6233E0154B0022C3F8F0
:105850008024FFF7ADFB0546104B5B6A13F0020F87
:10586000C7D0FFF7A5FB401B0228F5D90320D2E0E3
:105870000025D3E70B4A136843F480731360FFF7E6
:1058800097FB0646074B1B6813F4807FCBD1FFF7CD
:105890008FFB801B6428F5D90320BCE00010024078
:1058A00000004242007000405F4A136A43F0010367
:1058B0001362E36833B3FFF77BFB06465A4B1B6A60
:1058C00013F0020F2FD1FFF773FB801B41F28833D7
:1058D0009842F3D903209EE0052B09D0524B1A6A57
:1058E00022F001021A621A6A22F004021A62E0E748
:1058F0004D4B1A6A42F004021A621A6A42F001021F
:105900001A62D6E7FFF754FB0646474B1B6A13F0B3
:10591000020F08D0FFF74CFB801B41F288339842FE
:10592000F3D9032077E0E5B9E369002B72D03E4A52
:10593000526802F00C02082A56D0022B17D03B4BBB
:1059400000221A66FFF734FB0446374B1B6813F03E
:10595000007F47D0FFF72CFB001B0228F5D903205E
:1059600059E0314AD36923F08053D361DCE72F4BF0
:1059700000221A66FFF71CFB05462B4B1B6813F031
:10598000007F06D0FFF714FB401B0228F5D9032047
:1059900041E0236AB3F5803F1AD023494B6823F4D2
:1059A0007413226A606A024313434B601F4B012247
:1059B0001A66FFF7FDFA04461B4B1B6813F0007FC5
:1059C0000ED1FFF7F5FA001B0228F5D9032022E0DB
:1059D000154A536823F40033A1680B435360DCE796
:1059E000002018E0002016E0012B16D00E4B5B685B
:1059F00003F48031226A914211D103F47013626A78
:105A000093420ED1002006E001207047012002E001
:105A1000012000E0002002B070BD0120FBE7012062
:105A2000F9E70120F7E700BF001002400000424202
:105A300086B0194B0FCB0DF1180C0CE90F0040F29A
:105A40000123ADF80430154B5A6802F00C03042B07
:105A50001CD0082B1CD1C2F3834318336B4413F8BA
:105A6000100C12F4803F0DD00C4B5B68C3F3404325
:105A700018336B4413F8143C094A02FB00F0B0FBE6
:105A8000F3F006E0074B03FB00F002E0044800E0FF
:105A9000054806B0704700BFB0660108001002401C
:105AA0000024F40000093D0000127A00002800F0F4
:105AB000A08070B50D460446524B1B6803F00703E7
:105AC0008B420BD24F4A136823F007030B4313603A
:105AD000136803F007038B4240F08D80236813F0B6
