:020000040800F2
:1000000000500020C12F00085119000853190008A2
:100010005519000857190008591900080000000078
:100020000000000000000000000000005B19000854
:100030005D190008000000005F1900086119000840
:1000400009300008093000080930000809300008AC
:10005000093000080930000809300008093000089C
:10006000093000080930000809300008093000088C
:100070000930000809300008093000088519000817
:10008000093000080930000809300008093000086C
:10009000093000080930000809300008093000085C
:1000A000093000080930000809300008093000084C
:1000B000093000080930000809300008093000083C
:1000C000093000080930000809300008093000082C
:1000D00095190008093000080930000809300008A7
:1000E000093000080930000809300008000000004D
:1000F0000000000000000000000000000000000000
:0C01000000000000000000005FF808F1A3
:10010C0000F1340191E838009C46A6464CF8045D99
:10011C0090E8FF0FE54600BD90EC210B704700BF47
:10012C0080EC210B704700BF90EC200B704700BF98
:10013C0080EC200B704700BFD0EC200B704700BF49
:10014C00C0EC200B704700BFF0EC0201F0EC021188
:10015C00F0EC0221F0EC0231F0EC0241F0EC025137
:10016C00F0EC0261F0EC0271F0EC0281F0EC029127
:10017C00F0EC02A1F0EC02B1F0EC02C1F0EC02D117
:10018C00F0EC02E1F0EC02F1704700BFE0EC020190
:10019C00E0EC0211E0EC0221E0EC0231E0EC024177
:1001AC00E0EC0251E0EC0261E0EC0271E0EC028167
:1001BC00E0EC0291E0EC02A1E0EC02B1E0EC02C157
:1001CC00E0EC02D1E0EC02E1E0EC02F1704700BFA0
:1001DC00B0FC0181B0FC0191B0FC01A1B0FC01B1FB
:1001EC00704700BFA0FC0181A0FC0191A0FC01A103
:1001FC00A0FC01B1704700BFEC4600B52DE90050E2
:10020C002DE9FF1F4FF000032DE90C0001A903F0AD
:10021C0053F8DDF840E012B0704700BFEC4600B573
:10022C002DE900502DE9FF1F4FF000032DE90C00C4
:10023C0001A903F081F8DDF840E012B0704700BF6F
:10024C00EC4600B52DE900502DE9FF1F4FF00003DF
:10025C002DE90C0001A903F08FF8DDF840E012B095
:10026C00704700BFEC4600B52DE900502DE9FF1F8B
:10027C004FF000032DE90C0001AB03F051F8DDF851
:10028C0040E012B0704700BFEC4600B52DE90050BD
:10029C002DE9FF1F4FF000032DE90C0001AA03F01C
:1002AC00C1F8DDF840E012B0704700BF844641EA67
:1002BC00000313F0030349D1403A23D30B680360C6
:1002CC004B6843608B688360CB68C3600B690361C8
:1002DC004B6943618B698361CB69C3610B6A0362B0
:1002EC004B6A43628B6A8362CB6AC3620B6B036398
:1002FC004B6B43638B6B8363CB6BC363403040317D
:10030C00403ADBD230320BD30B6803604B6843604E
:10031C008B688360CB68C36010301031103AF3D215
:10032C000C3205D351F8043B40F8043B043AF9D2A3
:10033C00043208D0D2071CBF11F8013B00F8013B76
:10034C0001D30B8803806046704700BF082A13D383
:10035C008B07B1D010F00303AED0C3F10403D21A53
:10036C00DB071CBF11F8013B00F8013BA4D331F8AB
:10037C00023B20F8023B9FE7043AD9D3013A11F82B
:10038C00013B00F8013BF9D20B7803704B784370BA
:10039C008B788370604670470348044B834202D0CD
:1003AC00034B03B1184770471000002010000020C9
:1003BC00000000000548064B1B1AD90F01EBA301E6
:1003CC00491002D0034B03B11847704710000020AE
:1003DC00100000200000000010B5064C237843B933
:1003EC00FFF7DAFF044B13B10448AFF3008001238D
:1003FC00237010BD1000002000000000D43E000847
:10040C0008B5054B1BB105490548AFF30080BDE8A5
:10041C000840FFF7CFBF00BF000000001400002011
:10042C00D43E000810B582B003681B7C446B03FB00
:10043C0001F1C90089B20C440094002100F0A2FE25
:10044C0002B010BD2DE9F041064690F8387090F8D6
:10045C003950036893F8118000242A46214630460F
:10046C00FFF7E0FF0134E4B20135EDB2A74201D948
:10047C00A845F2D8BDE8F08108B503681B7C90F85C
:10048C00382003FB02F2D2000021406B03F038FC51
:10049C0008BD10B50446FFF7D5FF204600F098FEC6
:1004AC0010BD000008230370004870472C0000208A
:1004BC0030B585B004460D4600931346084A0949E9
:1004CC0000F0A8FE0DF10F00FFF7ECFF01460095C0
:1004DC00054B9DF80F20204600F0B6FC05B030BD52
:1004EC00A30F0008E5100008910C0008405C704751
:1004FC004218435C507800EB032080B27047002018
:10050C00704738B504460D4600212846FFF7EEFF2C
:10051C00207001212846FFF7E9FF60700221284670
:10052C00FFF7E4FFA07003212846FFF7DFFFE07020
:10053C0004212846FFF7DAFF207105212846FFF732
:10054C00D5FF607106212846FFF7D0FFA071072167
:10055C002846FFF7CBFFE07108212846FFF7C6FFBE
:10056C00207209212846FFF7C1FF60720A21284634
:10057C00FFF7BCFFA0720B212846FFF7B7FFE07214
:10058C000C212846FFF7B2FF20730D212846FFF7F8
:10059C00ADFF60730E212846FFF7A8FFA0730F2153
:1005AC002846FFF7A3FFE07310212846FFF79EFFB4
:1005BC00207411212846FFF79BFF608213212846E7
:1005CC00FFF796FFA08215212846FFF791FFE082E6
:1005DC0038BD30B5024690F80CE00468207840FA3B
:1005EC000EF05FFA80FC0EEB0103DBB2072B0FD988
:1005FC00CEF1080E5FFA8EFE651C156094F801C0F2
:10060C000CFA0EFC4CEA000C5FFA8CFC083BDBB2DB
:10061C004FF0FF30884013732CEA000030BD38B522
:10062C00044600F160050166002380F86C3090F8F8
:10063C0078102846FFF7CDFF84F86A0094F87910FB
:10064C002846FFF7C6FF84F86B0094F8923084F8C4
:10065C006E30B3FA83F35B0984F86F3038BD10B594
:10066C000C46FFF7B6FF013CE4B20123A340C01ACD
:10067C0040B210BD012B08D0022B09D013B1401A87
:10068C0080B27047104480B27047084480B2704703
:10069C00801A80B27047012B08D0022B09D013B1FD
:1006AC00104480B27047084480B27047801A80B200
:1006BC007047401A80B270472DE9F04F89B005465B
:1006CC008A46079290F968305FFA83FB90F96920AB
:1006DC00D3B2039319E0CDF814A01FE095F86E3057
:1006EC0085F892300097059B0699284600F029FA68
:1006FC00B2453CD3ABEB040454445FFA84FA039B3D
:10070C000133DBB203934FF0000B95F96A40E4B26E
:10071C00A4EB0B06F6B2B245DDD30596B5F86690A0
:10072C004FFA8BF19DF90C8095F870703B46424660
:10073C000491B5F86400FFF7AEFF06903B464246C5
:10074C0004994846FFF796FF0246079B002BC5D13C
:10075C0095F86D30002BCBD195F86F3085F8923031
:10076C000097059B0699284600F0EBF9C0E70AEBC9
:10077C000B0385F8683085F8698009B0BDE8F08F07
:10078C002DE9F04F85B0044600F16005FFF747FFF7
:10079C0094F96B7094F87A102846FFF760FF804646
:1007AC0094F87B102846FFF75AFF064694F87C1005
:1007BC002846FFF754FF039094F96A90B9F1000FA3
:1007CC0055DD3E44F6B2764276B294F870B05B4694
:1007DC0032464146B4F86400FFF75DFF8246A4F848
:1007EC0064005B4632464146B4F86600FFF742FFB0
:1007FC000246A4F86600BBF1030F68D8DFE80BF0E3
:10080C00023B495B1FFA89F353449BB2384480B2D4
:10081C0000905146204600F01FFA40B3002384F8A4
:10082C00683084F8693094F876102846FFF7D1FECA
:10083C00804694F877102846FFF7CBFE0646002238
:10084C0041462046FFF738FF012231462046FFF78C
:10085C0033FF01212846FFF7BCFE0028EFD194F9A5
:10086C006930BB42DFDB94F86E3084F89230039829
:10087C0005B0BDE8F08FAAEB070189B201310AF18E
:10088C0001039BB21FFA89F0104480B21FFA81FA5F
:10089C00BEE71FFA89F1AAEB010189B201310AF115
:1008AC0001039BB2C61BB6B20136013080B2B2B2A4
:1008BC001FFA81FAACE70AEB07039BB21FFA89F126
:1008CC00411A89B20131013080B28AB2A0E7534695
:1008DC009EE770B50E46846D1734FF2913D8602936
:1008EC0003D9B0F888301C4406E0402904D9B0F88C
:1008FC0086301C4400E01C44637803B32278B24277
:10090C00F9D1A01C1CE0B0F88A301C44254600210B
:10091C002846FFF7EDFD044402212846FFF7E8FDC9
:10092C0004358642F3D801E0A3781C44227863781E
:10093C0053EA022305D09E42F6D1E01C00E00020D1
:10094C0070BD0020FCE710B50446A0F86410A0F8B8
:10095C0066201946FFF7BDFF28B101462046FFF778
:10096C000FFF80B210BD0020FCE780F86D107047BF
:10097C00F8B504460D4616461F4690F87030032B0A
:10098C0007D8DFE803F0020D1217C36D9847304407
:10099C0086B23B46324629462046FFF7D4FFF8BDC7
:1009AC00C36D9847281A85B2F3E7C36D9847301A80
:1009BC0086B2EEE7C36D9847284485B2E9E700009C
:1009CC002DE9F04104460F4616461D4600F069FA23
:1009DC004FF0000804E00744BFB240441FFA80F80F
:1009EC0063682978204698474FF6FF72904222D0D0
:1009FC0001354FF6FE729042F2D00346324639462C
:100A0C002046FFF7B5FF94F87030032BE5D801A210
:100A1C0052F823F0E3090008310A0008370A0008ED
:100A2C003D0A00080644B6B2D7E73F1ABFB2D4E776
:100A3C00361AB6B2D1E74046BDE8F08110B5024C8B
:100A4C004460FFF7BDFF10BD990E0008836D73B3B2
:100A5C0090F9812080F88E2090F9823080F88F30C8
:100A6C0090F88D1019B3012914D000B590F97E10AF
:100A7C0090F980C001EB0C0E724505DAC9B25FFA31
:100A8C008CF2114480F88E10634501DD80F88FC024
:100A9C005DF804FB90F983108A4201DA80F88E101D
:100AAC0090F98420934202DD80F88F2070477047C4
:100ABC00014BC365704700BF0B050008836D8B426B
:100ACC0009D010B5044681657430FFF71AFD204635
:100ADC00FFF7BCFF10BD704780F87010704700B571
:100AEC00B0F800E0B1F800C0F4441FFA8CFCE64505
:100AFC0005D99E4513D203F1FF3C1FFA8CFC9E4591
:100B0C000FD294450FD9964500D372469C4500D818
:100B1C00634602809B1A0B8001205DF804FB96460D
:100B2C00EDE70020F9E70020F7E730B583B0C48F7C
:100B3C00121BC46A9DF81850009592B2A04703B0DE
:100B4C0030BD70B584B004469DF82000ADF80E1091
:100B5C00ADF80C20ADF80A3094F88C305BB3BDF8CE
:100B6C000A3043B3012B03D9022826D003282DD0F9
:100B7C0010F0010534D1B4F84C20BDF80C309A4279
:100B8C0019D8B4F84E20934215D2B4F84A30B4F8C0
:100B9C0048200DF10A010DF10E00FFF7A0FF50B136
:100BAC00236B9E680095BDF80A30BDF80C20BDF88B
:100BBC000E102046B04704B070BD8AB2D31A9BB257
:100BCC00ADF80E300133ADF80E30D1E7BDF80C2086
:100BDC00D31A9BB2ADF80C300133ADF80C30C7E72B
:100BEC00B4F84820BDF80E309A42E4D8B4F84A2044
:100BFC009342E0D2B4F84E30B4F84C200DF10A0117
:100C0C0003A8FFF76CFF0028CAD1D4E710B582B057
:100C1C0000240094FFF795FF02B010BD10B582B010
:100C2C0001240094FFF78DFF02B010BD8A4205D25B
:100C3C00834209D89A4209D901207047834207D9C7
:100C4C009A4207D901207047012070470020704755
:100C5C00002070470020704770B504460D461E46B4
:100C6C00BDF81030B0F84E10B0F84C00FFF7DEFFB6
:100C7C0038B133462A46B4F84A10B4F84800FFF7A6
:100C8C00D5FF70BD70B59DF8105002F0070E4FF0F7
:100C9C00010C0CFA0EFC5FFA8CFC90F89260012EA1
:100CAC001AD90024012E19D022F007060268127CF2
:100CBC0006FB02F292B20A44416B1144DDB90A7888
:100CCC002243D2B20A7082EA0C0201F8012B013BDA
:100CDC009BB2002BF3D170BD6446E3E74FF0000CE0
:100CEC00E2E701241BE06400E4B24FEA4C0C5FFA2B
:100CFC008CFC002BEFD00A782243D2B20A7082EA25
:100D0C000C020A700EF10102013B9BB212F0070EAD
:100D1C00E9D1428F114490F89220012AE1D9012A9D
:100D2C00E7D04FF0010CE4E710B5016890F83830CB
:100D3C00DA0082870A7CD200428790F839E04FEAC9
:100D4C00CE02C28703EB0E0491F811C0644503DD9B
:100D5C00ACEB0E0C1FFA8CF3DB009BB2A0F840201E
:100D6C00A0F842201A44A0F842208B8AA0F8443004
:100D7C00CB8AA0F8463010BD08B5FFF7D5FF08BDEB
:100D8C0010B582B00446B0F856300093B0F852302B
:100D9C00B0F85420B0F85010FFF75EFF20B90023D4
:100DAC0084F88C3002B010BD012384F88C30B4F878
:100DBC004820B4F850309A4201D2A4F84830B4F824
:100DCC004A20B4F852309A4201D9A4F84A30B4F807
:100DDC004C20B4F854309A4201D2A4F84C30B4F8F8
:100DEC004E20B4F856309A42DCD9A4F84E30D9E7EC
:100DFC0008B50022A0F84820B0F84420A0F84A20FA
:100E0C00B0F84020A0F84C20B0F84220A0F84E20BA
:100E1C00FFF7B6FF08BD10B582B09DF810400094E6
:100E2C00FFF783FE02B010BD08B50022A0F85020D9
:100E3C00A0F854204FF6FF72A0F85220A0F85620CC
:100E4C00036B5B68984708BD70B50446049E00258B
:100E5C008565C362416380F8382080F8395080F88A
:100E6C006D5080F8915080F88D50012380F89230AD
:100E7C0080F893300663336898472046FFF7D4FF19
:100E8C002046FFF715FE84F8705070BD084611B16E
:100E9C000A2903D070474FF6FF7070474FF6FF706A
:100EAC007047002380F82630704710B50A46046955
:100EBC0000232021A04710BD10B5134604690A4633
:100ECC001721A04710BD00B583B08DF807100DF1A8
:100EDC0007020121FFF7F0FF03B05DF804FB10B52A
:100EEC000A46C46800231521A04710BD10B50A4658
:100EFC00C46800231621A04710BD10B51346C46862
:100F0C000A461721A04710BD10B5C46800231A4625
:100F1C001821A04710BD10B5C46800231A4619212A
:100F2C00A04710BD70B582B006460D4616E01529D7
:100F3C000CD202B070BDFE29FBD122788DF80720AF
:100F4C002921304600F04BF9023507E022788DF864
:100F5C000720F46800233046A04702352C4614F8CD
:100F6C00011B1929E7D818290ED21629DFD9172900
:100F7C00DFD123788DF807300DF1070201213046BF
:100F8C00FFF7BBFF0235E9E7F56800231A46304648
:100F9C00A8472546E2E72DE9F04104460D461646E2
:100FAC001F46A1F11403052B22D8DFE803F0180328
:100FBC000C1518180021FFF778FF31462046FFF773
:100FCC0082FF012012E00021FFF76FFF314620461F
:100FDC00FFF779FF012009E00121FFF766FFD4F844
:100FEC0010803B46324629462046C047BDE8F0817A
:100FFC000020FBE7F8B5064615461C460B390429BC
:10100C0060D8DFE801F0035F0E21300022B92E49D1
:10101C00FFF788FF012025E02C49FFF783FF012013
:10102C0020E042B92A49FFF77DFF33689B7C86F8A4
:10103C002230012016E02749FFF774FF3368DB7C70
:10104C0086F8223001200DE0FFF75EFF812130464B
:10105C00FFF745FF29463046FFF748FF3046FFF7BC
:10106C005AFF0120F8BDFFF74FFF6379DB00DBB2BD
:10107C0096F822701F44FFB240213046FFF72FFF35
:10108C00390941F010013046FFF729FF07F00F0135
:10109C003046FFF72BFFA17941F0B0013046FFF746
:1010AC0025FF2179C900226801F0F8013046FFF7CD
:1010BC0024FF6A1E12F0FF05F3D13046FFF72BFF19
:1010CC000120CFE70020CDE7504D0008484D000827
:1010DC00404D0008384D000838B505460C46FFF762
:1010EC0089FF90B9092C0AD00A2C0FD1284600F0A0
:1010FC0018F807492846FFF715FF012006E00549B7
:10110C00284600F009F8012000E0012038BD00BF9E
:10111C00584D0008204D000801608B7C80F822306F
:10112C00704710B5044600231A462821D0F814C085
:10113C00E04700231A4614212046D4F80CC0E0479F
:10114C0001224B21204600F04AF823681A79292104
:10115C00204600F044F800224B21204600F03FF8D6
:10116C0023681A792921204600F039F801224B21F5
:10117C00204600F034F823685A792921204600F0E3
:10118C002EF810BD10B582B08DF805108DF8062024
:10119C008DF80430049B009384686B4601220F2168
:1011AC00A04702B010BD10B5846800231A4609216F
:1011BC00A04710BD10B5846800231A460A21A04729
:1011CC0010BD10B50A46846800230B21A04710BD42
:1011DC0010B5846800231A461021A04710BD10B525
:1011EC0044690023A04710BD002070470023036012
:1011FC00074A8260C2600261426180F8233080F845
:10120C0026308361FF2380F8243080F82830704723
:10121C00F5110008F8B504460F4616461D46FFF7B3
:10122C00E5FFA760E6602561069B63612046FFF73A
:10123C00BAFFF8BD08B50821014801F043FE08BD0E
:10124C006005002038B504460121FFF78EFB002114
:10125C002046FFF741FC284D29462046FFF72EFC7F
:10126C00264B142200212046FFF7E8FB01212046E3
:10127C00FFF732FC29462046FFF720FC204B0822C2
:10128C0015212046FFF7DAFB00212046FFF724FC4E
:10129C0029462046FFF712FC1A4B1E22332120460A
:1012AC00FFF7CCFB184B1E2243212046FFF7C6FB51
:1012BC002F23232202212046FFF7A8FC2F232422D0
:1012CC0003212046FFF7A2FC0C2320222D212046CF
:1012DC00FFF7A4FC0C2321222E212046FFF79EFCB5
:1012EC0029462046FFF7EAFB084B3622012120460F
:1012FC00FFF7A4FB38BD00BFEC3E0008904D000882
:10130C00944D0008984D00089C4D0008A04D000815
:10131C0010B500F0CBF900F0BAF900F081F90648ED
:10132C0000F05CFA00F052FA034C2046FFF78AFFFB
:10133C002046FFF7AEF8F5E73004002000B583B087
:10134C000A4B5A6942F001025A615B6903F00103CE
:10135C000193019B002211460F2000F043FC0F204B
:10136C0000F050FC03B05DF804FB00BF001002401D
:10137C002DE9F04188B00024049405940694079458
:10138C00454B9A6942F010029A619A6902F0100278
:10139C000092009A9A6942F020029A619A6902F0CE
:1013AC0020020192019A9A6942F004029A619A69A8
:1013BC0002F004020292029A9A6942F008029A61BF
:1013CC009B6903F008030393039BDFF8D08022464C
:1013DC004FF40051404600F0B9FE314E224648F21F
:1013EC000431304600F0B2FE01221821304600F0E4
:1013FC00ADFE4FF400530493012505950694022786
:10140C00079704A9404600F093FD04230493059527
:10141C000697079704A9304600F08AFD1823049319
:10142C00059506950323079304A9304600F080FD2B
:10143C00E02304930594069504A9304600F078FD4A
:10144C004FF44063049305940694A8F5806804A9AE
:10145C00404600F06DFD4FF44073049305950694DF
:10146C00079504A9304600F063FD4FF40043049344
:10147C0005950694079704A9304600F059FD4FF4E2
:10148C00007304930594069504A9404600F050FDA2
:10149C0008B0BDE8F08100BF001002400010014010
:1014AC000008014072B6FEE700B591B02822002179
:1014BC0006A802F025FC00230193029303930493E6
:1014CC000593012206924FF4803307934FF40031B9
:1014DC0008910A9202220D920E934FF4E0130F938F
:1014EC0006A800F04FFE80B90F2301930221029150
:1014FC00002303934FF480620492059301A801F03A
:10150C0087F820B911B05DF804FBFFF7CBFFFFF7AC
:10151C00C9FF08B500F0E8FAFFF7C6FFFFF728FF90
:10152C00FFF70CFF00F076F900F076FAFFF7F0FE0B
:10153C00FEE7000008B5292903D0492905D0012070
:10154C0008BD104600F0F4FAF9E70421014800F058
:10155C00FDFDF4E70008014038B50446A1F1140C78
:10156C00BCF10C0F08D8DFE80CF0360707091A2875
:10157C000707070707071400002038BD194617484E
:10158C0001F0CEF9154BDB8E9BB2002BFAD101206A
:10159C00F3E71021124800F0D9FD0120EDE70368B4
:1015AC001A784921FFF71BFE65692268002392789F
:1015BC002C212046A8470120DFE702680023D278BF
:1015CC002C214569A84723685A7849212046FFF702
:1015DC0006FE0120D1E70120CFE700BF080500205F
:1015EC000008014000B583B08DF8070001290DD02B
:1015FC0000221021084800F0A9FD01220DF107017D
:10160C00064801F08DF903B05DF804FB01221021AE
:10161C00014800F09BFDF0E70008014008050020A0
:10162C0038B500250AE001210020FFF7DBFF01346B
:10163C00E4B214F0800FF6D00135EDB2072D0FD8BF
:10164C00A5F150000021C0B2FFF7CCFF0021022011
:10165C00FFF7C8FF00211020FFF7C4FF0024E8E7C4
:10166C0038BD10B50446A1F150000021C0B2FFF7FF
:10167C00B9FF0234C4F30310002140F01000FFF74F
:10168C00B1FF002104F00F00FFF7ACFF10BD08B54F
:10169C0000218D20FFF7A6FF00211420FFF7A2FFE9
:1016AC000021AF20FFF79EFF08BD000010B5464C8F
:1016BC0001220821204600F049FD642000F038FA90
:1016CC0000220821204600F041FD642000F030FA91
:1016DC0001220821204600F039FD0021AE20FFF741
:1016EC0081FF00212020FFF77DFF00211020FFF754
:1016FC0079FF0021B020FFF775FF0021C820FFF70C
:10170C0071FF00210846FFF76DFF00211020FFF745
:10171C0069FF00214020FFF765FFCF218120FFF7F3
:10172C0061FF00217F20FFF75DFF0021A120FFF763
:10173C0059FF0021A620FFF755FF0021A820FFF735
:10174C0051FF00213F20FFF74DFF0021A420FFF7A0
:10175C0049FF0021D320FFF745FF00210846FFF782
:10176C0041FF0021D520FFF73DFF0021F020FFF7BE
:10177C0039FF0021D920FFF735FF00212220FFF788
:10178C0031FF0021DA20FFF72DFF00211220FFF797
:10179C0029FF0021DB20FFF725FF00212020FFF788
:1017AC0021FF00218D20FFF71DFF00211420FFF7E2
:1017BC0019FF0021AF20FFF715FFFFF731FF0021C4
:1017CC000846FFF74EFF10BD0008014008B502485F
:1017DC00FEF752FE08BD00BF3004002000B583B0F8
:1017EC000190094B094A0A49FEF762FE01A8FFF76E
:1017FC00E1FC002101A8FFF7E4FC01A8FEF73CFE88
:10180C0003B05DF804FB00BF411500086515000826
:10181C00144D000808B50E480E4B03604FF482734C
:10182C00436000238360C360022202610122426193
:10183C004FF400728261C3610362436283620A23C4
:10184C00C36201F011F800B908BDFFF72BFEFBE7EE
:10185C00080500200038004010B586B00023029324
:10186C000393049305930268214B9A4201D006B06E
:10187C0010BD044603F5EC33DA6942F48042DA61B8
:10188C00DA6902F480420092009A9A6942F00802E6
:10189C009A619B6903F008030193019B4FF4204369
:1018AC000293022303930323059302A9114800F02A
:1018BC003FFB1148114B03601023436000238360EE
:1018CC008022C260036143618361C36100F0D2F97D
:1018DC0058B9094BA3645C6200221146242000F025
:1018EC0081F9242000F08EF9C1E7FFF7DBFDF0E76A
:1018FC0000380040000C0140C40400205800024095
:10190C0082B00E4B9A6942F001029A619A6902F018
:10191C0001020092009ADA6942F08052DA61DB69C6
:10192C0003F080530193019B054A536823F0E06355
:10193C0043F00073536002B0704700BF00100240C8
:10194C0000000140FEE7FEE7FEE7FEE7FEE770471A
:10195C007047704708B5074B1B682BB1013B054A14
:10196C00136000F0D3F808BD012BFAD8FFF762FC26
:10197C00F7E700BF2C04002008B5024800F036FA47
:10198C0008BD00BFC404002008B5024801F08AF865
:10199C0008BD00BF08050020704700000268094B15
:1019AC009A4200D0704782B003F50233DA6942F0F4
:1019BC000402DA61DB6903F004030193019B02B0BA
:1019CC00704700BF0008004000B587B000230293A9
:1019DC0003930493059302680D4B9A4202D007B00F
:1019EC005DF804FB03F502339A6942F008029A6130
:1019FC009B6903F008030193019B4FF480730293DE
:101A0C0002230393059302A9024800F091FAE6E73A
:101A1C0000080040000C014000B58BB00023089377
:101A2C0009930193029303930493059306930793ED
:101A3C001848194A026047224260836040F2F31250
:101A4C00C2600361836101F06BF9C8B9002308938C
:101A5C00099308A90F4801F077FAA0B96023019304
:101A6C000023029303930593082201A9094801F06E
:101A7C00B1F958B90748FFF7A7FF0BB05DF804FBA5
:101A8C00FFF710FDE2E7FFF70DFDE7E7FFF70AFDB3
:101A9C00F0E700BF600500200008004010B50446C8
:101AAC000E4B1A784FF47A73B3FBF2F30C4A1068AE
:101ABC00B0FBF3F000F0B4F868B90F2C01D9012099
:101ACC000AE0002221464FF0FF3000F08BF8054B66
:101ADC001C60002000E0012010BD00BF04000020AD
:101AEC00000000200800002008B5074A136843F0E6
:101AFC0010031360032000F063F80F20FFF7CEFFF4
:101B0C00FFF7FEFE002008BD00200240034A1168CA
:101B1C00034B1B780B441360704700BFA8050020D3
:101B2C0004000020014B1868704700BFA805002076
:101B3C0038B50446FFF7F6FF0546B4F1FF3F02D077
:101B4C00044B1B781C44FFF7EDFF401BA042FAD35B
:101B5C0038BD00BF04000020002808DB0901C9B211
:101B6C0000F1604000F5614080F80013704700F010
:101B7C000F000901C9B2014B1954704714ED00E074
:101B8C0000B500F00700C0F1070CBCF1040F28BF32
:101B9C004FF0040C031D062B0FD9C31E4FF0FF3E54
:101BAC000EFA0CF021EA000199400EFA03FE22EA2B
:101BBC000E0241EA02005DF804FB0023EEE7000090
:101BCC00074AD36823F4E0631B041B0C000200F4E7
:101BDC00E060034343F0BF6343F40033D3607047CA
:101BEC0000ED00E010B50446054BD868C0F30220A8
:101BFC00FFF7C6FF01462046FFF7AEFF10BD00BF42
:101C0C0000ED00E0002807DB00F01F024009012373
:101C1C009340024A42F82030704700BF00E100E0D8
:101C2C000138B0F1807F0BD24FF0E0235861054AA8
:101C3C00F02182F823100020986107221A61704766
:101C4C000120704700ED00E030B40124056CAC407D
:101C5C00C56B6C60046863604368102B05D0036827
:101C6C0099600368DA6030BC704703689A60036857
:101C7C00D960F8E760B310B402460168154B0B4409
:101C8C001548A0FB03031B099B001364134BD36380
:101C9C00022382F82130086820F47F5020F03000B5
:101CAC00536894682343D4682343146923435469C9
:101CBC00234394692343D469234303430B600020DB
:101CCC009063012382F8213082F8200010BC704709
:101CDC0001207047F8FFFDBFCDCCCCCC00000240FA
:101CEC0038B5044690F82000012831D0012084F842
:101CFC00200094F82100012804D0002384F820301F
:101D0C00022038BD022084F821000020A063256841
:101D1C00286820F0010028602046FFF795FFE36A51
:101D2C005BB12268136843F00E03136022681368DA
:101D3C0043F0010313600020E3E72268136823F0EB
:101D4C00040313602268136843F00A031360EDE781
:101D5C000220D6E708B590F82130022B03D00423DB
:101D6C008363012008BD0268136823F00E0313601F
:101D7C000268136823F0010313600368194A934245
:101D8C0014D0143293421FD0143293421ED014320A
:101D9C0093421ED0143293421ED01432934202D07E
:101DAC004FF0807203E04FF4801200E001220E4BE2
:101DBC005A60012380F82130002380F82030436BD7
:101DCC006BB198470020CDE71022F0E74FF48072FA
:101DDC00EDE74FF48052EAE74FF48032E7E700205A
:101DEC00C0E700BF080002400000024038B5C36BDA
:101DFC001A6804682568016C04238B40134235D0A3
:101E0C0015F0040F32D0236813F0200F03D1236890
:101E1C0023F0040323600368434A934214D0143222
:101E2C00934218D01432934217D01432934217D0E5
:101E3C001432934217D01432934202D04FF0806286
:101E4C0003E04FF4800200E00422384B5A60C36A6E
:101E5C0003B1984738BD4022F7E74FF48062F4E7AE
:101E6C004FF48042F1E74FF48022EEE702238B40DF
:101E7C0013423CD015F0020F39D0236813F0200F19
:101E8C0006D1236823F00A032360012380F8213054
:101E9C000368254A934214D0143293421CD0143256
:101EAC0093421BD0143293421BD0143293421BD05A
:101EBC001432934202D04FF0007203E04FF4001240
:101ECC0000E00222194B5A60002380F82030836A0C
:101EDC00002BBFD09847BDE72022F3E74FF40072E8
:101EEC00F0E74FF40052EDE74FF40032EAE7082335
:101EFC008B401342AED015F0080FABD0236823F003
:101F0C000E032360026CC16B012303FA02F24A60D8
:101F1C00836380F82130002380F82030036B002B82
:101F2C0098D0984796E700BF080002400000024096
:101F3C0070B582B00024A446A2E07E4DAB4210D016
:101F4C0007D97D4DAB420CD005F58035AB4208D09E
:101F5C0013E0A5F58015AB4203D005F57025AB4217
:101F6C0007D18B68002B55D0012B4ED04261082431
:101F7C0003E0A5F58015AB42F3D0BEF1FF0F4BD8B3
:101F8C0006464FEA8C0233680F25954023EA050379
:101F9C0004FA02F2134333604B6813F0805F6DD088
:101FAC00664B9A6942F001029A619B6903F0010346
:101FBC000193019B4FEA9C02951C614B53F82560E1
:101FCC000CF00305AD000F23AB4026EA03065D4B76
:101FDC00984228D003F58063984200F08D8003F579
:101FEC008063984200F08A8003F58063984218D091
:101FFC00042319E0CC68C0E7CC680434BDE7CC6896
:10200C000834BAE7CC680C34B7E702610824B4E7AB
:10201C000024B2E70424B0E7061DACF108029200DC
:10202C00B1E7032300E00023AB4033430232444DBD
:10203C0045F822304B6813F4803F61D0424A136854
:10204C0043EA0E0313604B6813F4003F5ED03E4A24
:10205C00536843EA0E0353604B6813F4801F5BD044
:10206C00394A936843EA0E0393604B6813F4001FDC
:10207C0058D0354AD36843EA0E03D3600CF1010CF7
:10208C000B6833FA0CF253D0012202FA0CF203EA79
:10209C00020E32EA0303F1D14B68122B3FF64DAF1F
:1020AC00122B3FF66AAF01A555F823F06F1F0008FD
:1020BC00012000080B2000081D200008871F0008C5
:1020CC00871F0008871F0008871F0008871F00084C
:1020DC00871F0008871F0008871F0008871F00083C
:1020EC00871F0008871F0008871F0008871F00082C
:1020FC000520000811200008012395E7022393E72F
:10210C00114A136823EA0E0313609CE70E4A5368C6
:10211C0023EA0E0353609FE70B4A936823EA0E03EE
:10212C009360A2E7084AD36823EA0E03D360A5E7BD
:10213C0002B070BD000022100000311000100240EF
:10214C000000014000080140000401400AB1016197
:10215C00704709040161704782B0084B1B68084A3C
:10216C00A2FB03235B0A00FB03F3019300BF019B5B
:10217C005A1E0192002BF9D102B0704700000020CA
:10218C00D34D6210002800F0F18170B582B0044686
:10219C00036813F0010F2CD0994B5B6803F00C0310
:1021AC00042B1DD0964B5B6803F00C03082B12D04C
:1021BC006368B3F5803F41D0002B55D103F18043C8
:1021CC0003F504331A6822F480321A601A6822F478
:1021DC0080221A6037E08A4B5B6813F4803FE7D0AB
:1021EC00874B1B6813F4003F03D06368002B00F08F
:1021FC00BF81236813F0020F75D0814B5B6813F01D
:10220C000C0F5FD07E4B5B6803F00C03082B54D093
:10221C002369002B00F08A807A4B01221A60FFF7A9
:10222C0081FC0546764B1B6813F0020F75D1FFF746
:10223C0079FC401B0228F5D903209EE1704A1368F3
:10224C0043F480331360636843B3FFF76BFC0546BC
:10225C006B4B1B6813F4003FCBD1FFF763FC401BA7
:10226C006428F5D9032088E1B3F5A02F09D0644B7D
:10227C001A6822F480321A601A6822F480221A60DA
:10228C00E1E703F18043A3F53C331A6842F4802262
:10229C001A601A6842F480321A60D4E7FFF742FCE5
:1022AC000546574B1B6813F4003FA2D0FFF73AFCCE
:1022BC00401B6428F5D903205FE1514B5B6813F494
:1022CC00803FA5D14E4B1B6813F0020F03D023693E
:1022DC00012B40F04F814A4A136823F0F8036169DF
:1022EC0043EAC1031360236813F0080F33D0A369CA
:1022FC00002B5CD0434B0122C3F88024FFF712FC67
:10230C0005463F4B5B6A13F0020F21D1FFF70AFC25
:10231C00401B0228F5D903202FE1394A136823F01A
:10232C00F803616943EAC1031360DCE7354B002213
:10233C001A60FFF7F7FB0546314B1B6813F0020FD1
:10234C00D1D0FFF7EFFB401B0228F5D9032014E195
:10235C000120FFF701FF236813F0040F00F09680B3
:10236C00274BDB6913F0805F34D1254BDA6942F0DF
:10237C008052DA61DB6903F080530193019B0125E4
:10238C00214B1B6813F4807F26D0E368012B3DD0D2
:10239C00002B53D103F1804303F504331A6A22F066
:1023AC0001021A621A6A22F004021A6233E0154B17
:1023BC000022C3F88024FFF7B5FB0546104B5B6A7F
:1023CC0013F0020FC7D0FFF7ADFB401B0228F5D965
:1023DC000320D2E00025D3E70B4A136843F4807343
:1023EC001360FFF79FFB0646074B1B6813F4807FB7
:1023FC00CBD1FFF797FB801B6428F5D90320BCE0F9
:10240C000010024000004242007000405F4A136A14
:10241C0043F001031362E36833B3FFF783FB064613
:10242C005A4B1B6A13F0020F2FD1FFF77BFB801B5B
:10243C0041F288339842F3D903209EE0052B09D052
:10244C00524B1A6A22F001021A621A6A22F0040232
:10245C001A62E0E74D4B1A6A42F004021A621A6AD9
:10246C0042F001021A62D6E7FFF75CFB0646474BC7
:10247C001B6A13F0020F08D0FFF754FB801B41F2CC
:10248C0088339842F3D9032077E0E5B9E369002B50
:10249C0072D03E4A526802F00C02082A56D0022B27
:1024AC0017D03B4B00221A66FFF73CFB0446374B18
:1024BC001B6813F0007F47D0FFF734FB001B02288A
:1024CC00F5D9032059E0314AD36923F08053D36105
:1024DC00DCE72F4B00221A66FFF724FB05462B4B3B
:1024EC001B6813F0007F06D0FFF71CFB401B022873
:1024FC00F5D9032041E0236AB3F5803F1AD0234974
:10250C004B6823F47413226A606A024313434B60D2
:10251C001F4B01221A66FFF705FB04461B4B1B6879
:10252C0013F0007F0ED1FFF7FDFA001B0228F5D93E
:10253C00032022E0154A536823F40033A1680B43AF
:10254C005360DCE7002018E0002016E0012B16D0C9
:10255C000E4B5B6803F48031226A914211D103F473
:10256C007013626A93420ED1002006E0012070477E
:10257C00012002E0012000E0002002B070BD01202B
:10258C00FBE70120F9E70120F7E700BF001002404C
:10259C000000424286B0194B0FCB0DF1180C0CE920
:1025AC000F0040F20123ADF80430154B5A6802F0CD
:1025BC000C03042B1CD0082B1CD1C2F383431833FF
:1025CC006B4413F8100C12F4803F0DD00C4B5B686D
:1025DC00C3F3404318336B4413F8143C094A02FB11
:1025EC0000F0B0FBF3F006E0074B03FB00F002E059
:1025FC00044800E0054806B0704700BFCC4D000809
:10260C00001002400024F40000093D0000127A0082
:10261C00002800F0A08070B50D460446524B1B6894
:10262C0003F007038B420BD24F4A136823F00703C6
:10263C000B431360136803F007038B4240F08D804B
:10264C00236813F0020F17D013F0040F04D0474A7D
:10265C00536843F4E0635360236813F0080F04D00D
:10266C00424A536843F460535360404A536823F022
:10267C00F003A1680B435360236813F0010F31D0B2
:10268C006368012B20D0022B25D0384A126812F037
:10269C00020F64D035494A6822F0030213434B60A1
:1026AC00FFF740FA0646314B5B6803F00C03626897
:1026BC00B3EB820F16D0FFF735FA801B41F288334B
:1026CC009842F0D9032045E0284A126812F4003FE2
:1026DC00E0D101203EE0254A126812F0007FD9D1EA
:1026EC00012037E0204B1B6803F00703AB420AD9EB
:1026FC001D4A136823F007032B431360136803F080
:10270C000703AB422DD1236813F0040F06D0174AF0
:10271C00536823F4E063E1680B435360236813F0C0
:10272C00080F07D0114A536823F46053216943EA18
:10273C00C1035360FFF72EFF0C4B5B68C3F303130D
:10274C000B4AD35CD8400B4B18600B4B1868FFF747
:10275C00A5F9002070BD012070470120FAE7012087
:10276C00F8E70120F6E700BF00200240001002400D
:10277C00BC4D000800000020080000202DE9F047A7
:10278C0082B00546884617461E46FFF7CBF90A9BD2
:10279C001B1A03EB0609FFF7C5F98246284B1B6889
:1027AC00C3F3CB3309FB03F301932B689C6838EA22
:1027BC0004040CBF01230023BB423DD0B6F1FF3F04
:1027CC00F3D0FFF7AFF9A0EB0A00484507D2019A06
:1027DC0002B14A46019B013B01939146E5E72A6809
:1027EC00536823F0E00353606B68B3F5827F0BD022
:1027FC00AB6AB3F5005F14D0012385F85130002388
:10280C0085F85030032018E0AB68B3F5004F02D0C8
:10281C00B3F5806FECD12A68136823F04003136082
:10282C00E6E72A68136823F4005313602A681368D8
:10283C0043F400531360DFE7002002B0BDE8F087DB
:10284C000000002010B582B004460B460092002216
:10285C008021FFF793FF08B902B010BD636D43F000
:10286C00200363650320F7E7002856D010B5044613
:10287C00436A33B94368B3F5827F05D00023C36143
:10288C0002E00023036143610023A36294F85130FA
:10289C00002B3CD0022384F851302268136823F0BB
:1028AC0040031360636803F48273A26802F4044269
:1028BC001343E26802F400621343226902F002023D
:1028CC001343626902F001021343A26902F400721D
:1028DC001343E26902F038021343226A02F08002C9
:1028EC001343A26A02F40052216813430B60638BFA
:1028FC00226803F0040353602268D36923F4006355
:10290C00D36100206065012384F8513010BD84F838
:10291C0050302046FEF7A0FFBCE7012070470000B6
:10292C0038B590F85030012B61D00446012380F863
:10293C00503090F85150EDB29D4252D1002951D0F7
:10294C00002A4FD0032380F85130002343650163E4
:10295C008286C2868363436403648387C3878368E8
:10296C00B3F5004F2AD0A36C224ADA62A36C224A38
:10297C009A62A36C214A1A63A36C00225A632268E0
:10298C00E38E9BB20C32216BA06CFFF7A9F90146C8
:10299C00F8B923681A6812F0400F03D11A6842F094
:1029AC0040021A602268536843F020035360226887
:1029BC00536843F0020353600D4613E0026813683A
:1029CC0023F0400313600268136843F480431360E0
:1029DC00C9E7636D43F010036365012384F851303C
:1029EC0000E00225002384F85030284638BD02252B
:1029FC00FBE700BF112A00083F2A00081D2A000827
:102A0C007047704708B5406AFFF7FBFF08BD704779
:102A1C0008B5406A0268536823F003035360436DA2
:102A2C0043F010034365012380F85130FFF7EFFFAB
:102A3C0008BD30B583B00546446AFFF773F82B68C0
:102A4C001B6813F0200F23D1024621684B6823F03A
:102A5C0020034B6021684B6823F002034B60642118
:102A6C002046FFF7EFFE18B1636D43F0200363655A
:102A7C00A36833B901932368DA6801929B680193C8
:102A8C00019B0023E386012384F85130636D23B945
:102A9C002046FFF7B5FF03B030BD2046FFF7B7FF68
:102AAC00F9E7000010B584B00446026851689368D9
:102ABC0003F0410001285AD013F0020F02D011F09C
:102ACC00800F5BD113F0600F5BD011F0200F58D04A
:102ADC0013F0400F0FD094F85100C0B2032852D01D
:102AEC00606D40F00400606500200190D06801909A
:102AFC0090680190019813F0200F0CD0636D43F097
:102B0C00010363650023039393680393136823F015
:102B1C0040031360039B636D002B32D02268536813
:102B2C0023F0E0035360012384F8513011F0030FBC
:102B3C0031D02268536823F003035360E36C4BB12C
:102B4C00174A5A63E06CFFF705F918B1636D43F04F
:102B5C0040036365A36CA3B1114A5A63A06CFFF7E1
:102B6C00F9F870B1636D43F04003636509E011F04F
:102B7C00400FA1D0236C2046984702E0636C20469E
:102B8C00984704B010BD00230293D3680293936856
:102B9C000293029BF5E72046FFF739FFF1E700BFF0
:102BAC00B12B000808B5406A0023C387C386FFF722
:102BBC002EFF08BD30B4036A23F001030362026ADE
:102BCC004568836923F073030C681C4322F00202EE
:102BDC008B6813430B4A904206D0456084614A6867
:102BEC004263036230BC704723F00803CA681A437F
:102BFC0022F0040325F440754A692A438D69154374
:102C0C00EBE700BF002C014030B4036A23F480735F
:102C1C000362036A4468C26922F073020D681543AB
:102C2C0023F400738A6843EA02230D4A904206D0CB
:102C3C004460C5614A68C263036230BC704723F4C8
:102C4C000063CA6843EA022323F4806324F44054EB
:102C5C004A6944EA02148A6944EA0214E8E700BFAC
:102C6C00002C014030B4036A23F480530362036ADE
:102C7C004468C26922F4E6420D6842EA052223F454
:102C8C0000538D6843EA0533074DA84206D04460D3
:102C9C00C2614A680264036230BC704724F4804409
:102CAC004D6944EA8514F2E7002C014003681B4A85
:102CBC0090420AD0B0F1804F07D0A2F594329042E6
:102CCC0003D002F58062904203D123F070034A686E
:102CDC001343124A90420AD0B0F1804F07D0A2F5AC
:102CEC009432904203D002F58062904203D123F4D7
:102CFC004073CA68134323F080034A69134303608B
:102D0C008B68C3620B688362044B984202D0012328
:102D1C00436170470B690363F9E700BF002C014066
:102D2C0040B310B5044690F83D30F3B1022384F85B
:102D3C003D30214651F8040BFFF7B8FF012384F80E
:102D4C00463084F83E3084F83F3084F8403084F8C4
:102D5C00413084F8423084F8433084F8443084F8AD
:102D6C00453084F83D30002010BD80F83C30FEF733
:102D7C0015FEDBE70120704730B4036A23F0100323
:102D8C000362036A4468826922F4E6420D6842EAEF
:102D9C00052223F020038D6843EA05130C4DA8424D
:102DAC0006D0446082614A688263036230BC70471B
:102DBC0023F08003CD6843EA051323F0400324F489
:102DCC0040644D6944EA85048D6944EA8504E8E76A
:102DDC00002C014038B590F83C30012B60D00446F3
:102DEC000D46012380F83C300C2A1AD8DFE802F09B
:102DFC00071919191D1919193119191944000068E5
:102E0C00FFF7D8FE2268936943F0080393612268A8
:102E1C00936923F0040393612268936929690B4336
:102E2C009361002084F83C0038BD0068FFF7A4FFD4
:102E3C002268936943F4006393612268936923F4D5
:102E4C008063936122689369296943EA0123936142
:102E5C00E7E70068FFF7D8FE2268D36943F0080360
:102E6C00D3612268D36923F00403D3612268D36948
:102E7C0029690B43D361D4E70068FFF7F3FE22689E
:102E8C00D36943F40063D3612268D36923F480636C
:102E9C00D3612268D369296943EA0123D361C0E76E
:102EAC000220C1E701F01F014FF0010C0CFA01FCEC
:102EBC00036A23EA0C030362036A8A401343036226
:102ECC007047000038B504460D4600220068FFF735
:102EDC00E9FF23681B4A934214D02368196A41F214
:102EEC001112114208D1196A40F24442114203D125
:102EFC001A6822F001021A609DB9012384F83E3051
:102F0C00002038BD196A41F211121142E5D1196A3B
:102F1C0040F244421142E0D15A6C22F400425A640D
:102F2C00DBE7042D05D0082D07D0012384F84130B0
:102F3C00E6E7012384F83F30E2E7012384F84030D0
:102F4C00DEE700BF002C014090F83C20012A2CD079
:102F5C0010B40346012280F83C20022280F83D2068
:102F6C0002685068946820F0700C086840EA0C0005
:102F7C0050601A680E4882420AD0B2F1804F07D0D6
:102F8C00A0F59430824203D000F58060824204D1D7
:102F9C0024F08004496821439160012283F83D208C
:102FAC00002083F83C0010BC70470220704700BF23
:102FBC00002C01400C480D490D4A002302E0D45866
:102FCC00C4500433C4188C42F9D30A4A0A4C002367
:102FDC0001E013600432A242FBD3FEF7DDFC00F0EB
:102FEC00DFFEFEF796FA704700000020100000206C
:102FFC00844E00081000002044070020FEE700006B
:10300C0003685A004CBF43F0004323F000431844BC
:10301C00704700BF2DE9F84341B301F1FF38054675
:10302C00164647460024E11901EBD171491005EB16
:10303C00C1094846FFF7E4FF884503464FEAC10241
:10304C000ED002F10800B34228440BD8FFF7D8FF8A
:10305C000138B04201F10104E5D34846BDE8F883DC
:10306C00B042FAD98C4201D04F1EDCE74FF0000978
:10307C004846BDE8F88300BF012807D0022807D0D6
:10308C00044B00280CBF18460020704702487047BC
:10309C000248704749370008513700085937000873
:1030AC0030B5214B044683B08D1E13B3284601A9BD
:1030BC00AFF3008088B301992A46FFF7ABFF0146B6
:1030CC0058B3FFF79DFF4B68A064012B28D0002B51
:1030DC0020DB081DFFF794FF002323650368E064E1
:1030EC00002B0DDBFFF78CFF03460020236103B0A0
:1030FC0030BD0E4B0E491846C91AC9100191DBE7B9
:10310C00C3F30360FFF7B8FF034630B1002023611F
:10311C0003B030BD0123081DDFE700230920E5E7DC
:10312C0000230520E2E700BF00000000E04D00088E
:10313C00784E0008036810B5DA07044606D49B07DE
:10314C0000F1480009D5FCF7EFFF2368590709D5B2
:10315C001A070ED5DB0613D510BDFCF7DDFF23686F
:10316C005907F5D404F1D000FCF7E6FF23681A07E1
:10317C00F0D404F5A870FCF7E7FF2368DB06EBD46A
:10318C0004F5E870BDE81040FDF722B8034600686E
:10319C0000B11844704700BF704700BF70B50446BB
:1031AC000E462046316CFFF77BFF054698B9D6F8E2
:1031BC0040C03246214601202369C4F814C0984708
:1031CC000828EED0072806D12846316CFFF7E4FF1B
:1031DC00301DFCF795FFFFDE2DE9F0474FF0000A9C
:1031EC00ADF5727D0DF10C0E01F1040CC768D0F831
:1031FC00188006461446BCE80F00AEE80F00BCE889
:10320C000F00AEE80F00BCE80F00AEE80F009CE822
:10321C000F0002AD8EE80F00C5F800A021E02B6C6A
:10322C004FF4F072294673617AA8FDF73FF83146E6
:10323C00504633697AAA9847889C82466C64334618
:10324C00324649460120CDE90058B847044630BB08
:10325C004FF4F07228467AA9FDF728F8BAF1080F56
:10326C001AD13046296CFFF71BFF04F109095FFAEC
:10327C0089FA04460028D2D0A96B334669643246D9
:10328C000120CDE900584AF01001B84738B9204662
:10329C000DF5727DBDE8F087BAF1070F05D0092452
:1032AC0020460DF5727DBDE8F0872046296CFFF7AE
:1032BC0073FF03A8FCF724FFF0B54FF0FF37CB6B7F
:1032CC00F9B00B6401AC01F1040C0E460546BCE8E8
:1032DC000F000FC4BCE80F000FC4BCE80F000FC4F4
:1032EC009CE80F0084E80F00009706E06A46294628
:1032FC002B6998470828044608D128461099FFF7EF
:10330C00CFFE0028F2D0092079B0F0BD6846FFF757
:10331C0011FF062CF7D131462846FFF73FFF00BFBF
:10332C0010B414468461DC6BC16000221C64194625
:10333C0010BCFFF751BF00BF70B54369C6680B6482
:10334C00AEB90A46036904460D4601460220984769
:10335C00072805D008280ED129462046FFF71EFF66
:10336C003046296CFFF718FF281DFCF7C9FE012217
:10337C00FFF732FFFFDEFFDEC26832B1D1F83CC08E
:10338C000022C1F840C0FFF727BFFFF795BF00BF71
:10339C00012910D009D883B90F2A0ED800EB82026C
:1033AC0052681846009B1A607047033901298CBF7C
:1033BC00022001207047084670470220704700BF6A
:1033CC00002300B585B00A4603A900911946FFF702
:1033DC00DFFF039805B05DF804FB00BF012910D096
:1033EC0009D883B90F2A0ED8009900EB820209681C
:1033FC00184651607047033901298CBF0220012007
:10340C007047084670470220704700BF002310B574
:10341C0084B003AC039200940A461946FFF7DEFF12
:10342C0004B010BD70B54FF0FF36D36BADF50E7D0B
:10343C0013640DF15C0E02F1040C05460C46BCE85D
:10344C000F00AEE80F00BCE80F00AEE80F00BCE8C0
:10345C000F00AEE80F009CE80F008EE80F001696E8
:10346C0012E00C2116A86A46FFF7D0FF214616A8D9
:10347C00A84778B969460820049B16AA98470528DE
:10348C00064608D0092805D068462699FFF708FE9D
:10349C000028E6D0092616A8FFF74CFE30460DF59D
:1034AC000E7D70BD2DE9F04F9346CA6C0D4652F857
:1034BC00041B89B000F0030C0692002B79D0022477
:1034CC000E0C8DF81D600904F6B2059102EB860214
:1034DC002F6DBCF1020F08BFAA6B17F001078DF816
:1034EC001C400CD0584605A900F0A0FA18B90820C9
:1034FC0009B0BDE8F08F092009B0BDE8F08F16685F
:10350C00002EEFD0B14664469A4600F008010191B6
:10351C000297BAF1020F48D0B2F80090568802F127
:10352C000408AB6C26F001020F215846D718FFF7A0
:10353C0047FF874237D829F001023A44824294BFB0
:10354C0000220122760006F0020309F0010943EA89
:10355C000903012B47D0022B31D0002BCBD114B156
:10356C00002A40F0CA8008F10402D2F80090B9F1A8
:10357C00000FCED1584605A9029F00F057FA00283B
:10358C00B9D1002FB3D00F215846FFF719FF0E21E8
:10359C0002465846FFF73AFF0F215846664AFFF796
:1035AC0035FF0720A8E70022CCE7566802F108088F
:1035BC00B7E70902032405918DF81D3088E7D8F888
:1035CC00006026F00043002C44D122B1019A002A5D
:1035DC005AD0002B58D0002E01DA08F10408013320
:1035EC0008EB8302C1E7ECB9CAB1D8F80430D8F8BB
:1035FC000020991C4FEAD2723FF47DAF05F15801BF
:10360C000133049100F08C8008F10400FFF7BEFD3B
:10361C0004AB01462846AFF30080002857D108F1CF
:10362C000802A2E70D215846FFF7CAFE2B6A834217
:10363C00F5D1AB6A9845F2D14046FFF7E1FC0F217A
:10364C0002465846FFF7E2FE2A4600215846FFF78D
:10365C00DDFEA6E70D2158460393FFF7B1FE2A6A5B
:10366C00039B8242B7D1AA6A9045B4D100270422A9
:10367C00C5E90B724244AB626A63D8F80020BA42C7
:10368C0056DB01220292AAE7039400261C4608F19D
:10369C00040905F158070DE048460497FFF776FD3D
:1036AC000022014604AB2846013609F10409AFF3A8
:1036BC000080E8B9A642EFD10D215846FFF780FEF5
:1036CC000346049A0620C5E909282B6214E7044630
:1036DC000D215846FFF774FE022CDDF8109028627D
:1036EC0024D12B4643F82C9F0620C5E9093803E763
:1036FC002346D8F80060039C6DE74046FFF780FC3A
:10370C0008F104020446AA632846AFF3008000289F
:10371C003FF4F1AE22460F215846FFF777FE40E703
:10372C00894658460D21FFF74BFE28624B46DBE7D6
:10373C00581C08EB800080E7000000000023FFF716
:10374C00B1BE00BF0123FFF7ADBE00BF0223FFF7E0
:10375C00A9BE00BF2DE9F043064615461C46C3B072
:10376C00042900F2CD80DFE801F0AC51CB2A030034
:10377C00002C40F0C580102A00F2C2800368DC06E1
:10378C0000F1E38020AF3846FCF72CFD01243846CD
:10379C000023B16B04FA03F22A4203F1010305D0B2
:1037AC000A4652F804CB1146C0F800C0042B00F1B5
:1037BC000400EFD13846B163FCF70AFD95E0032C09
:1037CC0040F09E8094B204EB1243102B4FEA12454A
:1037DC0000F2968003681F0700F1BF8020AF3846C7
:1037EC00FCF7D4FCB26B07EBC50154B10B4601EBF3
:1037FC00C401D01AE4001D5843F8045B8B42FAD183
:10380C0022443846B263FCF79FFC6EE0012C4FEA71
:10381C00124895B26DD0052C72D108EB0509B9F19F
:10382C00200F6DD8B8F10F0F6ED8B9F1100F0368D7
:10383C0000F29B80D90708D5304623F0010343F0F2
:10384C00020340F8483BFCF773FC20AF3846FCF70A
:10385C006FFCB36B002D00F0B5806D006A1E002567
:10386C0007EBC8010132043903EB820253F8040B55
:10387C00934241F8040FF9D1002D00F09D80414690
:10388C00102938BF10216F466B001039013B07EB34
:10389C00C1010133043902EB830352F8040B9A4241
:1038AC0041F8040FF9D1012C00F08480B8F10F0F0E
:1038BC00B26302D820A8FCF737FC3846FCF73CFC76
:1038CC0013E0ECB923460124816B371D90B204FA46
:1038DC0003F202421CBF51F8042B47F8232001339A
:1038EC00102BF4D1A80400D4B163002043B0BDE880
:1038FC00F08308EB0503102B02D8B8F1100F14D18C
:10390C00022043B0BDE8F083002DEED003685A07C7
:10391C005CD46F463846FCF713FCB26B6B00A8F115
:10392C001001013B07EBC101B3E70368DA0759D477
:10393C0020AF3846FCF7F4FBB36B002D8DD104336C
:10394C003846B363FCF7E8FBCFE723F010030360C2
:10395C0000F5E870FCF746FC14E723F0080303605D
:10396C0000F5A870FCF712FC38E7D90708D523F04E
:10397C00010343F0020340F8483BFCF7D9FB3368E2
:10398C00580706D5304623F0040340F8D03BFCF72B
:10399C00D7FB20AF3846FCF7CBFB6846FCF7D0FBD7
:1039AC00C8F110025200B36BA9F11005013A07EBF4
:1039BC00C80157E720AFC2E7012CC0D0B8F10F0FF8
:1039CC00B36392D83846FCF7AFFB8EE76F4623F013
:1039DC00040340F8D03BFCF7B3FB3846FCF7B0FBD4
:1039EC00B26B9BE7304623F0030340F8483BFCF7EF
:1039FC0097FB9DE7027A03467AB9427AA2B14FF05F
:103A0C00030C4168013A427208680A1D5A600202AE
:103A1C0083F808C0000E1A6070470068013A1A72E9
:103A2C0002021A60000E7047B02070472DE9F04377
:103A3C004FF0000806460D4685B02846FFF7DAFF22
:103A4C00B028044600F0DC80070647D500F0F003F0
:103A5C00802B5FD0B02B74D01BD8902B00F09C80A7
:103A6C00A02B12D1C3434FF47F6203F007031A411A
:103A7C00010702F47F6201D542F4804200233046F4
:103A8C001946FFF767FE0028D7D0092005B0BDE81E
:103A9C00F083C02B6ED1C62800F09480C72800F0AC
:103AAC00B48000F0F803C02B00F0C980C82800F0E7
:103ABC00D480C928E9D12846FFF79CFF052304468A
:103ACC0001213046220304F00F0402F470220C444E
:103ADC002243FFF73FFE0028AFD0D6E78300DBB2CE
:103AEC001F1D00230DF10C0919460D223046CDF88F
:103AFC000090FFF74DFC039B60064CBFDF1BFF18CB
:103B0C0000230D2230461946CDF800900397FFF79D
:103B1C0065FC92E72846FFF76DFF24022043B0F5C1
:103B2C00004FB2D00023040119463046A2B2FFF771
:103B3C0011FE0028A9D114F4004F18BF4FF0010852
:103B4C007BE7B12852D0B22800F0AC80B3286ED0FD
:103B5C0000F0FC03B42B98D0012300F007021A44A8
:103B6C003046194642F40022FFF7F4FD00283FF4DA
:103B7C0064AF8AE700F0F803D02B86D100F007027F
:103B8C00013205230121304642F40022FFF7E2FD09
:103B9C0000283FF452AF78E700F00D030D2B3FF4F3
:103BAC0074AF002303AF194600F00F0200973046A4
:103BBC00FFF7EEFB00230D22304619460097FFF766
:103BCC000DFC3AE72846FFF715FF044603232203B2
:103BDC0004F00F0402F470220134304619462243DB
:103BEC00FFF7B8FD00283FF428AF4EE72846FFF753
:103BFC0001FF431EDBB20E2B02467FF63FAF44E7BC
:103C0C00B8F1000F3ED0002040E72846FFF7F2FE47
:103C1C00431EDBB20E2B02463FF637AF00230421C6
:103C2C003046FFF797FD00283FF407AF2DE72846F5
:103C3C00FFF7E0FE012304461946304642E7032312
:103C4C0000F00F0201323046194642F42022FFF7F1
:103C5C0081FD00283FF4F1AE17E72846FFF7CAFEB6
:103C6C000246012102F0F00402F00F0210340A4463
:103C7C000523304642EA0432FFF76CFD00283FF47E
:103C8C00DCAE02E703AC434641460E2230460094BC
:103C9C00FFF77EFB43460F22414630460094FFF768
:103CAC009DFBB0E700230DF10C090D22194630469F
:103CBC00CDF80090FFF76CFB2846FFF79BFE020641
:103CCC004FF00207039C0BD500F07F00B840044472
:103CDC0028460394FFF78EFE030607F10707F3D47B
:103CEC00002300FA07F204F50174224403923046D3
:103CFC000D221946CDF80090FFF770FB9DE600BF32
:103D0C0070B5860747D0541E002A3ED00346CAB26F
:103D1C0001E0013C39D303F8012B9D07F9D1032CA9
:103D2C002CD9CDB205EB05250F2C1A4605EB054514
:103D3C0034D9A4F1100C2CF00F0603F1100EB6447C
:103D4C004FEA1C1C156055609560D56010327245A9
:103D5C00F8D10CF1010214F00C0F03EB021204F079
:103D6C000F0C13D0ACF1040323F0030304331344FE
:103D7C0042F8045B9A42FBD10CF003042CB1C9B29B
:103D8C001C4403F8011B9C42FBD170BD64461346D6
:103D9C00002CF4D1F9E703461446C0E7A446E1E74A
:103DAC0070B50F4B0F4DAB42A3EB050607D00024AB
:103DBC00B61055F8043B01349847A642F9D800F0E8
:103DCC0083F8094D094B5E1BAB424FEAA60606D0A1
:103DDC00002455F8043B01349847A642F9D870BD2D
:103DEC00784E0008784E0008784E0008804E000887
:103DFC00704700BF704700BF024B13B1024800F080
:103E0C0005B8704700000000253E0008002301465D
:103E1C001A46184600F014B838B5074D074C2C1B41
:103E2C00A41005D0013C55F8043D9847002CF9D15D
:103E3C00BDE8384000F04EB8844E0008804E0008B3
:103E4C002DE9F047DFF874A00646DAF80000984632
:103E5C000F469146FFF7CCFF194B1C6824B36568DD
:103E6C001F2D24DC5EB96B1C0235DAF80000636090
:103E7C0044F82570FFF7BEFF0020BDE8F087012352
:103E8C0004EB8501C1F88890D4F88821AB401A4323
:103E9C00022EC4F88821C1F80881E4D1D4F88C2111
:103EAC001A43C4F88C21DEE7064C1C60D7E7DAF81D
:103EBC000000FFF79FFF4FF0FF30DEE70C00002003
:103ECC00B0050020B4050020F8B500BFF8BC08BC54
:103EDC009E467047F8B500BFF8BC08BC9E467047BC
:103EEC00C100030204040404050B0D00FE08FE0AC5
:103EFC00FF016402D9042420050098162107918A39
:103F0C0016A700220734F9169129230E96883751EB
:103F1C00CBB044BD0C4BD402240FA57856D95251CA
:103F2C0032514B94CA1601251096783651D2454B16
:103F3C00C23489922E5A02260E858856591225595A
:103F4C00654AA24809270631FA1503280BB379569E
:103F5C00499444DDA22C290CB379165994455DA2E1
:103F6C0024022A0C75885695CA41599A22002B0BAB
:103F7C00778878716D18B2B8062C07327A168A02D7
:103F8C002D0715C81683002E06218A15022F0CC486
:103F9C0078764D59292B653500300A8588364BE6E5
:103FAC005BB2003109858816639F0601320B858848
:103FBC00364B16D6DA0601330D858816431A266B56
:103FCC00180E0A00340E8688775A1275C992614C05
:103FDC001300350D858816431286431A86830236E4
:103FEC000D8588364B180E49664B1600370B8588A5
:103FFC001683580BB3B004380D8588364BA6254B69
:10400C00664B1600390D8588364B664B86504B1621
:10401C00003A0761881292003B09827A1643AC2859
:10402C00003C0895889659D70E3D0835B816833A4A
:10403C00083E0995881669B78E003F0D9588364B5A
:10404C00A68591964361044014A778585B2591B4DA
:10405C004452948A52911225CB2600410E878878BF
:10406C00719A8449561A94540D420D8688178312FE
:10407C008AC3121A8705430C8688374312AA1D93EC
:10408C002101440D878818831426A9C76490004524
:10409C000B858816C770188B8300460B858816C74E
:1040AC007048C24600470D8688374312AAB5514C5A
:1040BC000601480B868817A1711844C7004909836B
:1040CC0088144BD4CB004A08A36854FD69014B0EED
:1040DC00858816999494342D892A59004C09858821
:1040EC0016611F07014D10878818DA902D15A5222F
:1040FC004552A4AA014E0D868817E1A64452A28D02
:10410C00C6004F0C8788585B25754DB26C02500C5D
:10411C008588164392D906252C02510D9778585B49
:10412C0025754DB26C4F0052108688174394255953
:10413C00922543D4968401530C8588368398AE61BE
:10414C00382800540A878818872CEE1B00550A86DD
:10415C008817A11F932101560F878818A99A6451BB
:10416C0056099334CE00571189881A59A6655AA559
:10417C0053D294B415B308580E868817A198449955
:10418C0016B5846200590C878818699255D2B81BF1
:10419C00005A0A87881887B4CFC3105B09B37A1604
:1041AC0043D49F065C0DA57816611AA6611AA66108
:1041BC00005D09B37916537F1A025E0835E856592B
:1041CC00520B5F071578168300600732F9154914F6
:1041DC00610C6588364B960C9A960C01620C85889E
:1041EC001661382499DBA000630864883543D638FF
:1041FC00640B8588969541734B8600650B658836F4
:10420C004B360C613A046609838834D31075026707
:10421C000C85683683E6960C61B200680B858816AF
:10422C0061382499B7006907818812C9306A09A2DC
:10423C00683359D2CB006B0D8588166129296949E1
:10424C0054C9026C0781881207016D0E6788188BA0
:10425C0012455224455224156E09658816439279ED
:10426C000B6F0A6588364BE6962C00700C85681629
:10427C004392B90D4A1802710B85683683E6960C89
:10428C006101720863881443D409730C6588364B3A
:10429C0096A849962C00740A8388145134446D02F4
:1042AC00750965881699B76408760C658816999611
:1042BC0094922C8C00770F6788185124454A45E955
:1042CC0016650900780B6588165952ABD4B4007981
:1042DC000D856816999694922CCCC20C7A0A658836
:1042EC00168398B50D027B0BA378544954C9A2B61A
:1042FC00007C07B17A150F027D0BA3781459544B2F
:10430C00A296087E0726B8379205800F95885652DC
:10431C00251BA26C88C228520000000004FFFF215C
:10432C00910CB57C5CD93248613F0121930CB57C72
:10433C005C613F25952D024E0D19BB781C0F728EBA
:10434C00E5500E29711285511665A19863399602B4
:10435C004E3A19B9793C519CE448381CB350CAA266
:10436C00248B92284DB24855004E3B16BB789C3995
:10437C00980E0735C7722C1ECE399663E970104E15
:10438C008E17BB783CC339C7722C1D0E6A8EE5584C
:10439C008EE5588EAC004EBA16BB78BC3996633994
:1043AC009663399643498ED4B3B4A40B4F4E1FBBBE
:1043BC00787CA138A849942651A84459920C43946E
:1043CC00446912B5744A94444AB2244FE11CBB7838
:1043DC007C519EA5C9304439240D4A1D8B062DC72E
:1043EC00A2418BB2D2A000503C1CBB787CE5619002
:1043FC00B2381A24294B4A831665A5258B922DCAEF
:10440C002AC310514118BA799C39922361360C6237
:10441C009484511CC5519A45B5681D514917BB78F8
:10442C00BC71D6544F878316E5511E65A52CCAB2B4
:10443C007508517316BB785C692D1CCE39960E87A6
:10444C003887923C4B4BBA00524D1BBA795C611ABF
:10445C0065C3210787A454290D49A9521A92522DDC
:10446C004A9405529B15B9799C399223E170CCC2C0
:10447C00AC9885519AC4E20252A81CBB78FCE1109E
:10448C00E5580E0D07252A46C528894AC392854949
:10449C0096460A0053D119BB785C8D511665F170A4
:1044AC0008736C90B334A966699648912853F71930
:1044BC00BB785CC310A6E130E4F070107368D8B11F
:1044CC001CCBA31CD100545819BB785CC310A6E1BB
:1044DC0030E4F870CAA3AC94952A519865EB005659
:1044EC00DE18BA791C0F3AA223D2104925A9240D43
:1044FC009154D291E11D0956FE19BA791C0F522A1A
:10450C000D8A299A34A93424D110665A2866C341DD
:10451C00578B1EBB783CC3942551922551920C832A
:10452C009225519225611499F361C8D3E1205B9ACD
:10453C001ABB78BCF17048724447B26190F3288F73
:10454C0086308A936A360C015C311EBB787CB5616F
:10455C00A92351321C9228A90D49354AB244E94588
:10456C0049A44A49C9045C3C1BBB785CC3A0C5592F
:10457C009C0D8396634998259198AC519A44A9381F
:10458C000C5C4F19BB785CC3298F86531266517132
:10459C0038350EA7B6288B8A11005DEE18BB787CD7
:1045AC00611C65C3418D876B3C1CB41C4A062DAC49
:1045BC000C075E271BBB785C69980E8316259561EA
:1045CC006953BA285D942ECA1656B2480B5E551C18
:1045DC00BB781C0F5A7518C2341C8630C9A2E1A0D6
:1045EC002551341CA4C62891005EA61ABB78BCF1D8
:1045FC007048A2E2706A8C8630C792618B6AA1986F
:10460C004C0B005F0017BB783CC3318BB3388BB3BA
:10461C006C3868D5300DAB599C015F0F19BB78DC39
:10462C00498E4479381CE47448F228CFE22CCAB481
:10463C006488055F1519BA791CB7344BB364D092F2
:10464C007C18B2344BB3348B92304B035F5317B995
:10465C00799CB54A544B4AC31DC9916418742447BC
:10466C008643005FD718BB78BC39960E0735C7E276
:10467C00E19C23514B94744CB441025FD91ABB7822
:10468C005C591CA639521906454993444DA23CCAA3
:10469C00A33CCAA3615FEB1ABB785C599CC5CAA04A
:1046AC00744A6A51920CA72CCED4A89884991C6099
:1046BC000119BB78BCE97050732889275BA6E349C4
:1046CC00162551D231D10609603B1ABB787CF524F2
:1046DC001E86300DD37018C234CFA2244A3A26DA83
:1046EC002001606F1DBB789C39320C611A0E439807
:1046FC0086C310A6E13064492D4AA224D106096371
:10470C00091CBB785C615A1A0E5225AA44A9322C9A
:10471C005A9494A42C14B3245A3401636E1DBB78A0
:10472C005CD1301587218CA2614AA4501916A92599
:10473C001AA66453DA92D22063A51CBB785C619AEA
:10474C000C07256B09936188B4501906258BB24868
:10475C00092BC92D653E20BB785C619C65C3324436
:10476C00599445496D4AB2244AB2242B455A944473
:10477C004994840165481DBB785C619C65C33244D7
:10478C0049A24459D21625591225614B564D8A5AC5
:10479C0000657020BB781C51524CA46C5886C81212
:1047AC002552524A5A86A5964449A464699624B760
:1047BC000065B917BB789C39980E0731C7726C50DD
:1047CC00C334AC6671146E0065E018BB783CC33919
:1047DC00C7722C1D0E629223F5288FB228CBD621DE
:1047EC0065E50DA77A1C07D53A5CADC33565F61D9A
:1047FC00BB78FC48348451349CC2A8124543944481
:10480C002D51312A464398231300663E1CBB785C1D
:10481C00C310A6E1308469380C719246499425A5E1
:10482C002C694EC2E12066DD1CBB789CC3B2844966
:10483C0065581A93E1254BA264784A7A59D2A49A06
:10484C004801672A16BB78BC39160FE77438A839AB
:10485C00B427D5A8A4656A0A672C17BB78BC39960F
:10486C000E07714FCA4935AAB5448394E6580A67B6
:10487C003A1CBB785C39160D61541AA630AA2D511E
:10488C00A64895A8252A2659128903679C19BB7836
:10489C005CC31046C56108A3E230E4E97010F7A4CC
:1048AC001A95B44C6B6316AB781C0F6A8EE5511ECF
:1048BC000D5A9447799447E970106C601FBB783C93
:1048CC006929C9C2244C2A63B26489528B928A9694
:1048DC004C59122559988483006D4B1CBB781CC90C
:1048EC00A0255A524A5A945E944E49A7A465CA927E
:1048FC008E89568907724718BB785C611AA6613A93
:10490C009C722CC786214CC3348BA33C0272691E4B
:10491C00BB785C59986461120D07A5A26449494A99
:10492C002A524529B5952A5125530072B61DBB78DC
:10493C007C99544BA2240B9361D0CA592A2591120D
:10494C00256992854916AA01738719BB78BCE9F0D1
:10495C0016464994C47AD2A40C4A9C0E0735C75209
:10496C000074061ABB789CC353CB304449D412450F
:10497C00C353984683A6656A3E0C01753515BA7902
:10498C009C39940E97AC325CB24A5619AE61EB204E
:10499C00753B1EBB781C0F3A3C0C51125594A8A2C7
:1049AC000C43A2441525AA28C390E8D0F000754CFE
:1049BC0018BB783CC3292B0DA7AC345C935893944B
:1049CC002CD1AA613503786E1EBB78DCE1100D5931
:1049DC00548B8683524A2AC3D229A90CCB524AB291
:1049EC00240A4301793A14AB783CC39D6938A87901
:1049FC00548CB2280BC5A20A7A331EBB787C51B8F2
:104A0C000D59541A0E599C2983968491342815A556
:104A1C00A684513624007EEA1EBB785C611A0D49CF
:104A2C00A91225C9704CB341C9B4411AC4248BA432
:104A3C006108B3007F161EBB785C619A0C4312A50B
:104A4C0049321C941C4986218992CAF098342D95C0
:104A5C0029147F6E1ABB783CC3A91245C3391D0EAD
:104A6C00521A0E439886C310A6D1701080F621BB43
:104A7C00783C5B9824C3524AB2258B123559A22C30
:104A8C0089922CC9C2244AA244C9922C0D811A20A5
:104A9C00BB783C4BB434259561499628E9945486EF
:104AAC002559A2A4A274194E6194881100884C1A3D
:104ABC00BB785CD120E5500EE750320C891A256981
:104ACC009886699886D904886818BB78BCF170CE32
:104ADC0087214F878398446194845AA694525189B4
:104AEC00C61CBB783CD9A0455932248D495B9494A3
:104AFC00969E925A9866524B54C90689E61EBB780C
:104B0C003C71366451311A9461E9322C15A5321C72
:104B1C00B228A9254A6D8894258BA118BB783C69CD
:104B2C0031C7F2E110A6611AA649946A6998631913
:104B3C00008BB81ABB783C591EE5D8A046D99826EC
:104B4C00C310856912A55A1AE658068BBE19BB7894
:104B5C003CD91046F528CE861D4B862DCA5A422DBF
:104B6C00CD9274138BEF1BBB783CD9A045599CC5D7
:104B7C0083B263D1A08569320C9194845196168FBF
:104B8C00911EBB785CD9900C4A541C221D290D0730
:104B9C0025CA32255B12658BA464D8E2048FC71A30
:104BAC00BB783C719886C930E4483415B3244CC3A7
:104BBC00340CB524CF86218FD41CBB783CB9140D92
:104BCC00619463C3498B2AB5A89844491669493D39
:104BDC001B860090091EBB783C599246491A0D6AF7
:104BEC00942DC31065499825A5962809957A360CFD
:104BFC000191CA1FBB787CC3906C499494C22989DB
:104C0C00862591B4501996629624C3108569980133
:104C1C0094FE1BBB783C69182583B2D4D2241A0E9F
:104C2C0052D370901AA3E21227D110952E1FBB7885
:104C3C003CC99465C3A26489960C0729A90DA75A8F
:104C4C00920C4B94658A9425D120957F16BA795C89
:104C5C00612D8DE22497874394E4519CA549141A45
:104C6C0095E817BA793CD130C53AA2233AA2233A37
:104C7C00A2233AA223F200963B24BB781C43322891
:104C8C00519225A52CD106A59425519225519225FA
:104C9C004A3228A52C09B3241A0601964D1EBB785E
:104CAC001C431446D1B04452A24A49244D592919E7
:104CBC0006A52D498641CEE20C976218BA791C0FD5
:104CCC00618EC4C3412A49432495A421924AC33B13
:104CDC001297F319BB78BCF170CCF2241C0E3A3C41
:104CEC000C611A0E439886C3100198791ABB78BCD4
:104CFC00C3414AA3612A4695A8256A89A2218956EF
:104D0C001D89523100000000850D0008FD0D0008C2
:104D1C00230E00080001140A6464323200127A0077
:104D2C000004289610080000800040001815A015FB
:104D3C00C019FF001815A115C819FF001815AE19D8
:104D4C00FF0000001815AF19FF0000001815AE1574
:104D5C00D5168015A8163F15D316001540158D16BF
:104D6C00141520160015A115C815DA161215811682
:104D7C00CF15D916F115DB1640152E15A415A6194D
:104D8C00FF00000055000000380000006600000025
:104D9C00B20000006769746875622E636F6D2F6FC7
:104DAC006C696B726175732F753867320000000087
:104DBC0000000000000000000102030406070809BF
:104DCC0002030405060708090A0B0C0D0E0F101040
:044DDC0000000000D3
:104DE00070C4FF7FA908B18034C5FF7FB0B0A88030
:104DF00058C5FF7F01000000B4E2FF7FB0A9028028
:104E000040E3FF7FB0B0A88090E3FF7F0100000087
:104E100098E3FF7FB0B0AA80CCE3FF7FAE71B28091
:104E2000A4E4FF7FAB3F388004E5FF7F0100000072
:104E300014E5FF7FB0B0AA804CE5FF7F01000000C1
:104E4000F0E5FF7FAA0DB28068E6FF7FB0AF088073
:104E5000F8E8FF7F0100000008E9FF7FAD3F028016
:104E6000A0EBFF7F01000000D0EBFF7FB0AD04801E
:084E70009CEEFF7F0100000031
:084E7800053E00080D040008CE
:044E8000E50300083E
:104E84000024F4000100000010000000AC05002024
:0400000508002FC1FF
:00000001FF
