:020000040800F2
:100000000050002021550008A13E0008A33E000832
:10001000A53E0008A73E0008A93E00080000000019
:10002000000000000000000000000000AB3E0008DF
:10003000AD3E000800000000AF3E0008B13E0008E1
:100040006955000869550008695500086955000898
:100050006955000869550008695500086955000888
:100060006955000869550008695500086955000878
:10007000695500086955000869550008D53E000813
:100080006955000869550008695500086955000858
:100090006955000869550008695500086955000848
:1000A0006955000869550008695500086955000838
:1000B0006955000869550008695500086955000828
:1000C0006955000869550008695500086955000818
:1000D000E53E0008695500086955000869550008A3
:1000E00069550008695500086955000800000000BE
:1000F0000000000000000000000000000000000000
:0C01000000000000000000005FF808F1A3
:1001100081F0004102E000BF83F0004330B54FEAB8
:1001200041044FEA430594EA050F08BF90EA020F25
:100130001FBF54EA000C55EA020C7FEA645C7FEAB8
:10014000655C00F0E2804FEA5454D4EB5555B8BFDB
:100150006D420CDD2C4480EA020281EA030382EA4C
:10016000000083EA010180EA020281EA0303362DDE
:1001700088BF30BD11F0004F4FEA01314FF4801CB1
:100180004CEA113102D0404261EB410113F0004FC3
:100190004FEA03334CEA133302D0524263EB43037A
:1001A00094EA050F00F0A780A4F10104D5F1200E18
:1001B0000DDB02FA0EFC22FA05F2801841F1000173
:1001C00003FA0EF2801843FA05F359410EE0A5F147
:1001D00020050EF1200E012A03FA0EFC28BF4CF078
:1001E000020C43FA05F3C01851EBE37101F000452E
:1001F00007D54FF0000EDCF1000C7EEB00006EEB3B
:100200000101B1F5801F1BD3B1F5001F0CD34908C4
:100210005FEA30004FEA3C0C04F101044FEA44521B
:1002200012F5800F80F09A80BCF1004F08BF5FEAA2
:10023000500C50F1000041EB045141EA050130BD82
:100240005FEA4C0C404141EB0101013C28BFB1F594
:10025000801FE9D291F0000F04BF01460020B1FADF
:1002600081F308BF2033A3F10B03B3F120020CDAB2
:100270000C3208DD02F1140CC2F10C0201FA0CF090
:1002800021FA02F10CE002F11402D8BFC2F1200CF5
:1002900001FA02F120FA0CFCDCBF41EA0C019040AB
:1002A000E41AA2BF01EB0451294330BD6FEA0404F4
:1002B0001F3C1CDA0C340EDC04F11404C4F12002DF
:1002C00020FA04F001FA02F340EA030021FA04F3F1
:1002D00045EA030130BDC4F10C04C4F1200220FA48
:1002E00002F001FA04F340EA0300294630BD21FA86
:1002F00004F0294630BD94F0000F83F4801306BF4C
:1003000081F480110134013D4EE77FEA645C18BF3F
:100310007FEA655C29D094EA050F08BF90EA020FD6
:1003200005D054EA000C04BF1946104630BD91EACE
:10033000030F1EBF0021002030BD5FEA545C05D1D1
:100340004000494128BF41F0004130BD14F5800410
:100350003CBF01F5801130BD01F0004545F0FE4184
:1003600041F470014FF0000030BD7FEA645C1ABFB9
:10037000194610467FEA655C1CBF0B46024650EAF0
:10038000013406BF52EA033591EA030F41F400211C
:1003900030BD00BF90F0000F04BF0021704730B5A2
:1003A0004FF4806404F132044FF000054FF0000177
:1003B00050E700BF90F0000F04BF0021704730B538
:1003C0004FF4806404F1320410F0004548BF40420D
:1003D0004FF000013EE700BF42004FEAE2014FEA62
:1003E00031014FEA02701FBF12F07F4393F07F4F3D
:1003F00081F06051704732F07F4208BF704793F040
:100400007F4F04BF41F40021704730B54FF4607452
:1004100001F0004521F000411CE700BF50EA010255
:1004200008BF704730B54FF000050AE050EA0102FE
:1004300008BF704730B511F0004502D5404261EB6E
:1004400041014FF4806404F132045FEA915C3FF4AF
:10045000D8AE4FF003025FEADC0C18BF03325FEA4C
:10046000DC0C18BF033202EBDC02C2F1200300FAFD
:1004700003FC20FA02F001FA03FE40EA0E0021FA22
:1004800002F11444BDE600BF4FF0FF3C06E000BFA0
:100490004FF0010C02E000BF4FF0010C4DF804CD0D
:1004A0004FEA410C7FEA6C5C4FEA430C18BF7FEACD
:1004B0006C5C1BD001B050EA410C0CBF52EA430CFB
:1004C00091EA030F02BF90EA020F0020704710F17B
:1004D000000F91EA030F58BF994208BF90422CBF0A
:1004E000D8176FEAE37040F0010070474FEA410C03
:1004F0007FEA6C5C02D150EA013C07D14FEA430C21
:100500007FEA6C5CD6D152EA033CD3D05DF8040B91
:10051000704700BF8446104662468C4619466346C3
:1005200000E000BF01B5FFF7B7FF002848BF10F19A
:10053000000F01BD4DF808EDFFF7F4FF0CBF0120DF
:1005400000205DF808FB00BF4DF808EDFFF7EAFF5B
:1005500034BF012000205DF808FB00BF4DF808ED16
:10056000FFF7E0FF94BF012000205DF808FB00BF0B
:100570004DF808EDFFF7CEFF94BF012000205DF895
:1005800008FB00BF4DF808EDFFF7C4FF34BF0120A2
:1005900000205DF808FB00BF4FEA4102B2F1E043E2
:1005A00024BFB3F5001CDCF1FE5C0DD901F0004C5A
:1005B0004FEAC0024CEA5070B2F1004F40EB8300AA
:1005C00008BF20F00100704711F0804F21D113F1D6
:1005D0003872BCBF01F00040704741F480114FEA0F
:1005E0005252C2F11802C2F1200C10FA0CF320FA98
:1005F00002F018BF40F001004FEAC1234FEAD323B5
:1006000003FA0CFC40EA0C0023FA02F34FEA43031E
:10061000CCE77FEA625307D150EA01331EBF4FF0A7
:10062000FE4040F44000704701F0004040F0FE40C2
:1006300040F40000704700BF80F0004002E000BFBF
:1006400081F0004142001FBF5FEA410392EA030FBD
:100650007FEA226C7FEA236C6AD04FEA1262D2EB07
:100660001363C1BFD218414048404140B8BF5B420C
:10067000192B88BF704710F0004F40F4000020F0A5
:100680007F4018BF404211F0004F41F4000121F0BB
:100690007F4118BF494292EA030F3FD0A2F1010205
:1006A00041FA03FC10EB0C00C3F1200301FA03F143
:1006B00000F0004302D5494260EB4000B0F5000F66
:1006C00013D3B0F1807F06D340084FEA310102F125
:1006D0000102FE2A51D2B1F1004F40EBC25008BFD7
:1006E00020F0010040EA03007047490040EB0000A1
:1006F000013A28BFB0F5000FEDD2B0FA80FCACF1A2
:10070000080CB2EB0C0200FA0CF0AABF00EBC250CE
:1007100052421843BCBFD0401843704792F0000FBC
:1007200081F4000106BF80F400000132013BB5E70F
:100730004FEA41037FEA226C18BF7FEA236C21D085
:1007400092EA030F04D092F0000F08BF08467047EA
:1007500090EA010F1CBF0020704712F07F4F04D1B8
:10076000400028BF40F00040704712F100723CBFCB
:1007700000F50000704700F0004343F0FE4040F4F5
:10078000000070477FEA226216BF08467FEA2363B3
:100790000146420206BF5FEA412390EA010F40F49E
:1007A000800070474FF0000304E000BF10F00043EA
:1007B00048BF40425FEA000C08BF704743F09643D1
:1007C00001464FF000001CE050EA010208BF7047EC
:1007D0004FF000030AE000BF50EA010208BF704773
:1007E00011F0004302D5404261EB41015FEA010C88
:1007F00002BF84460146002043F0B64308BFA3F180
:100800008053A3F50003BCFA8CF2083AA3EBC25361
:1008100010DB01FA02FC634400FA02FCC2F1200280
:10082000BCF1004F20FA02F243EB020008BF20F0B7
:100830000100704702F1200201FA02FCC2F120021D
:1008400050EA4C0021FA02F243EB020008BF20EA12
:10085000DC7070474FF0FF0C1CEAD0521EBF1CEA40
:10086000D15392EA0C0F93EA0C0F6FD01A4480EA2E
:10087000010C400218BF5FEA41211ED04FF0006317
:1008800043EA501043EA5111A0FB01310CF0004043
:10089000B1F5000F3EBF490041EAD3715B0040EA69
:1008A000010062F17F02FD2A1DD8B3F1004F40EB39
:1008B000C25008BF20F00100704790F0000F0CF00C
:1008C000004C08BF49024CEA502040EA51207F3AD0
:1008D000C2BFD2F1FF0340EAC250704740F40000AB
:1008E0004FF00003013A5DDC12F1190FDCBF00F09C
:1008F00000407047C2F10002410021FA02F1C2F14A
:10090000200200FA02FC5FEA310040F1000053EAE5
:100910004C0308BF20EADC70704792F0000F00F033
:10092000004C02BF400010F4000F013AF9D040EA39
:100930000C0093F0000F01F0004C02BF490011F4CD
:10094000000F013BF9D041EA0C018FE70CEAD153CB
:1009500092EA0C0F18BF93EA0C0F0AD030F0004C4B
:1009600018BF31F0004CD8D180EA010000F00040FF
:10097000704790F0000F17BF90F0004F084691F0BD
:10098000000F91F0004F14D092EA0C0F01D14202F7
:100990000FD193EA0C0F03D14B0218BF084608D1C0
:1009A00080EA010000F0004040F0FE4040F400000A
:1009B000704740F0FE4040F4400070474FF0FF0C9D
:1009C0001CEAD0521EBF1CEAD15392EA0C0F93EAE4
:1009D0000C0F69D0A2EB030280EA010C49024FEA36
:1009E000402037D04FF0805343EA111143EA1013EF
:1009F0000CF000408B4238BF5B0042F17D024FF4A7
:100A0000000C8B4224BF5B1A40EA0C00B3EB510F81
:100A100024BFA3EB510340EA5C00B3EB910F24BF6A
:100A2000A3EB910340EA9C00B3EBD10F24BFA3EBEF
:100A3000D10340EADC001B0118BF5FEA1C1CE0D1B7
:100A4000FD2A3FF650AF8B4240EBC25008BF20F06A
:100A5000010070470CF0004C4CEA50207F32C2BFBE
:100A6000D2F1FF0340EAC250704740F400004FF05B
:100A70000003013A37E792F0000F00F0004C02BF8C
:100A8000400010F4000F013AF9D040EA0C0093F056
:100A9000000F01F0004C02BF490011F4000F013BB0
:100AA000F9D041EA0C0195E70CEAD15392EA0C0F18
:100AB00008D142027FF47DAF93EA0C0F7FF470AF50
:100AC000084676E793EA0C0F04D14B023FF44CAF93
:100AD00008466EE730F0004C18BF31F0004CCAD128
:100AE00030F000427FF45CAF31F000437FF43CAF64
:100AF0005FE700BF4FF0FF3C06E000BF4FF0010C86
:100B000002E000BF4FF0010C4DF804CD4FEA400267
:100B10004FEA41037FEA226C18BF7FEA236C11D0B1
:100B200001B052EA530C18BF90EA010F58BFB2EB64
:100B3000030088BFC81738BF6FEAE17018BF40F0E4
:100B4000010070477FEA226C02D15FEA402C05D198
:100B50007FEA236CE4D15FEA412CE1D05DF8040B1D
:100B6000704700BF844608466146FFE70FB5FFF7B0
:100B7000C9FF002848BF10F1000F0FBD4DF808ED68
:100B8000FFF7F4FF0CBF012000205DF808FB00BF59
:100B90004DF808EDFFF7EAFF34BF012000205DF8B3
:100BA00008FB00BF4DF808EDFFF7E0FF94BF012000
:100BB00000205DF808FB00BF4DF808EDFFF7D2FFFD
:100BC00094BF012000205DF808FB00BF4DF808ED40
:100BD000FFF7C8FF34BF012000205DF808FB00BF0D
:100BE0004FEA4002B2F1FE4F0FD34FF09E03B3EB3A
:100BF00012620DD94FEA002343F0004310F0004F7A
:100C000023FA02F018BF404270474FF000007047CF
:100C100012F1610F01D1420205D110F0004008BF6E
:100C20006FF0004070474FF00000704742000ED256
:100C3000B2F1FE4F0BD34FF09E03B3EB126209D417
:100C40004FEA002343F0004323FA02F070474FF0CD
:100C50000000704712F1610F01D1420202D14FF042
:100C6000FF3070474FF00000704700BF00F13401C3
:100C700091E838009C46A6464CF8045D90E8FF0FCA
:100C8000E54600BD90EC210B704700BF80EC210BC6
:100C9000704700BF90EC200B704700BF80EC200B2A
:100CA000704700BFD0EC200B704700BFC0EC200B9A
:100CB000704700BFF0EC0201F0EC0211F0EC0221F1
:100CC000F0EC0231F0EC0241F0EC0251F0EC026188
:100CD000F0EC0271F0EC0281F0EC0291F0EC02A178
:100CE000F0EC02B1F0EC02C1F0EC02D1F0EC02E168
:100CF000F0EC02F1704700BFE0EC0201E0EC021101
:100D0000E0EC0221E0EC0231E0EC0241E0EC0251C7
:100D1000E0EC0261E0EC0271E0EC0281E0EC0291B7
:100D2000E0EC02A1E0EC02B1E0EC02C1E0EC02D1A7
:100D3000E0EC02E1E0EC02F1704700BFB0FC0181A1
:100D4000B0FC0191B0FC01A1B0FC01B1704700BF43
:100D5000A0FC0181A0FC0191A0FC01A1A0FC01B1BB
:100D6000704700BFEC4600B52DE900502DE9FF1F8C
:100D70004FF000032DE90C0001A904F0D5FDDDF8CA
:100D800040E012B0704700BFEC4600B52DE90050BE
:100D90002DE9FF1F4FF000032DE90C0001A904F01D
:100DA00003FEDDF840E012B0704700BFEC4600B52E
:100DB0002DE900502DE9FF1F4FF000032DE90C0035
:100DC00001A904F011FEDDF840E012B0704700BF49
:100DD000EC4600B52DE900502DE9FF1F4FF0000350
:100DE0002DE90C0001AB04F0D3FDDDF840E012B0BA
:100DF000704700BFEC4600B52DE900502DE9FF1FFC
:100E00004FF000032DE90C0001AA04F043FEDDF8C9
:100E100040E012B0704700BF80EA010C1CF0030FE5
:100E200037D110F0030C20F0030021F0030150F83B
:100E3000042B08BF51F8043B0ED08CF0030C6FF06C
:100E40007F434FEACC0C23FA0CFC51F8043B42EAF6
:100E50000C0243EA0C0300BFA2F1013C9A4201BF1D
:100E60002CEA020C1CF0803F50F8042B51F8043B94
:100E7000F2D04FEA02604FEA1222012828BFB0EBFD
:100E8000036F08BF1B0AF4D003F0FF03000EC01A63
:100E9000704710F0030F0AD010F8012B11F8013B36
:100EA000012A28BF9A42F4D0A2EB030070474DF804
:100EB000045D50F8042B01F0030521F0030151F803
:100EC000043B022D26D04DD822F07F45B5EB132FE1
:100ED000A2F1013C2CEA020C0DD11CF0803C08BFB1
:100EE00051F8043B0AD185EA0205B5EB036F0CD13A
:100EF00050F8042BE8E74FEA13235BE03CF07F4C0B
:100F000054D10B784FEA126554E04FEA126503F0B2
:100F1000FF034FE04FEA0245A2F1013C4FEA1545BD
:100F20002CEA020CB5EB134F18D11CF0803C08BF23
:100F300051F8043B07D185EA0205B5EB034F09D10F
:100F400050F8042BE6E75FEA0C4C2FD10B884FEAF0
:100F500012452FE04FEA03434FEA12454FEA13438D
:100F600028E000BF02F0FF05B5EB136FA2F1013CD2
:100F70002CEA020C0DD11CF0803C08BF51F8043B58
:100F80000AD185EA0205B5EB032F0AD150F8042BEC
:100F9000E8E74FEA13630DE012F0FF0F06D051F8B7
:100FA000043B4FEA122523F07F4303E04FF000009B
:100FB00020BC704705F0FF0203F0FF00012828BFA6
:100FC000904204BF2D0A1B0AF4D0A2EB000020BC03
:100FD000704700BF844641EA000313F0030349D180
:100FE000403A23D30B6803604B6843608B6883608F
:100FF000CB68C3600B6903614B6943618B69836193
:10100000CB69C3610B6A03624B6A43628B6A83627A
:10101000CB6AC3620B6B03634B6B43638B6B836362
:10102000CB6BC36340304031403ADBD230320BD31C
:101030000B6803604B6843608B688360CB68C36058
:1010400010301031103AF3D20C3205D351F8043B72
:1010500040F8043B043AF9D2043208D0D2071CBF4E
:1010600011F8013B00F8013B01D30B880380604677
:10107000704700BF082A13D38B07B1D010F00303C9
:10108000AED0C3F10403D21ADB071CBF11F8013B39
:1010900000F8013BA4D331F8023B20F8023B9FE764
:1010A000043AD9D3013A11F8013B00F8013BF9D2D7
:1010B0000B7803704B7843708B7883706046704771
:1010C0000348044B834202D0034B03B118477047D7
:1010D000A4000020A4000020000000000548064BEA
:1010E0001B1AD90F01EBA301491002D0034B03B126
:1010F00018477047A4000020A40000200000000052
:1011000010B5064C237843B9FFF7DAFF044B13B14F
:101110000448AFF300800123237010BDA400002019
:1011200000000000F465000808B5054B1BB1054937
:101130000548AFF30080BDE80840FFF7CFBF00BF10
:1011400000000000A8000020F46500082DE9F0412F
:1011500082B080460F4614461E46BDF8205001EB73
:10116000030C53199BB200931FFA8CF300F080FF1D
:1011700060B90DE0002200923346224639464046CF
:1011800000F0C8FE0134A4B2013DADB2002DF1D192
:1011900002B0BDE8F0812DE9F04782B080460D46EF
:1011A00014461E46BDF82890CF18BFB202EB0903C3
:1011B0009BB200933B4600F05BFF10B902B0BDE864
:1011C000F08700230093334622462946404600F02C
:1011D000A1FEB9F1010FF1D9A9F102091FFA89F9AC
:1011E0000134A4B2B9F1000F08D1002300933346B3
:1011F00022462946404600F08DFEDFE74FF0010A07
:10120000CDF800A04B4622462946404600F082FE1B
:10121000791ECDF800A04B46224689B2404600F028
:1012200079FEA1441FFA89F4DFE72DE9F04F87B07A
:1012300080460C469246BDF84060BDF8447003916C
:1012400004931C44A4B29519ADB20095234600F056
:101250000FFF10B907B0BDE8F08F039A02EB070942
:101260001FFA89F90AEB070B1FFA8BFBE41BA4B2E8
:10127000013CA4B2ED1BADB2013DADB2022300931F
:101280003B465A464946404600F074FA0123009313
:101290003B465A462146404600F06CFA0423009330
:1012A0003B462A464946404600F064FA082300932C
:1012B0003B462A462146404600F05CFA049BDB1B75
:1012C0009BB2DB1B9BB209F101091FFA89F90BF1F3
:1012D000010B1FFA8BFB022B0FD8F61BB6B2F61BC5
:1012E000B6B2022EB6D9023EB6B20096049B5A465A
:1012F00003994046FFF72AFFACE7023B9BB27C1CF8
:10130000A4B200940593524649464046FFF71EFF9B
:101310000094059B2A4649464046FFF717FFDCE745
:101320002DE9F04F85B007460C469046BDF838B021
:10133000BDF83C60029103931C44A4B202EB0B0580
:10134000ADB20095234600F093FE10B905B0BDE89C
:10135000F08F029A02EB060A1FFA8AFA08EB0609D6
:101360001FFA89F9A41BA4B2013CA4B2AD1BADB213
:10137000013DADB20223009333464A4651463846FA
:1013800000F0D4F90123009333464A4621463846FB
:1013900000F0CCF90423009333462A4651463846E0
:1013A00000F0C4F90823009333462A462146384604
:1013B00000F0BCF9039B9B1B9BB29B1B9BB2ABEB4E
:1013C0000604A4B2A41BA4B20AF1010A1FFA8AFA05
:1013D00009F101091FFA89F9022B16D8022CB5D997
:1013E000023CA4B2039B5D1EADB223464A46029E58
:1013F0003146384600F0FBFD3146294423464A4633
:1014000089B2384600F0F3FDA0E7023B9DB20BF134
:10141000FF3B1FFA8BFB2B4642465146384600F0F5
:10142000DEFD08EB0B022B4692B25146384600F027
:10143000D6FDD3E710B582B003681B7C446B03FB79
:1014400001F1C90089B20C440094002101F0F4F8C4
:1014500002B010BD2DE9F041064690F8387090F8C2
:101460003950036893F8118000242A4621463046FB
:10147000FFF7E0FF0134E4B20135EDB2A74201D934
:10148000A845F2D8BDE8F08108B503681B7C90F848
:10149000382003FB02F2D2000021406B04F068FF09
:1014A00008BD10B50446FFF7D5FF204601F0F1F85E
:1014B00010BD2DE9F84380460F4691461C46BDF805
:1014C00020609DF8245015F0010F0AD115F0020F8D
:1014D00016D115F0080F24D115F0040F32D1BDE854
:1014E000F883B21A591892B289B200F088FDF21B43
:1014F00004EB090192B289B2404600F080FDE5E7B5
:10150000A6EB0902E11B92B289B2404600F077FDDA
:10151000F21BA4EB090192B289B2404600F06FFDC4
:10152000D7E706EB0902E11992B289B2404600F012
:1015300066FDBA1904EB090192B289B2404600F087
:101540005EFDC9E706EB0902E11B92B289B2404693
:1015500000F055FDBA19A4EB090192B289B24046D8
:1015600000F04DFDBBE72DE9F04F85B003908946B3
:1015700092461E469DF838B0C3F1010424B2C3EB75
:10158000C3384FEA48080FFA88F8CDF804B0009243
:101590000B4632460021FFF78CFF002501271AE099
:1015A000013EB6B208F102081FFA88F30FFA88F874
:1015B00023441CB20135ADB20237BBB23FB2234463
:1015C0001CB2CDF804B0CDF800A04B4632462946F7
:1015D0000398FFF76EFFB54202D2002CE0DAE9E78C
:1015E00005B0BDE8F08F2DE9F84380460C4617465C
:1015F0001D46BDF820909DF8246016F0010F0AD119
:1016000016F0020F1BD116F0080F2DD116F0040FA3
:101610003BD1BDE8F883531CA9EB020269189BB2C9
:1016200092B289B200F0E3FC631CA9EB0402E91951
:101630009BB292B289B2404600F0D9FCE0E77B1C35
:10164000A9EB0702291B9BB292B289B2404600F077
:10165000CEFC631CA9EB0402E91B9BB292B289B2D7
:10166000404600F0C4FCCEE77B1C29199BB24A46D9
:1016700089B2404600F0BBFC631CE9199BB24A46A4
:1016800089B2404600F0B3FCC0E77B1C291B9BB22B
:101690004A4689B2404600F0AAFC631CE91B9BB293
:1016A0004A4689B2404600F0A2FCB2E72DE9F04F6D
:1016B00085B00390894692461E469DF838B0C3F126
:1016C000010424B2C3EBC3384FEA48080FFA88F884
:1016D000CDF804B000920B4632460021FFF783FF9D
:1016E000002501271AE0013EB6B208F102081FFAF0
:1016F00088F30FFA88F823441CB20135ADB20237E3
:10170000BBB23FB223441CB2CDF804B0CDF800A068
:101710004B46324629460398FFF765FFB54202D291
:10172000002CE0DAE9E705B0BDE8F08F2DE9F041E3
:1017300082B080460E4617461D46CB189BB2AC18A9
:10174000A4B20133521B491B0134A4B200949BB2D2
:1017500092B289B200F08CFC10B902B0BDE8F08101
:101760009DF8203000932B463A4631464046FFF71D
:10177000FAFEF2E72DE9F04182B080460E461746A8
:101780001D46CB189BB2AC18A4B20133521B491BA7
:101790000134A4B200949BB292B289B200F068FC0A
:1017A00010B902B0BDE8F0819DF8203000932B46BF
:1017B0003A4631464046FFF779FFF2E708230370C7
:1017C00000487047C000002030B585B004460D4683
:1017D00000931346084A094900F07EFF0DF10F00FF
:1017E000FFF7ECFF01460095054B9DF80F202046C2
:1017F00000F036FD05B030BD492400088D250008F5
:101800009D200008405C70474218435C507800EB14
:10181000032080B270470020704738B504460D465B
:1018200000212846FFF7EEFF207001212846FFF730
:10183000E9FF607002212846FFF7E4FFA070032152
:101840002846FFF7DFFFE07004212846FFF7DAFFA4
:10185000207105212846FFF7D5FF60710621284633
:10186000FFF7D0FFA07107212846FFF7CBFFE071FB
:1018700008212846FFF7C6FF207209212846FFF7F6
:10188000C1FF60720A212846FFF7BCFFA0720B213E
:101890002846FFF7B7FFE0720C212846FFF7B2FF9A
:1018A00020730D212846FFF7ADFF60730E212846F7
:1018B000FFF7A8FFA0730F212846FFF7A3FFE073EF
:1018C00010212846FFF79EFF207411212846FFF7BC
:1018D0009BFF608213212846FFF796FFA082152107
:1018E0002846FFF791FFE08238BD30B5024690F8F8
:1018F0000CE00468207840FA0EF05FFA80FC0EEBF2
:101900000103DBB2072B0FD9CEF1080E5FFA8EFE72
:10191000651C156094F801C00CFA0EFC4CEA000C32
:101920005FFA8CFC083BDBB24FF0FF30884013734A
:101930002CEA000030BD38B5044600F160050166B0
:10194000002380F86C3090F878102846FFF7CDFF20
:1019500084F86A0094F879102846FFF7C6FF84F8E7
:101960006B0094F8923084F86E30B3FA83F35B091D
:1019700084F86F3038BD10B50C46FFF7B6FF013C58
:10198000E4B20123A340C01A40B210BD012B08D01D
:10199000022B09D013B1401A80B27047104480B2B4
:1019A0007047084480B27047801A80B27047012B9C
:1019B00008D0022B09D013B1104480B270470844FC
:1019C00080B27047801A80B27047401A80B2704768
:1019D0002DE9F04F89B005468A46079290F96830A4
:1019E0005FFA83FB90F96920D3B2039319E0CDF835
:1019F00014A01FE095F86E3085F892300097059B93
:101A00000699284600F086FAB2453CD3ABEB0404B5
:101A100054445FFA84FA039B0133DBB203934FF023
:101A2000000B95F96A40E4B2A4EB0B06F6B2B2459E
:101A3000DDD30596B5F866904FFA8BF19DF90C80D1
:101A400095F870703B4642460491B5F86400FFF784
:101A5000AEFF06903B46424604994846FFF796FF84
:101A60000246079B002BC5D195F86D30002BCBD1DA
:101A700095F86F3085F892300097059B06992846B7
:101A800000F048FAC0E70AEB0B0385F8683085F8E8
:101A9000698009B0BDE8F08F2DE9F04F85B00446AC
:101AA00000F16005FFF747FF94F96B7094F87A1026
:101AB0002846FFF760FF804694F87B102846FFF722
:101AC0005AFF064694F87C102846FFF754FF03900F
:101AD00094F96A90B9F1000F55DD3E44F6B27642B2
:101AE00076B294F870B05B4632464146B4F8640072
:101AF000FFF75DFF8246A4F864005B46324641462C
:101B0000B4F86600FFF742FF0246A4F86600BBF196
:101B1000030F68D8DFE80BF0023B495B1FFA89F33B
:101B200053449BB2384480B200905146204600F0A6
:101B30009FFA40B3002384F8683084F8693094F841
:101B400076102846FFF7D1FE804694F87710284695
:101B5000FFF7CBFE0646002241462046FFF738FF3E
:101B6000012231462046FFF733FF01212846FFF7C7
:101B7000BCFE0028EFD194F96930BB42DFDB94F85A
:101B80006E3084F89230039805B0BDE8F08FAAEB70
:101B9000070189B201310AF101039BB21FFA89F0F2
:101BA000104480B21FFA81FABEE71FFA89F1AAEB4E
:101BB000010189B201310AF101039BB2C61BB6B221
:101BC0000136013080B2B2B21FFA81FAACE70AEBFB
:101BD00007039BB21FFA89F1411A89B20131013022
:101BE00080B28AB2A0E753469EE770B50E46846D78
:101BF0001734FF2913D8602903D9B0F888301C4462
:101C000006E0402904D9B0F886301C4400E01C44AA
:101C1000637803B32278B242F9D1A01C1CE0B0F87B
:101C20008A301C44254600212846FFF7EDFD044478
:101C300002212846FFF7E8FD04358642F3D801E08B
:101C4000A3781C442278637853EA022305D09E428D
:101C5000F6D1E01C00E0002070BD0020FCE710B5CC
:101C60000446A0F86410A0F866201946FFF7BDFFEF
:101C700028B101462046FFF70FFF80B210BD0020BB
:101C8000FCE738B50446FFF7B0FFB8B1014620467F
:101C9000FFF751FE04F1600594F87A102846FFF72B
:101CA0006AFE84F8900094F87B102846FFF763FEE4
:101CB00094F87C102846FFF75EFE38BD0020FCE754
:101CC0002DE9F04104460D46002680F86A6000F0D8
:101CD00041FB6FF03F08374601E03E44B6B263680F
:101CE0002978204698474FF6FF7398420FD0013568
:101CF0004FF6FE739842F2D001462046FFF7C1FF2F
:101D000087B218F1400FE8D194F99080E5E794F993
:101D10006A307BB1F71BBFB29BB23B449BB294F9D4
:101D20009060B6B21E44B6B2B8F1000F02DDB04406
:101D30001FFA88F63046BDE8F081F8B504460D4636
:101D400016461F4690F87030032B07D8DFE803F0E3
:101D5000020D1217C36D9847304486B23B46324697
:101D600029462046FFF77BFFF8BDC36D9847281A28
:101D700085B2F3E7C36D9847301A86B2EEE7C36DBC
:101D80009847284485B2E9E72DE9F04104460F461B
:101D900016461D4600F0DEFA4FF0000804E0074446
:101DA000BFB240441FFA80F86368297820469847FC
:101DB0004FF6FF72904222D001354FF6FE729042EC
:101DC000F2D00346324639462046FFF7B6FF94F874
:101DD0007030032BE5D801A252F823F09F1D0008B4
:101DE000ED1D0008F31D0008F91D00080644B6B2F9
:101DF000D7E73F1ABFB2D4E7361AB6B2D1E74046AA
:101E0000BDE8F08110B5024C4460FFF7BDFF10BD86
:101E1000A5220008836D73B390F9812080F88E208D
:101E200090F9823080F88F3090F88D1019B3012925
:101E300014D000B590F97E1090F980C001EB0C0E23
:101E4000724505DAC9B25FFA8CF2114480F88E103F
:101E5000634501DD80F88FC05DF804FB90F98310C5
:101E60008A4201DA80F88E1090F98420934202DDD4
:101E700080F88F2070477047014BC365704700BFE3
:101E800017180008836D8B4209D010B50446816590
:101E90007430FFF7C2FC2046FFF7BCFF10BD70474F
:101EA00008B5024B4360FFF70BFF08BDBB220008DB
:101EB00000B5B0F800E0B1F800C0F4441FFA8CFCA3
:101EC000E64505D99E4513D203F1FF3C1FFA8CFC71
:101ED0009E450FD294450FD9964500D372469C4536
:101EE00000D8634602809B1A0B8001205DF804FB3A
:101EF0009646EDE70020F9E70020F7E730B583B01C
:101F0000C48F121BC46A9DF81850009592B2A04766
:101F100003B030BD70B584B004469DF82000ADF824
:101F20000E10ADF80C20ADF80A3094F88C305BB38D
:101F3000BDF80A3043B3012B03D9022826D0032869
:101F40002DD010F0010534D1B4F84C20BDF80C3080
:101F50009A4219D8B4F84E20934215D2B4F84A30B8
:101F6000B4F848200DF10A010DF10E00FFF7A0FFB3
:101F700050B1236B9E680095BDF80A30BDF80C2067
:101F8000BDF80E102046B04704B070BD8AB2D31A17
:101F90009BB2ADF80E300133ADF80E30D1E7BDF88D
:101FA0000C20D31A9BB2ADF80C300133ADF80C30D5
:101FB000C7E7B4F84820BDF80E309A42E4D8B4F828
:101FC0004A209342E0D2B4F84E30B4F84C200DF1E0
:101FD0000A0103A8FFF76CFF0028CAD1D4E710B5A7
:101FE00082B000240094FFF795FF02B010BD10B539
:101FF00082B001240094FFF78DFF02B010BDB0F84D
:102000004C3093420BD8B0F84E30934207D9B0F819
:1020100048308B4203D8B0F84A308B4200D8704722
:1020200000B583B0002300930123FFF773FF03B0D3
:102030005DF804FB80F89210022902D9012380F890
:10204000923070478A4205D2834209D89A4209D910
:1020500001207047834207D99A4207D9012070476F
:102060000120704700207047002070470020704713
:1020700070B504460D461E46BDF81030B0F84E103F
:10208000B0F84C00FFF7DEFF38B133462A46B4F80B
:102090004A10B4F84800FFF7D5FF70BD70B59DF841
:1020A000105002F0070E4FF0010C0CFA0EFC5FFA14
:1020B0008CFC90F89260012E1AD90024012E19D0C0
:1020C00022F007060268127C06FB02F292B20A4472
:1020D000416B1144DDB90A782243D2B20A7082EA18
:1020E0000C0201F8012B013B9BB2002BF3D170BD18
:1020F0006446E3E74FF0000CE2E701241BE06400D4
:10210000E4B24FEA4C0C5FFA8CFC002BEFD00A785B
:102110002243D2B20A7082EA0C020A700EF1010266
:10212000013B9BB212F0070EE9D1428F114490F8A7
:102130009220012AE1D9012AE7D04FF0010CE4E70F
:1021400010B5016890F83830DA0082870A7CD20036
:10215000428790F839E04FEACE02C28703EB0E04C3
:1021600091F811C0644503DDACEB0E0C1FFA8CF343
:10217000DB009BB2A0F84020A0F842201A44A0F84F
:1021800042208B8AA0F84430CB8AA0F8463010BD9C
:1021900008B5FFF7D5FF08BD10B582B00446B0F80A
:1021A00056300093B0F85230B0F85420B0F85010C8
:1021B000FFF75EFF20B9002384F88C3002B010BD19
:1021C000012384F88C30B4F84820B4F850309A4297
:1021D00001D2A4F84830B4F84A20B4F852309A42F8
:1021E00001D9A4F84A30B4F84C20B4F854309A42DB
:1021F00001D2A4F84C30B4F84E20B4F856309A42CC
:10220000DCD9A4F84E30D9E708B50022A0F8482060
:10221000B0F84420A0F84A20B0F84020A0F84C20A4
:10222000B0F84220A0F84E20FFF7B6FF08BD10B569
:1022300082B09DF810400094FFF760FE02B010BD20
:1022400008B50022A0F85020A0F854204FF6FF72E5
:10225000A0F85220A0F85620036B5B68984708BD91
:1022600070B50446049E00258565C362416380F80D
:10227000382080F8395080F86D5080F8915080F8FF
:102280008D50012380F8923080F8933006633368D4
:1022900098472046FFF7D4FF2046FFF7EDFD84F86E
:1022A000705070BD084611B10A2903D070474FF62F
:1022B000FF7070474FF6FF70704702460B460029CB
:1022C0003FD00A2940D090F8261061BBFB2B09D8DB
:1022D000F72B10D8EF2B14D8DF2B18D8BF2B1CD816
:1022E00018467047052180F8261003F00103138477
:1022F0004FF6FE707047042180F8261003F00303A8
:10230000F5E7032180F8261003F00703EFE7022129
:1023100080F8261003F00F03E9E7012180F826106A
:1023200003F01F03E3E70139C9B280F82610008CDF
:10233000800180B2108403F03F031843108431B948
:1023400070474FF6FF7070474FF6FF7070474FF6BB
:10235000FE70F5E7002380F82630704710B50A4676
:10236000046900232021A04710BD10B5134604695D
:102370000A461721A04710BD00B583B08DF807109D
:102380000DF107020121FFF7F0FF03B05DF804FB38
:1023900010B50A46C46800231521A04710BD10B52A
:1023A0000A46C46800231621A04710BD10B5134685
:1023B000C4680A461721A04710BD10B5C4680023A1
:1023C0001A461821A04710BD10B5C46800231A464C
:1023D0001921A04710BD70B582B006460D4616E023
:1023E00015290CD202B070BDFE29FBD122788DF8E0
:1023F00007202921304600F053F9023507E0227802
:102400008DF80720F46800233046A04702352C469B
:1024100014F8011B1929E7D818290ED21629DFD97B
:102420001729DFD123788DF807300DF1070201213C
:102430003046FFF7BBFF0235E9E7F56800231A468F
:102440003046A8472546E2E72DE9F04104460D460F
:1024500016461F46A1F11403052B22D8DFE803F02E
:1024600018030C1518180021FFF778FF3146204695
:10247000FFF782FF012012E00021FFF76FFF3146D6
:102480002046FFF779FF012009E00121FFF766FFF1
:10249000D4F810803B46324629462046C047BDE866
:1024A000F0810020FBE70000F8B5064615461C4603
:1024B0000B39042960D8DFE801F0035F0E213000FA
:1024C00022B92E49FFF787FF012025E02C49FFF7AD
:1024D00082FF012020E042B92A49FFF77CFF3368E0
:1024E0009B7C86F82230012016E02749FFF773FF16
:1024F0003368DB7C86F8223001200DE0FFF75DFFBA
:1025000081213046FFF744FF29463046FFF747FF59
:102510003046FFF759FF0120F8BDFFF74EFF637902
:10252000DB00DBB296F822701F44FFB24021304638
:10253000FFF72EFF390941F010013046FFF728FF61
:1025400007F00F013046FFF72AFFA17941F0B001F3
:102550003046FFF724FF2179C900226801F0F80115
:102560003046FFF723FF6A1E12F0FF05F3D1304615
:10257000FFF72AFF0120CFE70020CDE7787400089D
:1025800070740008687400086074000838B5054667
:102590000C46FFF789FF90B9092C0AD00A2C0FD1FD
:1025A000284600F018F807492846FFF714FF0120D5
:1025B00006E00549284600F009F8012000E0012066
:1025C00038BD00BF807400084874000801608B7C2F
:1025D00080F82230704710B5044600231A4628219F
:1025E000D0F814C0E04700231A4614212046D4F83E
:1025F0000CC0E04701224B21204600F051F823682F
:102600001A792921204600F04BF800224B21204660
:1026100000F046F823681A792921204600F040F896
:1026200001224B21204600F03BF823685A792921EA
:10263000204600F035F810BD10B582B08DF80510B9
:102640008DF806208DF80430049B009384686B4657
:1026500001220F21A04702B010BD10B584680023ED
:102660001A460921A04710BD10B5846800231A46F8
:102670000A21A04710BD10B50A46846800230B212B
:10268000A04710BD10B50A46846800230E21A0475C
:1026900010BD10B5846800231A461021A04710BD54
:1026A00010B544690023A04710BD0020704700000A
:1026B00000230360074A8260C2600261426180F8C1
:1026C000233080F826308361FF2380F8243080F89F
:1026D00028307047AB260008F8B504460F4616466A
:1026E0001D46FFF7E5FFA760E6602561069B636175
:1026F0002046FFF7B2FFF8BD08B50821014802F0F7
:1027000097FE08BD8007002008B501F085FA01F0AA
:1027100074FA01F03BFA064801F00EFB00F004FBEE
:1027200001F0A0F900F06CF901F040F9FAE700BF00
:102730005006002000B583B00A4B5A6942F00102EE
:102740005A615B6903F001030193019B002211466A
:102750000F2001F0F5FC0F2001F002FD03B05DF841
:1027600004FB00BF001002402DE9F04188B00024B6
:102770000494059406940794454B9A6942F010021C
:102780009A619A6902F010020092009A9A6942F0E6
:1027900020029A619A6902F020020192019A9A69D4
:1027A00042F004029A619A6902F004020292029ACB
:1027B0009A6942F008029A619B6903F00803039347
:1027C000039BDFF8D08022464FF40051404601F0D1
:1027D00072FF314E224648F20431304601F06BFF61
:1027E00001221821304601F066FF4FF40053049394
:1027F0000125059506940227079704A9404601F094
:1028000045FE0423049305950697079704A93046CF
:1028100001F03CFE182304930595069503230793C6
:1028200004A9304601F032FEE02304930594069596
:1028300004A9304601F02AFE4FF440630493059446
:102840000694A8F5806804A9404601F01FFE4FF4E5
:102850004073049305950694079504A9304601F04A
:1028600015FE4FF40043049305950694079704A9B9
:10287000304601F00BFE4FF4007304930594069567
:1028800004A9404601F002FE08B0BDE8F08100BF97
:1028900000100240001001400008014072B6FEE73F
:1028A00000B591B02822002106A803F061FD0023A5
:1028B00001930293039304930593012206924FF42C
:1028C000803307934FF4003108910A9202220D924F
:1028D0000E934FF4E0130F9306A801F009FF80B99F
:1028E0000F23019302210291002303934FF480628E
:1028F0000492059301A802F041F920B911B05DF8E6
:1029000004FBFFF7CBFFFFF7C9FF08B501F09AFB07
:10291000FFF7C6FFFFF728FFFFF70CFF01F028FACB
:1029200001F028FBFFF7F0FEFEE70000114B1A7ADA
:1029300013441B7B082B1CD8DFE803F0050A1B1B84
:102940001B1B1B1016000B4B01229A72DA72704788
:10295000084B03229A720022DA727047054B042258
:102960009A720022DA727047024B06229A72002293
:10297000DA7270472C060020094B1A7A13441B7B2D
:1029800013B1012B06D07047054B02229A72012227
:10299000DA727047024B05229A720022DA7270478F
:1029A0002C060020054B1A7A13441B7B23B9034BDA
:1029B00006229A720122DA72704700BF2C060020AC
:1029C000012800D070474FF6FF739942FAD1084BA7
:1029D00001225A729A720322DA72064B064A1A616F
:1029E000DA61064A03CAC3F82900C3F82D10E9E7E3
:1029F0002C060020D40400200000A0410C66000832
:102A000010B540211D4801F04FFE003818BF0120CD
:102A10001B4B58719B79984200D110BD184CA07186
:102A2000184B587F01F032FB4021144801F03CFE66
:102A3000003818BF012060710028EED10122A27079
:102A40000022E26006E00E4AD3680133D360012021
:102A500001F01CFB4021094801F026FE0028F2D0BD
:102A6000074BDA68074B9B7F9A4203DA044B02223A
:102A70001A70D2E7024B03221A70CEE70008014019
:102A8000C40400202C060020014B5860704700BF92
:102A900054050020014B1860704700BF540500200A
:102AA000034B5A68135CB3FA83F35B091354704702
:102AB00054050020F8B50F4616461D460A4B002265
:102AC0009A720322DA72094C0146204603F0CCFCCC
:102AD0006761267665769DF81830A3769DF81C30E0
:102AE000E376089BE361F8BD2C0600200805002072
:102AF00000B585B01D4B1A7A13441B7B032B08D8F5
:102B0000DFE803F0020A1826184B04229A72012209
:102B1000DA7205B05DF804FB154B0293134B9B7AF8
:102B20000193012300930023642212491248FFF706
:102B3000C1FFEEE70E4B02930C4B9B7A01930123EE
:102B40000093002364220D490D48FFF7B3FFE0E72F
:102B5000074B0293054B9B7A0193012300930023BB
:102B6000FF2208490848FFF7A5FFD2E72C060020FE
:102B70004400002005050020B87400080605002068
:102B8000C074000807050020C874000800B585B0AF
:102B9000514B1A7A13441B7B0C2B0DD8DFE803F042
:102BA000070F1D2B39475563717F8D9195004A4B57
:102BB00002229A720122DA7205B05DF804FB4749DD
:102BC000474B029311F80C3C01930523009300231B
:102BD000FF224448FFF76EFFEEE74349404B029364
:102BE00011F80D3C019301230093002328223F4854
:102BF000FFF760FFE0E73E49394B029311F80E3CC6
:102C0000019301230093002328223A48FFF752FF43
:102C1000D2E73949324B029311F80F3C019301235B
:102C20000093002328223548FFF744FFC4E73449C6
:102C30002B4B029311F8103C0193012300931423B2
:102C4000FF223048FFF736FFB6E72F49244B0293A7
:102C500011F8113C0193012300931423FF222B4808
:102C6000FFF728FFA8E72A491D4B029311F8123CF1
:102C70000193012300930023FF222648FFF71AFF48
:102C80009AE72549164B029311F8133C019301234F
:102C900000930023FF222148FFF70CFF8CE7204917
:102CA0000F4B029311F8143C01930123009300236E
:102CB000FF221C48FFF7FEFE7EE70920FFF7F0FE2B
:102CC0007AE70A20FFF7ECFE76E7034B07229A72B9
:102CD0000022DA7270E700BF2C06002042060020B6
:102CE00010000020D074000843060020DC740008A7
:102CF00044060020E874000845060020F47400082B
:102D00004606002000750008470600200C750008E4
:102D100048060020147500084906002020750008A8
:102D20004A06002028750008074B092283F8662010
:102D3000072283F86820042283F869200D2183F894
:102D40006A1083F86B2070476405002008B50248BC
:102D5000FFF7A0FE08BD00BF0505002010B5044C1C
:102D60002046FFF797FE2046FFF78EFE10BD00BFFE
:102D7000420600202DE9F041204C237A0133DBB2DA
:102D800023720222E27200222270E1180A731C4DA3
:102D90009A1D05EB820200215160EF6C94F81780B8
:102DA000053305EB83034FF076515868FDF752FD6C
:102DB00006464046FDF7FAFC3146FDF74BFD01465D
:102DC0003846FDF73FFCE864AF6D207EFDF7EEFC72
:102DD0003146FDF73FFD01463846FDF733FCA86557
:102DE000A37A052B03D0062B04D0BDE8F081FFF7B2
:102DF000ADFFFAE7FFF7B2FFF7E700BF2C060020B0
:102E0000640500202DE9F0411A4D2B7A013BDBB21D
:102E10002B720222EA7200222A70174CE76C95F896
:102E200017809A1D04EB8202073304EB8303596871
:102E30005068FDF705FC4FF07651FDF70BFDFDF7EF
:102E4000CFFE80EAE076A6EBE07606FB08F0FDF721
:102E5000ADFC3946FDF7F6FBE064A76D287E06FB66
:102E600000F0FDF7A3FC3946FDF7ECFBA065BDE8DB
:102E7000F08100BF2C0600206405002010B52D4C09
:102E8000207F01F003F9637A013B032B47D8DFE889
:102E900003F01222344401339BB2264A52889A42EC
:102EA00042D913F0010FF6D0224A5168CA5C02F0F1
:102EB000AA02CA54EFE70023EFE701339BB21D4A91
:102EC00052889A4230D913F0010FF6D0194A52684D
:102ED0000021D154F1E70023F1E701339BB2154AF9
:102EE00052889A4220D913F0010FF6D1114A516845
:102EF000CA5C02F05502CA54EFE70023EFE7013342
:102F00009BB20C4A52889A420ED913F0010FF6D1A7
:102F1000084A52680021D154F1E70023F1E7054B3C
:102F20000322DA7200225A72024A537A0133537230
:102F300010BD00BF2C060020F8B5044617460568F2
:102F40000E6831462846FDF719FE50B9314628462D
:102F5000FDF776FB20F000400D49FDF719FE08B1A2
:102F60002660F8BD29463046FDF76AFB064638461E
:102F7000FDF71CFC0749FDF721FD01463046FDF732
:102F80001DFD01462846FDF75DFB2060E9E700BF17
:102F90009A99193E0000204108B5084B1B6803446C
:102FA000074AB2F9061092880C3213F8013C92B22B
:102FB00089B20448FEF726FF08BD00BF5405002073
:102FC000640500205006002000B583B0084BB3F91B
:102FD00006109A880232002301930C23009392B2C8
:102FE00089B20448FEF79CF903B05DF804FB00BF0A
:102FF000640500205006002000B583B0074BD98837
:103000009A88053203310623009392B289B20448AC
:10301000FEF79CF803B05DF804FB00BF64050020D8
:10302000500600202DE9F04182B006460D46A14B26
:103030001B78002B40D09F4B5B78002B62D19D4FBB
:103040009D4CBA7E2146201FFFF776FFBA7E04F121
:103050000801201DFFF770FF397A06310C3C04EBA4
:103060008101BA7E043104F11800FFF765FF04F115
:103070004C08BA7E414604F14800FFF75DFFBA7E76
:1030800004F144014046FFF757FF04F15808BA7EA7
:10309000414604F15400FFF74FFFBA7E04F150019E
:1030A0004046FFF749FFBA7E04F1600104F15C007D
:1030B000FFF742FF002493E07E4A01231370537010
:1030C000137A1A44107B7D4C20704FF04342A2606B
:1030D000063304EB83035F680001FDF767FB0146DD
:1030E0003846FDF7ADFA206160614FF083432365F8
:1030F000734C74492046FEF7C5FE02212046FEF7B8
:1031000099FF98E76B4C00236370237A23441B7B61
:1031100055F823106A48FEF7C3FE684F0830FDF7E4
:1031200045FB7864D7F84C80E07DFDF73FFB4146D6
:10313000FDF788FAF864237A1C4494F80C80BB19D4
:1031400093F864000138FDF731FB01464FF08640EB
:10315000FDF734FC04464046FDF728FB2146FDF709
:1031600079FBFDF739F902F003FAFDF715FA386635
:1031700065E7524FD7F808803878001B0028B8BFA1
:1031800040420130FDF712FB4146FDF763FBFDF7BE
:1031900027FD7880494FD7F810802001FDF706FB06
:1031A0004146FDF74FFAFDF71BFD00B2B880798864
:1031B00001F16403FB8080B200F10C02043155F888
:1031C000243092B289B23E48FEF71CFE55F82430F6
:1031D0001B783D2B2DD07E2B1BD02B2B1DD00134EB
:1031E000364B334493F86430A3422CDD314BDB7F04
:1031F000002BBED0012BCDD1304FD7F80880601CFA
:10320000FDF7D4FA4146FDF725FBFDF7E9FC788090
:10321000C0E72046FFF7C0FEE1E7FFF7D5FE2A4BE7
:103220005B68234413F8013C012BD8D1FFF7E4FE7F
:10323000D5E7FFF7C9FE244BDB681B78A342CED14C
:10324000FFF7DAFECBE71D4C1D4FE06DFDF7EEFCFE
:1032500080B20090032300227D213846FDF776FFDF
:10326000A569D4F854804FF083414046FDF7E8F952
:103270004FF07C51FDF7EEFA01462846FDF7E0F9E4
:103280000646A06CFDF7D2FC85B23046FDF7CEFCB9
:1032900084B2002601964046FDF7C8FC80B200903B
:1032A0002B46224631463846FDF7BFFF02B0BDE847
:1032B000F08100BF2C06002070050020640500206E
:1032C0005006002014660008540500202DE9F04344
:1032D00083B0A34B93F82030002B00F0BD80A04BAF
:1032E00093F821309BB19E4B00219963D9624FF036
:1032F00086425A63986AFDF741FC40B1984BD97EEB
:10330000984A9172002283F8202083F82120944B60
:1033100093F82230E3B1924C002384F822306369A1
:103320001878667E801BFDF741FA0546207E801BDB
:10333000FDF73CFA01462846FDF740FB05468A4961
:10334000606BFDF77DF901462846FDF783FAA0641E
:10335000844C864DE27E2946281FFFF7EDFDE27E74
:1033600005F10801281DFFF7E7FD05F11406E27ECF
:10337000314605F11000FFF7DFFDE27E05F10C019B
:103380003046FFF7D9FDE27E05F11C0105F118007A
:10339000FFF7D2FDA5F12C0455F8101C15F8110CFF
:1033A000FFF740FE69684FF08640FDF749F94FF09E
:1033B0007C51FDF74FFA45F8080C6D4D0021284669
:1033C000FEF738FE666AA76AD4F83C90206BFDF7DA
:1033D0002DFC1FFA80F83846FDF728FC87B23046EE
:1033E000FDF724FC86B24846FDF720FC80B2009031
:1033F00043463A4631462846FDF7A8FE02212846B4
:10340000FEF718FE666AA76AD4F83C90206BFDF7B9
:103410000DFC1FFA80F83846FDF708FC87B23046ED
:10342000FDF704FC86B24846FDF700FC80B2009030
:1034300043463A4631462846FDF7ADFE4D49E06B1E
:10344000FDF7C4FB40BB4C494548FDF7E5FC0028AF
:103450007FD003B0BDE8F083414C012384F82030D5
:1034600084F822300025A562444BE3624FF0864386
:103470002363434B6363434EA663E563394B587E36
:10348000FDF794F93146FDF7DDF8206465643E49A7
:103490003748FEF7F7FC22E763691F783B49606A0B
:1034A000FDF7D0F805463A49A06AFDF7CBF84FF092
:1034B0008241FDF7C7F8FDF7B9FB86B22846FDF754
:1034C000B5FB2B4D3B46324681B22846FEF79AFCAF
:1034D0002F49606AFDF7B6F807462D49A06AFDF747
:1034E000B1F84FF08241FDF7ADF8FDF79FFB86B2D2
:1034F0003846FDF79BFB2346324681B22846FEF74D
:1035000081FC2349606AFDF79DF80746E16BA06ADC
:10351000FDF798F81E49FDF793F81E49FDF790F85E
:103520004FF07E51FDF78CF88046606CFDF77EFB16
:1035300086B24046FDF77AFB84B23846FDF776FB4B
:10354000032300933346224681B22846FDF7FEFD51
:1035500079E7044B997D0648FFF794F879E700BFB7
:10356000080500202C060020000020413405002022
:103570005006002000009041D0740008000048422E
:103580000000B4420000D8411466000800008642E2
:103590000000A040000040402DE9F04182B04D4BBA
:1035A0001B78002B74D04B4B5B7813B3494B002234
:1035B0005A70494B59681868FDF7E0FA48B9464C0B
:1035C000A56994F83100FDF7F1F82946FDF73AF8BE
:1035D000A061414BD9689868FDF7D0FA48B93E4CD4
:1035E000656A94F83200FDF7E1F82946FDF72AF8FC
:1035F0006062394C94F83320211D2046FFF79CFC73
:1036000094F8332004F10C0104F10800FFF794FC56
:1036100004F1180594F83320294604F11400FFF74B
:103620008BFC94F8332004F110012846FFF784FC4A
:1036300004F1240594F83320294604F12000FFF713
:103640007BFC94F8332004F11C012846FFF774FC3E
:103650002068FDF7C5FA05B2A068FDF7C1FA06B209
:10366000D4F820806069FDF7E1FA87B2B6B2ADB256
:10367000022301934046FDF7D9FA80B200903B4601
:10368000324629461548FDF7D0FD02B0BDE8F0816D
:103690000125104B1D70104C114B2360A3600023BB
:1036A0006360E360A66994F83100FDF77FF8314666
:1036B000FCF7C8FFA061666A94F83200FDF776F85F
:1036C0003146FCF7BFFF606229460448FEF7B2FCB2
:1036D00069E700BF2C060020D4040020500600201B
:1036E0000000A0C12DE9F041384B01225A70384B3F
:1036F0001B781BB1934232D0BDE8F081334B1D7A69
:103700002B441C7B002CF7D0AA1D324B03EB820309
:103710005E6800213046FDF731FAA8B12D4E4FF01A
:1037200083417069FCF78EFF70612A4FD7F858808B
:10373000264E307EFDF73AF84146FCF783FFB86528
:103740002E44013C3473D7E7AB1D224F07EB8307B0
:103750004FF083413046FCF773FF7860E5E71B4B81
:103760001D7A5A19147B9A7A1A4B134493F86430D1
:10377000013B9C42C0D0AA1D164B03EB82035E683E
:1037800015493046FDF7FAF9A8B1124E4FF08341C2
:103790007069FCF755FF70610E4FD7F858800B4EDB
:1037A000307EFDF703F84146FCF74CFFB8652E4428
:1037B00001343473A0E7AB1D064F07EB83074FF0CE
:1037C00083413046FCF73EFF7860E5E72C06002099
:1037D000C4040020640500200000E04210B50C463F
:1037E00001460E4B987AFFF71DFC0D4B9B789BB161
:1037F0000B4B00229A701B78022B0CD004D8012BA3
:103800000AD8FFF76FFF07E0032B05D1034B1A7AA5
:10381000134400221A73A04710BD00BF2C060020DD
:10382000C404002010B5FFF751FD1D4B9B7853B326
:103830001C4BDC6A2146986AFDF7A0F918B30021F9
:103840002046FDF79BF9F0B9154B00229A70154AF6
:10385000012182F822101B788B4215D00BD893B926
:10386000104A51690B78527E93420CD90D4A927ED0
:103870009B1A0B7007E0023BDBB2012B03D8094B0C
:10388000012283F8212010BD064A51690B78127E6F
:103890009342F8D2034A927E13440B70F3E700BFC1
:1038A000C40400200805002008B5134B1B785BB149
:1038B000FFF7A6F8114B9B782BB1104B00229A70A2
:1038C0001B78032B07D008BD01210B4B19700C4846
:1038D000FEF7D1FEECE7084B02229A720021D97262
:1038E000084B00229A619A64DA645A659A65DA652F
:1038F0000348FEF7C0FEE6E72C060020C4040020C3
:10390000500600206405002038B5FFF745FEFFF79C
:1039100077F8234B9B789BB3214B00229A70214A66
:10392000012151701B788B422BD00ED8B3B91E4A9F
:1039300092F92830013B5BB282F82830002B0DDA77
:103940001346032283F8282008E0023BDBB2012B58
:1039500004D8144B02229A720122DA72124C94F9A2
:10396000285005F1140304EB43035878FCF71AFFC1
:10397000606004EB450595F82A00FCF713FFE06052
:1039800038BD094A92F9283001335BB282F82830F9
:10399000032BE3DD1346002283F82820DEE700BF77
:1039A000C40400202C060020D404002008B52148BF
:1039B000FDF777FD204BDB7A032B05D8DFE803F01A
:1039C0000205080BFFF7D6F908BDFFF71BFAFBE766
:1039D000FFF754FAF8E71748FDF756FD164B9B7AA8
:1039E000072BF1D8DFE803F004070A0F12171C2198
:1039F000FFF718FFE8E7FFF757FFE5E70F49104823
:103A0000FFF7ECFEE0E7FFF77FFFDDE70D490E482B
:103A1000FFF7E4FED8E70D490D48FFF7DFFED3E7D7
:103A20000C490D48FFF7DAFECEE70C490C48FFF7CA
:103A3000D5FEC9E7500600202C0600202D290008DD
:103A4000700000207929000854000020F12A0008A5
:103A5000440000208D2B000810000020A52900083C
:103A60000000002038B5084D084CA97D2046FEF71F
:103A700009FE636B6B6094F838302268127C02FB9D
:103A800003F3DB006B8038BD2C06002050060020BD
:103A900008B54FF6FF710120FEF792FF08BD000048
:103AA00008B5292903D0492905D0012008BD1046B1
:103AB00000F0ECFAF9E70421014800F0FCFDF4E71E
:103AC0000008014038B50446A1F1140CBCF10C0FFC
:103AD00008D8DFE80CF0360707091A280707070798
:103AE00007071400002038BD1946174801F0CEF929
:103AF000154BDB8E9BB2002BFAD10120F3E710218E
:103B0000124800F0D8FD0120EDE703681A7849213A
:103B1000FEF7C6FD65692268002392782C212046B5
:103B2000A8470120DFE702680023D2782C214569ED
:103B3000A84723685A7849212046FEF7B1FD0120A5
:103B4000D1E70120CFE700BF28070020000801408F
:103B500000B583B08DF8070001290DD00022102197
:103B6000084800F0A8FD01220DF10701064801F008
:103B70008DF903B05DF804FB01221021014800F02B
:103B80009AFDF0E7000801402807002038B500251D
:103B90000AE001210020FFF7DBFF0134E4B214F05A
:103BA000800FF6D00135EDB2072D0FD8A5F15000EA
:103BB0000021C0B2FFF7CCFF00210220FFF7C8FFB1
:103BC00000211020FFF7C4FF0024E8E738BD10B53E
:103BD0000446A1F150000021C0B2FFF7B9FF023442
:103BE000C4F30310002140F01000FFF7B1FF0021E3
:103BF00004F00F00FFF7ACFF10BD08B500218D20C9
:103C0000FFF7A6FF00211420FFF7A2FF0021AF203D
:103C1000FFF79EFF08BD000010B5464C01220821A9
:103C2000204600F048FD642000F030FA0022082110
:103C3000204600F040FD642000F028FA012208210F
:103C4000204600F038FD0021AE20FFF781FF002163
:103C50002020FFF77DFF00211020FFF779FF0021D2
:103C6000B020FFF775FF0021C820FFF771FF00218A
:103C70000846FFF76DFF00211020FFF769FF0021C4
:103C80004020FFF765FFCF218120FFF761FF002172
:103C90007F20FFF75DFF0021A120FFF759FF0021E2
:103CA000A620FFF755FF0021A820FFF751FF0021B4
:103CB0003F20FFF74DFF0021A420FFF749FF00211F
:103CC000D320FFF745FF00210846FFF741FF002101
:103CD000D520FFF73DFF0021F020FFF739FF00213D
:103CE000D920FFF735FF00212220FFF731FF002107
:103CF000DA20FFF72DFF00211220FFF729FF002116
:103D0000DB20FFF725FF00212020FFF721FF002106
:103D10008D20FFF71DFF00211420FFF719FF002160
:103D2000AF20FFF715FFFFF731FF00210846FFF72F
:103D30004EFF10BD0008014000B583B00190094B53
:103D4000094A0A49FDF740FD01A8FEF78DFC002154
:103D500001A8FEF790FC01A8FDF796FB03B05DF803
:103D600004FB00BFA13A0008C53A00083C740008F3
:103D700008B50E480E4B03604FF482734360002376
:103D80008360C36002220261012242614FF400722B
:103D90008261C3610362436283620A23C36201F0EA
:103DA00019F800B908BDFEF779FDFBE728070020E8
:103DB0000038004010B586B00023029303930493AB
:103DC00005930268214B9A4201D006B010BD04460B
:103DD00003F5EC33DA6942F48042DA61DA6902F41D
:103DE00080420092009A9A6942F008029A619B69A7
:103DF00003F008030193019B4FF420430293022335
:103E000003930323059302A9114800F03FFB1148D7
:103E1000114B036010234360002383608022C26043
:103E2000036143618361C36100F0D2F958B9094B62
:103E3000A3645C6200221146242000F081F9242052
:103E400000F08EF9C1E7FEF729FDF0E700380040E9
:103E5000000C0140E40600205800024082B00E4BE6
:103E60009A6942F001029A619A6902F00102009295
:103E7000009ADA6942F08052DA61DB6903F080531C
:103E80000193019B054A536823F0E06343F00073FC
:103E9000536002B0704700BF0010024000000140B4
:103EA000FEE7FEE7FEE7FEE7FEE770477047704774
:103EB00008B5074B1B682BB1013B054A136000F0A6
:103EC000D3F808BD012BFAD8FEF716FCF7E700BFC0
:103ED000C004002008B5024800F036FA08BD00BF53
:103EE000E406002008B5024801F092F808BD00BFC2
:103EF00028070020704700000268094B9A4200D052
:103F0000704782B003F50233DA6942F00402DA61E5
:103F1000DB6903F004030193019B02B0704700BF0B
:103F20000008004000B587B0002302930393049378
:103F3000059302680D4B9A4202D007B05DF804FB6E
:103F400003F502339A6942F008029A619B6903F013
:103F500008030193019B4FF48073029302230393A0
:103F6000059302A9024800F091FAE6E70008004034
:103F7000000C014000B58BB0002308930993019316
:103F80000293039304930593069307931848194AE1
:103F9000026047224260836040F2F312C260036114
:103FA000836101F073F9C8B900230893099308A944
:103FB0000F4801F07FFAA0B9602301930023029318
:103FC00003930593082201A9094801F0B9F958B9EA
:103FD0000748FFF7A7FF0BB05DF804FBFEF75EFC98
:103FE000E2E7FEF75BFCE7E7FEF758FCF0E700BF0F
:103FF000800700200008004010B504460E4B1A78D8
:104000004FF47A73B3FBF2F30C4A1068B0FBF3F091
:1040100000F0B4F868B90F2C01D901200AE00022A1
:1040200021464FF0FF3000F08BF8054B1C6000205C
:1040300000E0012010BD00BF980000209400002087
:104040009C00002008B5074A136843F01003136072
:10405000032000F063F80F20FFF7CEFFFFF7FEFE0E
:10406000002008BD00200240034A1168034B1B7862
:104070000B441360704700BFC80700209800002061
:10408000014B1868704700BFC807002038B50446C8
:10409000FFF7F6FF0546B4F1FF3F02D0044B1B7853
:1040A0001C44FFF7EDFF401BA042FAD338BD00BF10
:1040B00098000020002808DB0901C9B200F1604027
:1040C00000F5614080F80013704700F00F0009010F
:1040D000C9B2014B1954704714ED00E000B500F06F
:1040E0000700C0F1070CBCF1040F28BF4FF0040C0F
:1040F000031D062B0FD9C31E4FF0FF3E0EFA0CF026
:1041000021EA000199400EFA03FE22EA0E0241EA7A
:1041100002005DF804FB0023EEE70000074AD368C5
:1041200023F4E0631B041B0C000200F4E060034373
:1041300043F0BF6343F40033D360704700ED00E009
:1041400010B50446054BD868C0F30220FFF7C6FF40
:1041500001462046FFF7AEFF10BD00BF00ED00E0B6
:10416000002807DB00F01F02400901239340024AA8
:1041700042F82030704700BF00E100E00138B0F1A4
:10418000807F0BD24FF0E0235861054AF02182F87E
:1041900023100020986107221A61704701207047A0
:1041A00000ED00E030B40124056CAC40C56B6C60E0
:1041B000046863604368102B05D003689960036846
:1041C000DA6030BC704703689A600368D960F8E72A
:1041D00060B310B402460168154B0B441548A0FBB0
:1041E00003031B099B001364134BD363022382F860
:1041F0002130086820F47F5020F030005368946824
:104200002343D468234314692343546923439469A3
:104210002343D469234303430B60002090630123AD
:1042200082F8213082F8200010BC704701207047CE
:10423000F8FFFDBFCDCCCCCC0000024038B5044621
:1042400090F82000012831D0012084F8200094F853
:104250002100012804D0002384F82030022038BD3A
:10426000022084F821000020A0632568286820F03F
:10427000010028602046FFF795FFE36A5BB12268E2
:10428000136843F00E0313602268136843F00103C0
:1042900013600020E3E72268136823F0040313602F
:1042A0002268136843F00A031360EDE70220D6E7A3
:1042B00008B590F82130022B03D00423836301203A
:1042C00008BD0268136823F00E03136002681368C8
:1042D00023F0010313600368194A934214D0143287
:1042E00093421FD0143293421ED0143293421ED0F8
:1042F000143293421ED01432934202D04FF0807297
:1043000003E04FF4801200E001220E4B5A600123BB
:1043100080F82130002380F82030436B6BB1984740
:104320000020CDE71022F0E74FF48072EDE74FF464
:104330008052EAE74FF48032E7E70020C0E700BF91
:10434000080002400000024038B5C36B1A680468D8
:104350002568016C04238B40134235D015F0040FFF
:1043600032D0236813F0200F03D1236823F0040315
:1043700023600368434A934214D01432934218D006
:104380001432934217D01432934217D0143293420E
:1043900017D01432934202D04FF0806203E04FF402
:1043A000800200E00422384B5A60C36A03B1984788
:1043B00038BD4022F7E74FF48062F4E74FF48042C3
:1043C000F1E74FF48022EEE702238B4013423CD00A
:1043D00015F0020F39D0236813F0200F06D123689F
:1043E00023F00A032360012380F821300368254A63
:1043F000934214D0143293421CD0143293421BD0F7
:10440000143293421BD0143293421BD01432934285
:1044100002D04FF0007203E04FF4001200E00222DD
:10442000194B5A60002380F82030836A002BBFD0DC
:104430009847BDE72022F3E74FF40072F0E74FF40E
:104440000052EDE74FF40032EAE708238B401342B5
:10445000AED015F0080FABD0236823F00E03236015
:10446000026CC16B012303FA02F24A60836380F895
:104470002130002380F82030036B002B98D0984720
:1044800096E700BF080002400000024070B582B00D
:104490000024A446A2E07E4DAB4210D007D97D4D4A
:1044A000AB420CD005F58035AB4208D013E0A5F542
:1044B0008015AB4203D005F57025AB4207D18B6860
:1044C000002B55D0012B4ED04261082403E0A5F506
:1044D0008015AB42F3D0BEF1FF0F4BD806464FEA32
:1044E0008C0233680F25954023EA050304FA02F293
:1044F000134333604B6813F0805F6DD0664B9A694D
:1045000042F001029A619B6903F001030193019B50
:104510004FEA9C02951C614B53F825600CF0030593
:10452000AD000F23AB4026EA03065D4B984228D02E
:1045300003F58063984200F08D8003F58063984214
:1045400000F08A8003F58063984218D0042319E0B4
:10455000CC68C0E7CC680434BDE7CC680834BAE75F
:10456000CC680C34B7E702610824B4E70024B2E752
:104570000424B0E7061DACF108029200B1E7032362
:1045800000E00023AB4033430232444D45F8223073
:104590004B6813F4803F61D0424A136843EA0E032C
:1045A00013604B6813F4003F5ED03E4A536843EA01
:1045B0000E0353604B6813F4801F5BD0394A936835
:1045C00043EA0E0393604B6813F4001F58D0354A3A
:1045D000D36843EA0E03D3600CF1010C0B6833FA85
:1045E0000CF253D0012202FA0CF203EA020E32EA74
:1045F0000303F1D14B68122B3FF64DAF122B3FF660
:104600006AAF01A555F823F0BF44000851450008E2
:104610005B4500086D450008D7440008D7440008F2
:10462000D7440008D7440008D7440008D7440008FE
:10463000D7440008D7440008D7440008D7440008EE
:10464000D7440008D7440008D7440008554500085F
:1046500061450008012395E7022393E7114A136897
:1046600023EA0E0313609CE70E4A536823EA0E0305
:1046700053609FE70B4A936823EA0E039360A2E717
:10468000084AD36823EA0E03D360A5E702B070BDE1
:104690000000221000003110001002400000014014
:1046A00000080140000401408368194201D0012044
:1046B0007047002070470AB1016170470904016129
:1046C0007047000082B0084B1B68084AA2FB032316
:1046D0005B0A00FB03F3019300BF019B5A1E01928A
:1046E000002BF9D102B0704794000020D34D621026
:1046F000002800F0F18170B582B00446036813F021
:10470000010F2CD0994B5B6803F00C03042B1DD0D8
:10471000964B5B6803F00C03082B12D06368B3F56B
:10472000803F41D0002B55D103F1804303F5043382
:104730001A6822F480321A601A6822F480221A6001
:1047400037E08A4B5B6813F4803FE7D0874B1B68E8
:1047500013F4003F03D06368002B00F0BF8123688F
:1047600013F0020F75D0814B5B6813F00C0F5FD014
:104770007E4B5B6803F00C03082B54D02369002B9D
:1047800000F08A807A4B01221A60FFF779FC054617
:10479000764B1B6813F0020F75D1FFF771FC401BBD
:1047A0000228F5D903209EE1704A136843F4803350
:1047B0001360636843B3FFF763FC05466B4B1B68EC
:1047C00013F4003FCBD1FFF75BFC401B6428F5D905
:1047D000032088E1B3F5A02F09D0644B1A6822F4B6
:1047E00080321A601A6822F480221A60E1E703F12D
:1047F0008043A3F53C331A6842F480221A601A6899
:1048000042F480321A60D4E7FFF73AFC0546574B72
:104810001B6813F4003FA2D0FFF732FC401B642852
:10482000F5D903205FE1514B5B6813F4803FA5D1BC
:104830004E4B1B6813F0020F03D02369012B40F08D
:104840004F814A4A136823F0F803616943EAC103C0
:104850001360236813F0080F33D0A369002B5CD0DA
:10486000434B0122C3F88024FFF70AFC05463F4B67
:104870005B6A13F0020F21D1FFF702FC401B0228F4
:10488000F5D903202FE1394A136823F0F803616951
:1048900043EAC1031360DCE7354B00221A60FFF7DF
:1048A000EFFB0546314B1B6813F0020FD1D0FFF729
:1048B000E7FB401B0228F5D9032014E10120FFF794
:1048C00001FF236813F0040F00F09680274BDB698B
:1048D00013F0805F34D1254BDA6942F08052DA61FF
:1048E000DB6903F080530193019B0125214B1B6879
:1048F00013F4807F26D0E368012B3DD0002B53D1E9
:1049000003F1804303F504331A6A22F001021A62AC
:104910001A6A22F004021A6233E0154B0022C3F82F
:104920008024FFF7ADFB0546104B5B6A13F0020FC6
:10493000C7D0FFF7A5FB401B0228F5D90320D2E022
:104940000025D3E70B4A136843F480731360FFF725
:1049500097FB0646074B1B6813F4807FCBD1FFF70C
:104960008FFB801B6428F5D90320BCE000100240B7
:1049700000004242007000405F4A136A43F00103A6
:104980001362E36833B3FFF77BFB06465A4B1B6A9F
:1049900013F0020F2FD1FFF773FB801B41F2883316
:1049A0009842F3D903209EE0052B09D0524B1A6A96
:1049B00022F001021A621A6A22F004021A62E0E787
:1049C0004D4B1A6A42F004021A621A6A42F001025E
:1049D0001A62D6E7FFF754FB0646474B1B6A13F0F3
:1049E000020F08D0FFF74CFB801B41F2883398423E
:1049F000F3D9032077E0E5B9E369002B72D03E4A92
:104A0000526802F00C02082A56D0022B17D03B4BFA
:104A100000221A66FFF734FB0446374B1B6813F07D
:104A2000007F47D0FFF72CFB001B0228F5D903209D
:104A300059E0314AD36923F08053D361DCE72F4B2F
:104A400000221A66FFF71CFB05462B4B1B6813F070
:104A5000007F06D0FFF714FB401B0228F5D9032086
:104A600041E0236AB3F5803F1AD023494B6823F411
:104A70007413226A606A024313434B601F4B012286
:104A80001A66FFF7FDFA04461B4B1B6813F0007F04
:104A90000ED1FFF7F5FA001B0228F5D9032022E01A
:104AA000154A536823F40033A1680B435360DCE7D5
:104AB000002018E0002016E0012B16D00E4B5B689A
:104AC00003F48031226A914211D103F47013626AB7
:104AD00093420ED1002006E001207047012002E041
:104AE000012000E0002002B070BD0120FBE70120A2
:104AF000F9E70120F7E700BF001002400000424242
:104B000086B0194B0FCB0DF1180C0CE90F0040F2D9
:104B10000123ADF80430154B5A6802F00C03042B46
:104B20001CD0082B1CD1C2F3834318336B4413F8F9
:104B3000100C12F4803F0DD00C4B5B68C3F3404364
:104B400018336B4413F8143C094A02FB00F0B0FB25
:104B5000F3F006E0074B03FB00F002E0044800E03E
:104B6000054806B0704700BF2477000800100240D7
:104B70000024F40000093D0000127A00002800F033
:104B8000A08070B50D460446524B1B6803F0070326
:104B90008B420BD24F4A136823F007030B43136079
:104BA000136803F007038B4240F08D80236813F0F5
:104BB000020F17D013F0040F04D0474A536843F490
:104BC000E0635360236813F0080F04D0424A53682F
:104BD00043F460535360404A536823F0F003A168E4
:104BE0000B435360236813F0010F31D06368012B2E
:104BF00020D0022B25D0384A126812F0020F64D060
:104C000035494A6822F0030213434B60FFF738FA34
:104C10000646314B5B6803F00C036268B3EB820F0E
:104C200016D0FFF72DFA801B41F288339842F0D955
:104C3000032045E0284A126812F4003FE0D1012029
:104C40003EE0254A126812F0007FD9D1012037E0FA
:104C5000204B1B6803F00703AB420AD91D4A1368B7
:104C600023F007032B431360136803F00703AB42E1
:104C70002DD1236813F0040F06D0174A536823F48C
:104C8000E063E1680B435360236813F0080F07D01B
:104C9000114A536823F46053216943EAC103536006
:104CA000FFF72EFF0C4B5B68C3F303130B4AD35C77
:104CB000D8400B4B18600B4B1868FFF79DF900208C
:104CC00070BD012070470120FAE70120F8E70120BC
:104CD000F6E700BF002002400010024014770008F1
:104CE000940000209C0000202DE9F04782B005468A
:104CF000884617461E46FFF7C3F90A9B1B1A03EBAB
:104D00000609FFF7BDF98246284B1B68C3F3CB3376
:104D100009FB03F301932B689C6838EA04040CBF79
:104D200001230023BB423DD0B6F1FF3FF3D0FFF794
:104D3000A7F9A0EB0A00484507D2019A02B14A46FA
:104D4000019B013B01939146E5E72A68536823F0F4
:104D5000E00353606B68B3F5827F0BD0AB6AB3F5A9
:104D6000005F14D0012385F85130002385F85030BE
:104D7000032018E0AB68B3F5004F02D0B3F5806FA5
:104D8000ECD12A68136823F040031360E6E72A6831
:104D9000136823F4005313602A68136843F4005324
:104DA0001360DFE7002002B0BDE8F0879400002028
:104DB00010B582B004460B46009200228021FFF716
:104DC00093FF08B902B010BD636D43F02003636523
:104DD0000320F7E7002856D010B50446436A33B9DC
:104DE0004368B3F5827F05D00023C36102E000234E
:104DF000036143610023A36294F85130002B3CD03F
:104E0000022384F851302268136823F040031360B2
:104E1000636803F48273A26802F404421343E268F5
:104E200002F400621343226902F002021343626932
:104E300002F001021343A26902F400721343E26913
:104E400002F038021343226A02F080021343A26A7E
:104E500002F40052216813430B60638B226803F055
:104E6000040353602268D36923F40063D3610020F4
:104E70006065012384F8513010BD84F8503020461D
:104E8000FEF798FFBCE701207047000038B590F8A6
:104E90005030012B61D00446012380F8503090F847
:104EA0005150EDB29D4252D1002951D0002A4FD02D
:104EB000032380F851300023436501638286C28654
:104EC0008363436403648387C3878368B3F5004FB8
:104ED0002AD0A36C224ADA62A36C224A9A62A36C9B
:104EE000214A1A63A36C00225A632268E38E9BB2A4
:104EF0000C32216BA06CFFF7A1F90146F8B92368C9
:104F00001A6812F0400F03D11A6842F040021A608A
:104F10002268536843F0200353602268536843F0CB
:104F2000020353600D4613E00268136823F0400348
:104F300013600268136843F480431360C9E7636D2C
:104F400043F010036365012384F8513000E002252B
:104F5000002384F85030284638BD0225FBE700BF07
:104F6000714F00089F4F00087D4F00087047704741
:104F700008B5406AFFF7FBFF08BD704708B5406AF7
:104F80000268536823F003035360436D43F010033A
:104F90004365012380F85130FFF7EFFF08BD30B5BE
:104FA00083B00546446AFFF76BF82B681B6813F063
:104FB000200F23D1024621684B6823F020034B6069
:104FC00021684B6823F002034B6064212046FFF701
:104FD000EFFE18B1636D43F020036365A36833B936
:104FE00001932368DA6801929B680193019B002377
:104FF000E386012384F85130636D23B92046FFF71F
:10500000B5FF03B030BD2046FFF7B7FFF9E700005A
:1050100010B584B0044602685168936803F04100FB
:1050200001285AD013F0020F02D011F0800F5BD18B
:1050300013F0600F5BD011F0200F58D013F0400F29
:105040000FD094F85100C0B2032852D0606D40F0E8
:105050000400606500200190D06801909068019084
:10506000019813F0200F0CD0636D43F001036365CA
:105070000023039393680393136823F040031360A2
:10508000039B636D002B32D02268536823F0E0034A
:105090005360012384F8513011F0030F31D022689E
:1050A000536823F003035360E36C4BB1174A5A6310
:1050B000E06CFFF7FDF818B1636D43F040036365E2
:1050C000A36CA3B1114A5A63A06CFFF7F1F870B159
:1050D000636D43F04003636509E011F0400FA1D018
:1050E000236C2046984702E0636C2046984704B042
:1050F00010BD00230293D368029393680293029B2E
:10510000F5E72046FFF739FFF1E700BF115100082E
:1051100008B5406A0023C387C386FFF72EFF08BD8A
:1051200030B4036A23F001030362026A45688369AD
:1051300023F073030C681C4322F002028B681343B4
:105140000B4A904206D0456084614A68426303621C
:1051500030BC704723F00803CA681A4322F00403E6
:1051600025F440754A692A438D691543EBE700BF72
:10517000002C014030B4036A23F480730362036A95
:105180004468C26922F073020D68154323F400736A
:105190008A6843EA02230D4A904206D04460C56102
:1051A0004A68C263036230BC704723F40063CA6874
:1051B00043EA022323F4806324F440544A6944EA16
:1051C00002148A6944EA0214E8E700BF002C014097
:1051D00030B4036A23F480530362036A4468C269EB
:1051E00022F4E6420D6842EA052223F400538D685A
:1051F00043EA0533074DA84206D04460C2614A68BD
:105200000264036230BC704724F480444D6944EA70
:105210008514F2E7002C014003681B4A90420AD033
:10522000B0F1804F07D0A2F59432904203D002F53E
:105230008062904203D123F070034A681343124AFC
:1052400090420AD0B0F1804F07D0A2F5943290423C
:1052500003D002F58062904203D123F44073CA6800
:10526000134323F080034A69134303608B68C362CE
:105270000B688362044B984202D00123436170475C
:105280000B690363F9E700BF002C014040B310B580
:10529000044690F83D30F3B1022384F83D302146B6
:1052A00051F8040BFFF7B8FF012384F8463084F867
:1052B0003E3084F83F3084F8403084F8413084F840
:1052C000423084F8433084F8443084F8453084F820
:1052D0003D30002010BD80F83C30FEF70DFEDBE7CE
:1052E0000120704730B4036A23F010030362036A9D
:1052F0004468826922F4E6420D6842EA052223F0FE
:1053000020038D6843EA05130C4DA84206D0446083
:1053100082614A688263036230BC704723F0800375
:10532000CD6843EA051323F0400324F440644D693B
:1053300044EA85048D6944EA8504E8E7002C0140CD
:1053400038B590F83C30012B60D004460D4601235F
:1053500080F83C300C2A1AD8DFE802F00719191936
:105360001D1919193119191944000068FFF7D8FEE1
:105370002268936943F0080393612268936923F0DC
:10538000040393612268936929690B4393610020A8
:1053900084F83C0038BD0068FFF7A4FF22689369D9
:1053A00043F4006393612268936923F480639361FB
:1053B00022689369296943EA01239361E7E700685A
:1053C000FFF7D8FE2268D36943F00803D36122684F
:1053D000D36923F00403D3612268D36929690B439D
:1053E000D361D4E70068FFF7F3FE2268D36943F482
:1053F0000063D3612268D36923F48063D361226898
:10540000D369296943EA0123D361C0E70220C1E7D8
:1054100001F01F014FF0010C0CFA01FC036A23EAB2
:105420000C030362036A8A4013430362704700005F
:1054300038B504460D4600220068FFF7E9FF2368EF
:105440001B4A934214D02368196A41F21112114287
:1054500008D1196A40F24442114203D11A6822F07D
:1054600001021A609DB9012384F83E30002038BD46
:10547000196A41F211121142E5D1196A40F244420F
:105480001142E0D15A6C22F400425A64DBE7042D49
:1054900005D0082D07D0012384F84130E6E7012329
:1054A00084F83F30E2E7012384F84030DEE700BFB4
:1054B000002C014090F83C20012A2CD010B4034667
:1054C000012280F83C20022280F83D2002685068CA
:1054D000946820F0700C086840EA0C0050601A686C
:1054E0000E4882420AD0B2F1804F07D0A0F5943026
:1054F000824203D000F58060824204D124F080040F
:10550000496821439160012283F83D20002083F8FF
:105510003C0010BC70470220704700BF002C0140C7
:105520000C480D490D4A002302E0D458C4500433FE
:10553000C4188C42F9D30A4A0A4C002301E01360D4
:105540000432A242FBD3FEF7D5FC00F061FFFDF769
:10555000DCF9704700000020A400002088780008D3
:10556000A400002064090020FEE700000000000005
:10557000C1F30A5C2DE9F041ACF2FF35132D024670
:105580000B460C46064634DC002D20DBDFF8D880C5
:105590000F4648FA05F801EA080C5CEA000C2DD029
:1055A0002FA3D3E90023FAF7B9FD00220023FAF76D
:1055B000E9FF40B1002C03DD4FF480132B411F4461
:1055C000002627EA080421463046BDE8F08124A3DE
:1055D000D3E90023FAF7A2FD00220023FAF7D2FF55
:1055E0000028F0D0002C35DB344331D000261F4C8E
:1055F000E9E7332D06DDB5F5806F26D01046194654
:10560000BDE8F0814FF0FF37ACF2134C27FA0CF7EE
:105610003842F3D012A3D3E90023FAF77FFD00222A
:105620000023FAF7AFFF0028CDD0002C334609DD68
:10563000142D06D00122C5F13405AA4013449E4220
:1056400000D9013423EA0706BDE7FAF767FDD7E77B
:105650002646B8E700264FF00044B4E7AFF30080D9
:105660009C7500883CE4377EFFFF0F000000F03F90
:1056700003685A004CBF43F0004323F00043184432
:10568000704700BF2DE9F84341B301F1FF380546EB
:10569000164647460024E11901EBD171491005EB8C
:1056A000C1094846FFF7E4FF884503464FEAC102B7
:1056B0000ED002F10800B34228440BD8FFF7D8FF00
:1056C0000138B04201F10104E5D34846BDE8F88352
:1056D000B042FAD98C4201D04F1EDCE74FF00009EE
:1056E0004846BDE8F88300BF012807D0022807D04C
:1056F000044B00280CBF1846002070470248704732
:1057000002487047AD5D0008B55D0008BD5D00084A
:1057100030B5214B044683B08D1E13B3284601A932
:10572000AFF3008088B301992A46FFF7ABFF01462B
:1057300058B3FFF79DFF4B68A064012B28D0002BC6
:1057400020DB081DFFF794FF002323650368E06456
:10575000002B0DDBFFF78CFF03460020236103B015
:1057600030BD0E4B0E491846C91AC9100191DBE72E
:10577000C3F30360FFF7B8FF034630B10020236195
:1057800003B030BD0123081DDFE700230920E5E752
:1057900000230520E2E700BF000000006877000852
:1057A00078780008036810B5DA07044606D49B072A
:1057B00000F1480009D5FBF76DFA2368590709D5B0
:1057C0001A070ED5DB0613D510BDFBF75BFA23686D
:1057D0005907F5D404F1D000FBF764FA23681A07DF
:1057E000F0D404F5A870FBF765FA2368DB06EBD468
:1057F00004F5E870BDE81040FBF7A0BA0346006866
:1058000000B11844704700BF704700BF70B5044630
:105810000E462046316CFFF77BFF054698B9D6F857
:1058200040C03246214601202369C4F814C098477D
:105830000828EED0072806D12846316CFFF7E4FF90
:10584000301DFBF713FAFFDE2DE9F0474FF0000A99
:10585000ADF5727D0DF10C0E01F1040CC768D0F8A6
:10586000188006461446BCE80F00AEE80F00BCE8FE
:105870000F00AEE80F00BCE80F00AEE80F009CE898
:105880000F0002AD8EE80F00C5F800A021E02B6CE0
:105890004FF4F072294673617AA8FBF79BFB3146FF
:1058A000504633697AAA9847889C82466C6433468E
:1058B000324649460120CDE90058B847044630BB7E
:1058C0004FF4F07228467AA9FBF784FBBAF1080F6F
:1058D0001AD13046296CFFF71BFF04F109095FFA62
:1058E00089FA04460028D2D0A96B3346696432464F
:1058F0000120CDE900584AF01001B84738B92046D8
:105900000DF5727DBDE8F087BAF1070F05D00924C7
:1059100020460DF5727DBDE8F0872046296CFFF723
:1059200073FF03A8FBF7A2F9F0B54FF0FF37CB6B7D
:10593000F9B00B6401AC01F1040C0E460546BCE85D
:105940000F000FC4BCE80F000FC4BCE80F000FC469
:105950009CE80F0084E80F00009706E06A4629469D
:105960002B6998470828044608D128461099FFF764
:10597000CFFE0028F2D0092079B0F0BD6846FFF7CD
:1059800011FF062CF7D131462846FFF73FFF00BF35
:1059900010B414468461DC6BC16000221C6419469B
:1059A00010BCFFF751BF00BF70B54369C6680B64F8
:1059B000AEB90A46036904460D46014602209847DF
:1059C000072805D008280ED129462046FFF71EFFDC
:1059D0003046296CFFF718FF281DFBF747F9012215
:1059E000FFF732FFFFDEFFDEC26832B1D1F83CC004
:1059F0000022C1F840C0FFF727BFFFF795BF00BFE7
:105A0000012910D009D883B90F2A0ED800EB8202E1
:105A100052681846009B1A607047033901298CBFF1
:105A2000022001207047084670470220704700BFDF
:105A3000002300B585B00A4603A900911946FFF777
:105A4000DFFF039805B05DF804FB00BF012910D00B
:105A500009D883B90F2A0ED8009900EB8202096891
:105A6000184651607047033901298CBF022001207C
:105A70007047084670470220704700BF002310B5EA
:105A800084B003AC039200940A461946FFF7DEFF88
:105A900004B010BD70B54FF0FF36D36BADF50E7D81
:105AA00013640DF15C0E02F1040C05460C46BCE8D3
:105AB0000F00AEE80F00BCE80F00AEE80F00BCE836
:105AC0000F00AEE80F009CE80F008EE80F0016965E
:105AD00012E00C2116A86A46FFF7D0FF214616A84F
