:020000040800F2
:1000000000500020A9600008294600082B4600087F
:100010002D4600082F460008314600080000000069
:10002000000000000000000000000000334600084F
:100030003546000800000000374600083946000831
:10004000F1600008F1600008F1600008F16000084C
:10005000F1600008F1600008F1600008F16000083C
:10006000F1600008F1600008F1600008F16000082C
:10007000F1600008F1600008F160000879460008AE
:10008000F1600008F1600008F1600008F16000080C
:10009000F1600008F1600008F1600008F1600008FC
:1000A000F1600008F1600008F1600008F1600008EC
:1000B000F1600008F160000889460008F16000085E
:1000C000F1600008F1600008F1600008F1600008CC
:1000D00099460008F1600008F1600008F16000082E
:1000E000F1600008F1600008F16000080000000005
:1000F0000000000000000000000000000000000000
:0C01000000000000000000005FF808F1A3
:1001100081F0004102E000BF83F0004330B54FEAB8
:1001200041044FEA430594EA050F08BF90EA020F25
:100130001FBF54EA000C55EA020C7FEA645C7FEAB8
:10014000655C00F0E2804FEA5454D4EB5555B8BFDB
:100150006D420CDD2C4480EA020281EA030382EA4C
:10016000000083EA010180EA020281EA0303362DDE
:1001700088BF30BD11F0004F4FEA01314FF4801CB1
:100180004CEA113102D0404261EB410113F0004FC3
:100190004FEA03334CEA133302D0524263EB43037A
:1001A00094EA050F00F0A780A4F10104D5F1200E18
:1001B0000DDB02FA0EFC22FA05F2801841F1000173
:1001C00003FA0EF2801843FA05F359410EE0A5F147
:1001D00020050EF1200E012A03FA0EFC28BF4CF078
:1001E000020C43FA05F3C01851EBE37101F000452E
:1001F00007D54FF0000EDCF1000C7EEB00006EEB3B
:100200000101B1F5801F1BD3B1F5001F0CD34908C4
:100210005FEA30004FEA3C0C04F101044FEA44521B
:1002200012F5800F80F09A80BCF1004F08BF5FEAA2
:10023000500C50F1000041EB045141EA050130BD82
:100240005FEA4C0C404141EB0101013C28BFB1F594
:10025000801FE9D291F0000F04BF01460020B1FADF
:1002600081F308BF2033A3F10B03B3F120020CDAB2
:100270000C3208DD02F1140CC2F10C0201FA0CF090
:1002800021FA02F10CE002F11402D8BFC2F1200CF5
:1002900001FA02F120FA0CFCDCBF41EA0C019040AB
:1002A000E41AA2BF01EB0451294330BD6FEA0404F4
:1002B0001F3C1CDA0C340EDC04F11404C4F12002DF
:1002C00020FA04F001FA02F340EA030021FA04F3F1
:1002D00045EA030130BDC4F10C04C4F1200220FA48
:1002E00002F001FA04F340EA0300294630BD21FA86
:1002F00004F0294630BD94F0000F83F4801306BF4C
:1003000081F480110134013D4EE77FEA645C18BF3F
:100310007FEA655C29D094EA050F08BF90EA020FD6
:1003200005D054EA000C04BF1946104630BD91EACE
:10033000030F1EBF0021002030BD5FEA545C05D1D1
:100340004000494128BF41F0004130BD14F5800410
:100350003CBF01F5801130BD01F0004545F0FE4184
:1003600041F470014FF0000030BD7FEA645C1ABFB9
:10037000194610467FEA655C1CBF0B46024650EAF0
:10038000013406BF52EA033591EA030F41F400211C
:1003900030BD00BF90F0000F04BF0021704730B5A2
:1003A0004FF4806404F132044FF000054FF0000177
:1003B00050E700BF90F0000F04BF0021704730B538
:1003C0004FF4806404F1320410F0004548BF40420D
:1003D0004FF000013EE700BF42004FEAE2014FEA62
:1003E00031014FEA02701FBF12F07F4393F07F4F3D
:1003F00081F06051704732F07F4208BF704793F040
:100400007F4F04BF41F40021704730B54FF4607452
:1004100001F0004521F000411CE700BF50EA010255
:1004200008BF704730B54FF000050AE050EA0102FE
:1004300008BF704730B511F0004502D5404261EB6E
:1004400041014FF4806404F132045FEA915C3FF4AF
:10045000D8AE4FF003025FEADC0C18BF03325FEA4C
:10046000DC0C18BF033202EBDC02C2F1200300FAFD
:1004700003FC20FA02F001FA03FE40EA0E0021FA22
:1004800002F11444BDE600BF4FF0FF3C06E000BFA0
:100490004FF0010C02E000BF4FF0010C4DF804CD0D
:1004A0004FEA410C7FEA6C5C4FEA430C18BF7FEACD
:1004B0006C5C1BD001B050EA410C0CBF52EA430CFB
:1004C00091EA030F02BF90EA020F0020704710F17B
:1004D000000F91EA030F58BF994208BF90422CBF0A
:1004E000D8176FEAE37040F0010070474FEA410C03
:1004F0007FEA6C5C02D150EA013C07D14FEA430C21
:100500007FEA6C5CD6D152EA033CD3D05DF8040B91
:10051000704700BF8446104662468C4619466346C3
:1005200000E000BF01B5FFF7B7FF002848BF10F19A
:10053000000F01BD4DF808EDFFF7F4FF0CBF0120DF
:1005400000205DF808FB00BF4DF808EDFFF7EAFF5B
:1005500034BF012000205DF808FB00BF4DF808ED16
:10056000FFF7E0FF94BF012000205DF808FB00BF0B
:100570004DF808EDFFF7CEFF94BF012000205DF895
:1005800008FB00BF4DF808EDFFF7C4FF34BF0120A2
:1005900000205DF808FB00BF4FEA4102B2F1E043E2
:1005A00024BFB3F5001CDCF1FE5C0DD901F0004C5A
:1005B0004FEAC0024CEA5070B2F1004F40EB8300AA
:1005C00008BF20F00100704711F0804F21D113F1D6
:1005D0003872BCBF01F00040704741F480114FEA0F
:1005E0005252C2F11802C2F1200C10FA0CF320FA98
:1005F00002F018BF40F001004FEAC1234FEAD323B5
:1006000003FA0CFC40EA0C0023FA02F34FEA43031E
:10061000CCE77FEA625307D150EA01331EBF4FF0A7
:10062000FE4040F44000704701F0004040F0FE40C2
:1006300040F40000704700BF80F0004002E000BFBF
:1006400081F0004142001FBF5FEA410392EA030FBD
:100650007FEA226C7FEA236C6AD04FEA1262D2EB07
:100660001363C1BFD218414048404140B8BF5B420C
:10067000192B88BF704710F0004F40F4000020F0A5
:100680007F4018BF404211F0004F41F4000121F0BB
:100690007F4118BF494292EA030F3FD0A2F1010205
:1006A00041FA03FC10EB0C00C3F1200301FA03F143
:1006B00000F0004302D5494260EB4000B0F5000F66
:1006C00013D3B0F1807F06D340084FEA310102F125
:1006D0000102FE2A51D2B1F1004F40EBC25008BFD7
:1006E00020F0010040EA03007047490040EB0000A1
:1006F000013A28BFB0F5000FEDD2B0FA80FCACF1A2
:10070000080CB2EB0C0200FA0CF0AABF00EBC250CE
:1007100052421843BCBFD0401843704792F0000FBC
:1007200081F4000106BF80F400000132013BB5E70F
:100730004FEA41037FEA226C18BF7FEA236C21D085
:1007400092EA030F04D092F0000F08BF08467047EA
:1007500090EA010F1CBF0020704712F07F4F04D1B8
:10076000400028BF40F00040704712F100723CBFCB
:1007700000F50000704700F0004343F0FE4040F4F5
:10078000000070477FEA226216BF08467FEA2363B3
:100790000146420206BF5FEA412390EA010F40F49E
:1007A000800070474FF0000304E000BF10F00043EA
:1007B00048BF40425FEA000C08BF704743F09643D1
:1007C00001464FF000001CE050EA010208BF7047EC
:1007D0004FF000030AE000BF50EA010208BF704773
:1007E00011F0004302D5404261EB41015FEA010C88
:1007F00002BF84460146002043F0B64308BFA3F180
:100800008053A3F50003BCFA8CF2083AA3EBC25361
:1008100010DB01FA02FC634400FA02FCC2F1200280
:10082000BCF1004F20FA02F243EB020008BF20F0B7
:100830000100704702F1200201FA02FCC2F120021D
:1008400050EA4C0021FA02F243EB020008BF20EA12
:10085000DC7070474FF0FF0C1CEAD0521EBF1CEA40
:10086000D15392EA0C0F93EA0C0F6FD01A4480EA2E
:10087000010C400218BF5FEA41211ED04FF0006317
:1008800043EA501043EA5111A0FB01310CF0004043
:10089000B1F5000F3EBF490041EAD3715B0040EA69
:1008A000010062F17F02FD2A1DD8B3F1004F40EB39
:1008B000C25008BF20F00100704790F0000F0CF00C
:1008C000004C08BF49024CEA502040EA51207F3AD0
:1008D000C2BFD2F1FF0340EAC250704740F40000AB
:1008E0004FF00003013A5DDC12F1190FDCBF00F09C
:1008F00000407047C2F10002410021FA02F1C2F14A
:10090000200200FA02FC5FEA310040F1000053EAE5
:100910004C0308BF20EADC70704792F0000F00F033
:10092000004C02BF400010F4000F013AF9D040EA39
:100930000C0093F0000F01F0004C02BF490011F4CD
:10094000000F013BF9D041EA0C018FE70CEAD153CB
:1009500092EA0C0F18BF93EA0C0F0AD030F0004C4B
:1009600018BF31F0004CD8D180EA010000F00040FF
:10097000704790F0000F17BF90F0004F084691F0BD
:10098000000F91F0004F14D092EA0C0F01D14202F7
:100990000FD193EA0C0F03D14B0218BF084608D1C0
:1009A00080EA010000F0004040F0FE4040F400000A
:1009B000704740F0FE4040F4400070474FF0FF0C9D
:1009C0001CEAD0521EBF1CEAD15392EA0C0F93EAE4
:1009D0000C0F69D0A2EB030280EA010C49024FEA36
:1009E000402037D04FF0805343EA111143EA1013EF
:1009F0000CF000408B4238BF5B0042F17D024FF4A7
:100A0000000C8B4224BF5B1A40EA0C00B3EB510F81
:100A100024BFA3EB510340EA5C00B3EB910F24BF6A
:100A2000A3EB910340EA9C00B3EBD10F24BFA3EBEF
:100A3000D10340EADC001B0118BF5FEA1C1CE0D1B7
:100A4000FD2A3FF650AF8B4240EBC25008BF20F06A
:100A5000010070470CF0004C4CEA50207F32C2BFBE
:100A6000D2F1FF0340EAC250704740F400004FF05B
:100A70000003013A37E792F0000F00F0004C02BF8C
:100A8000400010F4000F013AF9D040EA0C0093F056
:100A9000000F01F0004C02BF490011F4000F013BB0
:100AA000F9D041EA0C0195E70CEAD15392EA0C0F18
:100AB00008D142027FF47DAF93EA0C0F7FF470AF50
:100AC000084676E793EA0C0F04D14B023FF44CAF93
:100AD00008466EE730F0004C18BF31F0004CCAD128
:100AE00030F000427FF45CAF31F000437FF43CAF64
:100AF0005FE700BF4FF0FF3C06E000BF4FF0010C86
:100B000002E000BF4FF0010C4DF804CD4FEA400267
:100B10004FEA41037FEA226C18BF7FEA236C11D0B1
:100B200001B052EA530C18BF90EA010F58BFB2EB64
:100B3000030088BFC81738BF6FEAE17018BF40F0E4
:100B4000010070477FEA226C02D15FEA402C05D198
:100B50007FEA236CE4D15FEA412CE1D05DF8040B1D
:100B6000704700BF844608466146FFE70FB5FFF7B0
:100B7000C9FF002848BF10F1000F0FBD4DF808ED68
:100B8000FFF7F4FF0CBF012000205DF808FB00BF59
:100B90004DF808EDFFF7EAFF34BF012000205DF8B3
:100BA00008FB00BF4DF808EDFFF7E0FF94BF012000
:100BB00000205DF808FB00BF4DF808EDFFF7D2FFFD
:100BC00094BF012000205DF808FB00BF4DF808ED40
:100BD000FFF7C8FF34BF012000205DF808FB00BF0D
:100BE0004FEA4002B2F1FE4F0FD34FF09E03B3EB3A
:100BF00012620DD94FEA002343F0004310F0004F7A
:100C000023FA02F018BF404270474FF000007047CF
:100C100012F1610F01D1420205D110F0004008BF6E
:100C20006FF0004070474FF00000704742000ED256
:100C3000B2F1FE4F0BD34FF09E03B3EB126209D417
:100C40004FEA002343F0004323FA02F070474FF0CD
:100C50000000704712F1610F01D1420202D14FF042
:100C6000FF3070474FF00000704700BF00F13401C3
:100C700091E838009C46A6464CF8045D90E8FF0FCA
:100C8000E54600BD90EC210B704700BF80EC210BC6
:100C9000704700BF90EC200B704700BF80EC200B2A
:100CA000704700BFD0EC200B704700BFC0EC200B9A
:100CB000704700BFF0EC0201F0EC0211F0EC0221F1
:100CC000F0EC0231F0EC0241F0EC0251F0EC026188
:100CD000F0EC0271F0EC0281F0EC0291F0EC02A178
:100CE000F0EC02B1F0EC02C1F0EC02D1F0EC02E168
:100CF000F0EC02F1704700BFE0EC0201E0EC021101
:100D0000E0EC0221E0EC0231E0EC0241E0EC0251C7
:100D1000E0EC0261E0EC0271E0EC0281E0EC0291B7
:100D2000E0EC02A1E0EC02B1E0EC02C1E0EC02D1A7
:100D3000E0EC02E1E0EC02F1704700BFB0FC0181A1
:100D4000B0FC0191B0FC01A1B0FC01B1704700BF43
:100D5000A0FC0181A0FC0191A0FC01A1A0FC01B1BB
:100D6000704700BFEC4600B52DE900502DE9FF1F8C
:100D70004FF000032DE90C0001A905F099FBDDF807
:100D800040E012B0704700BFEC4600B52DE90050BE
:100D90002DE9FF1F4FF000032DE90C0001A905F01C
:100DA000C7FBDDF840E012B0704700BFEC4600B56D
:100DB0002DE900502DE9FF1F4FF000032DE90C0035
:100DC00001A905F0D5FBDDF840E012B0704700BF87
:100DD000EC4600B52DE900502DE9FF1F4FF0000350
:100DE0002DE90C0001AB05F097FBDDF840E012B0F7
:100DF000704700BFEC4600B52DE900502DE9FF1FFC
:100E00004FF000032DE90C0001AA05F007FCDDF806
:100E100040E012B0704700BF80EA010C1CF0030FE5
:100E200037D110F0030C20F0030021F0030150F83B
:100E3000042B08BF51F8043B0ED08CF0030C6FF06C
:100E40007F434FEACC0C23FA0CFC51F8043B42EAF6
:100E50000C0243EA0C0300BFA2F1013C9A4201BF1D
:100E60002CEA020C1CF0803F50F8042B51F8043B94
:100E7000F2D04FEA02604FEA1222012828BFB0EBFD
:100E8000036F08BF1B0AF4D003F0FF03000EC01A63
:100E9000704710F0030F0AD010F8012B11F8013B36
:100EA000012A28BF9A42F4D0A2EB030070474DF804
:100EB000045D50F8042B01F0030521F0030151F803
:100EC000043B022D26D04DD822F07F45B5EB132FE1
:100ED000A2F1013C2CEA020C0DD11CF0803C08BFB1
:100EE00051F8043B0AD185EA0205B5EB036F0CD13A
:100EF00050F8042BE8E74FEA13235BE03CF07F4C0B
:100F000054D10B784FEA126554E04FEA126503F0B2
:100F1000FF034FE04FEA0245A2F1013C4FEA1545BD
:100F20002CEA020CB5EB134F18D11CF0803C08BF23
:100F300051F8043B07D185EA0205B5EB034F09D10F
:100F400050F8042BE6E75FEA0C4C2FD10B884FEAF0
:100F500012452FE04FEA03434FEA12454FEA13438D
:100F600028E000BF02F0FF05B5EB136FA2F1013CD2
:100F70002CEA020C0DD11CF0803C08BF51F8043B58
:100F80000AD185EA0205B5EB032F0AD150F8042BEC
:100F9000E8E74FEA13630DE012F0FF0F06D051F8B7
:100FA000043B4FEA122523F07F4303E04FF000009B
:100FB00020BC704705F0FF0203F0FF00012828BFA6
:100FC000904204BF2D0A1B0AF4D0A2EB000020BC03
:100FD000704700BF844641EA000313F0030349D180
:100FE000403A23D30B6803604B6843608B6883608F
:100FF000CB68C3600B6903614B6943618B69836193
:10100000CB69C3610B6A03624B6A43628B6A83627A
:10101000CB6AC3620B6B03634B6B43638B6B836362
:10102000CB6BC36340304031403ADBD230320BD31C
:101030000B6803604B6843608B688360CB68C36058
:1010400010301031103AF3D20C3205D351F8043B72
:1010500040F8043B043AF9D2043208D0D2071CBF4E
:1010600011F8013B00F8013B01D30B880380604677
:10107000704700BF082A13D38B07B1D010F00303C9
:10108000AED0C3F10403D21ADB071CBF11F8013B39
:1010900000F8013BA4D331F8023B20F8023B9FE764
:1010A000043AD9D3013A11F8013B00F8013BF9D2D7
:1010B0000B7803704B7843708B7883706046704771
:1010C0000348044B834202D0034B03B118477047D7
:1010D000BC000020BC000020000000000548064BBA
:1010E0001B1AD90F01EBA301491002D0034B03B126
:1010F00018477047BC000020BC0000200000000022
:1011000010B5064C237843B9FFF7DAFF044B13B14F
:101110000448AFF300800123237010BDBC00002001
:10112000000000007C71000808B5054B1BB10549A3
:101130000548AFF30080BDE80840FFF7CFBF00BF10
:1011400000000000C00000207C7100082DE9F04F75
:1011500083B007460E4691461D46DDF8308090F874
:1011600092A0CB18541CA4B200949BB200F0B5FF1F
:1011700078B3BAFA8AFB4FEA5B1B012414E087F8C4
:1011800092A00023009301234A463146384600F0DE
:10119000F6FE0136B6B2640014F0FF0402D108F185
:1011A00001080124013DADB28DB198F80030234211
:1011B000E5D197F89130002BEBD187F892B00093EE
:1011C00001234A463146384600F0D9FEE1E787F868
:1011D00092A003B0BDE8F08F2DE9F04782B08246BF
:1011E000884614461F46BDF828500B9E03F1070998
:1011F000C9F3CC0903EB010C53199BB200931FFAFE
:101200008CF300F06AFF60B90DE000963B46224681
:1012100041465046FFF79AFF4E440134A4B2013DC7
:10122000ADB2002DF1D102B0BDE8F0872DE9F0415B
:1012300082B080460F4614461E46BDF8205001EB92
:10124000030C53199BB200931FFA8CF300F045FF77
:1012500060B90DE0002200923346224639464046EE
:1012600000F08DFE0134A4B2013DADB2002DF1D1EC
:1012700002B0BDE8F0812DE9F04F87B080460C4602
:101280009246BDF84060BDF84470039104931C443D
:10129000A4B29519ADB20095234600F01EFF10B917
:1012A00007B0BDE8F08F039A02EB07091FFA89F92E
:1012B0000AEB070B1FFA8BFBE41BA4B2013CA4B2A0
:1012C000ED1BADB2013DADB2022300933B465A4641
:1012D0004946404600F074FA012300933B465A46C3
:1012E0002146404600F06CFA042300933B462A4610
:1012F0004946404600F064FA082300933B462A46DC
:101300002146404600F05CFA049BDB1B9BB2DB1BD2
:101310009BB209F101091FFA89F90BF1010B1FFAC0
:101320008BFB022B0FD8F61BB6B2F61BB6B2022E01
:10133000B6D9023EB6B20096049B5A46039940467F
:10134000FFF774FFACE7023B9BB27C1CA4B2009495
:101350000593524649464046FFF768FF0094059BB7
:101360002A4649464046FFF761FFDCE72DE9F04F8A
:1013700085B007460C469046BDF838B0BDF83C60D5
:10138000029103931C44A4B202EB0B05ADB200958D
:10139000234600F0A2FE10B905B0BDE8F08F029A16
:1013A00002EB060A1FFA8AFA08EB06091FFA89F906
:1013B000A41BA4B2013CA4B2AD1BADB2013DADB2C1
:1013C0000223009333464A465146384600F0D4F98A
:1013D0000123009333464A462146384600F0CCF9B3
:1013E0000423009333462A465146384600F0C4F998
:1013F0000823009333462A462146384600F0BCF9BC
:10140000039B9B1B9BB29B1B9BB2ABEB0604A4B242
:10141000A41BA4B20AF1010A1FFA8AFA09F1010910
:101420001FFA89F9022B16D8022CB5D9023CA4B2B6
:10143000039B5D1EADB223464A46029E31463846A6
:1014400000F00AFE3146294423464A4689B238460E
:1014500000F002FEA0E7023B9DB20BF1FF3B1FFA3A
:101460008BFB2B4642465146384600F0EDFD08EB1B
:101470000B022B4692B25146384600F0E5FDD3E709
:1014800010B582B003681B7C446B03FB01F1C900FB
:1014900089B20C440094002101F002F902B010BDA1
:1014A0002DE9F041064690F8387090F839500368FD
:1014B00093F8118000242A4621463046FFF7E0FFCA
:1014C0000134E4B20135EDB2A74201D9A845F2D802
:1014D000BDE8F08108B503681B7C90F8382003FB59
:1014E00002F2D2000021406B05F006FD08BD10B5E8
:1014F0000446FFF7D5FF204601F0FFF810BD2DE9A7
:10150000F84380460F4691461C46BDF820609DF882
:10151000245015F0010F0AD115F0020F16D115F065
:10152000080F24D115F0040F32D1BDE8F883B21AA8
:10153000591892B289B200F097FDF21B04EB090131
:1015400092B289B2404600F08FFDE5E7A6EB0902B2
:10155000E11B92B289B2404600F086FDF21BA4EB7B
:10156000090192B289B2404600F07EFDD7E706EB52
:101570000902E11992B289B2404600F075FDBA192C
:1015800004EB090192B289B2404600F06DFDC9E753
:1015900006EB0902E11B92B289B2404600F064FDFD
:1015A000BA19A4EB090192B289B2404600F05CFD81
:1015B000BBE72DE9F04F85B00390894692461E4661
:1015C0009DF838B0C3F1010424B2C3EBC3384FEA2D
:1015D00048080FFA88F8CDF804B000920B4632465E
:1015E0000021FFF78CFF002501271AE0013EB6B26B
:1015F00008F102081FFA88F30FFA88F823441CB296
:101600000135ADB20237BBB23FB223441CB2CDF8B4
:1016100004B0CDF800A04B46324629460398FFF7A8
:101620006EFFB54202D2002CE0DAE9E705B0BDE872
:10163000F08F2DE9F84380460C4617461D46BDF84D
:1016400020909DF8246016F0010F0AD116F0020FC9
:101650001BD116F0080F2DD116F0040F3BD1BDE8B9
:10166000F883531CA9EB020269189BB292B289B2AB
:1016700000F0F2FC631CA9EB0402E9199BB292B2E0
:1016800089B2404600F0E8FCE0E77B1CA9EB0702CA
:10169000291B9BB292B289B2404600F0DDFC631C6C
:1016A000A9EB0402E91B9BB292B289B2404600F05A
:1016B000D3FCCEE77B1C29199BB24A4689B240462F
:1016C00000F0CAFC631CE9199BB24A4689B2404645
:1016D00000F0C2FCC0E77B1C291B9BB24A4689B2C2
:1016E000404600F0B9FC631CE91B9BB24A4689B234
:1016F000404600F0B1FCB2E72DE9F04F85B0039011
:10170000894692461E469DF838B0C3F1010424B2C2
:10171000C3EBC3384FEA48080FFA88F8CDF804B095
:1017200000920B4632460021FFF783FF0025012778
:101730001AE0013EB6B208F102081FFA88F30FFA68
:1017400088F823441CB20135ADB20237BBB23FB2B8
:1017500023441CB2CDF804B0CDF800A04B4632466D
:1017600029460398FFF765FFB54202D2002CE0DA64
:10177000E9E705B0BDE8F08F2DE9F04182B0804681
:101780000E4617461D46CB189BB2AC18A4B20133C7
:10179000521B491B0134A4B200949BB292B289B28D
:1017A00000F09BFC10B902B0BDE8F0819DF820303C
:1017B00000932B463A4631464046FFF7FAFEF2E7E1
:1017C0002DE9F04182B080460E4617461D46CB18E3
:1017D0009BB2AC18A4B20133521B491B0134A4B212
:1017E00000949BB292B289B200F077FC10B902B0BB
:1017F000BDE8F0819DF8203000932B463A463146F3
:101800004046FFF779FFF2E708230370004870476E
:10181000D800002030B585B004460D46009313462D
:10182000084A094900F08CFF0DF10F00FFF7ECFFAB
:1018300001460095054B9DF80F20204600F045FD20
:1018400005B030BDB3240008F525000807210008C5
:10185000405C70474218435C507800EB032080B234
:1018600070470020704738B504460D4600212846D1
:10187000FFF7EEFF207001212846FFF7E9FF6070B7
:1018800002212846FFF7E4FFA07003212846FFF756
:10189000DFFFE07004212846FFF7DAFF2071052101
:1018A0002846FFF7D5FF607106212846FFF7D0FFD5
:1018B000A07107212846FFF7CBFFE07108212846D9
:1018C000FFF7C6FF207209212846FFF7C1FF6072AB
:1018D0000A212846FFF7BCFFA0720B212846FFF71C
:1018E000B7FFE0720C212846FFF7B2FF20730D21ED
:1018F0002846FFF7ADFF60730E212846FFF7A8FFCB
:10190000A0730F212846FFF7A3FFE073102128469C
:10191000FFF79EFF207411212846FFF79BFF60828E
:1019200013212846FFF796FFA08215212846FFF7CE
:1019300091FFE08238BD30B5024690F80CE00468B3
:10194000207840FA0EF05FFA80FC0EEB0103DBB268
:10195000072B0FD9CEF1080E5FFA8EFE651C1560BD
:1019600094F801C00CFA0EFC4CEA000C5FFA8CFCF7
:10197000083BDBB24FF0FF30884013732CEA0000C5
:1019800030BD38B5044600F160050166002380F8DB
:101990006C3090F878102846FFF7CDFF84F86A0085
:1019A00094F879102846FFF7C6FF84F86B0094F886
:1019B000923084F86E30B3FA83F35B0984F86F30A9
:1019C00038BD10B50C46FFF7B6FF013CE4B2012369
:1019D000A340C01A40B210BD012B08D0022B09D081
:1019E00013B1401A80B27047104480B27047084467
:1019F00080B27047801A80B27047012B08D0022B4A
:101A000009D013B1104480B27047084480B27047C7
:101A1000801A80B27047401A80B270472DE9F04FAB
:101A200089B005468A46079290F968305FFA83FBD1
:101A300090F96920D3B2039319E0CDF814A01FE008
:101A400095F86E3085F892300097059B06992846E8
:101A500000F095FAB2453CD3ABEB040454445FFA72
:101A600084FA039B0133DBB203934FF0000B95F92B
:101A70006A40E4B2A4EB0B06F6B2B245DDD305969C
:101A8000B5F866904FFA8BF19DF90C8095F870705F
:101A90003B4642460491B5F86400FFF7AEFF06905E
:101AA0003B46424604994846FFF796FF0246079B8D
:101AB000002BC5D195F86D30002BCBD195F86F3048
:101AC00085F892300097059B0699284600F057FA52
:101AD000C0E70AEB0B0385F8683085F8698009B028
:101AE000BDE8F08F2DE9F04F85B0044600F16005A8
:101AF000FFF747FF94F96B7094F87A102846FFF7C8
:101B000060FF804694F87B102846FFF75AFF064690
:101B100094F87C102846FFF754FF039094F96A90DC
:101B2000B9F1000F55DD3E44F6B2764276B294F834
:101B300070B05B4632464146B4F86400FFF75DFF83
:101B40008246A4F864005B4632464146B4F866001B
:101B5000FFF742FF0246A4F86600BBF1030F68D806
:101B6000DFE80BF0023B495B1FFA89F353449BB259
:101B7000384480B200905146204600F0AEFA40B39F
:101B8000002384F8683084F8693094F87610284689
:101B9000FFF7D1FE804694F877102846FFF7CBFE7A
:101BA0000646002241462046FFF738FF0122314613
:101BB0002046FFF733FF01212846FFF7BCFE00282F
:101BC000EFD194F96930BB42DFDB94F86E3084F8D2
:101BD0009230039805B0BDE8F08FAAEB070189B2F7
:101BE00001310AF101039BB21FFA89F0104480B25F
:101BF0001FFA81FABEE71FFA89F1AAEB010189B247
:101C000001310AF101039BB2C61BB6B201360130A5
:101C100080B2B2B21FFA81FAACE70AEB07039BB2BB
:101C20001FFA89F1411A89B20131013080B28AB2BA
:101C3000A0E753469EE770B50E46846D1734FF2922
:101C400013D8602903D9B0F888301C4406E0402935
:101C500004D9B0F886301C4400E01C44637803B318
:101C60002278B242F9D1A01C1CE0B0F88A301C44A2
:101C7000254600212846FFF7EDFD044402212846B1
:101C8000FFF7E8FD04358642F3D801E0A3781C4451
:101C90002278637853EA022305D09E42F6D1E01CF5
:101CA00000E0002070BD0020FCE710B50446A0F85D
:101CB0006410A0F866201946FFF7BDFF28B1014661
:101CC0002046FFF70FFF80B210BD0020FCE738B5BB
:101CD0000446FFF7B0FFB8B101462046FFF751FEBA
:101CE00004F1600594F87A102846FFF76AFE84F83C
:101CF000900094F87B102846FFF763FE94F87C1060
:101D00002846FFF75EFE38BD0020FCE72DE9F041D4
:101D100004460D46002680F86A6000F050FB6FF024
:101D20003F08374601E03E44B6B263682978204652
:101D300098474FF6FF7398420FD001354FF6FE7368
:101D40009842F2D001462046FFF7C1FF87B218F152
:101D5000400FE8D194F99080E5E794F96A307BB1BF
:101D6000F71BBFB29BB23B449BB294F99060B6B2F2
:101D70001E44B6B2B8F1000F02DDB0441FFA88F677
:101D80003046BDE8F08180F86D107047F8B5044624
:101D90000D4616461F4690F87030032B07D8DFE833
:101DA00003F0020D1217C36D9847304486B23B46CC
:101DB000324629462046FFF778FFF8BDC36D9847A5
:101DC000281A85B2F3E7C36D9847301A86B2EEE75A
:101DD000C36D9847284485B2E9E700002DE9F0413A
:101DE00004460F4616461D4600F0E9FA4FF000087B
:101DF00004E00744BFB240441FFA80F863682978C2
:101E0000204698474FF6FF72904222D001354FF698
:101E1000FE729042F2D00346324639462046FFF722
:101E2000B5FF94F87030032BE5D801A252F823F0E7
:101E3000F31D0008411E0008471E00084D1E000843
:101E40000644B6B2D7E73F1ABFB2D4E7361AB6B2E5
:101E5000D1E74046BDE8F08110B5024C4460FFF781
:101E6000BDFF10BD0F23000810B5024C4460FFF702
:101E7000B5FF10BD25230008836D73B390F9812051
:101E800080F88E2090F9823080F88F3090F88D1095
:101E900019B3012914D000B590F97E1090F980C0D3
:101EA00001EB0C0E724505DAC9B25FFA8CF21144EF
:101EB00080F88E10634501DD80F88FC05DF804FB6B
:101EC00090F983108A4201DA80F88E1090F984200C
:101ED000934202DD80F88F2070477047014BC36545
:101EE000704700BF63180008836D8B4209D010B59E
:101EF000044681657430FFF7B6FC2046FFF7BCFF4F
:101F000010BD704708B5024B4360FFF7FFFE08BDE8
:101F10000F23000880F87010704700B5B0F800E09B
:101F2000B1F800C0F4441FFA8CFCE64505D99E4583
:101F300013D203F1FF3C1FFA8CFC9E450FD294454F
:101F40000FD9964500D372469C4500D8634602805F
:101F50009B1A0B8001205DF804FB9646EDE70020FC
:101F6000F9E70020F7E730B583B0C48F121BC46ACD
:101F70009DF81850009592B2A04703B030BD70B5DF
:101F800084B004469DF82000ADF80E10ADF80C208A
:101F9000ADF80A3094F88C305BB3BDF80A3043B327
:101FA000012B03D9022826D003282DD010F00105DB
:101FB00034D1B4F84C20BDF80C309A4219D8B4F89A
:101FC0004E20934215D2B4F84A30B4F848200DF1AF
:101FD0000A010DF10E00FFF7A0FF50B1236B9E68C0
:101FE0000095BDF80A30BDF80C20BDF80E10204653
:101FF000B04704B070BD8AB2D31A9BB2ADF80E30B0
:102000000133ADF80E30D1E7BDF80C20D31A9BB2E6
:10201000ADF80C300133ADF80C30C7E7B4F8482008
:10202000BDF80E309A42E4D8B4F84A209342E0D288
:10203000B4F84E30B4F84C200DF10A0103A8FFF7B4
:102040006CFF0028CAD1D4E710B582B000240094F8
:10205000FFF795FF02B010BD10B582B001240094C7
:10206000FFF78DFF02B010BDB0F84C3093420BD893
:10207000B0F84E30934207D9B0F848308B4203D8BD
:10208000B0F84A308B4200D8704700B583B00023C7
:1020900000930123FFF773FF03B05DF804FB80F8A2
:1020A0009210022902D9012380F8923070478A42A7
:1020B00005D2834209D89A4209D901207047834248
:1020C00007D99A4207D901207047012070470020A4
:1020D0007047002070470020704770B504460D46D9
:1020E0001E46BDF81030B0F84E10B0F84C00FFF7A7
:1020F000DEFF38B133462A46B4F84A10B4F8480037
:10210000FFF7D5FF70BD70B59DF8105002F0070EB7
:102110004FF0010C0CFA0EFC5FFA8CFC90F8926008
:10212000012E1AD90024012E19D022F007060268C8
:10213000127C06FB02F292B20A44416B1144DDB9F3
:102140000A782243D2B20A7082EA0C0201F8012B0B
:10215000013B9BB2002BF3D170BD6446E3E74FF027
:10216000000CE2E701241BE06400E4B24FEA4C0CEF
:102170005FFA8CFC002BEFD00A782243D2B20A70AF
:1021800082EA0C020A700EF10102013B9BB212F0CE
:10219000070EE9D1428F114490F89220012AE1D92B
:1021A000012AE7D04FF0010CE4E710B5016890F880
:1021B0003830DA0082870A7CD200428790F839E012
:1021C0004FEACE02C28703EB0E0491F811C06445BA
:1021D00003DDACEB0E0C1FFA8CF3DB009BB2A0F816
:1021E0004020A0F842201A44A0F842208B8AA0F890
:1021F0004430CB8AA0F8463010BD08B5FFF7D5FFB4
:1022000008BD10B582B00446B0F856300093B0F85F
:102210005230B0F85420B0F85010FFF75EFF20B9EC
:10222000002384F88C3002B010BD012384F88C3078
:10223000B4F84820B4F850309A4201D2A4F848309B
:10224000B4F84A20B4F852309A4201D9A4F84A307E
:10225000B4F84C20B4F854309A4201D2A4F84C306F
:10226000B4F84E20B4F856309A42DCD9A4F84E3077
:10227000D9E708B50022A0F84820B0F84420A0F81B
:102280004A20B0F84020A0F84C20B0F84220A0F836
:102290004E20FFF7B6FF08BD10B582B09DF8104084
:1022A0000094FFF760FE02B010BD08B50022A0F850
:1022B0005020A0F854204FF6FF72A0F85220A0F84A
:1022C0005620036B5B68984708BD70B50446049EB2
:1022D00000258565C362416380F8382080F8395055
:1022E00080F86D5080F8915080F88D50012380F86F
:1022F000923080F893300663336898472046FFF7A2
:10230000D4FF2046FFF7EAFD84F8705070BD084600
:1023100011B10A2903D070474FF6FF7070474FF68E
:10232000FF70704702460B4600293FD00A2940D073
:1023300090F8261061BBFB2B09D8F72B10D8EF2B98
:1023400014D8DF2B18D8BF2B1CD81846704705218E
:1023500080F8261003F0010313844FF6FE707047D7
:10236000042180F8261003F00303F5E7032180F829
:10237000261003F00703EFE7022180F8261003F090
:102380000F03E9E7012180F8261003F01F03E3E7BC
:102390000139C9B280F82610008C800180B2108407
:1023A00003F03F031843108431B970474FF6FF70B4
:1023B00070474FF6FF7070474FF6FE70F5E7002349
:1023C00080F82630704710B50A46046900232021A2
:1023D000A04710BD10B5134604690A461721A0474F
:1023E00010BD00B583B08DF807100DF10702012173
:1023F000FFF7F0FF03B05DF804FB10B50A46C468B0
:1024000000231521A04710BD10B50A46C46800235B
:102410001621A04710BD10B51346C4680A461721FF
:10242000A04710BD10B5C46800231A461821A04764
:1024300010BD10B5C46800231A461921A04710BD6D
:1024400070B582B006460D4616E015290CD202B0D2
:1024500070BDFE29FBD122788DF807202921304656
:1024600000F052F9023507E022788DF80720F46871
:1024700000233046A04702352C4614F8011B1929C9
:10248000E7D818290ED21629DFD91729DFD12378EA
:102490008DF807300DF1070201213046FFF7BBFF31
:1024A0000235E9E7F56800231A463046A847254675
:1024B000E2E72DE9F04104460D4616461F46A1F11C
:1024C0001403052B22D8DFE803F018030C151818A5
:1024D0000021FFF778FF31462046FFF782FF0120F9
:1024E00012E00021FFF76FFF31462046FFF779FF2A
:1024F000012009E00121FFF766FFD4F810803B4678
:10250000324629462046C047BDE8F0810020FBE75F
:10251000F8B5064615461C460B39042960D8DFE895
:1025200001F0035F0E21300022B92E49FFF788FF2A
:10253000012025E02C49FFF783FF012020E042B96C
:102540002A49FFF77DFF33689B7C86F82230012003
:1025500016E02749FFF774FF3368DB7C86F82230EA
:1025600001200DE0FFF75EFF81213046FFF745FFB8
:1025700029463046FFF748FF3046FFF75AFF012053
:10258000F8BDFFF74FFF6379DB00DBB296F82270EE
:102590001F44FFB240213046FFF72FFF390941F0B9
:1025A00010013046FFF729FF07F00F013046FFF713
:1025B0002BFFA17941F0B0013046FFF725FF2179CB
:1025C000C900226801F0F8013046FFF724FF6A1EB7
:1025D00012F0FF05F3D13046FFF72BFF0120CFE7C4
:1025E0000020CDE7F87F0008F07F0008E87F0008B2
:1025F000E07F000838B505460C46FFF789FF90B923
:10260000092C0AD00A2C0FD1284600F018F80749E7
:102610002846FFF715FF012006E00549284600F08F
:1026200009F8012000E0012038BD00BF008000084B
:10263000C87F000801608B7C80F82230704710B59D
:10264000044600231A462821D0F814C0E04700238E
:102650001A4614212046D4F80CC0E04701224B2131
:10266000204600F051F823681A792921204600F00D
:102670004BF800224B21204600F046F823681A79D7
:102680002921204600F040F801224B21204600F08D
:102690003BF823685A792921204600F035F810BD0F
:1026A00010B582B08DF805108DF806208DF8043035
:1026B000049B009384686B4601220F21A04702B05F
:1026C00010BD10B5846800231A460921A04710BD2B
:1026D00010B5846800231A460A21A04710BD10B522
:1026E0000A46846800230B21A04710BD10B50A4696
:1026F000846800230E21A04710BD10B58468002314
:102700001A461021A04710BD10B544690023A04708
:1027100010BD00207047000000230360074A82605C
:10272000C2600261426180F8233080F82630836104
:10273000FF2380F8243080F82830704713270008E2
:10274000F8B504460F4616461D46FFF7E5FFA7609D
:10275000E6602561069B63612046FFF7B2FFF8BD86
:1027600008B50821014803F025FC08BD7C2600209F
:1027700008B501F007FE01F0F6FD01F0BDFD0648C9
:1027800001F090FE00F02CFA00F056FA01F018FD6E
:1027900001F0C6FCFCE700BF4825002000B583B06F
:1027A0000A4B5A6942F001025A615B6903F0010366
:1027B0000193019B002211460F2002F0EFF80F2039
:1027C00002F0FCF803B05DF804FB00BF001002400B
:1027D0002DE9F04389B000240494059406940794ED
:1027E0004D4B9A6942F010029A619A6902F0100208
:1027F0000092009A9A6942F020029A619A6902F066
:1028000020020192019A9A6942F004029A619A693F
:1028100002F004020292029A9A6942F008029A6156
:102820009B6903F008030393039BDFF8F0902246B3
:102830004FF40051484602F06CFB394E224648F2F4
:102840000431304602F065FB01221821304602F0C7
:1028500060FBDFF8D08022464FF48051404602F002
:1028600058FB4FF400530493012505950694022765
:10287000079704A9484602F037FA04230493059504
:102880000697079704A9304602F02EFA18230493FE
:10289000059506950323079304A9304602F024FA10
:1028A000C02304930594069404A9304602F01CFA50
:1028B0004FF4406304930594069404A9404602F043
:1028C00013FA4FF48053049305950695079704A9CE
:1028D000404602F009FA4FF44073049305950694BC
:1028E000079504A9304602F0FFF94FF40043049322
:1028F00005950694079704A9304602F0F5F94FF4C0
:10290000007304930594069504A9404602F0ECF97F
:1029100009B0BDE8F08300BF001002400010014084
:1029200000080140000C014008B5484B1B78022B01
:102930001FD85AB2002A36D1D3B94021444802F0F8
:10294000E1FA20B18021424802F0DCFA58B9402176
:102950003F4802F0D7FA01281DD080213C4802F000
:10296000D1FA01281BD000233A4A13703A4A137057
:1029700008BD032BFCD14021354802F0C3FA0028E2
:10298000F6D08021324802F0BDFA0028F0D02F4B5B
:1029900000221A70ECE72D4B01221A70DDE72B4B59
:1029A00002221A70DFE74021294802F0ABFA40BB4F
:1029B000294B1B7813B9284B01221A70254A13782A
:1029C0000133DBB21370642BD2D9244B01221A706D
:1029D00040211F4802F096FA10B9214B02221A70CA
:1029E00080211B4802F08EFA10B91D4B04221A7088
:1029F0000023184A1370184A1370144B03221A70DC
:102A0000B6E78021124802F07DFA0028D0D0124BA0
:102A10001B78012B05D000230C4A1370104A137049
:102A2000A6E70A4B1B78012B08D0022B0AD00B4BD0
:102A300001221A70054B03221A7099E7084A0121F6
:102A40001170F2E7064B03221A70F0E7E004002051
:102A500000080140DD040020DC040020DF04002029
:102A6000DE04002072B6FEE700B591B028220021F6
:102A700006A804F041FA0023019302930393049300
:102A80000593012206924FF4803307934FF40031EF
:102A900008910A9202220D920E934FF4E0130F93C5
:102AA00006A802F053FA80B90F2301930221029184
:102AB000002303934FF480620492059301A802F06F
:102AC0008BFC20B911B05DF804FBFFF7CBFFFFF7DB
:102AD000C9FF08B501F0E4FEFFF7C6FFFFF778FE77
:102AE000FFF75CFE01F008FD01F072FE01F0DEFD73
:102AF000FFF73EFEFEE70000012800D070474FF6CA
:102B0000FF739942FAD10D4B012283F87A200421F8
:102B100083F87B1083F87C2083F87D20084B094ADA
:102B20001A60094A5A60094B1970094B0D2283F843
:102B30002220102283F82320E0E700BFB4240020E5
:102B40008024002000009C42000070420C240020E1
:102B5000E4040020014B1860704700BF18050020F6
:102B6000014B5860704700BF18050020014B98606A
:102B7000D960704718050020034B5A68135CB3FAFC
:102B800083F35B091354704718050020F8B50F460E
:102B900016461C46104D0146284604F029FA2F75AA
:102BA00045F80D6C05F8094C9DF8183005F8083CFF
:102BB0009DF81C3005F8073C089B45F8053C9DF83E
:102BC000243005F8013C054B002283F87A200122CD
:102BD00083F87B20F8BD00BFF1040020B42400205E
:102BE000144BFF2283F87E20322083F87F003C21A3
:102BF00083F88010192283F8812083F8820083F8FB
:102C000083101E2183F8841083F88520962283F890
:102C10008620012283F8872083F8882083F8892082
:102C200083F88A20002183F88B1083F88C1083F8B6
:102C30008D207047B4240020084B0422DA700C2247
:102C40001A7103225A7107229A715222DA710A22EA
:102C50001A7212225A7208229A727047B424002003
:102C60000C4B00221A700C4B0022DA610B4A1A62DC
:102C70000B4ADA600B4A1A610B4A5A610B4A9A6195
:102C80000B4A5A620B4A9A621A68DA625A681A63E5
:102C9000704700BFB42400208024002000001042B0
:102CA000000098420000604200008242000038426A
:102CB000000070C20000A04010B582B00A4C002194
:102CC0002046FFF7ECF940230093802300221146B1
:102CD0002046FEF7ABFA054B042283F87B20012245
:102CE00083F87C2002B010BD48250020B4240020C9
:102CF00008B50248FFF72EFF08BD00BF0000002006
:102D000008B50249881EFFF731FF08BD0200002008
:102D100008B50249881EFFF729FF08BD03000020FF
:102D2000034B0022C3F8DC2E024AC3F8E02E7047A2
:102D3000281500200000BC4210B5044C2046FFF7C7
:102D400009FF2046FFF70CFF10BD00BF3225002011
:102D500010B5074C00236362064BE36294F823002E
:102D6000FDF720FD2063044B042283F87B2010BD77
:102D7000E4040020000008C2B424002008B5184B69
:102D800093F87920013283F8792000201870154AD1
:102D9000002191604FF0834CC2F80CC01161916129
:102DA000D16683F87B0093F87A30023B062B07D874
:102DB000DFE803F00406070A0D101300FFF750FFC9
:102DC00008BDFFF795FFFBE7FFF79AFFF8E7FFF76E
:102DD0009FFFF5E7FFF7A4FFF2E7FFF7ADFFEFE78F
:102DE000B42400200C24002008B5154B93F879205A
:102DF0009918002081F86500124902F1060E01EBD6
:102E00008E0E4FF0000CCEF804C0013A83F8792002
:102E10001870C1F808C04FF08342CA60C1F86CC096
:102E200083F87B0093F87A30012B02D0022B03D079
:102E300008BDFFF741FFFBE7FFF712FFF8E700BF10
:102E4000B42400200C240020F8B504461746056879
:102E50000E6831462846FDF791FE50B931462846A6
:102E6000FDF7EEFB20F000400E49FDF791FE08B1A2
:102E70002660F8BD29463046FDF7E2FB06460A4BC0
:102E80003B4493F87E00FDF791FC0849FDF796FD61
:102E900001463046FDF792FD01462846FDF7D2FB7C
:102EA0002060E6E79A99193EB424002000002041F2
:102EB000544B93F88D30002B55D0524B93F87D3006
:102EC000013B032B47D8DFE803F0122234440133DF
:102ED0009BB24D4A12889A4267D913F0010FF6D07F
:102EE0004A4A1168CA5C02F0AA02CA54EFE70023FA
:102EF000EFE701339BB2444A12889A4255D913F046
:102F0000010FF6D0414A12680021D154F1E70023A5
:102F1000F1E701339BB23C4A12889A4245D913F03B
:102F2000010FF6D1394A1168CA5C02F05502CA5441
:102F3000EFE70023EFE701339BB2334A12889A424E
:102F400033D913F0010FF6D1304A12680021D15461
:102F5000F1E70023F1E72B4B042283F87B200022CA
:102F600083F87D2021E0274B93F87D30013B032B34
:102F70003FD8DFE803F01221333C01339BB2224AF1
:102F800012889A4211D913F0010FF6D01F4A116826
:102F9000CA5C42F0AA02CA54EFE70023EFE701330C
:102FA0009BB2194A12889A42F9D8164A92F87D3093
:102FB000013382F87D3070470023F2E701339BB282
:102FC000114A12889A42F0D913F0010FF6D10F4A34
:102FD0001168CA5C42F05502CA54EFE70023EFE7DC
:102FE00001339BB2084A12889A42F9D8DDE70023E0
:102FF000F8E7044B042283F87B20002283F87D202D
:10300000D3E700BFB424002042250020442500203F
:103010002DE9F04383B081460D46CA4C012221467A
:10302000201FFFF711FF012204F10801201DFFF707
:103030000BFF012204F1100104F10C00FFF704FF63
:103040000122A4F10801A4F10C00FFF7FDFE01220A
:10305000A4F11001A4F11400FFF7F6FEDFF8E882F6
:1030600001214046FFF71BF8B8494046FEF73CFFF8
:10307000B74F97F879303B4493F8653059F82310EF
:103080004046FEF73FFFC0F1800303EBD3735E10B1
:1030900097F879303B4493F8653059F82390E0680D
:1030A000FDF7C4FD4B4682B2B1B24046FEF7D4FEF6
:1030B0003B78002B40F05281A4F12006F068FDF728
:1030C000B5FD062382B204214046FEF7BDFF4FF056
:1030D0007E51F068FDF7B6FAFDF7A8FD82B2052132
:1030E0004046FEF7C1FF4FF08041F068FDF7AAFAB5
:1030F000FDF79CFD82B206214046FEF7B5FF4FF07A
:103100007E51F068FDF79CFAFDF790FD82B2052133
:103110004046FEF7A9FF4FF08041F068FDF790FAB6
:10312000FDF784FD82B206214046FEF79DFFF06860
:10313000FDF77CFD062382B276214046FEF784FF30
:103140004FF07E51F068FDF77DFAFDF76FFD82B21A
:103150007A214046FEF788FF4FF08041F068FDF786
:1031600071FAFDF763FD82B279214046FEF77CFFDC
:103170004FF07E51F068FDF763FAFDF757FD82B21C
:103180007A214046FEF770FF4FF08041F068FDF76E
:1031900057FAFDF74BFD82B279214046FEF764FFF6
:1031A0004FF08041F068FDF74DFAFDF73FFD092330
:1031B00082B210214046FEF747FF4FF08041F06891
:1031C000FDF740FA4FF08141FDF73AFAFDF72EFD89
:1031D00004270097052382B212214046FEF726F805
:1031E0004FF08041F068FDF72DFAFDF71FFD092330
:1031F00082B267214046FEF727FF4FF08041F0681A
:10320000FDF720FA4FF08141FDF71AFAFDF70EFDA8
:103210000097052382B269214046FEF707F8002493
:1032200009E04C4B5869FDF7DBFC82B2A1B246487D
:10323000FEF71AFF0134802C15DC621E14F0070F14
:103240000CBF0123002312F0070F08BF43F0010356
:10325000A21E12F0070F0CBF01220022002BE9D1A1
:10326000002ADED0E6E7002427E0394B93F87920E6
:10327000134493F86500374EF769201AFDF796FA64
:103280003946FDF7E7FA3449FDF7DCF9FDF7A8FC0C
:103290003081304BB3F90860586AFDF7A1FCC4EBEC
:1032A000041305EBC30301931E23009382B2B1B252
:1032B0002548FDF791FF0134E4B2254B93F87A20BD
:1032C00013445B78A34223D9214B93F88730002B1A
:1032D000CBD0204FFE692046FDF768FA3146FDF756
:1032E000B9FA1D49FDF7AEF90646194B93F8792056
:1032F000134493F8653003EBC3039800FDF756FAC7
:1033000001463046FDF79CF9FDF76AFC3881C0E7BD
:10331000104B196AD869FDF731FC002800F0B08025
:103320000B4B01221A7093F87920134493F86530FF
:103330006FF0230003FB00F0FDF738FA054B18622D
:10334000D8619DE0A0240020482500209471000849
:10335000B42400208024002000004442524C062364
:10336000382204212046FEF76FFE3922052120462F
:10337000FEF77AFE3A2206212046FEF775FE372236
:1033800005212046FEF770FE362206212046FEF774
:103390006BFE0623382276212046FEF755FE3922A1
:1033A0007A212046FEF760FE3A2279212046FEF778
:1033B0005BFE37227A212046FEF756FE362279211F
:1033C0002046FEF751FE09233A2210212046FEF73F
:1033D0003BFE042600960523362212212046FDF7E7
:1033E00025FF09233A2267212046FEF72DFE00968D
:1033F0000523362269212046FDF718FF002405E049
:103400002E22A1B22848FEF72FFE0134802C15DCB5
:10341000621E14F0070F0CBF0123002312F0070FE8
:1034200008BF43F00103A21E12F0070F0CBF0122D8
:103430000022002BE9D1002AE2D0E6E7002418E0C0
:103440001A4BD869FDF7CCFB81B204EBC40301EB46
:10345000830189B2C4EB041305EBC303313101933B
:103460001E230093052289B20F48FDF7B5FE0134F3
:10347000E4B20F4B93F87A2013445B78A342DFD871
:1034800002210948FEF70BFE094B93F88D3013B16A
:1034900003B0BDE8F083402300938023002211464F
:1034A0000148FDF7C3FEF3E74825002080240020F3
:1034B000B424002000B583B0074B5A8802320123A0
:1034C00001930C23009392B25F210448FDF74EFF55
:1034D00003B05DF804FB00BF0C2400204825002049
:1034E00000B583B0064B5A8805320623009392B28A
:1034F00062210448FDF79AFE03B05DF804FB00BFAB
:103500000C2400204825002038B505460C46144BF5
:103510005A880C3250F8213092B204211148FEF73B
:103520009BFC55F824301B782B2B02D03D2B0CD064
:1035300038BDFFF7BFFF0C4B5B68234413F8013C19
:10354000012BF5D1FFF7CCFFF2E7FFF7B3FF064BF6
:10355000DB681B78A342EBD1FFF7C2FFE8E700BFAF
:103560000C24002048250020180500202DE9F043F8
:1035700083B006460D46A04CA0492046FEF7B4FC99
:103580009F4F97F879303B4493F8653056F82310F5
:103590002046FEF7B7FC9B4C0830FDF707F9606149
:1035A00097F879303B4493F865907B195878013847
:1035B000FDF7FCF801464FF08540FDF7FFF9804626
:1035C0004846FDF7F3F84146FDF744F9FCF704FFE0
:1035D00002F092FDFCF7E0FF2067022204F10C01EB
:1035E00004F10800FFF730FC022204F1140104F199
:1035F0001000FFF729FC97F87910063104EB8101E0
:103600000222043104F11800FFF71EFC022204F12B
:10361000700104F16C00FFF717FC23795BB197F898
:103620007930063304EB83035968A069FDF7A6FAE5
:1036300008B100222271704C01212046FEF72FFDB7
:10364000052300227B212046FEF7FEFC05233F22B6
:103650007B212046FEF7F8FC402300227D212046F6
:10366000FEF7FAFC674BD86EFDF7E0FA80B20090E7
:10367000052300227B212046FDF7D8FD604B1B78F7
:10368000002B40F0A08000241EE05D4B93F8797081
:103690003B4493F86500DFF86C81D8F80890201A55
:1036A000FDF784F84946FDF7D5F8063708EB87079C
:1036B0007968FCF7C7FFFDF793FAA8F802002146E6
:1036C0003046FFF721FF01344D4B2B445B78A3427A
:1036D00027DD4B4B93F88830002BD6D0DFF82481C0
:1036E000D8F808702046FDF761F83946FDF7B2F8C2
:1036F0008146434B93F879703B4493F86500000191
:10370000FDF754F801464846FCF79AFF063708EBE8
:1037100087077968FCF796FFFDF762FAA8F80200C0
:10372000CDE7384BD9689868FDF728FA68B3344A72
:103730000123137092F879301A4492F86500C0EBB7
:103740000070304C063304EB83035D680001FDF725
:103750002DF82946FCF776FFE060A06015E0294FC0
:10376000D7F808802001FDF721F84146FCF76AFFF1
:10377000FDF736FA788021463046FFF7C5FE013462
:103780001F4B2B445B78A342E9DC1B4D02212846EA
:10379000FEF785FC1B4B9E691869FDF747FA84B25A
:1037A0003046FDF743FA0021019110230093234690
:1037B00082B22846FDF75FFD114B93F88D3023B19F
:1037C00003B0BDE8F0830024DAE7402300938023B0
:1037D000002211462846FDF729FD094B93F87A305F
:1037E0000BB1072BECD1402300938023002211461C
:1037F0000148FDF71BFDE3E7482500209471000810
:10380000B42400200C2400202DE9F04182B0664B46
:10381000197B9868FFF7AAFE644B93F88B30002B56
:1038200040F0B080624D63492846FEF75DFB5E4C78
:10383000236818786779C01BFCF7B8FF0646207923
:10384000C01BFCF7B3FF01463046FDF7B7F85A49F5
:10385000FDF700F8214641F8280F032204F1240067
:10386000FFF7F2FA032204F1300104F12C00FFF714
:10387000EBFA00212846FEF712FC94F82280E06A59
:10388000FDF7AEF90227019720260096662382B243
:1038900041462846FDF7EFFC01212846FEF7FFFBD5
:1038A00094F82280E06AFDF79BF901970096662361
:1038B00082B241462846FDF759FD94F82260E06A3D
:1038C000FDF78EF982B2143201230193072300938E
:1038D0005C2392B2711D2846FDF748FD94F82270D2
:1038E000E06AFDF77DF986B2606AFDF79FF906F19F
:1038F00016020323009383B292B2F91D2846FDF706
:1039000095FC94F82270E06AFDF76AF982B204F13E
:103910000D060E32334692B2791D2846FEF7A4FA00
:1039200094F82270E06AFDF75BF982B20E322368E8
:1039300092B207F14E012846FEF796FA1F4930462B
:10394000FDF76AFA00B302211948FEF7A8FB174BEE
:1039500093F88D30FBB102B0BDE8F0816FF05500F7
:1039600002400A7001339BB2154A12889A427FF6D0
:1039700059AF144A1268D118D25C13F0010FEDD17F
:103980005520EDE70023EFE7084B93F87E1028461B
:10399000FEF7ACFED7E740230093802300221146B8
:1039A0000348FDF743FCD6E7E4040020B4240020DC
:1039B00048250020947100080000B04238800008BB
:1039C000422500204425002010B53A4B1B78012BDE
:1039D00039D0032B1CD101224FF48051364801F01D
:1039E00098FA364B1B789BB1344B93F879201344EB
:1039F00093F865306BB131490A44013B82F8653078
:103A00002F4C3049206AFCF71DFE20620023A37270
:103A100010BD2A4B93F889308BB1284B93F87A105C
:103A2000194449780139134483F865106FF0230075
:103A300001FB00F0FCF7BAFE214B1862E8E7204BCF
:103A400001229A72E4E700224FF480511A4801F0F3
:103A500060FA1A4B1B78002BDAD0184B93F87910C8
:103A60005A1892F8652093F87A0003445B78013B7A
:103A70009A420DDA114B0B44013283F86520104C49
:103A80001049206AFCF7DCFD20620023A372BFE727
:103A90000A4B93F8893043B1084B0B44002283F85A
:103AA0006520074B00221A62B2E7054B01229A7289
:103AB000AEE700BFDE040020000C0140B42400206B
:103AC0008024002000001042664B1B79002B40F040
:103AD000C8802DE9F041644B1B78012B66D0032B85
:103AE00040F09A80614B93F87940234493F8653015
:103AF00083BB5E4B93F88A30002B00F08D805B4BCC
:103B00001B78002B00F08880564901230B71574A1F
:103B100092F87A3013445B78581E224482F865008C
:103B20000A7893420CD90D46A21D01EB820250493E
:103B30005160C3F104031801FCF738FEE8606BE044
:103B4000013B0634474A02EB84041801FCF72EFEC1
:103B5000606061E0454A127842B3013BD8B2434B02
:103B6000234483F86500FCF721FE05463D4BDE68E3
:103B70004FF076513046FCF76DFE00F100412846CB
:103B8000FDF706F838B14FF083413046FCF75AFD97
:103B9000344BD86040E00634324B03EB84044FF0E2
:103BA00083416068FCF74CFD606035E02F4B93F873
:103BB00079401A1992F8650093F87A2013445B78DB
:103BC000013B98422AD0294B1B782BB30130C0B25D
:103BD000264B234483F865000130FCF7E7FD0546DA
:103BE000204B93F80080DF684FF076513846FCF7A1
:103BF00031FE06464046FCF7D9FD3146FCF720FD74
:103C000001462846FCF7E2FF00B34FF083413846F7
:103C1000FCF716FD134BD860BDE8F081134B93F809
:103C20008A30002BF8D0114B1B78002BF4D00D4BB1
:103C300001221A710D4A2244002182F865100022E7
:103C4000DA60063403EB84035A60E5E70634054B7B
:103C500003EB84044FF083416068FCF7F3FC606081
:103C6000DAE770470C240020DE040020B424002092
:103C70000000404210B5FFF7C7FD224BDC6A224925
:103C80002046FCF77BFF20B11E4B1A7B1F4B83F8AD
:103C90007A201F4B1B78012B00D010BD194B196BDC
:103CA0002046FCF76BFF0028F7D017492046FCF7A9
:103CB00065FF0028F1D1164B00221A70154B1B78B6
:103CC000013B032BE9D8DFE803F002180D180D4A79
:103CD00011680B7812799342DFD20A4A9279134421
:103CE0000B70DAE7074A11680B7852799342D4D9FE
:103CF000044A92799B1A0B70CFE7024B024A1A636F
:103D0000CBE700BFE4040020000008C2B424002078
:103D1000DF040020DE04002008B50B4B93F87C3054
:103D200083B1FEF701FE094B1B78012BF5D1002270
:103D3000064B1A70044B83F87C20022283F87A2009
:103D400083F87B2008BD00BFB4240020DF040020DE
:103D500008B527492748FFF75BF9274B1B78012B4C
:103D600000D008BD244B00221A70244B1B78032B73
:103D70000FD0042B10D0012B0BD0214B9B7A002BA2
:103D8000EFD1204B1B78002BEBD01D4B1A68DA6269
:103D9000E7E7FFF719FEF0E71A4B93F87920134491
:103DA00093F86530032BE8D8DFE803F0020A121A13
:103DB000144B012283F87A20032283F87B20DCE76E
:103DC000104B032283F87A20022283F87B20D4E769
:103DD0000C4B072283F87A20022283F87B20CCE761
:103DE000084B082283F87A20022283F87B20C4E75C
:103DF000948000089C000020DF040020DE040020E6
:103E000080240020B424002008B503211B48FFF7BC
:103E1000ADFB1B4B1B78012B00D008BD184B0022BB
:103E20001A70184B1B78013B032BF6D8DFE803F020
:103E30000205020CFFF748FEEFE7134B93F87920D9
:103E40001344002283F865200F4B93F87920134424
:103E500093F865304BB10B2BDFD10B4B042283F869
:103E60007A20022283F87B20D7E7074B022283F8CF
:103E70007A20032283F87B20CFE700BF6C0000206C
:103E8000DF040020DE040020B424002000B585B04B
:103E900008217148FFF76AFB704B1B78012B02D099
:103EA00005B05DF804FB6D4B00221A706C4B1B785B
:103EB000013B032BF4D8DFE803F00205020CFFF707
:103EC00003FEEDE7674B93F879201344002283F853
:103ED0006520644B93F87920134493F86530112BD7
:103EE000DED8DFE803F009111F2D3C4B5A697887B3
:103EF00095999DA1A5A9ADB15A4B022283F87A20CC
:103F0000032283F87B20CBE708230393524B0293D1
:103F10000523019300210091FF23534A5348FEF7E4
:103F200035FEBDE7082303934B4B0293012101911A
:103F30000A23009364234E4A4E48FEF727FEAFE75C
:103F400008230393444B0293012301930A23009314
:103F50006423494A02214948FEF718FEA0E70823D6
:103F600003933D4B0293012301930A23009364239F
:103F7000434A03214348FEF709FE91E708230393D0
:103F8000354B0293012301930A23009364233E4A95
:103F900004213E48FEF7FAFD82E7082303932E4BE7
:103FA0000293012301930A2300936423384A0521D5
:103FB0003848FEF7EBFD73E708230393264B029383
:103FC0000123019300230093FF23334A0621334842
:103FD000FEF7DCFD64E7082303931F4B02930123E4
:103FE000019300230093FF232D4A07212D48FEF75C
:103FF000CDFD55E708210391174B0293012301934F
:1040000000230093FF23284A2848FEF7BFFD47E717
:104010000920FEF7B1FD43E70A20FEF7ADFD3FE7BB
:104020000B20FEF7A9FD3BE70C20FEF7A5FD37E7C7
:104030000D20FEF7A1FD33E70E20FEF79DFD2FE7D3
:104040000F20FEF799FD2BE7064B092283F87A2013
:10405000022283F87B2023E724000020DF040020D5
:10406000DE040020B424002032250020388000081F
:1040700033250020448000083425002050800008AB
:10408000352500205C80000836250020648000086B
:10409000372500207080000838250020788000082F
:1040A00039250020848000083A2500208C800008F3
:1040B00008B509211648FFF759FA164B1B78012B52
:1040C00000D008BD134B00221A70134B1B78013B24
:1040D000032BF6D8DFE803F00205020CFFF7F4FC2F
:1040E000EFE70E4B93F879201344002283F8652004
:1040F0000A4B93F87920134493F86530002BE0D1F4
:10410000064B082283F87A20032283F87B20D8E725
:1041100004000020DF040020DE040020B42400207E
:1041200008B52548FDF7E3F9244B93F87B30042BC1
:1041300006D8DFE803F00306090C0F00FEF7B8FE0F
:1041400008BDFEF705FEFBE7FEF718FEF8E7FEF7F1
:104150004BFEF5E71848FDF7BDF9184B93F87A3098
:10416000092BEDD801A252F823F000BF95410008B9
:104170009B410008A1410008A741000841410008F7
:10418000414100084141000841410008AD4100089B
:10419000B3410008FFF76EFDD2E7FFF7BDFDCFE7A3
:1041A000FFF7D6FDCCE7FFF72FFEC9E7FFF76EFE5E
:1041B000C6E7FFF77DFFC3E748250020B4240020B1
:1041C00010B50A4C0A4B93F87E102046FEF78EFA83
:1041D000626B084B1A6094F838302268127C02FB3C
:1041E00003F3DB00044A138010BD00BF4825002004
:1041F000B4240020442500204225002008B54FF6B5
:10420000FF710120FEF778FC08BD000008B52929E0
:1042100003D0492905D0012008BD104600F064FBF9
:10422000F9E70421014800F074FEF4E700080140BA
:1042300038B50446A1F1140CBCF10C0F08D8DFE826
:104240000CF0360707091A280707070707071400A5
:10425000002038BD1946174801F046FA154BDB8E91
:104260009BB2002BFAD10120F3E71021124800F095
:1042700050FE0120EDE703681A784921FEF744FA61
:1042800065692268002392782C212046A8470120E6
:10429000DFE702680023D2782C214569A84723680C
:1042A0005A7849212046FEF72FFA0120D1E7012054
:1042B000CFE700BF202600200008014000B583B0F2
:1042C0008DF8070001290DD000221021084800F0C8
:1042D00020FE01220DF10701064801F005FA03B0A6
:1042E0005DF804FB01221021014800F012FEF0E706
:1042F000000801402026002038B500250AE00121F1
:104300000020FFF7DBFF0134E4B214F0800FF6D099
:104310000135EDB2072D0FD8A5F150000021C0B234
:10432000FFF7CCFF00210220FFF7C8FF002110207B
:10433000FFF7C4FF0024E8E738BD10B50446A1F13B
:1043400050000021C0B2FFF7B9FF0234C4F30310DC
:10435000002140F01000FFF7B1FF002104F00F0032
:10436000FFF7ACFF10BD08B500218D20FFF7A6FFB9
:1043700000211420FFF7A2FF0021AF20FFF79EFFCE
:1043800008BD000010B5464C01220821204600F06F
:10439000C0FD642000F0A8FA00220821204600F0A9
:1043A000B8FD642000F0A0FA01220821204600F0A8
:1043B000B0FD0021AE20FFF781FF00212020FFF794
:1043C0007DFF00211020FFF779FF0021B020FFF7CB
:1043D00075FF0021C820FFF771FF00210846FFF795
:1043E0006DFF00211020FFF769FF00214020FFF73B
:1043F00065FFCF218120FFF761FF00217F20FFF7BC
:104400005DFF0021A120FFF759FF0021A620FFF743
:1044100055FF0021A820FFF751FF00213F20FFF7A3
:104420004DFF0021A420FFF749FF0021D320FFF713
:1044300045FF00210846FFF741FF0021D520FFF787
:104440003DFF0021F020FFF739FF0021D920FFF7C1
:1044500035FF00212220FFF731FF0021DA20FFF78E
:104460002DFF00211220FFF729FF0021DB20FFF79D
:1044700025FF00212020FFF721FF00218D20FFF7DD
:104480001DFF00211420FFF719FF0021AF20FFF7C7
:1044900015FFFFF731FF00210846FFF74EFF10BD63
:1044A0000008014000B583B001900F4B0F4A10493E
:1044B000FDF7B0F901A8FEF70BF9002101A8FEF7FE
:1044C0000EF901210198FDF75EFC00210198FDF72E
:1044D00021FD08490198FDF707FD01A8FCF7FAFF47
:1044E00003B05DF804FB00BF0D4200083142000834
:1044F000BC7F00089471000808B50E480E4B03609D
:104500004FF48273436000238360C3600222026120
:10451000012242614FF400728261C361036243620F
:1045200083620A23C36201F083F800B908BDFEF775
:1045300099FAFBE7202600200038004010B586B02D
:10454000002302930393049305930268214B9A423C
:1045500001D006B010BD044603F5EC33DA6942F42D
:104560008042DA61DA6902F480420092009A9A6924
:1045700042F008029A619B6903F008030193019BD2
:104580004FF420430293022303930323059302A9CC
:10459000114800F0A9FB1148114B03601023436040
:1045A000002383608022C260036143618361C36131
:1045B00000F03CFA58B9094BA3645C620022114632
:1045C000242000F0EBF9242000F0F8F9C1E7FEF711
:1045D00049FAF0E700380040000C0140DC250020DB
:1045E0005800024082B00E4B9A6942F001029A6173
:1045F0009A6902F001020092009ADA6942F0805250
:10460000DA61DB6903F080530193019B054A53682B
:1046100023F0E06343F00073536002B0704700BFC3
:104620000010024000000140FEE7FEE7FEE7FEE763
:10463000FEE770477047704708B50D4A137801339D
:10464000DBB213700A2B08D80A4B1B685BB1013B25
:10465000084A136000F036F908BDFEF765F9044B0F
:1046600000221A70F0E7012BF4D8FEF779F8F1E791
:1046700078260020D804002008B5024800F092FAFD
:1046800008BD00BFDC25002008B5024801F024FA6F
:1046900008BD00BF7C26002008B5024801F0E6F8FE
:1046A00008BD00BF202600207047000000B587B07D
:1046B00000230293039304930593009301931548F9
:1046C0004FF08042026047224260836042F20F72E4
:1046D000C2600361836101F0F7FA90B94FF480532F
:1046E000029302A90B4801F0E9FB68B9002300938B
:1046F00001936946074801F09FFC40B907B05DF897
:1047000004FBFEF7AFF9E9E7FEF7ACF9EEE7FEF7D9
:10471000A9F9F3E7C42600200368B3F1804F00D065
:10472000704782B003F50433DA6942F00102DA61BE
:10473000DB6903F001030193019B02B070470000A5
:1047400002680E4B9A4200D0704700B583B003F563
:104750000233DA6942F00402DA61DB6903F0040330
:104760000193019B002201211E2000F017F91E2059
:1047700000F024F903B05DF804FB00BF000800401E
:1047800000B587B000230293039304930593026856
:104790000D4B9A4202D007B05DF804FB03F50233DB
:1047A0009A6942F008029A619B6903F00803019339
:1047B000019B4FF48073029302230393059302A994
:1047C000024800F091FAE6E700080040000C0140C2
:1047D00000B58BB0002308930993019302930393D0
:1047E00004930593069307931848194A02604722D9
:1047F0004260836040F2F312C2600361836101F0A2
:104800008FFAC8B900230893099308A90F4801F04B
:1048100013FCA0B960230193002302930393059333
:10482000082201A9094801F0D5FA58B90748FFF74D
:10483000A7FF0BB05DF804FBFEF714F9E2E7FEF703
:1048400011F9E7E7FEF70EF9F0E700BF7C2600203C
:104850000008004010B504460E4B1A784FF47A73E6
:10486000B3FBF2F30C4A1068B0FBF3F000F0B4F8BD
:1048700068B90F2C01D901200AE0002221464FF02F
:10488000FF3000F08BF8054B1C60002000E0012099
:1048900010BD00BFB0000020AC000020B40000201C
:1048A00008B5074A136843F010031360032000F0B3
:1048B00063F80F20FFF7CEFFFFF794FE002008BD3E
:1048C00000200240034A1168034B1B780B4413601D
:1048D000704700BF0C270020B0000020014B186873
:1048E000704700BF0C27002038B50446FFF7F6FFDD
:1048F0000546B4F1FF3F02D0044B1B781C44FFF780
:10490000EDFF401BA042FAD338BD00BFB00000202D
:10491000002808DB0901C9B200F1604000F56140E0
:1049200080F80013704700F00F000901C9B2014B75
:104930001954704714ED00E000B500F00700C0F115
:10494000070CBCF1040F28BF4FF0040C031D062B0D
:104950000FD9C31E4FF0FF3E0EFA0CF021EA000102
:1049600099400EFA03FE22EA0E0241EA02005DF8C7
:1049700004FB0023EEE70000074AD36823F4E0635A
:104980001B041B0C000200F4E060034343F0BF6310
:1049900043F40033D360704700ED00E010B50446E7
:1049A000054BD868C0F30220FFF7C6FF014620463A
:1049B000FFF7AEFF10BD00BF00ED00E0002807DBF1
:1049C00000F01F02400901239340024A42F82030C0
:1049D000704700BF00E100E00138B0F1807F0BD2EA
:1049E0004FF0E0235861054AF02182F8231000209F
:1049F000986107221A6170470120704700ED00E0BE
:104A000030B40124056CAC40C56B6C600468636015
:104A10004368102B05D0036899600368DA6030BCE6
:104A2000704703689A600368D960F8E760B310B410
:104A300002460168154B0B441548A0FB03031B09F4
:104A40009B001364134BD363022382F82130086860
:104A500020F47F5020F03000536894682343D468DA
:104A60002343146923435469234394692343D4693A
:104A7000234303430B6000209063012382F821301D
:104A800082F8200010BC704701207047F8FFFDBF7E
:104A9000CDCCCCCC0000024038B5044690F82000C4
:104AA000012831D0012084F8200094F82100012849
:104AB00004D0002384F82030022038BD022084F87E
:104AC00021000020A0632568286820F001002860EC
:104AD0002046FFF795FFE36A5BB12268136843F055
:104AE0000E0313602268136843F001031360002073
:104AF000E3E72268136823F0040313602268136855
:104B000043F00A031360EDE70220D6E708B590F8FA
:104B10002130022B03D004238363012008BD0268E7
:104B2000136823F00E0313600268136823F0010377
:104B300013600368194A934214D0143293421FD071
:104B4000143293421ED0143293421ED01432934238
:104B50001ED01432934202D04FF0807203E04FF423
:104B6000801200E001220E4B5A60012380F82130B0
:104B7000002380F82030436B6BB198470020CDE7CD
:104B80001022F0E74FF48072EDE74FF48052EAE72D
:104B90004FF48032E7E70020C0E700BF0800024082
:104BA0000000024038B5C36B1A6804682568016CC0
:104BB00004238B40134235D015F0040F32D0236804
:104BC00013F0200F03D1236823F00403236003684C
:104BD000434A934214D01432934218D01432934271
:104BE00017D01432934217D01432934217D0143294
:104BF000934202D04FF0806203E04FF4800200E065
:104C00000422384B5A60C36A03B1984738BD40222A
:104C1000F7E74FF48062F4E74FF48042F1E74FF496
:104C20008022EEE702238B4013423CD015F0020FA6
:104C300039D0236813F0200F06D1236823F00A032C
:104C40002360012380F821300368254A934214D061
:104C5000143293421CD0143293421BD0143293422C
:104C60001BD0143293421BD01432934202D04FF027
:104C7000007203E04FF4001200E00222194B5A6068
:104C8000002380F82030836A002BBFD09847BDE70F
:104C90002022F3E74FF40072F0E74FF40052EDE703
:104CA0004FF40032EAE708238B401342AED015F0F0
:104CB000080FABD0236823F00E032360026CC16B96
:104CC000012303FA02F24A60836380F82130002353
:104CD00080F82030036B002B98D0984796E700BFF0
:104CE000080002400000024070B582B00024A446D3
:104CF000A2E07E4DAB4210D007D97D4DAB420CD027
:104D000005F58035AB4208D013E0A5F58015AB4220
:104D100003D005F57025AB4207D18B68002B55D029
:104D2000012B4ED04261082403E0A5F58015AB426B
:104D3000F3D0BEF1FF0F4BD806464FEA8C02336822
:104D40000F25954023EA050304FA02F2134333606A
:104D50004B6813F0805F6DD0664B9A6942F0010298
:104D60009A619B6903F001030193019B4FEA9C0246
:104D7000951C614B53F825600CF00305AD000F2323
:104D8000AB4026EA03065D4B984228D003F58063CA
:104D9000984200F08D8003F58063984200F08A808D
:104DA00003F58063984218D0042319E0CC68C0E76B
:104DB000CC680434BDE7CC680834BAE7CC680C345E
:104DC000B7E702610824B4E70024B2E70424B0E79F
:104DD000061DACF108029200B1E7032300E00023B6
:104DE000AB4033430232444D45F822304B6813F454
:104DF000803F61D0424A136843EA0E0313604B6858
:104E000013F4003F5ED03E4A536843EA0E035360FA
:104E10004B6813F4801F5BD0394A936843EA0E0352
:104E200093604B6813F4001F58D0354AD36843EAA7
:104E30000E03D3600CF1010C0B6833FA0CF253D063
:104E4000012202FA0CF203EA020E32EA0303F1D164
:104E50004B68122B3FF64DAF122B3FF66AAF01A500
:104E600055F823F01B4D0008AD4D0008B74D000864
:104E7000C94D0008334D0008334D0008334D00087C
:104E8000334D0008334D0008334D0008334D000802
:104E9000334D0008334D0008334D0008334D0008F2
:104EA000334D0008334D0008B14D0008BD4D0008DA
:104EB000012395E7022393E7114A136823EA0E03BF
:104EC00013609CE70E4A536823EA0E0353609FE782
:104ED0000B4A936823EA0E039360A2E7084AD3685B
:104EE00023EA0E03D360A5E702B070BD00002210D4
:104EF0000000311000100240000001400008014095
:104F0000000401408368194201D00120704700204D
:104F100070470AB1016170470904016170470000E0
:104F200082B0084B1B68084AA2FB03235B0A00FB04
:104F300003F3019300BF019B5A1E0192002BF9D18C
:104F400002B07047AC000020D34D6210002800F082
:104F5000F18170B582B00446036813F0010F2CD0C4
:104F6000994B5B6803F00C03042B1DD0964B5B68D8
:104F700003F00C03082B12D06368B3F5803F41D0D7
:104F8000002B55D103F1804303F504331A6822F452
:104F900080321A601A6822F480221A6037E08A4B45
:104FA0005B6813F4803FE7D0874B1B6813F4003F26
:104FB00003D06368002B00F0BF81236813F0020F59
:104FC00075D0814B5B6813F00C0F5FD07E4B5B6834
:104FD00003F00C03082B54D02369002B00F08A80C7
:104FE0007A4B01221A60FFF779FC0546764B1B6865
:104FF00013F0020F75D1FFF771FC401B0228F5D9A1
:1050000003209EE1704A136843F4803313606368A1
:1050100043B3FFF763FC05466B4B1B6813F4003F7B
:10502000CBD1FFF75BFC401B6428F5D9032088E156
:10503000B3F5A02F09D0644B1A6822F480321A60AD
:105040001A6822F480221A60E1E703F18043A3F595
:105050003C331A6842F480221A601A6842F48032A3
:105060001A60D4E7FFF73AFC0546574B1B6813F468
:10507000003FA2D0FFF732FC401B6428F5D9032083
:105080005FE1514B5B6813F4803FA5D14E4B1B6829
:1050900013F0020F03D02369012B40F04F814A4ADD
:1050A000136823F0F803616943EAC10313602368BE
:1050B00013F0080F33D0A369002B5CD0434B0122BF
:1050C000C3F88024FFF70AFC05463F4B5B6A13F0E8
:1050D000020F21D1FFF702FC401B0228F5D9032063
:1050E0002FE1394A136823F0F803616943EAC103E9
:1050F0001360DCE7354B00221A60FFF7EFFB054633
:10510000314B1B6813F0020FD1D0FFF7E7FB401BB8
:105110000228F5D9032014E10120FFF701FF2368DD
:1051200013F0040F00F09680274BDB6913F0805FCB
:1051300034D1254BDA6942F08052DA61DB6903F041
:1051400080530193019B0125214B1B6813F4807F41
:1051500026D0E368012B3DD0002B53D103F18043CF
:1051600003F504331A6A22F001021A621A6A22F065
:1051700004021A6233E0154B0022C3F88024FFF7C3
:10518000ADFB0546104B5B6A13F0020FC7D0FFF76B
:10519000A5FB401B0228F5D90320D2E00025D3E768
:1051A0000B4A136843F480731360FFF797FB0646BE
:1051B000074B1B6813F4807FCBD1FFF78FFB801B5D
:1051C0006428F5D90320BCE00010024000004242F0
:1051D000007000405F4A136A43F001031362E36802
:1051E00033B3FFF77BFB06465A4B1B6A13F0020FE3
:1051F0002FD1FFF773FB801B41F288339842F3D91C
:1052000003209EE0052B09D0524B1A6A22F00102BE
:105210001A621A6A22F004021A62E0E74D4B1A6A17
:1052200042F004021A621A6A42F001021A62D6E7D8
:10523000FFF754FB0646474B1B6A13F0020F08D0DA
:10524000FFF74CFB801B41F288339842F3D90320CF
:1052500077E0E5B9E369002B72D03E4A526802F06C
:105260000C02082A56D0022B17D03B4B00221A669C
:10527000FFF734FB0446374B1B6813F0007F47D021
:10528000FFF72CFB001B0228F5D9032059E0314A17
:10529000D36923F08053D361DCE72F4B00221A66D9
:1052A000FFF71CFB05462B4B1B6813F0007F06D055
:1052B000FFF714FB401B0228F5D9032041E0236AC5
:1052C000B3F5803F1AD023494B6823F47413226A44
:1052D000606A024313434B601F4B01221A66FFF7BB
:1052E000FDFA04461B4B1B6813F0007F0ED1FFF73D
:1052F000F5FA001B0228F5D9032022E0154A53686D
:1053000023F40033A1680B435360DCE7002018E06E
:10531000002016E0012B16D00E4B5B6803F48031A1
:10532000226A914211D103F47013626A93420ED142
:10533000002006E001207047012002E0012000E08B
:10534000002002B070BD0120FBE70120F9E7012039
:10535000F7E700BF001002400000424286B0194B40
:105360000FCB0DF1180C0CE90F0040F20123ADF842
:105370000430154B5A6802F00C03042B1CD0082B88
:105380001CD1C2F3834318336B4413F8100C12F48E
:10539000803F0DD00C4B5B68C3F3404318336B4424
:1053A00013F8143C094A02FB00F0B0FBF3F006E0EE
:1053B000074B03FB00F002E0044800E0054806B09C
:1053C000704700BF94870008001002400024F400DA
:1053D00000093D0000127A00002800F0A08070B59E
:1053E0000D460446524B1B6803F007038B420BD259
:1053F0004F4A136823F007030B431360136803F04D
:1054000007038B4240F08D80236813F0020F17D002
:1054100013F0040F04D0474A536843F4E063536029
:10542000236813F0080F04D0424A536843F46053D2
:105430005360404A536823F0F003A1680B43536064
:10544000236813F0010F31D06368012B20D0022BA9
:1054500025D0384A126812F0020F64D035494A68E4
:1054600022F0030213434B60FFF738FA0646314B34
:105470005B6803F00C036268B3EB820F16D0FFF792
:105480002DFA801B41F288339842F0D9032045E081
:10549000284A126812F4003FE0D101203EE0254A7C
:1054A000126812F0007FD9D1012037E0204B1B6831
:1054B00003F00703AB420AD91D4A136823F0070320
:1054C0002B431360136803F00703AB422DD123680D
:1054D00013F0040F06D0174A536823F4E063E16821
:1054E0000B435360236813F0080F07D0114A536829
:1054F00023F46053216943EAC1035360FFF72EFF91
:105500000C4B5B68C3F303130B4AD35CD8400B4BC3
:1055100018600B4B1868FFF79DF9002070BD012043
:1055200070470120FAE70120F8E70120F6E700BF05
:10553000002002400010024084870008AC000020D8
:10554000B40000202DE9F04782B005468846174692
:105550001E46FFF7C3F90A9B1B1A03EB0609FFF768
:10556000BDF98246284B1B68C3F3CB3309FB03F319
:1055700001932B689C6838EA04040CBF01230023C4
:10558000BB423DD0B6F1FF3FF3D0FFF7A7F9A0EB48
:105590000A00484507D2019A02B14A46019B013BE5
:1055A00001939146E5E72A68536823F0E0035360CE
:1055B0006B68B3F5827F0BD0AB6AB3F5005F14D094
:1055C000012385F85130002385F85030032018E07E
:1055D000AB68B3F5004F02D0B3F5806FECD12A6809
:1055E000136823F040031360E6E72A68136823F486
:1055F000005313602A68136843F400531360DFE715
:10560000002002B0BDE8F087AC00002010B582B0E9
:1056100004460B46009200228021FFF793FF08B951
:1056200002B010BD636D43F0200363650320F7E70C
:10563000002856D010B50446436A33B94368B3F521
:10564000827F05D00023C36102E000230361436130
:105650000023A36294F85130002B3CD0022384F83D
:1056600051302268136823F040031360636803F429
:105670008273A26802F404421343E26802F40062F7
:105680001343226902F002021343626902F001022D
:105690001343A26902F400721343E26902F0380274
:1056A0001343226A02F080021343A26A02F40052FA
:1056B000216813430B60638B226803F0040353607B
:1056C0002268D36923F40063D3610020606501235D
:1056D00084F8513010BD84F850302046FEF72EFF7C
:1056E000BCE701207047000038B590F85030012B1E
:1056F00061D00446012380F8503090F85150EDB24B
:105700009D4252D1002951D0002A4FD0032380F866
:1057100051300023436501638286C28683634364FC
:1057200003648387C3878368B3F5004F2AD0A36CD3
:10573000224ADA62A36C224A9A62A36C214A1A6353
:10574000A36C00225A632268E38E9BB20C32216B59
:10575000A06CFFF7A1F90146F8B923681A6812F0A6
:10576000400F03D11A6842F040021A602268536861
:1057700043F0200353602268536843F002035360F0
:105780000D4613E00268136823F0400313600268BB
:10579000136843F480431360C9E7636D43F010035B
:1057A0006365012384F8513000E00225002384F86A
:1057B0005030284638BD0225FBE700BFCD57000812
:1057C000FB570008D95700087047704708B5406A72
:1057D000FFF7FBFF08BD704708B5406A02685368D1
:1057E00023F003035360436D43F01003436501232B
:1057F00080F85130FFF7EFFF08BD30B583B00546A4
:10580000446AFFF76BF82B681B6813F0200F23D155
:10581000024621684B6823F020034B6021684B68E7
:1058200023F002034B6064212046FFF7EFFE18B11E
:10583000636D43F020036365A36833B90193236864
:10584000DA6801929B680193019B0023E3860123A0
:1058500084F85130636D23B92046FFF7B5FF03B0DC
:1058600030BD2046FFF7B7FFF9E7000010B584B060
:10587000044602685168936803F0410001285AD039
:1058800013F0020F02D011F0800F5BD113F0600F04
:105890005BD011F0200F58D013F0400F0FD094F8C8
:1058A0005100C0B2032852D0606D40F00400606522
:1058B00000200190D068019090680190019813F049
:1058C000200F0CD0636D43F0010363650023039345
:1058D00093680393136823F040031360039B636D85
:1058E000002B32D02268536823F0E0035360012379
:1058F00084F8513011F0030F31D02268536823F03F
:1059000003035360E36C4BB1174A5A63E06CFFF733
:10591000FDF818B1636D43F040036365A36CA3B158
:10592000114A5A63A06CFFF7F1F870B1636D43F050
:105930004003636509E011F0400FA1D0236C2046BD
:10594000984702E0636C2046984704B010BD0023DE
:105950000293D368029393680293029BF5E7204673
:10596000FFF739FFF1E700BF6D59000808B5406A3D
:105970000023C387C386FFF72EFF08BD30B4036A38
:1059800023F001030362026A4568836923F073030D
:105990000C681C4322F002028B6813430B4A9042AE
:1059A00006D0456084614A684263036230BC704738
:1059B00023F00803CA681A4322F0040325F4407553
:1059C0004A692A438D691543EBE700BF002C01406B
:1059D00030B4036A23F480730362036A4468C269C3
:1059E00022F073020D68154323F400738A6843EABA
:1059F00002230D4A904206D04460C5614A68C263E2
:105A0000036230BC704723F40063CA6843EA022390
:105A100023F4806324F440544A6944EA02148A69F6
:105A200044EA0214E8E700BF002C014030B4036AE6
:105A300023F480530362036A4468C26922F4E64295
:105A40000D6842EA052223F400538D6843EA0533CA
:105A5000074DA84206D04460C2614A6802640362EE
:105A600030BC704724F480444D6944EA8514F2E761
:105A7000002C014010B4036A046A24F0010404629B
:105A8000846924F0F00C4CEA021223F00A030B4361
:105A90008261036210BC704710B4036A23F01003E4
:105AA00003628469036A24F4704C4CEA023223F0E6
:105AB000A00343EA01138261036210BC704783684C
:105AC00023F070030B4343F0070383607047704774
:105AD000704770477047704710B5044603681A69ED
